:020000022000DC
:106000000000012035620200656202006762020042
:10601000696202006B6202006D6202000000000013
:106020000000000000000000000000006F6202009D
:1060300071620200000000007362020075620200DB
:10604000796202007B6202007D620200B5020500F7
:10605000816202008362020079720200876202009C
:10606000896202008B6202000D7502008F620200DD
:106070009162020093620200956202009762020040
:106080009962020099F20400F7F902009F6202008F
:10609000D9F20400A36202007D3A0400A762020064
:1060A000A9620200AB620200AD620200AF620200B0
:1060B000B1620200B36202007762020077620200FE
:1060C000B5620200B7620200B9620200BB62020060
:0C60D000BD620200BF620200C16202005B
:1060DC00354936480A1A02D0072291438D46344975
:1060EC0034480A1A06D00722914381F30988022208
:1060FC0082F3148830483149314A00F043F8314872
:10610C003149324A00F03EF831483249324A00F007
:10611C0039F832483249334A00F034F832483349BE
:10612C00334A00F02FF833483349344A00F02AF848
:10613C0033483449344A00F025F8344834490022B5
:10614C0000F02BF833483449002200F026F833488D
:10615C003349091A082903DB00220260043001606C
:10616C001F482049884205D00268043003B4904788
:10617C0003BCF7E700208646EC4600200021294AA4
:10618C009047FEE7884207D0521A05D003780130B9
:10619C000B700131013AF9D17047884202D002707C
:1061AC000130FAE7704700000000012000F80020E1
:1061BC000000012000000120F8290500C832002051
:1061CC0030340020C4620200C46202009C1305003B
:1061DC00F8290500C8320020C8320020C41305007D
:1061EC00C4130500C4130500C4130500C413050033
:1061FC00C4130500C4130500C4130500F6290500DB
:10620C00602B050030340020303400203034002066
:10621C00D46B0020D46B0020D46B0020D46B0020F6
:10622C00D46F00203574020008484FF007018843F2
:10623C008546074880470748016841F470010160B2
:10624C00BFF34F8FBFF36F8FFFF742BF00000120EA
:10625C00D13D040088ED00E0FEE7FEE7FEE7FEE737
:10626C00FEE7FEE7FEE7FEE7FEE7FEE7FEE7FEE7FA
:10627C00FEE7FEE7FEE7FEE7FEE7FEE7FEE7FEE7EA
:10628C00FEE7FEE7FEE7FEE7FEE7FEE7FEE7FEE7DA
:10629C00FEE7FEE7FEE7FEE7FEE7FEE7FEE7FEE7CA
:1062AC00FEE7FEE7FEE7FEE7FEE7FEE7FEE7FEE7BA
:0862BC00FEE7FEE7FEE700BF6C
:1062C40080B483B000AF0346FB71094997F90730E6
:1062D4005B09FA7902F01F02012000FA02F241F888
:1062E400232000BF0C37BD465DF8047B704700BF18
:1062F40000E100E080B483B000AF03463960FB7175
:1063040097F90730002B0BDA0D49FB7903F00F03E3
:10631400043B3A68D2B25201D2B20B441A7609E075
:10632400084997F907303A68D2B25201D2B20B4405
:1063340083F8002300BF0C37BD465DF8047B70472B
:1063440000ED00E000E100E080B400AFBFF34F8F48
:106354000549054BDB6803F4E062044B1343CB604F
:10636400BFF34F8F00BFFDE700ED00E00400FA0526
:1063740041DF704700BF184680B483B000AFEFF32D
:1063840010833B603B687B6072B67B6818460C37B1
:10639400BD465DF8047B704780B400AF62B600BFB1
:1063A400BD465DF8047B704780B584B000AF78606B
:1063B400FFF7E2FFF860164B9B68002B1BD1144BD0
:1063C40001229A60134BD3F88020134B1340104AD8
:1063D4001360104B104AC3F880200E4BD3F884305E
:1063E4000B4A53600B4B4FF0FF32C3F884207B6899
:1063F40000221A7002E07B6801221A70FB68002BED
:1064040001D1FFF7C9FF002318461037BD4680BDF0
:10641400E869002000E100E0FC06FFBD80B584B01F
:1064240000AF0346FB710F4B9B68002B15D0FB7923
:10643400002B12D1FFF7A0FFF8600B4A094B1B6831
:106444001360094A074B5B685360064B00229A604D
:10645400FB68002B01D1FFF79FFF0023184610377C
:10646400BD4680BDE869002000E100E080B584B04D
:1064740000AF78607B68002B0AD0074B43F0010320
:10648400FB607B689B01BB60FB68B868984700E0D1
:1064940000BF1037BD4680BDF015050080B483B041
:1064A40000AF78604FF0A04318460C37BD465DF846
:1064B400047B704780B584B000AF7860084611460D
:1064C4001A460346FB700B46BB7013467B703B1D9C
:1064D4001846FFF7E3FFF8607A68F978BB785B0049
:1064E40019437B789B0019433B7E1B0219433B7F76
:1064F4001B041943FB6802F5E07243F8221000BF45
:106504001037BD4680BD80B584B002AF78600023EB
:106514000193002300930023012201217868FFF7EF
:10652400C9FF00BF0837BD4680BD80B584B002AF47
:1065340078600B46FB70FA780023019300230093E4
:106544001346002200217868FFF7B4FF00BF083724
:10655400BD4680BD80B584B000AF78603B1D184651
:10656400FFF79CFFF8607B68012202FA03F31946E7
:10657400F86800F027F800BF1037BD4680BD80B52D
:1065840084B000AF78603B1D1846FFF787FFF860C2
:10659400F86800F00AF802467B6822FA03F303F075
:1065A400010318461037BD4680BD80B483B000AFE8
:1065B40078607B68D3F8103518460C37BD465DF813
:1065C400047B704780B483B000AF786039607B6827
:1065D4003A68C3F80C2500BF0C37BD465DF8047B50
:1065E4007047000080B400AF034BD3F8043518465D
:1065F400BD465DF8047B704700B000407ADF704709
:1066040000BF18467CDF704700BF184680B586B0CF
:1066140000AF786007F10F031846FFF7C5FE7861F5
:106624007B69002B04D00C4A612178691DF056FF68
:106634007B689847FB7B1846FFF7F0FE38613B699F
:10664400002B04D0044A632138691DF047FF00BFC2
:106654001837BD4680BD00BFC413050080B483B0A5
:1066640000AF786039607A683B68D31A002B03DA8C
:106674003A687B68D31A02E07A683B68D31A1846F2
:106684000C37BD465DF8047B704780B582B000AF1F
:1066940078607B68002B0AD04FF47A70FFF7E6FE2F
:1066A4007B68013B7B607B68002BF5D100E000BF79
:1066B4000837BD4680BD80B582B000AF78603960D0
:1066C400786807F08EFB00BF0837BD4680BD80B5F3
:1066D40000AF012026F03AFC6420FFF7D6FF01202A
:1066E40026F066FC00BF184680BD000090B58DB052
:1066F40002AF3B4B1B6803F48043002B14D0394B8F
:106704001B68032B10DD384B002B01D0374C00E005
:10671400374CFFF767FF0246364B00931346772248
:10672400214604200BF066FA07F12003184616F000
:106734003BFF2B4B1B6803F48043002B16D0294BE3
:106744001B68032B12DD284B002B01D0274C00E0E3
:10675400274CFFF747FF02463B8C0193264B0093DF
:1067640013467922214604200BF044FA3B1D0022F3
:106774001A605A609A60DA601A615A619A61232336
:10678400BB60FF233B734FF4FA63BB614FF4FA73AE
:10679400FB6102233B714FF4FA73BB6080233B73AC
:1067A40028233B6105233B754FF4C873BB614FF449
:1067B400C873FB613B1D1946012026F02BFC78624F
:1067C4007B6A002B04D00A4A8221786A1DF086FE77
:1067D4004FF49670FFF759FF00BF2C37BD4690BDAC
:1067E400A8330020AC3300205714050058140500CA
:1067F400EC130500601405007C14050080B588B016
:1068040000AF3B4600221A605A609A60DA601A614F
:106814005A619A6123237B60FF233B724FF4FA632E
:106824007B614FF4FA73BB6101233B704FF4FA733D
:106834007B60FF233B722823FB6005233B744FF4EA
:10684400C8737B614FF4C873BB613B461946012092
:1068540026F0E0FBF861FB69002B04D0044A922186
:10686400F8691DF03BFE00BF2037BD4680BD00BF68
:10687400EC13050080B500AF012026F099FB00BFA2
:1068840080BD000090B587B002AF7860012026F08B
:106894008FFB1C4B1B6803F48043002B18D01A4B4E
:1068A4001B68032B14DD194B002B01D0184C00E09E
:1068B400184CFFF797FE02467B680F331B78019351
:1068C400154B00931346A022214604200BF092F9A5
:1068D4007B680F331B785AB2104B1A70104B00228E
:1068E40045F69A11184628F065FDF860FB68BB6010
:1068F400BB68002B02D0B8681DF08EFD00BF1437B2
:10690400BD4690BDA8330020AC33002057140500C9
:1069140058140500EC130500941405008C34002071
:106924009034002080B483B000AF7860034B1B78B0
:1069340018460C37BD465DF8047B7047CD34002003
:1069440090B585B002AF78600B46FB70184B1B689E
:1069540003F48043002B16D0164B1B68032B12DD67
:10696400154B002B01D0154C00E0154CFFF73AFEF7
:106974000246FB780193134B00931346AF22214642
:1069840004200BF037F9FB78002B06D0012026F009
:10699400DDFA0D4B01221A7005E0012026F008FBF8
:1069A400094B00221A70FB7818460C37BD4690BD7F
:1069B400A8330020AC3300205714050058140500F8
:1069C400EC130500A4140500CD34002090B583B069
:1069D40002AF104B1B6803F48043002B14D00E4B02
:1069E4001B68032B10DD0D4B002B01D00C4C00E079
:1069F4000C4CFFF7F7FD02460B4B00931346C022E5
:106A0400214604200BF0F6F80EF038FE00BF0437E0
:106A1400BD4690BDA8330020AC33002057140500B8
:106A240058140500EC130500BC14050080B582B0B1
:106A340000AF78607B681B781C2B01D1FFF7C6FF81
:106A44007B681B780A2B01D1FFF741FE7B681B781A
:106A5400022B01D1FFF73BFE00BF0837BD4680BDC6
:106A640080B582B000AF0C4B1B88BA1D1146184686
:106A740013F0BCFA0346002B06D1FB884FF6FF72D5
:106A8400934203D1002302E0002300E001231846CF
:106A94000837BD4680BD00BFBC34002090B587B028
:106AA40002AF7860304B1B6803F48043002B16D090
:106AB4002E4B1B68032B12DD2D4B002B01D02D4CCC
:106AC40000E02D4CFFF78EFD02467B6801932B4BB3
:106AD40000931346EA22214604200BF08BF8FFF7BB
:106AE400BFFF0346002B1CD00023FB607B68012BF7
:106AF40034D8234B1B78002B14BF01230023DBB2B3
:106B040083F00103DBB203F00103DAB21C4B1A7009
:106B14001B4B1B78052219461A4825F093F9F86097
:106B24001DE0114B1B6803F48043002B17D00F4B5F
:106B34001B68032B13DD0E4B002B01D00D4C00E022
:106B44000D4CFFF74FFD02460F4B009313464FF4D5
:106B54008272214604200BF04DF800E000BF00BF14
:106B64001437BD4690BD00BFA8330020AC330020CD
:106B74005714050058140500EC130500D81405003B
:106B8400CE340020BC340020EC14050080B584B061
:106B940000AF78607B682F2B08DD7B68342B05DC25
:106BA4007B68303BFB60F868FFF778FF00BF103765
:106BB400BD4680BD90B585B002AF78600B46FB70D2
:106BC40013463B80274B1B6803F48043002B15D0EE
:106BD400254B1B68002B11DD244B002B01D0244CCA
:106BE40000E0244CFFF7FEFC0246234B00931346BF
:106BF4004FF48A72214601200AF0FCFFFB78012B36
:106C040007D0022B26D0002B07D11C4B01221A706F
:106C140023E01A4B00221A701FE0124B1B6803F486
:106C24008043002B18D0104B1B68002B14DD0F4B36
:106C3400002B01D00E4C00E00E4CFFF7D3FC0246B3
:106C44000F4B0093134640F22712214601200AF00D
:106C5400D1FF01E000BF00E000BF00BF0C37BD461C
:106C640090BD00BFA8330020AC33002057140500AA
:106C740058140500EC13050010150500CE3400204F
:106C84002C15050090B585B002AF03463960FB8032
:106C94000F4B1B6803F48043002B15D00D4B1B686E
:106CA400002B11DD0C4B002B01D00C4C00E00C4CE4
:106CB400FFF798FC02460B4B0093134640F22D124B
:106CC400214601200AF096FF00BF0C37BD4690BD57
:106CD400A8330020AC3300205714050058140500D5
:106CE400EC1305004015050090B587B002AF334B97
:106CF4001B6803F48043002B15D0314B1B68032B16
:106D040011DD304B002B01D02F4C00E02F4CFFF74E
:106D140069FC02462E4B009313464FF499722146A8
:106D240004200AF067FF2B4B2B4A5A60294B2B4A4D
:106D34009A600021274825F0C7F9F860FB68002B0A
:106D440005D0224A40F23511F8681DF0C7FB214BEB
:106D54001B88184613F0D6FAB860BB68002B05D020
:106D64001A4A4FF49B71B8681DF0B8FB1C4B1D4ABE
:106D74005A601B4B1C4A9A600121194825F032F8CD
:106D840078607B68002B05D0104A4FF49D717868B9
:106D94001DF0A4FB124B1B88184613F0B3FA38609D
:106DA4003B68002B05D0094A40F23B1138681DF0BE
:106DB40095FB00BF1437BD4690BD00BFA83300202B
:106DC400AC3300205714050058140500EC130500DB
:106DD4005C150500B03400202969020045690200F1
:106DE400BC340020B96B0200896C020080B590B0FD
:106DF40000AF1D4B1B687B6207F1240107F12803D8
:106E04000422184600F00AFCF863FB6B002B05D043
:106E1400164A4FF4A271F86B1DF060FB3B46242226
:106E2400002118462AF054FA01233B700723FB7013
:106E340007233B7207F12803FB600D4B3B610D4BAD
:106E44003B623B460C4918460EF01EFBB863BB6B15
:106E5400002B05D0054A40F24D11B86B1DF03EFBE6
:106E640000BF4037BD4680BD7C150500EC1305000E
:106E7400316A0200ED6C0200CC34002080B586B08B
:106E840000AF3B78012262F303033B703B7801229D
:106E940062F307133B703B46062217491846FFF777
:106EA400B1FB78617B693B613B69002B02D0386997
:106EB4001DF0B2FA3B1D0822002118462AF008FAF8
:106EC400C823BB804FF44873FB8000233B814FF4FD
:106ED400C8737B813B1D1846FFF790FB78617B6983
:106EE400FB60FB68002B02D0F8681DF095FA00BF28
:106EF4001837BD4680BD00BF8015050090B589B028
:106F040002AF294A07214FF4C0400AF057FE274B2D
:106F14001B6803F48043002B15D0254B1B68032BFF
:106F240011DD244B002B01D0234C00E0234CFFF750
:106F340059FB0246224B0093134640F26B12214642
:106F440004200AF057FE1CF0DBFC78617B693B618E
:106F54003B69002B02D038691DF05EFA00237B6088
:106F64003B1D194601201CF009FE78617B69FB601A
:106F7400FB68002B02D0F8681DF04EFA3B1D184642
:106F84001CF08AFE78617B69BB60BB68002B02D071
:106F9400B8681DF041FAFFF771FFFFF727FF00BF44
:106FA4001C37BD4690BD00BF851B0300A8330020DD
:106FB400AC3300205714050058140500EC130500E9
:106FC400881505002DE9F0439BB004AF6421824885
:106FD40000F0BEFA0EF0BCFA38653B6D002B05D00C
:106FE4007E4A4FF4C271386D1DF078FA7C4B1B78E1
:106FF40083F00103DBB2002B55D007F11C03002200
:107004001A605A609A60DA601A615A61754BFB61C2
:10701400754B3B62754B7B62754BBB62754B3B6337
:1070240007F11C03184600F06FFDF864FB6C002B9D
:1070340005D06A4A40F29111F86C1DF04FFA3B46B4
:1070440000221A605A609A60DA601A615A619A6181
:1070540023237B60FF233B724FF4FA637B614FF47D
:10706400FA73BB6101233B704FF4FA737B60FF2317
:107074003B722823FB6005233B744FF4C8737B6188
:107084004FF4C873BB613B461946012025F0C2FF8B
:10709400B864BB6C002B23D0504A4FF4CE71B86C4B
:1070A4001DF01CFA1CE003210B20FFF73EFA0B2015
:1070B400FFF765FA0346002B09D110F09FFC0EF090
:1070C400B3FA4FF4FA70FFF7E0FAFFF77FFC012000
:1070D40025F03CFF6420FFF7D8FA012025F068FF73
:1070E40001F016FD7864444B1B6803F48043002BC5
:1070F4006CD0424B1B68032B68DD6B461E46102385
:107104003B643B6C5B00591C0B46013BFB630A462A
:107114004FF000034FEAC30949EA52794FEAC20823
:107124000A464FF00003DD0045EA5275D400CB1D3A
:10713400DB08DB00ADEB030D04AB0033BB630023C2
:107144007B6523E07A6C7B6D13441B7887F83730BA
:107154007B6D5B002A4A116897F837201209D2B276
:1071640002F00F020A441178BA6BD1547B6D5B00B4
:107174000133234A116897F8372002F00F020A44BA
:107184001178BA6BD1547B6D01337B657A6D3B6C9E
:107194009A42D7D33B6C5B00BA6B0021D154194B94
:1071A400002B01D0184C00E00C4CFFF71BFA0246F0
:1071B400BB6B0293154B0193154B0093134640F29E
:1071C400B112214604200AF015FDB54600BF5C3714
:1071D400BD46BDE8F08300BF916B0200EC130500CF
:1071E400CC340020F16602000168020079680200D4
:1071F40089680200F8150500A8330020AC3300208C
:10720400A43300205714050058140500C0150500C8
:10721400D015050080B584B000AFF860B9607A601D
:10722400FFF792F87A68B968F8681DF00BF900BFA7
:107234001037BD4680BD000080B500AF4FF0A043BD
:107244000A4AC3F82C270A4B4FF00042C3F8042320
:10725400074B0022C3F87C2107210620FFF74AF8D8
:107264000620FFF72DF80023184680BD0C0003000C
:107274000060004080B500AF0D4B0022C3F87C21B4
:107284000C4B1A680C4BD3F8043519461046FFF71B
:10729400E5F9024643F233339A4207D9064BD3F851
:1072A4000435044A13600020FFF7F8FB00BF80BDDB
:1072B400006000408834002000B0004080B586B0F3
:1072C40000AF224B3E221A70204B214A5A601F4BBA
:1072D400204A9A60204B3B6002233B7104237B715C
:1072E4001A4BBB6010233B733B460021184625F024
:1072F400C1FE78617B693B613B69002B02D0386930
:107304001DF08AF8002025F053FE012025F050FEE0
:107314001220FFF7F8F81320FFF7F5F81420FFF711
:10732400F2F81520FFF7EFF81220FFF713F91320F6
:10733400FFF710F91420FFF70DF91520FFF70AF9EC
:10734400002318461837BD4680BD00BFD034002046
:10735400DC150500081605001816050080B584B074
:1073640000AF094B7B603B1D184629F00FFAF8600B
:10737400FB68BB60BB68002B02D0B8681DF04CF8FA
:1073840000BF1037BD4680BD2816050080B584B007
:1073940000AF7860012025F0D9FD6420FFF775F96E
:1073A400012025F005FE0E4B93F90030DBB2013BC2
:1073B400DBB25AB20A4B1A70094B93F90030002B16
:1073C4000ADC084B184628F029F8F860FB68002B03
:1073D40002D0F8681DF020F800BF1037BD4680BD0C
:1073E4008C3400209034002080B584B000AF27F0A6
:1073F40077FFF860FB68BB60BB68002B02D0B868FD
:107404001DF00AF8084A0121084827F09FFFF86098
:10741400FB687B607B68002B02D078681CF0FCFF63
:1074240000BF1037BD4680BD91730200D81505001A
:1074340080B584B000AF0023FB60FB68BB60BB6811
:10744400002B02D0B8681CF0E7FFFFF7CDFFFFF771
:1074540085FFFFF733FFF860FB687B607B68002BD8
:1074640002D078681CF0D8FFFFF748FD0348FFF707
:10747400CDF8FFF7E1FEFEF77BFFFCE7C96F0200E2
:1074840080B483B000AF0346FB71094997F9073014
:107494005B09FA7902F01F02012000FA02F241F8B6
:1074A400232000BF0C37BD465DF8047B704700BF46
:1074B40000E100E080B483B000AF03463960FB71A3
:1074C40097F90730002B0BDA0D49FB7903F00F0312
:1074D400043B3A68D2B25201D2B20B441A7609E0A4
:1074E400084997F907303A68D2B25201D2B20B4434
:1074F40083F8002300BF0C37BD465DF8047B70475A
:1075040000ED00E000E100E080B582B000AF0E4B7A
:10751400D3F84031002B13D00C4B1B68002B0BD03D
:1075240019F014FA78607B68002B04DB074B1B68A6
:1075340078689847F4E700BF034B0022C3F8402162
:1075440000BF0837BD4680BD00A00040DC340020E9
:107554002DE9F04F85B000AFF860B9602D49FA68A5
:107564000A602D4A0021C2F804152B4A0021C2F8F2
:107574000815294A0921C2F81015274A7A60BA6801
:1075840092464FF0000B51465A464FEA421949EAD7
:10759400D1694FEA411841464A46B1EB0A0162EB10
:1075A4000B02940144EA91648B015B1A64EB0204BC
:1075B400E60046EA5376DD002B46344613EB0A0315
:1075C40044EB0B04DB1844EB0404184621464FF447
:1075D4007A724FF0000329F0FDFC03460C467A68EA
:1075E400C2F840350C4B0122C3F800220A4B4FF479
:1075F4008032C3F80423084B01221A6007210A20B1
:10760400FFF758FF0A20FFF73BFF00BF1437BD46C2
:10761400BDE8F08FDC34002000A0004080B584B0C9
:1076240000AFF860B9601346FB71FB79082B01D9F0
:10763400092317E0FB791A46B968F86829F01EFE99
:10764400FB79FA68D018FB79C3F108031A460021C4
:1076540029F03EFEFB68083308220449184629F045
:107664000DFE002318461037BD4680BD6000001093
:1076740072DF704700BF184673DF704700BF1846BB
:1076840074DF704700BF184680B5A8B000AF03464A
:107694003960FB8013467B71102200214C4829F08D
:1076A40017FE4C4B1B781A4613465B019B1A4A4A39
:1076B4001344474A1360474B1B781A4613465B0131
:1076C4009B1A464A1344424A9360414B1F229A80B4
:1076D4003F4B1F229A813F4B1B780133DBB203F0EF
:1076E4000103DAB23B4B1A7007F154033C22002128
:1076F400184629F0EDFD062387F85730FB88A7F8D4
:107704005030012387F852300123A7F8643007F181
:107714005003BB66FB88A7F844307B799BB2A7F87B
:1077240048303B68FB6407F14403FB67012387F897
:10773400803007F108033C220021184629F0C8FDD7
:1077440002233B72224B196807F15403244A18465A
:107754001BF065FDC7F89800D7F89830002B03D0CC
:10776400D7F898001CF058FE194B996807F10803E4
:107774001C4A18461BF053FDC7F89400D7F8943000
:10778400002B03D0D7F894001CF046FE164A10498B
:107794001648FFF76DFFC7F89C00D7F89C30082BFC
:1077A40006D100220A491148FFF762FFC7F89C007E
:1077B400D7F89C30C7F89030D7F89030002B03D01E
:1077C400D7F890001CF028FE00BFA037BD4680BD4E
:1077D400E03400206E350020F034002030350020E5
:1077E400E4340020EC340020DC320020D8320020C5
:1077F40080B483B000AF786039607B689BB21A466E
:10780400920013445B009AB2054B9A81044A3B6888
:10781400936000BF0C37BD465DF8047B704700BF22
:10782400DC32002080B582B000AF094B1B78012107
:107834001846FFF721FF78607B68002B02D0786838
:107844001CF0EAFD07F02CFF00BF0837BD4680BDE1
:10785400D832002080B582B000AF084B1B781846A0
:10786400FFF70EFF78607B68002B02D078681CF06D
:10787400D3FD00BF0837BD4680BD00BFD83200200D
:1078840080B400AF06231846BD465DF8047B7047FC
:1078940080B584B000AF786000233B81064BFB6069
:1078A40007F108031A46796844F20200FFF7B2FCB4
:1078B40000BF1037BD4680BD4416050080B58EB0AC
:1078C40000AF03463960FB713C4B1B7883F0010326
:1078D400DBB2002B6BD1FB79012B02D0032B5AD0E6
:1078E40068E000237B6107F11403194601201CF0B2
:1078F40045F978637B6B3B633B6B002B02D0386BA1
:107904001CF08AFD07F1140318461CF0C5F97863CE
:107914007B6BFB62FB6A002B02D0F86A1CF07CFDD7
:107924000123FB6007F10C0207F11203114618460C
:1079340016F096FCB862BB6A002B02D0B86A1CF041
:107944006BFD7B8A184616F09DF803461A4607F12C
:107954000B031946104616F001FA78627B6A002B75
:1079640002D0786A1CF058FD0FF0F4FEFB7A194639
:1079740000200FF0DFFF06F09DF978637B6B3B621C
:107984003B6A002B02D0386A1CF046FD0B4B0022E8
:107994001A7000BF0EE01BF0B3FFF861FB69BB6116
:1079A400BB69002B05D0B8691CF036FD01E000BFAF
:1079B40000E000BF3837BD4680BD00BF6F350020F2
:1079C40080B584B000AF0E4B01221A7006F0A2F904
:1079D400F860FB68BB60BB68002B02D0B8681CF081
:1079E4001BFD1BF0E1FFF860FB687B607B68002BEC
:1079F40002D078681CF010FD00BF1037BD4680BD72
:107A04006F35002080B500AF044B196903230022B1
:107A140003481DF061FC0346184680BD84370020EE
:107A24009C37002080B586B000AF78600023FB75DA
:107A34007B681B78013B072B56D801A252F823F030
:107A4400E57A0200657A0200D77A0200ED7A020034
:107A5400937A0200ED7A0200ED7A0200B17A020014
:107A6400264B1B7883F00103DBB2002B05D0FFF714
:107A7400C9FF234B5B68984738E0214B1B68002BF8
:107A840034D01F4B1B689847FFF79AFF2EE01C4B1E
:107A94005B69102219461B481DF0B5FC38613B692F
:107AA400002B25D038691CF0B7FC21E07B68DA682C
:107AB4007B689B68194610460DF058FDF860FB681A
:107AC400002B02D0F8681CF0A7FC0C4B01221A70A2
:107AD4000FE00B4BDB687A68D2681046984708E0E1
:107AE400074B9B68984704E000BF02E000BF00E03A
:107AF40000BF00BF1837BD4680BD00BF303900202D
:107B0400843700209C370020B0B58CB002AF786079
:107B14002F4A07F1080307CA03C31A800233120C61
:107B24001A702C4A7B6814461D460FCD0FC495E885
:107B3400030084E80300274B5B69002B01D1072372
:107B440041E0254925481DF0B9FB78627B6A002B8A
:107B540001D07B6A37E007F10802214B00931346FA
:107B64001D4A1E491F481DF018FB38623B6A002B52
:107B740001D03B6A27E01C481FF0C0F903461946B0
:107B840018481DF073FBF861FB69002B01D0FB69F9
:107B940019E0164800F03AFFB861BB69002B01D028
:107BA400BB6910E0114800F073FF034619460D4805
:107BB4001DF05CFB78617B69002B01D07B6902E0DE
:107BC400FFF720FF034618462837BD46B0BD00BF67
:107BD400481605008437002010390020D0380020D2
:107BE400297A02009C3700207035002034370020A9
:107BF40080B483B000AF78600B46FB70FB7806332B
:107C0400DAB27B685A7000BF0C37BD465DF8047B5E
:107C1400704780B483B000AF78607B6893F84030DD
:107C2400DBB2002B0DD07B6893F84030DBB2042B21
:107C340007D07B6893F84030DBB2052B01D00123D9
:107C440000E0002303F00103DBB218460C37BD4605
:107C54005DF8047B704780B483B000AF78607B68C4
:107C6400043B18460C37BD465DF8047B704780B56D
:107C740082B000AF78607B689B6F002B09D07B6873
:107C84007C33184608F040F80346002B01D001234A
:107C940000E0002303F00103DBB218460837BD46B9
:107CA40080BD80B586B000AF786039607B68203BCA
:107CB4007B617B695B681B79002B04D07B695B6803
:107CC4001B79FF2B1AD17B699B6F002B16D07B6924
:107CD4005B681A687B69C3F890207B693A68C3F8CB
:107CE40094207B697C33184607F0D6FF0346002BAB
:107CF40004D07B463B613869FFF7CAFD7B695B684A
:107D04001B79002B0ED17B695B681846FFF7A3FF34
:107D1400F8607B6900225A607B695833F968184619
:107D240003F077FE00BF1837BD4680BD80B584B030
:107D340000AF78607B681B79002B28D00023FB738D
:107D440020E0154807F042F803467A68D278B3FB7E
:107D5400F2F102FB01F29B1ABB73BA7BFB7B9A42E2
:107D64000DD0FB7B7A68D35C7B73FB7BBA7B796831
:107D7400895C7A68D154BB7B7A68797BD154FB7B6C
:107D84000133FB737B68DB78FA7B9A42D9D300BF5B
:107D94001037BD4680BD00BF3439002080B584B0A3
:107DA40000AF786039600C4807F010F803463A6871
:107DB400B3FBF2F2396801FB02F29B1AFB6006F096
:107DC40089FE0246FB6813441946786806F0ECFC09
:107DD40000BF1037BD4680BD3439002080B584B063
:107DE40000AF786039607B681B78DBB2062B04D067
:107DF4007B46FB60F868FFF74BFD0B4806F0E6FF97
:107E040003460A4AA2FB0312520B42F2107101FB11
:107E140002F29B1ABB603A68BB681A447B68DA605A
:107E240000BF1037BD4680BD343900205917B7D183
:107E340080B584B000AF786039603B681B79002B53
:107E440004D17B46FB60F868FFF722FD3B681B7991
:107E5400FF2B05D03B681B79013BDAB23B681A71F2
:107E640000BF1037BD4680BD80B584B000AF7860D8
:107E74007B685B68002B04D17B46FB60F868FFF7E6
:107E840007FD7B685B681B79FF2B09D17B6858333E
:107E9400184603F096FD0346002B01D0012300E0B1
:107EA4000023FB72FB7A03F00103FB727B685B68BF
:107EB4001B79002B0CBF01230023BB72FB7A002B20
:107EC40002D1BB7A002B01D0012300E0002303F090
:107ED4000103DBB218461037BD4680BD90B585B0AE
:107EE40000AF78602BE07B685B68002B0FD07B6869
:107EF40003F158047B685B681846FFF7ACFE034641
:107F04001946204603F085FD7B6800225A607B6891
:107F1400583307F10C021146184603F0FBFC0346E4
:107F2400002B0AD1FB681A1D7B685A607B685B686A
:107F340003F108027B681A6201E000230AE07B680F
:107F44005B68002BCFD07868FFF78EFF0346002BC9
:107F5400C9D1012318461437BD4690BD80B584B0FD
:107F640000AF78607B685B68002B04D17B46FB60C4
:107F7400F868FFF78DFC7B6870331846FFF7D6FE70
:107F84007B685B6819467868FFF752FF7B680833A3
:107F9400184617F001FC0346002B04D07B46BB6057
:107FA400B868FFF775FC00BF1037BD4680BD80B5CB
:107FB40084B000AF786039603B68BB60BB681B78F5
:107FC400002B25D0BB6893F83C30002B05D1B86852
:107FD400FFF74DFE0346002B02D00123FB730AE09A
:107FE400B868FFF77BFF0346FB73FB7B002B02D0D3
:107FF400B868FFF7B3FFFB7B002B0CD0BB6803F121
:108004004002BB68DB6E19461046FFF7E7FE02E04C
:10801400BB680022DA6400BF1037BD4680BD80B55E
:1080240084B000AF78607B681B7823F00103DBB277
:10803400002B0BD07B681B7823F00103DBB2022BEF
:1080440004D07B46FB60F868FFF722FC7B681B7852
:1080540023F00103DBB2022B06D17B689B7963F02A
:108064003F03DAB27B689A7100BF1037BD4680BD0A
:1080740080B584B000AF78607B68184600F026FABB
:108084007B6844F620629A600023FB730AE0FB7B62
:10809400FA7B0C49895C7A6813440A461A73FB7BA1
:1080A4000133FB73FB7B022B02D8FB7B022BEED943
:1080B4007B68FA7BDA737B6800221A7400BF10377E
:1080C400BD4680BD5416050080B483B000AF78600F
:1080D4007B68094A5A627B682522DA837B6803221B
:1080E40083F820207B6800221A7700BF0C37BD4636
:1080F4005DF8047B704700BFD6BE898E80B582B020
:1081040000AF786039607B6893F86430C3F346034A
:10811400DBB203F00103D9B23A68137861F3861332
:1081240013703B68D81C7B6865330622194629F016
:10813400A5F800BF0837BD4680BD80B586B000AF46
:1081440078607B687B617B69002B04D17B463B6153
:108154003869FFF79DFB7B699B6F002B04D17B463D
:10816400FB60F868FFF794FB7B699B6F7A69D2F830
:1081740090107A69D2F894207869984700BF18372C
:10818400BD4680BD80B500AF024806F0F5FD00BFD6
:1081940080BD00BF3439002080B586B000AFF860E0
:1081A400B9607A603B60FB68002B02D07B68002BCF
:1081B40004D17B467B617869FFF76AFB3B680A2B35
:1081C40004D87B463B613869FFF762FBFB68583390
:1081D4003A6892B27968184603F025FAFB6864336A
:1081E4001846FFF745FFFB6808331846FFF76CFF96
:1081F400FB6803F17002FB685A63FB6893F8732011
:10820400FB6883F83820FB68104A1A63FB68002275
:108214001A62FB68BA689A67FB680D4A9A64FB683D
:10822400FA681A65FB6800221A70FB6800225A601B
:10823400BB68002B06D0FB687C33FA6805491846F6
:1082440007F0FCFC00BF1837BD4680BDA77C0200C8
:10825400B37F02003F81020080B582B000AF786036
:108264007B681B7883F00103DBB2002B17D07B689B
:1082740001221A707B685B68002B07D17B68583336
:10828400184603F081FB0346002B08D07B6803F1FA
:1082940040027B68DB6E19461046FFF77FFD00BF86
:1082A4000837BD4680BD80B588B000AF78603960BE
:1082B4007B68002B04D17B46FB61F869FFF7E8FA81
:1082C4003B681F2B04D97B46BB61B869FFF7E0FA12
:1082D4007B6803F158003B689BB211339AB207F1F3
:1082E4000803194603F078FA78617B69002B1BD1E7
:1082F400BB6804333B613B6908333A68D2B2114628
:108304001846FFF775FC3A69137A022161F30303F7
:1083140013723B69083319467868FFF7EFFE3B692F
:1083240000221A603B6908E07B69042B04D07B4679
:10833400FB60F868FFF7ACFA002318462037BD4607
:1083440080BD80B586B000AF786039603B68002B93
:1083540002D07B68002B04D17B467B617869FFF7F0
:1083640097FA3B681B79002B04D17B463B61386943
:10837400FFF78EFA3868FFF76EFCF8603A68137AF4
:108384006FF3051313723A68137A6FF3C7131372FA
:108394003B6800229A727B6803F15800FB681B88D3
:1083A4001A46F96803F064FA7B681B78002B11D035
:1083B4007868FFF72EFC034683F00103DBB2002B41
:1083C40008D07B6803F140027B68DB6E19461046D7
:1083D400FFF7E4FC00BF1837BD4680BD80B584B00C
:1083E40000AF786039603B68002B02D07B68002BBB
:1083F40004D17B46FB60F868FFF74AFA3868FFF758
:108404002AFCB8607B685833B968184603F001FB4E
:1084140000BF1037BD4680BD80B586B000AF786020
:1084240039607B68002B04D17B467B617869FFF758
:108434002FFA3B68132B04D87B463B613869FFF75E
:1084440027FA3B68B3F5205F04D97B46FB60F868E4
:10845400FFF71EFA3B684FF47A7202FB03F27B6863
:10846400DA667868FFF7D5FB0346002B0CD07B68EF
:108474001B78002B08D07B6803F140027B68DB6E1D
:1084840019461046FFF78AFC00BF1837BD4680BD69
:1084940080B584B000AF78607B685833184603F029
:1084A4004FF9EFF31083FB6072B67B685B68002BB7
:1084B40003D07B685B6800221A71FB68002B00D133
:1084C40062B600BF1037BD4680BD000080B584B0E1
:1084D40000AF78604FF08053D3F8A03003F001036D
:1084E400FB60FB68002B02D0012B06D00CE07A68FD
:1084F40013786FF3470313700BE07A681378012144
:1085040061F34703137004E07B46BB60B868FFF770
:10851400BFF97B68013306220549184628F0AEFEF0
:108524007868FFF77CFD00BF1037BD4680BD00BFF3
:10853400A400001080B582B000AF03463960FB711F
:10854400FB79044A52F823303868984700BF08374B
:10855400BD4680BD3018050080B582B000AF03462B
:108564003960FB71034B386898470346184608374F
:10857400BD4680BDA785020080B584B000AF786099
:1085840006F0A8FA02467B685B6A1344FB607B68CA
:108594000C33F968184606F007F900BF1037BD46DA
:1085A40080BD80B485B000AF78607B68FB60FB68F9
:1085B4009B7B032B0CBF01230023DBB2184614372B
:1085C400BD465DF8047B704780B584B000AF786029
:1085D4007B68FB60FB681B681846FFF7CDFFFB68F0
:1085E4001B689B6C9B68FA6812683C32104698477B
:1085F40000BF1037BD4680BD80B584B000AF786041
:108604007B68FB60FB681B680C33184606F080F837
:10861400FB681B689B6CDB68FA6812683C320221B9
:108624001046984700BF1037BD4680BD80B584B062
:1086340000AF78607B68FB60FB681B681B89184689
:108644000DF0C4FF0346002B04D07B46BB60B86822
:10865400FFF71EF900BF1037BD4680BD80B586B058
:1086640000AF78607B687B617B691B6818897B69D4
:108674001A89002303210DF085FE38613B69002B24
:1086840004D17B46FB60F868FFF702F97B695968FF
:108694007B691B891A46386928F0F0FD7B691B68E1
:1086A4001B89396918460DF0E1FE0346002B04D0FE
:1086B4007B46BB60B868FFF7EBF87B691B6818461C
:1086C400FFF75AFF00BF1837BD4680BD80B584B0A0
:1086D40000AF78607B68FB60FB681B683C33BB6061
:1086E400FB681B681846FFF747FFBB68DB681B681D
:1086F400FA689168FA689289B868984700BF103799
:10870400BD4680BD80B584B000AF78607B68FB60F7
:10871400FB681B683C33BB60BB68DB685B68B8689C
:10872400984700BF1037BD4680BD90B58BB000AFF1
:1087340078607B687B627B6A1B683B627B6A9A68B1
:108744003B6A5A6200F0E4F9034607F10C04186826
:1087540059689A68DB680FC47B6ADB88BB83202175
:108764000020FFF745F807F10C031222194641F6E1
:108774002700FEF789FFFFF755F800BF2C37BD46E9
:1087840090BD80B582B000AF7860FFF763F800BF9A
:108794000837BD4680BD80B586B000AF78603960CB
:1087A4003B687B610A233B733B68BB6001237B739B
:1087B4007B6907F108020A2118460CF03FFC00BF50
:1087C4001837BD4680BD000080B588B000AF786022
:1087D40039603B68FB6107F1080310220021184649
:1087E40028F076FDFB69BB607B681B78052B5CD8A1
:1087F40001A252F823F000BF258802004F8802002E
:1088040015880200678802007F88020097880200AA
:10881400FB6907F10802022118460CF00FFC4AE03C
:108824007B689B683B617B689B89BB827B685B78C8
:108834009BB2BB817B681B79BB75FB6907F108029E
:10884400082118460CF0FAFB35E07B685B789BB294
:10885400BB81FB6907F10802072118460CF0EEFB07
:1088640029E07B685B789BB2BB81FB6907F1080256
:10887400032118460CF0E2FB1DE07B685B789BB299
:10888400BB81FB6907F10802052118460CF0D6FBF1
:1088940011E07B685B789BB2BB81FB6907F108023E
:1088A400042118460CF0CAFB05E07B46BB61B8699D
:1088B400FEF7EEFF00BF00BF2037BD4680BD00BFFE
:1088C40080B584B000AF78607B68FB60FB681B6890
:1088D4001846FB681B79FA6819460CF0AFFB00BF19
:1088E4001037BD4680BD000080B500AF094B1B6842
:1088F40018460CF00DFC0346002B06D0054B1B68F4
:108904002833184607F0C8F902E00248FFF7D8FFF9
:1089140000BF80BD4439002080B588B000AFF86046
:10892400B9601346FB8007F114030C22002118469A
:1089340028F0CEFCFB683C3B7B61BB68BB61FB88D9
:10894400BB837B69184607F114031A4606210CF011
:1089540075FB002318462037BD4680BD80B582B024
:1089640000AF78600B46FB700C220021074828F00A
:10897400AFFC064B09221A717B683C3B034A136027
:10898400FFF7B2FF00BF0837BD4680BD4439002061
:1089940080B584B000AFF860B9603B601346FB80DB
:1089A4000C2200210B4828F093FC0A4B00221A7178
:1089B400FB683C3B074A1360064AFB88D380054AA0
:1089C4003B689360FFF790FF002318461037BD46BD
:1089D40080BD00BF4439002080B582B000AF78600C
:1089E4000C220021084828F073FC074B01221A715D
:1089F4007B683C3B044A1360FFF776FF002318466C
:108A04000837BD4680BD00BF4439002080B584B01E
:108A140000AF78607B68002B01D10E2329E07B68CE
:108A2400164918460CF0B8FA7B680C33182200215A
:108A3400184628F04DFC7B68114A5A617B687A68B5
:108A4400DA617B6828330F4A0F49184607F0F6F8B5
:108A540041F627033B8142F6DB23BB8142F6DC234C
:108A64007B8107F108037A68084918460DF048FB32
:108A7400002318461037BD4680BD00BF0C18050002
:108A84009B87020044390020C5880200CD8702007C
:108A940080B483B000AF78607B68074A5A647B680F
:108AA400022283F840207B683C3318460C37BD46CD
:108AB4005DF8047B704700BF5018050090B482B085
:108AC40000AF7860064A7B681446186859689A684B
:108AD400DB680FC400BF0837BD4690BC704700BFB9
:108AE4005039002080B500AF08220549054828F018
:108AF400C5FB08220449054828F0C0FB00BF80BD1F
:108B04006000001050390020A400001058390020E3
:108B140080B400AF024B1846BD465DF8047B704735
:108B24005039002046DF704700BF1846B0B590B0FA
:108B340000AFF860B9607A60FB6807F11004186848
:108B440059689A68DB680FC4BB6807F12004186889
:108B540059689A68DB680FC407F110031846FFF7D9
:108B6400E1FF7B681D4607F130040FCC2860696083
:108B7400AA60EB6000BF4037BD46B0BD80B483B08F
:108B840000AF00237B6013E00F4A7B68DB001344D3
:108B940000225A800C4A7B68DB00134400225A608E
:108BA400094A7B68002102F833107B6801337B603B
:108BB4007B681F2BE8D9054B00221A6000BF0C37D5
:108BC400BD465DF8047B704760390020603A0020A0
:108BD40080B485B000AF03463960FB801B4B1B6833
:108BE400FB600023BB6026E0FB685A1EFA60002B82
:108BF40001D11F23FB60164AFB6812F8333083F05F
:108C04000103DBB2002B01D0002318E0104AFB68FB
:108C1400DB0013445B88FA889A4209D10C4AFB684A
:108C2400DB0013445A683B689A4201D1012306E0F1
:108C3400BB680133BB60BB681F2BD5D90023184622
:108C44001437BD465DF8047B704700BF603A0020CE
:108C54006039002080B483B000AF03463960FB80E4
:108C6400124B1B68124ADB001344FA885A800F4BDC
:108C74001B680F4ADB0013443A685A600B4B1B68AD
:108C84000B4A012102F83310084B1B680133074AD1
:108C94001360064B1B68202B02D1044B00221A6080
:108CA40000BF0C37BD465DF8047B7047603A002076
:108CB4006039002080B400AF034BD3F80435184664
:108CC400BD465DF8047B704700B0004080B483B0BB
:108CD40000AF78607B68043318460C37BD465DF8F6
:108CE400047B704780B483B000AF78607B68013345
:108CF40018460C37BD465DF8047B704780B483B0DA
:108D040000AF78607B681B789B011BB203F4FE53B1
:108D14001AB27B685B789B08DBB21BB213431BB2AD
:108D24009BB218460C37BD465DF8047B704780B48F
:108D340083B000AF78600B467B807B681B7823F0A0
:108D44007F03DAB27B681A707B681B785AB27B881F
:108D54009B099BB25BB203F07F035BB213435BB22C
:108D6400DAB27B681A707B685B7803F00303DAB2CB
:108D74007B685A707B685B785AB27B889B005BB2D5
:108D840013435BB2DAB27B685A7000BF0C37BD463E
:108D94005DF8047B704780B483B000AF78607B6873
:108DA4009B781A067B68DB781B041A437B681B7963
:108DB4001B0213437A685279134318460C37BD4695
:108DC4005DF8047B704780B483B000AF786039608D
:108DD4003B681B0EDAB27B689A703B681B0CDAB2F4
:108DE4007B68DA703B681B0ADAB27B681A713B68ED
:108DF400DAB27B685A7100BF0C37BD465DF8047B5C
:108E0400704780B483B000AF78607B681B7803F050
:108E14004003002BCCBF01230023DBB218460C37E0
:108E2400BD465DF8047B704780B483B000AF7860C2
:108E34000B46FB707B681B7823F04003DAB27B6837
:108E44001A707B681B785AB2FB789B015BB203F003
:108E540040035BB213435BB2DAB27B681A7000BFA3
:108E64000C37BD465DF8047B704780B483B000AF17
:108E740078607B681B7803F03F03DBB218460C373D
:108E8400BD465DF8047B704780B483B000AF786062
:108E94000B46FB707B681B7823F03F03DAB27B68D8
:108EA4001A707B681B785AB297F9033003F03F03BA
:108EB4005BB213435BB2DAB27B681A7000BF0C3743
:108EC400BD465DF8047B704780B483B000AF786022
:108ED4007B681B7803F08003002BCCBF01230023A5
:108EE400DBB218460C37BD465DF8047B704780B48E
:108EF40083B000AF78600B46FB707B681B7803F08F
:108F04007F03DAB27B681A707B681B785AB2FB78ED
:108F1400DB015BB213435BB2DAB27B681A7000BF49
:108F24000C37BD465DF8047B704780B483B000AF56
:108F340078607B681B7803F07F03DBB218460C373C
:108F4400BD465DF8047B704780B483B000AF7860A1
:108F54000B46FB707B681B7823F07F03DAB27B68D7
:108F64001A707B681B785AB297F9033003F07F03B9
:108F74005BB213435BB2DAB27B681A7000BF0C3782
:108F8400BD465DF8047B704780B483B000AF786061
:108F94007B685B7803F08003002BCCBF01230023A4
:108FA400DBB218460C37BD465DF8047B704780B4CD
:108FB40083B000AF78600B46FB707B685B7803F08E
:108FC4007F03DAB27B685A707B685B785AB2FB78AD
:108FD400DB015BB213435BB2DAB27B685A7000BF49
:108FE4000C37BD465DF8047B704780B483B000AF96
:108FF40078607B685B789B011BB203F4FE531AB262
:109004007B689B789B08DBB21BB213431BB29BB2F9
:1090140018460C37BD465DF8047B704780B483B0B6
:1090240000AF78600B467B807B685B7823F07F031E
:10903400DAB27B685A707B685B785AB27B889B098A
:109044009BB25BB203F07F035BB213435BB2DAB251
:109054007B685A707B689B7803F00303DAB27B6801
:109064009A707B689B785AB27B889B005BB21343EF
:109074005BB2DAB27B689A7000BF0C37BD465DF80C
:10908400047B704780B483B000AF78607B689B78C2
:10909400DB005BB203F018035AB27B68DB785B0930
:1090A400DBB25BB213435BB2DBB218460C37BD468E
:1090B4005DF8047B704780B483B000AF78600B46E2
:1090C400FB707B689B7823F00303DAB27B689A70A9
:1090D4007B689B785AB2FB78DB08DBB25BB203F0A7
:1090E40003035BB213435BB2DAB27B689A707B68AA
:1090F400DB7803F01F03DAB27B68DA707B68DB7815
:109104005AB2FB785B015BB213435BB2DAB27B68A1
:10911400DA7000BF0C37BD465DF8047B704780B43D
:1091240083B000AF78607B68DB7803F01F03DBB2A9
:1091340018460C37BD465DF8047B704780B483B095
:1091440000AF78600B46FB707B68DB7823F01F036D
:10915400DAB27B68DA707B68DB785AB297F903304D
:1091640003F01F035BB213435BB2DAB27B68DA70BD
:1091740000BF0C37BD465DF8047B704780B584B0F2
:1091840000AF78607B681B7883F00103DBB2002BAF
:1091940004D07B46FB60F868FEF77AFB7B68DB79DA
:1091A4000133012202FA03F3013B18461037BD468E
:1091B40080BD80B483B000AF78600B467B807B6851
:1091C400C3F30C027B889A4209D27A887B68C3F382
:1091D4000C03D21A7B681344A3F5005306E07A8883
:1091E4007B68C3F30C03D21A7B68134418460C370C
:1091F400BD465DF8047B704780B58EB000AF034672
:10920400FB800B467B7113463B7107F10C032C2248
:109214000021184628F05CF80E233B73FB883B8240
:109224007B7903F00103DAB2BB7C62F30003BB7405
:109234003B79FB7407F10C03184602F053F800BFA6
:109244003837BD4680BD80B58EB000AF78600B4620
:10925400FB7007F10C032C220021184628F038F883
:109264000F233B737B683B61FB783B7507F10C0371
:10927400184602F037F800BF3837BD4680BD0000FD
:1092840080B483B000AF0346FB71074B5A68064BAA
:109294009B68F97901FB03F3134418460C37BD4668
:1092A4005DF8047B704700BF643A002080B483B04B
:1092B40000AF0346FB71074BDA68064B1B69F9796B
:1092C40001FB03F3134418460C37BD465DF8047BD9
:1092D400704700BF643A002080B586B000AF786064
:1092E4007B681B7883F00103DBB2002B04D07B4640
:1092F4003B613869FEF7CCFA7B689B8AFB817B680B
:10930400DB69DBB203F001037B737B689A697B68DA
:109314009B8819461046FFF74CFFB86000237B6119
:109324001FE0144A7B69DB0013445A68BB689A4205
:1093340014D1104A7B69DB0013445B88FA899A4292
:109344000CD10C4A7B69DB0013445B787A7B9A422C
:1093540004D17B69DB00074A134406E07B690133CF
:109364007B617B69072BDCD9002318461837BD467F
:1093740080BD00BF383C002080B584B000AF786069
:109384000B46FB707B681B7883F00103DBB2002B78
:1093940004D07B46FB60F868FEF77AFA144B1B682E
:1093A4005A1C13490A6003F00703DB00114A1344F3
:1093B400BB607B689A8ABB685A807B689A697B68C1
:1093C4009B8819461046FFF7F4FE0246BB685A60B4
:1093D4007B68DB69DBB203F00103DAB2BB685A7065
:1093E400BB68FA781A7000BF1037BD4680BD00BF55
:1093F400343C0020383C002080B586B000AFF860D3
:10940400B9603B601346FB71FB79022B07D0FB79F3
:10941400012B04D07B467B617869FEF739FAFB683F
:109424009B6E002B04D07B463B613869FEF730FA13
:10943400334B1B68386898470246FB689A66FB689A
:109444009B6E002B01D1002355E0FB682C22B968E8
:10945400184627F013FFFB6800229A643B689AB20F
:10946400FB68A3F84620BB689A69BB689B881946C9
:109474001046FFF79EFE0246FB689A61FB79012BBA
:109484001ED1204B1A7DFB6883F84D20FB68002217
:1094940083F84E20FB68002283F84F20FB680022EB
:1094A40083F84C20BB689A6AFB681A65FB68164A05
:1094B4009A62FB68154A5A63FB68FA68DA6312E039
:1094C400FB68114A9A62FB68002283F86420FB68F7
:1094D4000F4A5A65FB68FA68DA65FB680D4A5A63F5
:1094E400FB68FA68DA63012003F038FDFB68FA7957
:1094F40083F84420012318461837BD4680BD00BFB9
:109504002C3C0020643A00205EE6655E7FAB0200DE
:1095140031AB0200EBAB020080B582B000AF7860E3
:10952400114B1B687A68926E104698477B6800223C
:109534009A667B682C33184605F0EAF87B6893F842
:109544004430022B04D17B684C33184605F0E0F814
:109554007B68002283F84420002003F0FFFC00BF56
:109564000837BD4680BD00BF303C002090B589B0AF
:1095740004AF78600B46FB707B68002B04D17B46FC
:10958400FB60F868FEF784F97B6800211846FFF752
:10959400F3FE7B681B6DFA7811461846FFF753FEFD
:1095A4007868FFF7B9FF134B1B6803F00403002B23
:1095B4001CD0114B1B68032B18DD104B002B01D062
:1095C4000F4C00E00F4CFFF775FB01467B6893F8E6
:1095D40044301A46FB78029301920B4B00930B46DE
:1095E4004FF4D3722146042008F004FB00BF143763
:1095F400BD4690BDA8330020AC3300208A18050076
:109604008B180500641805009818050080B582B011
:1096140000AF78607B6801211846FFF7ADFE7868DB
:10962400FFF77AFF00BF0837BD4680BD80B58EB016
:1096340000AF78607B6893F84430012B04D07B46FC
:109644007B63786BFEF724F901233B727B681B6D07
:10965400FB6007F10803184601F044FE7868FFF741
:109664005BFF00BF3837BD4680BD000090B585B0B4
:1096740000AF78607B6893F84430022B04D07B46BB
:10968400FB60F868FEF704F90C4B5B7D1846FFF7A6
:10969400F7FDB8607B6803F14C0405F01BFA024641
:1096A400BB6813441946204605F07EF87B68012206
:1096B40083F8642000BF1437BD4690BD643A00208F
:1096C40090B585B000AF78607B6893F84430022B86
:1096D40004D07B46FB60F868FEF7DAF8094B1B6898
:1096E400BB607B6803F12C0405F0F4F90246BB6807
:1096F40013441946204605F057F800BF1437BD46F9
:1097040090BD00BF643A002090B585B000AF78608A
:109714007B6893F84430012B04D07B46FB60F868E7
:10972400FEF7B6F87B681B7B012B08D17B689B7D19
:109734001846FFF7BBFD02467B689A6305E00020EC
:10974400FFF7B4FD02467B689A637B6803F12C043F
:1097540005F0C0F902467B689B6B1344194620460A
:1097640005F022F800BF1437BD4690BD80B582B025
:1097740000AF786039607B68DB7D002B06D07B68A6
:109784009B7819463868FFF7DFFB0BE07B689B7812
:1097940019463868FFF748FB7B68DB781946386858
:1097A400FFF772FB7B681B7819463868FFF79FFB4D
:1097B4007B681B78002B1CD07B685B78082B0CBF64
:1097C40001230023DBB219463868FFF7F0FB7B68FE
:1097D4009B8819463868FFF721FC7B689B791946FA
:1097E4003868FFF768FC7B68DB7919463868FFF74F
:1097F400A5FC00BF0837BD4680BD80B586B000AF6C
:10980400F860B9607A603B60FB681B78002B01D07C
:10981400042300E001237B617A697B681A44BB68F6
:109824009A60FB6803F10C02BB681A60FB689A6AD1
:10983400BB685A60B86807F017F838613B69002BB9
:1098440005D1BB681A697B691A443B681A603B6995
:1098540018461837BD4680BD80B58EB000AF78601D
:10986400396000237B637B681B7B012B3DD107F1AF
:109874002C0306220021184627F02AFD7B689A88CB
:1098840007F12C0311461846FFF751FA07F12C0390
:1098940039681846FFF797FA06237B6101233B7763
:1098A4007B689B8AFB8300233B6200233B7307F1A5
:1098B4002C033B617B681B6A7B6200233B767B68DD
:1098C400DB897B837B689B7D002B03D1002387F896
:1098D400283003E0074B5B7D87F8283007F10C0341
:1098E4000549184601F04CFB78637B6B1846383702
:1098F400BD4680BD643A00205EE6655E80B485B0F6
:1099040000AF78600B467B800023FB602AE01A4A94
:10991400FB686C2101FB03F3134444331B78012BD4
:109924001DD1154AFB686C2101FB03F31344143366
:109934001A887B68DB899A4211D10F4AFB686C2133
:1099440001FB03F3134404331B887A889A4206D13B
:10995400FB686C2202FB03F3074A134406E0FB682E
:109964000133FB60FB68032BD1DD00231846143759
:10997400BD465DF8047B70477C3A002080B485B016
:1099840000AF78600023FB601FE0154AFB686C2180
:1099940001FB03F3134444331B78022B12D1104A06
:1099A400FB686C2101FB03F3134414331A887B68AE
:1099B4009B8A9A4206D1FB686C2202FB03F3084A95
:1099C400134406E0FB680133FB60FB68032BDCDD1A
:1099D400002318461437BD465DF8047B704700BF6A
:1099E4007C3A002090B587B002AF78607B68DB7961
:1099F40001337A68D27D002A01D0082200E00C22CB
:109A040002FB03F3BB607B68DB7D002B02D04FF4C9
:109A1400807201E04FF4C072BB689A421FD2294B96
:109A24001B6803F00403002B17D0274B1B68002B83
:109A340013DD264B002B01D0254C00E0254CFFF70D
:109A440039F90246BB680193234B0093134640F255
:109A54005E222146012008F0CDF800232DE00023EA
:109A6400FB6024E01D4AFB686C2101FB03F31344F3
:109A740044331B78002B17D1FB686C2202FB03F3E1
:109A8400164A9818BB6802227968FFF7B5FC0346AA
:109A940083F00103DBB2002B0DD1FB686C2202FBC7
:109AA40003F30E4A134408E0FB680133FB60FB68D0
:109AB400032BD7DD00E000BF002318461437BD4652
:109AC40090BD00BFA8330020AC3300208A180500E5
:109AD4008B18050064180500BC1805007C3A0020AA
:109AE40090B58BB002AFF860B9607A603B6078687B
:109AF400FFF744FFF861FB69002B12D07B689A885A
:109B0400FB699B889A42C0F0DE807B689A88FB6977
:109B14009B889A4205D90521F869FFF727FD0023A0
:109B2400FB617868FFF7D8FBB861BB69002B0DD0E7
:109B3400BB691B78002B00F0C8807868FFF71EFB18
:109B4400034619467868FFF787FEBEE0FB69002BE1
:109B54000FD17868FFF746FFF861FB69002B08D145
:109B640000217868FFF778FE02210020FFF76BFBE5
:109B7400AEE0594B1B6803F00403002B18D0574B7D
:109B84001B68032B14DD564B002B01D0554C00E011
:109B9400554CFFF78FF802467B689B790193534B32
:109BA4000093134640F2A2222146042008F022F832
:109BB400F869FFF785FDFB691B7B012B07D1FB6966
:109BC40093F86430002B02D1F869FFF74FFDFB696D
:109BD4009A6C7B689B79194601238B401340002BB8
:109BE40075D1FB699A6C7B689B79194601238B407C
:109BF4001A43FB699A647B689A79FB69DB799A4218
:109C040014D1FB69DB799AB27B68DB7D002B01D030
:109C1400082300E00C2312FB03F39AB2BB689BB247
:109C240013449AB2FB69A3F846200EE07B68DB7DFF
:109C3400002B01D0082200E00C22BB689A4204D019
:109C44000421F869FFF792FC42E0FB699B6E7A6895
:109C5400927911467A68D27D002A01D0082200E068
:109C64000C2202FB01F21344BA68F968184627F083
:109C740005FBFB699C6CFB691846FFF77FFA0346FA
:109C84009C4225D1FB69022283F86420FA69FB69AE
:109C94009B6C19461046FFF7DFFD7861FB69986EEF
:109CA400FB69B3F846301946FA693B6800F022FFB5
:109CB4007B69002B0CD1FB69002283F86420F869CE
:109CC400FFF7A4FC04E000BF02E000BF00E000BF17
:109CD4002437BD4690BD00BFA8330020AC3300201C
:109CE4008A1805008B18050064180500D0180500B3
:109CF40090B587B002AF786039600023FB737B684E
:109D0400002B28D07B689A1C3B681A6007F10F036C
:109D14001946386806F0C2F8FB7B002B1BD0104BA9
:109D24001B6803F00403002B15D00E4B1B68032B98
:109D340011DD0D4B002B01D00C4C00E00C4CFEF758
:109D4400B9FF02460B4B0093134640F2E62221462C
:109D5400042007F04FFFFB7B18461437BD4690BD27
:109D6400A8330020AC3300208A1805008B180500A6
:109D740064180500E018050080B596B000AFF860DF
:109D8400B9607A603B60FB68002B04D17B467B653D
:109D9400786DFDF77DFDBB68002B04D17B463B65E8
:109DA400386DFDF775FD3B68002B04D17B46FB64E1
:109DB400F86CFDF76DFD3B685B6A02337B623B68C0
:109DC40003F10C003B689B78002B01D0012100E0DB
:109DD40002213B685B78082B0CBF01230023DBB214
:109DE4001A4607F1140306F067F807F11403BB627F
:109DF400FB68FB627B689BB23B86BB68FB63FB6BC7
:109E04003A8E13443B643B685B7887F844303B6884
:109E14001B7B022B0ED13B681B69002B04D17B46B4
:109E2400BB64B86CFDF734FD3B681B697B6310238E
:109E34003B8701E000233B8707F12403184606F023
:109E440022F800BF5837BD4680BD80B483B000AF50
:109E54000346FB71FB79002B01D1042300E00823A6
:109E640018460C37BD465DF8047B704780B584B056
:109E740000AF786039603B68DB695A787B68DA70D8
:109E84003B68DB691B78002B14BF01230023DBB282
:109E940083F00103DBB203F00103DAB27B689A704A
:109EA4003B68DA697B685A623B681B7B022B07D1EB
:109EB4003A4B9B7D1846FFF7C8FF03461A4606E057
:109EC4003B681B7B1846FFF7C0FF03461A467B68B6
:109ED4005A703B68DB7A83F00103DBB2002B0ED0AF
:109EE4003B689B8A1A467B685B78C3F10F039A42EE
:109EF40005DC7B685B78082B01D107234AE03B68CB
:109F04009B8A1A467B685B78C3F10F039A4203DC91
:109F14003B68DB7A002B01D0012300E0002303F02F
:109F24000103DAB27B681A707B681B78002B16D0A9
:109F34003B689B8A1A467B685B7813440B33184A48
:109F440082FB03125210DB17D31AFB60FB68DBB2EF
:109F5400013BDAB27B68DA717B6800229A717B6814
:109F64000022DA757B683A680C3392E8030083E8D0
:109F740003003B689A697B681A623B681A897B68AC
:109F84009A823B689A7A7B689A753B681A6A7B68FE
:109F94009A62002318461037BD4680BD643A0020FB
:109FA400ABAAAA2A80B487B000AFF860B9607A601F
:109FB400BB681A78FB689A70FB6800225A62BB6817
:109FC4009B680B2B03D8BB681B7B002B01D00123A0
:109FD40000E0002303F00103DAB2FB681A70FB68A7
:109FE40000225A70FB681B78002B0DD0BB689B685D
:109FF4000733DB087B617B69DBB2013BDAB2FB68C8
:10A00400DA71FB6800229A71FB680122DA75FB6839
:10A01400BA680C33103292E8030083E80300BB688B
:10A02400DA89FB689A82BB689A69FB681A62BB6822
:10A034001A7FFB689A75FB687A689A6200BF1C37BE
:10A04400BD465DF8047B704780B58CB000AFF86006
:10A05400B9607A60FB685B781A467B681A44FB68CF
:10A06400DB7D002B01D00B2300E00F239A4201D9A2
:10A0740009232BE0FB685B781A467B681A4407F1D6
:10A08400140307F11801F868FFF7B7FBF862FB6ADD
:10A09400002B1AD1BB6A1946F868FFF767FBFB6807
:10A0A400DB7D002B06D07B697A68B968184627F0F7
:10A0B400E5F805E07969FB687A68B868FFF75CFE43
:10A0C40007F11803184606F0F9FBFB6A1846303707
:10A0D400BD4680BD80B58CB000AF786039607B68C8
:10A0E400DB7D002B01D0082300E00C23FB62FB6A1C
:10A0F4003A6802FB03F3BB627B68DB791A463B6870
:10A104009A4206D17B68B3F846301A46BB6AD31A22
:10A11400FB623B68DAB27B689A71786807F10803DE
:10A1240007F10C01FA6AFFF768FB78627B6A002B7F
:10A1340054D13B68002B13D17B6893F84F3083F0E4
:10A144000103DBB2002B0BD07B689B699BB2C3F38A
:10A154000C039AB27B689A807B68012283F84F20B3
:10A164007B68DB7D83F00103DBB2002B22D07B68AC
:10A1740093F84E3083F00103DBB2002B1AD03B6816
:10A18400002B04D07B463B62386AFDF781FB7B6879
:10A19400986E7B68996E7B68B3F846301A467B6884
:10A1A4005B78D31A1A467B68FFF7E6FD7B680122C9
:10A1B40083F84E207B68FA6911461846FFF7D6FAF1
:10A1C400B8687B689A6EBB6A1344FA6A194627F02A
:10A1D40055F807F10C03184606F070FB7B6A002B58
:10A1E4000CBF01230023DBB218463037BD4680BDC7
:10A1F40080B584B000AF78600023FB607B6893F87F
:10A204004C30FB721CE07B689A6CFB7A012101FAEA
:10A2140003F31340002B10D1FB7A19467868FFF73B
:10A2240059FF0346002B11D0FB680133FB60FB7A16
:10A234000133DAB27B6883F84C20FB7A0133FB727A
:10A244007B68DB79FA7A9A42DDD900E000BFFB68CB
:10A2540018461037BD4680BD2DE9F04393B004AFD6
:10A26400F860B9607A60FB685B781A467B681344CF
:10A27400BB62FB68DB7D002B02D04FF4807201E0EF
:10A284004FF4C072BB6A9A4201D20923B6E000239C
:10A294007B63EFF310837B6272B600233B6314E0AD
:10A2A400594A3B6B6C2101FB03F3134444331B7881
:10A2B400002B07D13B6B6C2202FB03F3524A13447D
:10A2C4007B6305E03B6B01333B633B6B032BE7DDB7
:10A2D4007B6A002B00D162B67B6B002B01D1042377
:10A2E4008CE0BB6A0122F968786BFFF785F80346B6
:10A2F400002B00F082807B6B9B6E7A68B9681846ED
:10A3040026F0BCFF414B1B6803F00403002B6CD008
:10A314003F4B1B68032B68DD6B461E467B6BB3F813
:10A3240046303B623B6A5B00591C0B46013BFB61B8
:10A334000A464FF000034FEAC30949EA52794FEA4B
:10A34400C2080A464FF00003DD0045EA5275D40006
:10A35400CB1DDB08DB00ADEB030D04AB0033BB61AD
:10A364000023FB6221E07B6B9A6EFB6A13441B782B
:10A37400FB75FB6A5B00274A1168FA7D1209D2B2A9
:10A3840002F00F020A441178BA69D154FB6A5B00E7
:10A394000133204A1168FA7D02F00F020A44117851
:10A3A400BA69D154FB6A0133FB62FA6A3B6A9A4286
:10A3B400D9D33B6A5B00BA690021D154164B002BF8
:10A3C40001D0164C00E0164CFEF774FC0246BB6943
:10A3D4000293144B0193144B0093134640F2F23250
:10A3E4002146042007F006FCB546786BFFF700FF12
:10A3F400786BFFF789F9002300E0042318463C3703
:10A40400BD46BDE8F08300BF7C3A0020A83300209D
:10A41400AC330020A43300208A1805008B180500F3
:10A4240064180500F41805000419050080B582B00D
:10A4340000AF00237B6021E0144A7B686C2101FBA0
:10A4440003F3134444331B78012B14D17B686C222F
:10A4540002FB03F30D4A13441846FFF7C9FE0346F3
:10A46400002B08D07B686C2202FB03F3074A1344D9
:10A474001846FFF749F97B6801337B607B68032B3F
:10A48400DAD900BF0837BD4680BD00BF7C3A002042
:10A4940090B583B000AF00237B6050E02B4A7B680B
:10A4A4006C2101FB03F3134444331B78022B43D187
:10A4B400264A7B686C2101FB03F3134464331B7845
:10A4C400022B39D17B686C2202FB03F31F4A9818D4
:10A4D4001E4A7B686C2101FB03F3134448331B6859
:10A4E4001946FFF7B9F90346002B25D1174A7B68B3
:10A4F4006C2101FB03F31344643300221A70134AE2
:10A504007B686C2101FB03F3134448331C687B68AC
:10A514006C2202FB03F30D4A13441846FEF72EFE89
:10A5240003469C4208D17B686C2202FB03F3074A72
:10A5340013441846FFF76AF87B6801337B607B6835
:10A54400032BABD900BF0C37BD4690BD7C3A00202D
:10A5540080B500AFFFF76AFFFFF79AFF01231846A3
:10A5640080BD80B592B000AFF860B9607A603B609E
:10A57400FB689B697B64FB681B78002B0AD0FB6833
:10A584009A69FB689B8819461046FEF712FE02463C
:10A59400FB689A61FB6803F10C00FB689B78002B55
:10A5A40001D0012100E00221FB685B78082B0CBF7D
:10A5B40001230023DBB21A4607F1340305F07CFCC7
:10A5C400FB687A6C9A6107F134037B61BB68BB61F9
:10A5D4007B689AB2FB685B789BB2D31A9BB2BB834D
:10A5E400BB69BA8B1344FB623B68BB62FB685B7854
:10A5F40087F830300023BB84FB681B7B022B01D11E
:10A604001023BB84FB689B78002B3DD0FB681B7B2D
:10A61400022B02D1FB681B693B62FB6800225A6271
:10A62400FB68186AFB68D978FB6824331A4614F06F
:10A63400B1F915E0FB685B6A07F110021146184690
:10A64400FFF756FB0346002B01D0002351E0FB68C3
:10A65400186AFB68D978FB6824331A4614F09AF90F
:10A66400FB685B6A002BE5D1FB681B7B022B3FD1A7
:10A67400FB68DA89FB680C331946104614F09AFA21
:10A684000346002BC2D133E0FB6800225A62FB6808
:10A694001B7B012B14D1FB68DA89FB682433194630
:10A6A400104614F0A6F9FB685B6A07F11002114624
:10A6B4001846FFF71DFB0346002B01D0002318E0CA
:10A6C400FB6800225A62FB689A8AFB6824331946A5
:10A6D400104614F08EF9FB685B6A07F1100211460C
:10A6E4001846FFF705FB0346002B01D0002300E0CA
:10A6F400052318464837BD4680BD80B584B000AFF9
:10A70400F860B9607A607B680C331822B96818461F
:10A7140026F0B4FDF868FEF7D7FB0346002B14BF00
:10A7240001230023DAB27B681A707B68DB7D002B7F
:10A734000AD0F868FEF7F9FB03461A467B689A705C
:10A744007B6800225A7024E0F868FEF75AFB03463F
:10A75400002B14BF01230023DAB27B689A70F868D7
:10A76400FEF783FB03461A467B68DA707B681B7826
:10A77400002B0BD0F868FEF707FC0346002B01D032
:10A78400082200E004227B685A7002E07B680422FD
:10A794005A707B681B78002B14D0F868FEF725FCF0
:10A7A40003461A467B689A80F868FEF76BFC0346FA
:10A7B4001A467B689A71F868FEF7B1FC03461A469C
:10A7C4007B68DA717B6800225A6200BF1037BD468D
:10A7D40080BD000090B58BB002AFF860B9607A60BC
:10A7E4003B60BB68062B54D1F868FEF787FA034632
:10A7F400FB83F868FEF7CFFAB861FB8B19467868DB
:10A80400FFF77CF878617B69002B1CD1234B1B6814
:10A8140003F00403002B3DD0214B1B68012B39DDD1
:10A82400204B002B01D0204C00E0204CFEF742FAD4
:10A8340002461F4B0093134640F2B44221460220C5
:10A8440007F0D8F926E07B699A6CBB691A437B69E7
:10A854009A64BB69002B04D103217869FEF786FE54
:10A8640018E07B699C6C7B691846FEF787FC0346FD
:10A874009C4203D17869FEF7D9FE0BE07B69002284
:10A8840083F84C207869FFF7B3FC7869FEF73CFF46
:10A8940000E000BF2437BD4690BD00BFA8330020B0
:10A8A400AC3300208A1805008B18050064180500D5
:10A8B4000C19050080B487B000AF0346FB71002378
:10A8C4007B6120E07B69DB00154A1344FB600023B5
:10A8D4003B6110E0FB681A683B69DB001344BB6012
:10A8E400BB681B78FA799A4202D1BB685B6810E0B6
:10A8F4003B6901333B61FB685A683B699A42E9D87A
:10A904007B6901337B61074B1B687A699A42D9D30F
:10A91400002318461C37BD465DF8047B704700BF12
:10A924007C3C0020843C002080B58EB000AFF860F1
:10A93400B9607A603B607B689B78002B06D13B68EA
:10A944007A68B968F868FFF745FF2CE07B689B7864
:10A954001846FFF7AFFF78637B6B002B22D07B6830
:10A964009B783B757B681B6AFB627B689B8A7B8454
:10A974007A6807F124030C3292E8030083E80300A9
:10A984007B689B7D87F83030FB68BB61BB68FB61EB
:10A994007B681B7887F8203007F114027B6B3968D9
:10A9A4001046984700BF00BF3837BD4680BD000041
:10A9B40090B5F5B002AF07F10C04206007F1080070
:10A9C4000160391D0A603A46136007F1440307F138
:10A9D400080207F10C01381D126809680068FFF7C6
:10A9E400C0FDC7F8C401D7F8C431002B54D107F116
:10A9F4003C0301221A703B1D1B689A8A07F13C0331
:10AA04005A8007F13C0300225A6007F11003002228
:10AA14001A7007F1100307F144025A6007F10803A2
:10AA24001B689AB23B1D1B685B789BB2D31A9AB21F
:10AA340007F110031A8107F1100307F13C020C33EC
:10AA440092E8030083E8030007F110033A1D12683B
:10AA540014330C3292E8030083E803003B1D1B68A7
:10AA64009A7D07F1100383F824203B1D1B681A6AA2
:10AA740007F11003DA613B1D1B685A6A07F11003E2
:10AA84001A6207F110033A4612689A6207F110033A
:10AA9400184600F027FC1BE0104B1B6803F004036E
:10AAA400002B15D00E4B1B68052B11DD0D4B002B15
:10AAB40001D00D4C00E00D4CFEF7FCF802460C4BA7
:10AAC4000093134640F223522146062007F092F8E1
:10AAD40000BF07F5E677BD4690BD00BFA833002050
:10AAE400AC3300208A1805008B1805006418050093
:10AAF4003C19050080B584B000AFF860B9607A6095
:10AB04003B607B68DB7D002B06D03B687A68B968C4
:10AB1400F868FFF709FF05E03B687A68B968F868E8
:10AB2400FFF746FF00BF1037BD4680BD80B584B037
:10AB340000AF786039603B68FB60FB6893F8443091
:10AB4400022B04D07B46BB60B868FCF7A1FEFB680F
:10AB5400022283F86420FA68FB689B6C194610464D
:10AB6400FEF77AFE0346002B03D1FB68002283F82C
:10AB7400642000BF1037BD4680BD80B584B000AFEF
:10AB8400786039603B68FB60FB6893F84430012BC4
:10AB940004D07B46BB60B868FCF77AFEFB6893F888
:10ABA4004D30002B0CD1FB681B7B012B04D1002101
:10ABB400F868FEF7DBFC12E0F868FEF737FD0EE0FC
:10ABC400FB6893F84D30013BDAB2FB6883F84D2003
:10ABD400FB68002283F84C20F868FFF709FB00BFEC
:10ABE4001037BD4680BD80B584B000AF7860396051
:10ABF4003B68FB600021F868FEF7B8FC00BF103723
:10AC0400BD4680BD80B590B000AFB9607A603B604E
:10AC14000346FB73FB7B002B0CD13B680A4A93422F
:10AC240008D001233B753B68BB6107F11403184648
:10AC340000F058FB054B1B68184604F0DBFF00BF0F
:10AC44004037BD4680BD00BF5EE6655E783C0020AF
:10AC540080B584B000AFF860B9607A60FB689B8A05
:10AC6400184602F00BFE0346012B0BD1FB681B7B3D
:10AC7400002B07D0FB681B7B022B05D1FB681B69EB
:10AC8400002B01D1102317E0FB689B7D5BB2002BE6
:10AC940001DA072310E0FB681B78002B06D07A68E2
:10ACA400B968F868FFF7D8FA034605E07A68B96826
:10ACB400F868FFF7C9F9034618461037BD4680BD4A
:10ACC40080B582B000AF786000F088F84FF4D87295
:10ACD40000211B4826F0FCFA08F06AFC194B0022FC
:10ACE4001A6040220021184826F0F2FA174B184A3D
:10ACF4001A60164B174A5A60144B4CF250329A6041
:10AD0400124B154ADA60114B4CF250321A610F4B58
:10AD140004221A750D4B00229A750C4B08225A75A1
:10AD24000E4804F035FF02460D4B1A600D4B00220D
:10AD34001A600D4808F0AAFE00BF0837BD4680BD62
:10AD44007C3A0020343C0020383C0020643A002047
:10AD540080969800F049020020A1070055A5020042
:10AD6400783C0020843C002009AC020080B584B00B
:10AD740000AF786039607B68002B0CBF012300238F
:10AD8400DAB23B68002B0CBF01230023DBB2534033
:10AD9400DBB2002B01D00E2318E07B68002B06D118
:10ADA4003B68002B03D100F019F800230EE0EFF309
:10ADB4001083FB6072B6074A7B681360064A3B68DF
:10ADC4001360FB68002B00D162B6002318461037CD
:10ADD400BD4680BD2C3C0020303C002080B582B0B4
:10ADE40000AF08490848FFF7C1FF0346002B04D011
:10ADF4007B467B607868FCF74BFD00BF0837BD4697
:10AE040080BD00BF41110500A910050080B592B0B6
:10AE140000AFF860B9607A603B6000237B64FB6834
:10AE2400002B02D07B68002B01D10E2373E007F1C5
:10AE34003C0308220021184626F04AFA7B685B8806
:10AE440007F13C021146184613F0B4FE034683F0A2
:10AE54000103DBB2002B01D07B6C5CE07B681889BA
:10AE64007B68D9687B681B69DBB203F00103DBB242
:10AE74001A4608F0FBFB0346002B01D07B6C4AE02A
:10AE84007B6818897B68D9687B681B69DBB203F02F
:10AE94000103DBB21A4608F091FB78647B6C002B4B
:10AEA4000DD07B6818897B681B69DBB203F0010352
:10AEB400DBB200221946FEF79FF97B6C2BE007F109
:10AEC40010031A467968F868FFF717FC07F11C03AA
:10AED40007F13C0292E8030083E8030004F002FE59
:10AEE4003B7C002B0AD0F868FDF7F0FEBB68191F05
:10AEF40007F110023B68FEF7F3FD09E0F868FDF77F
:10AF0400F1FEBB68591E07F110023B68FFF7F2FD22
:10AF140004F012FE002318464837BD4680BD80B5B4
:10AF24008EB000AF786039607B68002B0BD07B68F3
:10AF34001B69002B07D07B68DB69002B03D07B687F
:10AF44009B69002B01D10E2316E007F108037968F1
:10AF54001846FEF78BFF78637B6B002B01D07B6B6D
:10AF64000AE07B6819697B689B8A1A4607F1080323
:10AF74001846FFF76DFE034618463837BD4680BDB8
:10AF840080B58EB000AF786039607B68002B07D045
:10AF94007B685B68002B03D07B689B69002B01D125
:10AFA4000E2322E07B681B7C022B03D07B681B7C76
:10AFB400002B01D1102318E07B681B785BB2002BB7
:10AFC40001DA072311E007F10C033A68796818469F
:10AFD400FEF7E8FF7B685B6819467B689A6807F1AF
:10AFE4000C031846FFF734FE034618463837BD46AF
:10AFF40080BD000080B483B000AF03463960FB809D
:10B004003B68002B01D10E23A1E0FB88A3F59673C6
:10B01400072B00F2998001A252F823F041B00200FC
:10B0240063B0020085B00200A9B00200CBB00200F8
:10B03400EDB002000DB102002DB102003B685B6867
:10B04400464A934204D93B685B68454A934201D916
:10B0540007237CE03B685B68424A136076E03B6808
:10B064005B68414A934204D93B685B683F4A934218
:10B0740001D907236BE03B685B683A4A536065E09B
:10B084003B685B684CF24F32934204D93B685B687F
:10B09400364A934201D9072359E03B685B68314A39
:10B0A400936053E03B685B68314A934204D93B6840
:10B0B4005B682E4A934201D9072348E03B685B68EA
:10B0C400284AD36042E03B685B68294A934204D92A
:10B0D4003B685B68254A934201D9072337E03B6804
:10B0E4005B68204A136131E03B685B68012B03D93C
:10B0F4003B685B68FF2B01D9072328E03B685B684A
:10B10400DAB2184B1A7521E03B685B687F2B03D8D1
:10B114003B685B68002B01D1072318E03B685B6840
:10B12400DAB2104B5A7511E03B685B68012B05D00D
:10B134003B685B68002B01D0072308E03B685B6831
:10B14400DAB2084B9A7501E0052300E000231846A3
:10B154000C37BD465DF8047B704700BF7F969800AE
:10B16400000E2707643A0020EF49020080969800F9
:10B174003F0D030080B582B000AF03463960FB8009
:10B184003B68002B01D10E234AE0082200213868D5
:10B1940026F09EF8FB88A3F59673072B3DD801A2F1
:10B1A40052F823F0C9B10200D3B10200DDB10200AC
:10B1B400E7B10200F1B10200FBB1020007B20200E4
:10B1C40013B20200184B1A683B685A6027E0164B0A
:10B1D4005A683B685A6022E0134B9A683B685A608D
:10B1E4001DE0114BDA683B685A6018E00E4B1A698F
:10B1F4003B685A6013E00C4B1B7D1A463B685A604F
:10B204000DE0094B5B7D1A463B685A6007E0064B2C
:10B214009B7D1A463B685A6001E0052300E0002349
:10B2240018460837BD4680BD643A002080B584B016
:10B2340000AF786039607B68002B01D10E2349E0B0
:10B24400264B1B68002B01D0042343E00023FB6042
:10B2540029E0FB68DB007A6813445B68002B01D1AA
:10B264000E2337E0FB68DB007A6813441B785BB27B
:10B27400002B01DA0B232DE0FB68DB007A68134412
:10B284001B78002B0AD0FB68DB007A6813441B7818
:10B294001846FFF70FFB0346002B01D00F2319E0DC
:10B2A400FB680133FB60FA683B689A42D1D30B4BCD
:10B2B4001B680B497A6841F83320084B1B68084A1D
:10B2C400DB0013443A685A60044B1B680133034A99
:10B2D4001360002318461037BD4680BD843C00200F
:10B2E4007C3C002080B586B000AF78607B68002B82
:10B2F40004D17B463B613869FCF7CAFA0C4B1B68E6
:10B30400002B10D00A4B1B687B6109E07B69043B6E
:10B31400FB60FB681B68786898477B691B687B61E6
:10B324007B69002BF2D100BF1837BD4680BD00BF3A
:10B33400883C002080B584B000AF78607B68002B27
:10B3440004D17B46FB60F868FCF7A2FA7B680433FF
:10B354001946034806F02EFB00BF1037BD4680BDDA
:10B36400883C002080B584B000AF78607B68002BF7
:10B3740004D17B46FB60F868FCF78AFA7B680433E7
:10B384001946034806F058FB00BF1037BD4680BD80
:10B39400883C002080B483B000AF786039603B689B
:10B3A4007A6892689B1A9BB218460C37BD465DF8C2
:10B3B400047B704780B483B000AF78600B467B8019
:10B3C4007B689A687B88134418460C37BD465DF841
:10B3D400047B704780B584B000AF786039603B6807
:10B3E4001B8819467868FFF7E5FF03461B8804337A
:10B3F400BB813B681A88BB8903339BB223F00303E8
:10B404009BB21344FB81FA897B681B88043B9A42F4
:10B4140001D90023FB813B68FA891A8000BF1037E9
:10B42400BD4680BD80B584B000AF786039603968AE
:10B434007868FFF7AFFF0346FB8107F10E03194657
:10B444007868FFF7C7FFFB8919467868FFF7B2FFF2
:10B45400034618461037BD4680BD80B584B000AFA2
:10B46400786039607B689B687A6892881A443B6884
:10B474009A4204D07B46FB60F868FCF709FA3B6803
:10B4840000229A707B68043319467868FFF7A2FF9C
:10B494007B689B8819467868FFF78CFF03469B7886
:10B4A400042B02D17B6800229A8000BF1037BD466E
:10B4B40080BD80B584B000AF786039607B689B68DC
:10B4C4007A6852881A443B689A4204D07B46FB60EF
:10B4D400F868FCF7DDF93B6800229A7000BF10376A
:10B4E400BD4680BD80B483B000AF78607B681B88A4
:10B4F400043B9BB218460C37BD465DF8047B70478D
:10B5040080B584B000AF78600B467B807B685B8835
:10B5140019467868FFF74EFFF860FB687A881A804E
:10B52400FB6801229A70FB6818461037BD4680BD3F
:10B5340080B582B000AF786000217868FFF73AFFE9
:10B54400034600229A707B6800225A807B6800229E
:10B554009A8000BF0837BD4680BD80B586B000AF75
:10B5640078600B467B807B8807339BB223F0030310
:10B574007B827B685A887B689B889A420ED27A8A3F
:10B584007B689B8819467B685B88CB1A9A4202DCED
:10B5940000237B6142E004237B613FE07B685A889F
:10B5A4007B689B889A4227D97B681B881A467B68EC
:10B5B4005B88D31AFB607A8AFB689A4202D800231C
:10B5C4007B612BE07B689B887A8A9A4211D8FB685E
:10B5D400032B08D97B685B8819467868FFF7EAFE75
:10B5E400034604229A707B6800225A8000237B6100
:10B5F40014E004237B6111E07B689B88194678681A
:10B60400FFF7D8FE03469B78002B05D17868FFF737
:10B614008FFF00237B6101E004237B617B69184673
:10B624001837BD4680BD80B58AB000AFF860B960F8
:10B634001346FB80BB68002B04D17B467B62786A8F
:10B64400FCF726F9FB68002B04D17B463B62386A81
:10B65400FCF71EF9BB68B3F1005F09D94FF08053C2
:10B66400D3F80C3103F500239A02BB689A4212D82E
:10B67400BB68B3F5000F09D94FF08053D3F80C31F0
:10B6840003F500539A02BB689A4204D87B46FB61D7
:10B69400F869FCF7FDF8FB88013BBA681344B3F181
:10B6A400005F0DD9FB88013BBA6813441A464FF07A
:10B6B4008053D3F80C3103F500239B029A4219D32B
:10B6C400FB88013BBA681344B3F5000F0DD9FB881E
:10B6D400013BBA6813441A464FF08053D3F80C3137
:10B6E40003F500539B029A4204D37B46BB61B869BD
:10B6F400FCF7CEF8FB88042B04D87B467B61786981
:10B70400FCF7C6F8FB68FA881A80FB6800225A80A6
:10B71400FB6800229A80FB68BA689A600021F86886
:10B72400FFF748FE3861FB681B88043B9AB23B690B
:10B734001A803B6900229A7000BF2837BD4680BD3D
:10B7440080B588B000AF78607B68002B04D17B465D
:10B75400FB61F869FCF79CF87B685B88194678689C
:10B76400FFF728FE03469B78012B04D17B46BB617F
:10B77400B869FCF78DF87B689B8819467868FFF7F1
:10B7840019FE7861EFF310833B6172B67B699B7895
:10B79400032B0CBF01230023FB73FB7B002B10D076
:10B7A40079697868FFF73EFE786179697868FFF710
:10B7B400F1FD03461A467B685A807B6900229A7021
:10B7C40002E07868FFF7B4FE3B69002B00D162B653
:10B7D40000BF2037BD4680BD80B588B000AFF8609B
:10B7E400B9601346FB80FB68002B04D17B46BB6128
:10B7F400B869FCF74DF8BB68002B04D17B467B612C
:10B804007869FCF745F8FB685B881946F868FFF728
:10B81400D1FD03469B78012B04D17B463B613869FB
:10B82400FCF736F80023FB61FB88002B07D0F8688F
:10B83400FFF758FE03461A46FB88934202D90923B0
:10B84400FB6110E0FB881946F868FFF786FEF86193
:10B85400FB69002B07D1FB881946F868FFF750FEF7
:10B864000246BB681A60FB6918462037BD4680BD96
:10B8740080B58AB000AFF860B9601346FB80FB68FE
:10B88400002B04D17B467B62786AFCF701F8BB6825
:10B89400002B04D17B463B62386AFBF7F9FFBB6897
:10B8A4009B78012B04D07B46FB61F869FBF7F0FF22
:10B8B400BB681B88FA889A4204D97B46BB61B86985
:10B8C400FBF7E6FFFB88002B04D17B467B6178699C
:10B8D400FBF7DEFFBB68FA881A80BB6802229A7005
:10B8E400FB6802331946F868FFF774FDFB685A8851
:10B8F400FB689B889A4209D0FB685B881946F86804
:10B90400FFF758FD38613B6900229A7000BF283761
:10B91400BD4680BD80B588B000AF786039607B6873
:10B92400002B04D17B46BB61B869FBF7B1FF3B68D0
:10B93400002B04D17B467B617869FBF7A9FF0023C8
:10B94400FB617B689B8819467868FFF733FD386193
:10B954003B699B78022B02D0032B07D00CE03B6998
:10B9640003229A703B683A691A6008E07B46FB60E0
:10B97400F868FBF78DFF02E00523FB6100BFFB695C
:10B9840018462037BD4680BD80B584B000AF7860CE
:10B994007B68002B04D17B46FB60F868FBF778FFDB
:10B9A4007B689B8819467868FFF704FD03469B78FB
:10B9B400022B0CBF01230023DBB218461037BD460F
:10B9C40080BD80B584B000AF78607B68002B04D163
:10B9D4007B46BB60B868FBF75BFF7B689B881946B6
:10B9E4007868FFF7E7FCF86004E0F9687868FFF727
:10B9F40019FDF860FB689B78032BF6D0FB689B78F5
:10BA0400022B0CBF01230023DBB218461037BD46BE
:10BA140080BD80B586B000AF786039607B68002B4C
:10BA240004D17B467B617869FBF732FF3B68002BCE
:10BA340004D17B463B613869FBF72AFF3B689B785E
:10BA4400012B06D0032B09D139687868FFF705FD6F
:10BA540009E039687868FFF72CFD04E07B46FB6059
:10BA6400F868FBF715FF00BF1837BD4680BD80B5E9
:10BA740088B000AFF860B9607A603B6001233B7422
:10BA8400FB687B61BB68FB617B68BB6107F11003EA
:10BA94003A681946012001F00FFE03461846203784
:10BAA400BD4680BD80B588B000AFF860B9607A60EB
:10BAB40002233B74FB687B61BB68BB6107F1100325
:10BAC4007A681946012001F0F7FD0346184620372D
