:020000022000DC
:1060000000F0002035620200656202006762020053
:10601000696202006B6202006D6202000000000013
:106020000000000000000000000000006F6202009D
:1060300071620200000000007362020075620200DB
:10604000796202007B6202007D620200012B050082
:106050008162020083620200D5760200876202003C
:10606000896202008B620200090F04008F62020045
:106070009162020093620200956202009762020040
:1060800099620200E51A05002B0003009F620200DE
:10609000251B0500A362020061660400A7620200DE
:1060A000A9620200AB620200AD620200AF620200B0
:1060B000B1620200B36202007762020077620200FE
:1060C000B5620200B7620200B9620200BB62020060
:0C60D000BD620200BF620200C16202005B
:1060DC00354936480A1A02D0072291438D46344975
:1060EC0034480A1A06D00722914381F30988022208
:1060FC0082F3148830483149314A00F043F8314872
:10610C003149324A00F03EF831483249324A00F007
:10611C0039F832483249334A00F034F832483349BE
:10612C00334A00F02FF833483349344A00F02AF848
:10613C0033483449344A00F025F8344834490022B5
:10614C0000F02BF833483449002200F026F833488D
:10615C003349091A082903DB00220260043001606C
:10616C001F482049884205D00268043003B4904788
:10617C0003BCF7E700208646EC4600200021294AA4
:10618C009047FEE7884207D0521A05D003780130B9
:10619C000B700131013AF9D17047884202D002707C
:1061AC000130FAE77047000000F0002000E8002002
:1061BC0000F0002000F0002018570500C832002025
:1061CC005C340020C4620200C4620200E83B05009B
:1061DC0018570500C8320020C8320020EC3C0500DE
:1061EC00EC3C0500EC3C0500EC3C0500EC3C0500EF
:1061FC00EC3C0500EC3C0500EC3C0500165705009A
:10620C00AC5805005C3400205C3400205C34002069
:10621C00746D0020746D0020746D0020746D00206E
:10622C0074710020B57A020008484FF007018843CA
:10623C008546074880470748016841F470010160B2
:10624C00BFF34F8FBFF36F8FFFF742BF00F00020FB
:10625C00B569040088ED00E0FEE7FEE7FEE7FEE727
:10626C00FEE7FEE7FEE7FEE7FEE7FEE7FEE7FEE7FA
:10627C00FEE7FEE7FEE7FEE7FEE7FEE7FEE7FEE7EA
:10628C00FEE7FEE7FEE7FEE7FEE7FEE7FEE7FEE7DA
:10629C00FEE7FEE7FEE7FEE7FEE7FEE7FEE7FEE7CA
:1062AC00FEE7FEE7FEE7FEE7FEE7FEE7FEE7FEE7BA
:0862BC00FEE7FEE7FEE700BF6C
:1062C40080B483B000AF0346FB71094997F90730E6
:1062D4005B09FA7902F01F02012000FA02F241F888
:1062E400232000BF0C37BD465DF8047B704700BF18
:1062F40000E100E080B483B000AF03463960FB7175
:1063040097F90730002B0BDA0D49FB7903F00F03E3
:10631400043B3A68D2B25201D2B20B441A7609E075
:10632400084997F907303A68D2B25201D2B20B4405
:1063340083F8002300BF0C37BD465DF8047B70472B
:1063440000ED00E000E100E080B400AFBFF34F8F48
:106354000549054BDB6803F4E062044B1343CB604F
:10636400BFF34F8F00BFFDE700ED00E00400FA0526
:1063740041DF704700BF184680B483B000AFEFF32D
:1063840010833B603B687B6072B67B6818460C37B1
:10639400BD465DF8047B704780B400AF62B600BFB1
:1063A400BD465DF8047B704780B584B000AF78606B
:1063B400FFF7E2FFF860164B9B68002B1BD1144BD0
:1063C40001229A60134BD3F88020134B1340104AD8
:1063D4001360104B104AC3F880200E4BD3F884305E
:1063E4000B4A53600B4B4FF0FF32C3F884207B6899
:1063F40000221A7002E07B6801221A70FB68002BED
:1064040001D1FFF7C9FF002318461037BD4680BDF0
:10641400906B002000E100E0FC06FFBD80B584B075
:1064240000AF0346FB710F4B9B68002B15D0FB7923
:10643400002B12D1FFF7A0FFF8600B4A094B1B6831
:106444001360094A074B5B685360064B00229A604D
:10645400FB68002B01D1FFF79FFF0023184610377C
:10646400BD4680BD906B002000E100E080B584B0A3
:1064740000AF78607B68002B0AD0074B43F0010320
:10648400FB607B689B01BB60FB68B868984700E0D1
:1064940000BF1037BD4680BD9040050080B483B076
:1064A40000AF78604FF0A04318460C37BD465DF846
:1064B400047B704780B584B000AF7860084611460D
:1064C4001A460346FB700B46BB7013467B703B1D9C
:1064D4001846FFF7E3FFF8607A68F978BB785B0049
:1064E40019437B789B0019433B7E1B0219433B7F76
:1064F4001B041943FB6802F5E07243F8221000BF45
:106504001037BD4680BD80B584B002AF78600023EB
:106514000193002300930023012201217868FFF7EF
:10652400C9FF00BF0837BD4680BD80B584B002AF47
:1065340078600B46FB70FA780023019300230093E4
:106544001346002200217868FFF7B4FF00BF083724
:10655400BD4680BD80B584B000AF78603B1D184651
:10656400FFF79CFFF8607B68012202FA03F31946E7
:10657400F86800F027F800BF1037BD4680BD80B52D
:1065840084B000AF78603B1D1846FFF787FFF860C2
:10659400F86800F00AF802467B6822FA03F303F075
:1065A400010318461037BD4680BD80B483B000AFE8
:1065B40078607B68D3F8103518460C37BD465DF813
:1065C400047B704780B483B000AF786039607B6827
:1065D4003A68C3F80C2500BF0C37BD465DF8047B50
:1065E4007047000080B400AF034BD3F8043518465D
:1065F400BD465DF8047B704700B000407ADF704709
:1066040000BF18467CDF704700BF184680B586B0CF
:1066140000AF786007F10F031846FFF7C5FE7861F5
:106624007B69002B04D00C4A7621786920F048FD60
:106634007B689847FB7B1846FFF7F0FE38613B699F
:10664400002B04D0044A7821386920F039FD00BFBA
:106654001837BD4680BD00BFEC3C050080B483B054
:1066640000AF786039607A683B68D31A002B03DA8C
:106674003A687B68D31A02E07A683B68D31A1846F2
:106684000C37BD465DF8047B704780B582B000AF1F
:1066940078607B68002B0AD04FF47A70FFF7E6FE2F
:1066A4007B68013B7B607B68002BF5D100E000BF79
:1066B4000837BD4680BD80B582B000AF78603960D0
:1066C400786807F04EFF00BF0837BD4680BD000064
:1066D40090B585B002AF38223049012002F00AFE9D
:1066E40078607B68002B1BD12D4B1B6803F480431F
:1066F400002B4FD02B4B1B68032B4BDD2A4B002B5D
:1067040001D02A4C00E02A4CFFF76CFF0246294BCB
:10671400009313468422214604200BF0DFFA39E06B
:106724007B68062B1BD11E4B1B6803F48043002B94
:1067340030D01C4B1B68032B2CDD1B4B002B01D0D2
:106744001A4C00E01A4CFFF74DFF02461A4B009317
:1067540013468822214604200BF0C0FA1AE0104B9D
:106764001B6803F48043002B14D00E4B1B68002BD2
:1067740010DD0D4B002B01D00C4C00E00C4CFFF74E
:1067840031FF02460D4B009313468C222146012013
:106794000BF0A4FA00BF0C37BD4690BDF4340020C2
:1067A4006433002068330020863D0500873D0500E2
:1067B400143D0500903D0500B43D0500E43D050091
:1067C40080B582B000AF7860786802F005FB00BF46
:1067D4000837BD4680BD0000F0B58DB006AF7860C7
:1067E4007B681B78012B4ED100237B618F4B1B6888
:1067F40003F48043002B27D08D4B1B68032B23DD30
:106804008C4B002B01D08C4C00E08C4CFFF7EAFE43
:1068140006467B689B7A1A467B68DB7A19467B6856
:106824001B7A18467B685B7A1D467B681B7B059345
:106834000495039002910192814B00933346B32255
:10684400214604200BF04AFA7B681B7B012B40F0A5
:10685400E9807B681B7A002B03D17B685B7A002B71
:1068640008D07B681B7A05221946764828F01EFC5E
:106874007861D7E07B689B7A05221946714828F035
:1068840015FC7861CEE07B681B78002B40F0CA8051
:106894006D4B1B78012B00F2A8806B4B1B781846BC
:1068A4007B689A6869490346DB001B1A9B000B440A
:1068B40018331A60644B1B781A461346DB009B1A84
:1068C4009B00624A98187B685B68062219462DF083
:1068D400FBF85D4B1B781A461346DB009B1A9B00A2
:1068E4005A4A1344981D7B68DB68102219462DF020
:1068F400EBF8FFF7EDFE544B1B781846524B1B7810
:106904001A461346DB009B1A9B0018334F4A1A445D
:106914004F4903010B4404331A604B4B1B78184650
:10692400494B1B781A461346DB009B1A9B00474AC7
:106934001A44474903010B441A60434B1B78184619
:10694400414B1B781A461346DB009B1A9B003F4AB7
:1069540013449A1D3E4903010B4408331A603A4B11
:106964001B781B013A4A1344184602F01DFB364BB0
:106974001B780133DAB2344B1A702C4B1B6803F4C6
:106984008043002B14D02A4B1B68032B10DD294BAA
:10699400002B01D0284C00E0284CFFF723FE0246D0
:1069A4002C4B00931346D822214604200BF096F971
:1069B400012029F0FFFB38613B69002B04D01F4AFA
:1069C400D921386920F07CFB4FF4FA70FFF75DFEA3
:1069D400012029F021FCF860FB68002B22D0174A23
:1069E400DB21F86820F06CFB1CE0104B1B6803F4FF
:1069F4008043002B16D00E4B1B68002B12DD0D4B71
:106A0400002B01D00C4C00E00C4CFFF7EBFD0246D0
:106A140002230193104B00931346DF2221460120E9
:106A24000BF05CF900BF1C37BD46F0BD6433002099
:106A340068330020863D0500873D0500143D0500B0
:106A4400203E0500E03400204C350020F4340020C2
:106A54002C350020503E0500683E050080B582B00C
:106A640000AF012029F0A6FB78607B68002B04D0DE
:106A74000C4AE821786820F023FB6420FFF705FE28
:106A8400012029F0C9FB38603B68002B04D0054A7B
:106A9400EA21386820F014FB00BF18460837BD46C9
:106AA40080BD00BF143D050090B58DB002AF3B4BD7
:106AB4001B6803F48043002B14D0394B1B68032B51
:106AC40010DD384B002B01D0374C00E0374CFFF77A
:106AD40089FD0246364B00931346EF2221460420DB
:106AE4000BF0FCF807F12003184618F04DFA2B4B75
:106AF4001B6803F48043002B16D0294B1B68032B1F
:106B040012DD284B002B01D0274C00E0274CFFF767
:106B140069FD02463B8C0193264B00931346F122F8
:106B2400214604200BF0DAF83B1D00221A605A605B
:106B34009A60DA601A615A619A612323BB60FF2369
:106B44003B734FF4FA63BB614FF4FA73FB610223A6
:106B54003B714FF4FA73BB6080233B7328233B6182
:106B640005233B754FF4C873BB614FF4C873FB61D5
:106B74003B1D1946012029F081FB78627B6A002BBA
:106B840004D00A4AFA21786A20F09AFA4FF49670EF
:106B9400FFF77BFD00BF2C37BD4690BD643300205A
:106BA40068330020863D0500873D0500143D05003F
:106BB400A43E0500C03E050080B588B000AF3B464A
:106BC40000221A605A609A60DA601A615A619A6106
:106BD40023237B60FF233B724FF4FA637B614FF402
:106BE400FA73BB6101233B704FF4FA737B60FF239C
:106BF4003B722823FB6005233B744FF4C8737B610D
:106C04004FF4C873BB613B461946012029F036FB9B
:106C1400F861FB69002B05D0044A4FF48571F869CB
:106C240020F04EFA00BF2037BD4680BD143D05005C
:106C340080B582B000AF012029F0EEFA78607B685D
:106C4400002B05D0044A4FF48871786820F038FA94
:106C540000BF0837BD4680BD143D050090B589B01E
:106C640002AF7860012029F0D7FA78617B69002BA4
:106C740005D0204A40F21711786920F021FA1E4B02
:106C84001B6803F48043002B19D01C4B1B68032B97
:106C940015DD1B4B002B01D01A4C00E0154CFFF7FF
:106CA400A1FC02467B680F331B780193164B0093BB
:106CB40013464FF48C72214604200BF00FF87B68C6
:106CC4000F331B785AB2114B1A70114B002245F640
:106CD4009A1118462AF094FF38613B69FB60FB68FF
:106CE400002B02D0F86820F089F900BF1C37BD469C
:106CF40090BD00BF143D05006433002068330020BC
:106D0400863D0500873D0500D83E0500543500202A
:106D1400B434002080B483B000AF7860034B1B7898
:106D240018460C37BD465DF8047B7047F1340020EB
:106D340090B587B002AF78600B46FB70234B1B689D
:106D440003F48043002B17D0214B1B68032B13DD66
:106D5400204B002B01D0204C00E0204CFFF742FCDC
:106D64000246FB7801931E4B0093134640F2271210
:106D7400214604200AF0B2FFFB78002B10D001203A
:106D840029F018FAF860FB68002B05D0134A4FF479
:106D94009571F86820F094F9124B01221A700FE0F3
:106DA400012029F039FAB860BB68002B05D00B4AE2
:106DB40040F22F11B86820F083F90A4B00221A70B0
:106DC400FB7818461437BD4690BD00BF64330020DD
:106DD40068330020863D0500873D0500143D05000D
:106DE400E83E0500F134002090B583B002AF114BAA
:106DF4001B6803F48043002B15D00F4B1B68032B37
:106E040011DD0E4B002B01D00D4C00E00D4CFFF7B3
:106E1400E9FB02460C4B009313464FF49C72214647
:106E240004200AF05BFF10F06DF800BF0437BD4684
:106E340090BD00BF6433002068330020863D050008
:106E4400873D0500143D0500003F050080B582B074
:106E540000AF78607B681B781C2B01D1FFF7C4FF5F
:106E64007B681B780A2B01D1FFF7F8FD7B681B7840
:106E7400022B01D1FFF7F2FD00BF0837BD4680BDEC
:106E840080B582B000AF0C4B1B88BA1D1146184662
:106E940014F074FD0346002B06D1FB884FF6FF72F5
:106EA400934203D1002302E0002300E001231846AB
:106EB4000837BD4680BD00BFE034002090B587B0E0
:106EC40002AF7860304B1B6803F48043002B17D06B
:106ED4002E4B1B68032B13DD2D4B002B01D02D4CA7
:106EE40000E02D4CFFF77EFB02467B6801932B4BA1
:106EF400009313464FF4B172214604200AF0EEFECB
:106F0400FFF7BEFF0346002B1CD00023FB607B6809
:106F1400012B34D8224B1B78002B14BF01230023F0
:106F2400DBB283F00103DBB203F00103DAB21C4BE2
:106F34001A701B4B1B78052219461A4828F0B6F81C
:106F4400F8601DE0104B1B6803F48043002B17D03E
:106F54000E4B1B68032B13DD0D4B002B01D00D4C86
:106F640000E00D4CFFF73EFB02460F4B0093134627
:106F74004FF4BE72214604200AF0B0FE00E000BFC8
:106F840000BF1437BD4690BD643300206833002031
:106F9400863D0500873D0500143D05001C3F0500A6
:106FA400F2340020E0340020303F050080B584B086
:106FB40000AF78607B682F2B08DD7B68342B05DC01
:106FC4007B68303BFB60F868FFF778FF00BF103741
:106FD400BD4680BD90B585B002AF78600B46FB70AE
:106FE40013463B80274B1B6803F48043002B15D0CA
:106FF400254B1B68002B11DD244B002B01D0244CA6
:1070040000E0244CFFF7EEFA0246234B00931346AC
:107014004FF4C672214601200AF060FEFB78012B72
:1070240007D0022B26D0002B07D11C4B01221A704B
:1070340023E01A4B00221A701FE0124B1B6803F462
:107044008043002B18D0104B1B68002B14DD0F4B12
:10705400002B01D00E4C00E00E4CFFF7C3FA0246A1
:107064000F4B0093134640F29F12214601200AF071
:1070740035FE01E000BF00E000BF00BF0C37BD4695
:1070840090BD00BF6433002068330020863D0500B6
:10709400873D0500143D0500543F0500F2340020EF
:1070A400703F050090B585B002AF03463960FB80A0
:1070B4000F4B1B6803F48043002B15D00D4B1B684A
:1070C400002B11DD0C4B002B01D00C4C00E00C4CC0
:1070D400FFF788FA02460B4B0093134640F2A512C1
:1070E400214601200AF0FAFD00BF0C37BD4690BDD1
:1070F4006433002068330020863D0500873D050089
:10710400143D0500843F050090B587B002AF334BB2
:107114001B6803F48043002B15D0314B1B68032BF1
:1071240011DD304B002B01D02F4C00E02F4CFFF72A
:1071340059FA02462E4B009313464FF4D57221465A
:1071440004200AF0CBFD2B4B2B4A5A60294B2B4AC7
:107154009A600021274828F0EBF8F860FB68002BC0
:1071640005D0224A40F2AD11F8681FF0A9FF214B67
:107174001B88184614F08EFDB860BB68002B05D040
:107184001A4A4FF4D771B8681FF09AFF1C4B1D4A76
:107194005A601B4B1C4A9A600121194827F056FF7C
:1071A40078607B68002B05D0104A4FF4D971786859
:1071B4001FF086FF124B1B88184614F06BFD3860D5
:1071C4003B68002B05D0094A40F2B31138681FF020
:1071D40077FF00BF1437BD4690BD00BF6433002065
:1071E40068330020863D0500873D0500143D0500F9
:1071F400A03F0500D4340020196D0200356D020053
:10720400E0340020D96F0200A970020080B590B06C
:1072140000AF1F4B1B687B6207F1240107F12803B1
:107224000422184600F0DCFCF863FB6B002B05D04D
:10723400184A4FF4DE71F86B1FF042FF3B462422DC
:10724400002118462CF06AFC01233B700723FB70D5
:1072540007233B7207F12803FB600F4B3B610F4B85
:107264003B623B460E4918460FF04EFDB863BB6BBC
:10727400002B05D0074A40F2C511B86B1FF020FF60
:10728400084807F063F900BF4037BD4680BD00BF22
:10729400C03F0500143D0500516E02000D7102004F
:1072A400F0340020D832002080B586B000AF3B789F
:1072B400012262F303033B703B78012262F307135C
:1072C4003B703B46062217491846FFF79BF9786145
:1072D4007B693B613B69002B02D038691FF08EFE4D
:1072E4003B1D0822002118462CF018FCC823BB8043
:1072F4004FF44873FB8000233B814FF4C8737B81B8
:107304003B1D1846FFF77AF978617B69FB60FB68DF
:10731400002B02D0F8681FF071FE00BF1837BD467D
:1073240080BD00BFC43F050090B589B002AF2B4AB1
:1073340007214FF4C0400AF0B5FC294B1B6803F445
:107344008043002B15D0274B1B68032B11DD264BE4
:10735400002B01D0254C00E0254CFFF743F90246F1
:10736400244B009313464FF4F372214604200AF091
:10737400B5FC1FF0B7F878617B693B613B69002B72
:1073840002D038691FF03AFE00237B603B1D19468A
:1073940001201FF0E5F978617B69FB60FB68002B35
:1073A40002D0F8681FF02AFE3B1D18461FF066FA4B
:1073B40078617B69BB60BB68002B02D0B8681FF0A2
:1073C4001DFEFFF771FFFFF721FF01F005FF0A48DB
:1073D40001F002FE00BF1C37BD4690BD6D1C0300CA
:1073E4006433002068330020863D0500873D050096
:1073F400143D0500CC3F0500DD6702002DE9F04394
:107404009DB004AF64218B4800F094FB0FF0D8FCCE
:10741400B865BB6D002B05D0874A40F20121B86DD9
:107424001FF04EFE854B1B7883F00103DBB2002B6B
:1074340055D007F11C0300221A605A609A60DA6082
:107444001A615A617E4BFB617E4B3B627E4B7B62D1
:107454007E4BBB627E4B3B6307F11C03184600F076
:1074640031FD78657B6D002B05D0734A40F20E2107
:10747400786D1FF025FE3B4600221A605A609A6020
:10748400DA601A615A619A6123237B60FF233B729D
:107494004FF4FA637B614FF4FA73BB6101233B70D1
:1074A4004FF4FA737B60FF233B722823FB600523B0
:1074B4003B744FF4C8737B614FF4C873BB613B46A4
:1074C4001946012028F0DAFE38653B6D002B35D0D3
:1074D400594A40F21921386D1FF0F2FD2EE00321C4
:1074E4000B20FFF722F80B20FFF749F80346002B87
:1074F40007D10FF0DDFC4FF4FA70FFF7C6F8FFF781
:1075040073FC012028F056FEF864FB6C002B05D0B8
:10751400494A40F22721F86C1FF0D2FD6420FFF79E
:10752400B4F8012028F078FEB864BB6C002B05D0B9
:10753400414A40F22921B86C1FF0C2FD01F052FF0C
:107544007864444B1B6803F48043002B6CD0424B9B
:107554001B68032B68DD6B461E4610233B643B6CA3
:107564005B00591C0B46013BFB630A464FF00003CA
:107574004FEAC30949EA52794FEAC2080A464FF072
:107584000003DD0045EA5275D400CB1DDB08DB00A7
:10759400ADEB030D04AB0033BB630023FB6523E0B9
:1075A4007A6CFB6D13441B7887F83730FB6D5B00F6
:1075B4002A4A116897F837201209D2B202F00F0252
:1075C4000A441178BA6BD154FB6D5B000133234A32
:1075D400116897F8372002F00F020A441178BA6B49
:1075E400D154FB6D0133FB65FA6D3B6C9A42D7D3E2
:1075F4003B6C5B00BA6B0021D154194B002B01D0BA
:10760400184C00E00C4CFEF7EDFF0246BB6B0293F6
:10761400154B0193154B0093134640F22D2221463E
:1076240004200AF05BFBB54600BF6437BD46BDE8E5
:10763400F08300BFB16F0200143D0500F034002058
:10764400AD6A0200BD6B0200356C0200616C020081
:107654009840050064330020683300206033002024
:10766400863D0500873D05000440050014400500E3
:1076740080B584B000AFF860B9607A60FEF764FE4C
:107684007A68B968F8681FF0CFFC00BF1037BD46B0
:1076940080BD000080B500AF4FF0A0430A4AC3F894
:1076A4002C270A4B4FF00042C3F80423074B002257
:1076B400C3F87C2107210620FEF71CFE0620FEF7F6
:1076C400FFFD0023184680BD0C000300006000404D
:1076D40080B500AF0D4B0022C3F87C210C4B1A6817
:1076E4000C4BD3F8043519461046FEF7B7FF024693
:1076F40043F233339A4207D9064BD3F80435044A8C
:1077040013600020FFF7DAFB00BF80BD006000407B
:107714005035002000B0004080B588B000AF2C4B3D
:107724003E221A702A4B2B4A5A60294B2A4A9A60E5
:107734002A4B3B6002233B7104237B71244BBB60C7
:1077440010233B733B460021184628F0C7FDF8611F
:10775400FB69BB61BB69002B02D0B8691FF04EFC0A
:10776400002028F059FD78617B69002B05D01C4A64
:1077740040F27D2178691FF0A3FC012028F04CFD24
:1077840038613B69002B05D0154A40F27E213869E7
:107794001FF096FC1220FEF7B6FE1320FEF7B3FE90
:1077A4001420FEF7B0FE1520FEF7ADFE1220FEF702
:1077B400D1FE1320FEF7CEFE1420FEF7CBFE1520DB
:1077C400FEF7C8FE002318462037BD4680BD00BF23
:1077D400583500207C400500A8400500B84005004D
:1077E400143D050080B584B000AF094B7B603B1DA0
:1077F40018462BF0F1FBF860FB68BB60BB68002BFC
:1078040002D0B8681FF0FAFB00BF1037BD4680BD38
:10781400C840050080B586B000AF7860012028F02C
:10782400C9FC78617B69002B05D0194A40F2B1216B
:1078340078691FF045FC6420FEF727FF012028F03B
:10784400EBFC38613B69002B05D0114A4FF42D71D4
:1078540038691FF035FC0F4B93F90030DBB2013B64
:10786400DBB25AB20B4B1A700A4B93F90030002B5F
:107874000ADC094B18462AF0F7F9F860FB68002B7C
:1078840002D0F8681FF0BAFB00BF1837BD4680BDB0
:10789400143D050054350020B434002080B584B074
:1078A40000AF2AF043F9F860FB68BB60BB68002BAB
:1078B40002D0B8681FF0A2FB084A012108482AF048
:1078C4006BF9F860FB687B607B68002B02D07868FA
:1078D4001FF094FB00BF1037BD4680BD197802002D
:1078E4007840050090B585B002AF78607B681B785E
:1078F4000D2B00D028E0164B1B6803F48043002BAB
:1079040015D0144B1B68042B11DD134B002B01D035
:10791400124C00E0124CFEF765FE0246114B009338
:1079240013464FF43672214605200AF0D7F90E4B60
:107934001B7883F00103DBB2002B04D000F016F8AF
:10794400094B01221A7000BF00BF0C37BD4690BD21
:107954006433002068330020863D0500873D050020
:10796400143D05001C4005006435002090B585B029
:1079740002AF444B1B6803F48043002B15D0424BE9
:107984001B68032B11DD414B002B01D0404C00E060
:10799400404CFEF727FE02463F4B0093134640F24D
:1079A400EB22214604200AF099F938223B490120B0
:1079B40001F076FC0346002B5AD10023FB7153E0FF
:1079C400F979FA791346DB009B1A9B00334A1A446F
:1079D40033480B0103441A60F979FA791346DB0042
:1079E4009B1A9B002D4A13449A1D2D480B010344F6
:1079F40008331A60F979FA791346DB009B1A9B0065
:107A04001833264A1A4426480B01034404331A60E7
:107A1400244B1B780133DAB2224B1A70FB791B0119
:107A24001F4A1344184601F0BFFA164B1B6803F4AF
:107A34008043002B15D0144B1B68032B11DD134B13
:107A4400002B01D0124C00E0124CFEF7CBFD024695
:107A5400154B0093134640F2F722214604200AF006
:107A64003DF9FB790133FB71FB79012BA8D902E0C5
:107A74000C4B00221A700D4806F080FD00BF0C3735
:107A8400BD4690BD6433002068330020863D050068
:107A9400873D0500143D050038400500F4340020FE
:107AA4002C3500204C35002050400500C5670200ED
:107AB40080B584B000AF0023FB60FB68BB60BB688B
:107AC400002B02D0B8681FF099FAFFF7E7FEFFF722
:107AD40089FEFFF721FEF860FB687B607B68002B62
:107AE40002D078681FF08AFAFFF71EFC0348FEF7FD
:107AF4008DFDFFF7CFFDFEF73BFCFCE701740200B0
:107B040080B584B000AF7860094B1B68002B0BD0A4
:107B14001BF00EFDF860FB68002B04DB044B1B68B4
:107B2400F8689847F4E700BF00BF1037BD4680BD32
:107B3400683500202DE9F04385B000AF78603960E6
:107B4400224A7B681360224A012122482AF024F841
:107B5400F860FB68002B04D01F4A4621F8681FF028
:107B6400AFFA1E4E3B681A464FF00003550CD4037F
:107B740041F26F724FF00003AB4208BFA24211D230
:107B84003B684FF000044FEA53494FEAC3384FF4BF
:107B94007A724FF00003404649462BF041FE0346FB
:107BA4000C4600E005230022194630462AF028F846
:107BB400B860BB68002B04D0074A4721B8681FF09F
:107BC4007FFA00BF1437BD46BDE8F0836835002056
:107BD400057B0200E4400500E84005006C35002008
:107BE40080B584B000AFF860B9601346FB71FB79CF
:107BF400082B01D9092317E0FB791A46B968F868FC
:107C04002BF062FFFB79FA68D018FB79C3F1080303
:107C14001A4600212BF082FFFB680833082204492E
:107C240018462BF051FF002318461037BD4680BD7F
:107C34006000001080B400AF06231846BD465DF80E
:107C4400047B704780B584B000AF786000233B812B
:107C5400064BFB6007F108031A46796844F20200F8
:107C6400FFF706FD00BF1037BD4680BD2441050067
:107C740080B58EB000AF03463960FB71404B1B7872
:107C840083F00103DBB2002B72D1FB79012B02D00C
:107C9400032B61D071E000237B6107F114031946C3
:107CA40001201EF05DFD78637B6B3B633B6B002B17
:107CB40002D0386B1FF0A2F907F1140318461EF026
:107CC400DDFD78637B6BFB62FB6A002B02D0F86AF4
:107CD4001FF094F90123FB6007F10C0207F1120372
:107CE4001146184617F0B2FFB862BB6A002B02D0E7
:107CF400B86A1FF083F97B8A184617F0B9FB03466C
:107D04001A4607F10B031946104617F01DFD786259
:107D14007B6A002B02D0786A1FF070F911F0C0FA68
:107D2400FB7A1946002011F03BFC06F04BFB78630C
:107D34007B6B3B623B6A002B02D0386A1FF05EF912
:107D44000F4B00221A700F4B1B68002B12D00D4BE7
:107D54001B68984700BF0DE01EF0C4FBF861FB6987
:107D6400BB61BB69002B07D0B8691FF047F903E07A
:107D740000BF02E000BF00E000BF3837BD4680BD51
:107D84008C350020A837002080B584B000AF0E4B9E
:107D940001221A7006F07EFBF860FB68BB60BB68CA
:107DA400002B02D0B8681FF029F91EF0EFFBF86031
:107DB400FB687B607B68002B02D078681FF01EF99B
:107DC40000BF1037BD4680BD8C35002080B500AFA4
:107DD400044B196903230022034820F0D9F8034611
:107DE400184680BDA8370020C037002080B586B073
:107DF40000AF78600023FB757B681B78013B092B7F
:107E040053D801A252F823F0A77E0200357E020067
:107E1400AF7E0200AF7E0200997E0200AF7E0200B8
:107E2400557E0200AF7E0200AF7E0200737E020028
:107E3400214B1B7883F00103DBB2002B05D0FFF745
:107E4400C5FF1E4B5B68984732E0FFF79DFF2FE0AC
:107E54001A4B5B6910221946194820F030F9386131
:107E64003B69002B23D038691FF0C8F81FE07B68FA
:107E7400DA687B689B68194610460EF0BBFFF86011
:107E8400FB68002B02D0F8681FF0B8F80A4B0122F7
:107E94001A700DE0094BDB687A68D268104698477F
:107EA40006E0064B9B68984702E000BF00E000BF75
:107EB40000BF1837BD4680BD54390020A8370020C4
:107EC400C0370020B0B58CB002AF78602F4A07F1FC
:107ED400080307CA03C31A800233120C1A702C4A0F
:107EE4007B6814461D460FCD0FC495E8030084E853
:107EF4000300274B5B69002B01D1072341E025498F
:107F0400254820F037F878627B6A002B01D07B6A21
:107F140037E007F10802214B009313461D4A1E491E
:107F24001F481FF096FF38623B6A002B01D03B6A62
:107F340027E01C4821F042FE0346194618481FF06A
:107F4400F1FFF861FB69002B01D0FB6919E01648C9
:107F540022F056F9B861BB69002B01D0BB6910E06F
:107F6400114822F08FF9034619460D481FF0DAFF35
:107F740078617B69002B01D07B6902E0FFF726FF63
:107F8400034618462837BD46B0BD00BF284105004A
:107F9400A837002034390020F4380020F17D020095
:107FA400C0370020903500205837002080B483B0BB
:107FB40000AF0346FB800F4B1B7883F00103DBB259
:107FC400002B01D001230FE0FB88002B01D10023FB
:107FD4000AE0094B1A88FB8813409BB2FA889A423C
:107FE40001D1012300E0002318460C37BD465DF89B
:107FF400047B70475C3900205E39002080B483B074
:1080040000AF786039607B6807EE903AF8EE677AE3
:108014009FED157A27EE877A3B6807EE903AF8EEE3
:10802400677AB4EEE77AF1EE10FA01D5012315E090
:108034007B6807EE903AF8EE677A9FED0C7A27EEAC
:10804400877A3B6807EE903AF8EE677AB4EEE77AFF
:10805400F1EE10FA01DD012300E0002318460C378D
:10806400BD465DF8047B70479A99993FCDCC4C3F4F
:1080740090B591B000AF786039600023FB637B68F2
:108084001B6807EE903AF8EE676AC64BD3ED007AA8
:108094009FEDC56A86EE277AC6EE877A9FEDC37A8E
:1080A400C7EE876A16EE900A2BF0FCF903460C46DD
:1080B40044EC103B2BF05CFB54EC103B184621467F
:1080C4002BF0DAF90346BB637B681B6807EE903A32
:1080D400F8EE676AB34BD3ED007A9FEDB56A86EE8E
:1080E400277AC6EE877A9FEDB17AC7EE876A16EED5
:1080F400900A2BF0D7F903460C4644EC103B2BF0C6
:1081040037FB54EC103B184621462BF0B5F90346D7
:108114007B63BB6B0F2B01D90F23BB637B6B1F2BC3
:1081240001D91F237B637B6B0F2B01D810237B6347
:10813400BB6BA04A02FB03F307EE903AB8EE677AF2
:10814400984BD3ED007AC7EE276A16EE900A2BF00F
:10815400A9F903460C4644EC103B2BF009FB54EC04
:10816400103B184621462BF087F90346BB627B6B14
:10817400914A02FB03F307EE903AB8EE677A894B13
:10818400D3ED007AC7EE276A16EE900A2BF08AF92F
:1081940003460C4644EC103B2BF0EAFA54EC103B3B
:1081A400184621462BF068F903467B627B681B68FE
:1081B4001A46BB6AD31A83EAE372A2EBE3727B68C2
:1081C4001B6819467B6ACB1A002BB8BF5B429A42E4
:1081D40014DCBB6BDAB23B681A707B681B683B62C9
:1081E4007B68BA6A1A607B681B681946386AFFF7AD
:1081F40005FF0246FB6B1344FB6313E07B6BDAB2AF
:108204003B681A707B681B68FB617B687A6A1A603A
:108214007B681B681946F869FFF7F0FE0246FB6BA2
:108224001344FB637B689B6807EE903AF8EE676A39
:108234005C4BD3ED007A9FED5C6A86EE277AC6EE3E
:10824400877A9FED5A7AC7EE876A16EE900A2BF06A
:1082540029F903460C4644EC103B2BF089FA54EC04
:10826400103B184621462BF007F903463B637B6815
:108274009B6807EE903AF8EE676A4A4BD3ED007AB2
:108284009FED4B6A86EE277AC6EE877A9FED477A92
:10829400C7EE876A16EE900A2BF004F903460C46E3
:1082A40044EC103B2BF064FA54EC103B1846214686
:1082B4002BF0E2F80346FB623B6B0F2B01D90F2333
:1082C4003B63FB6A1F2B01D91F23FB62FB6A0F2B45
:1082D40001D81023FB623B6B364A02FB03F307EE23
:1082E400903AB8EE677A2F4BD3ED007AC7EE276A3F
:1082F40016EE900A2BF0D6F803460C4644EC103BDD
:108304002BF036FA54EC103B184621462BF0B4F807
:108314000346BB61FB6A284A02FB03F307EE903A6B
:10832400B8EE677A1F4BD3ED007AC7EE276A16EED4
:10833400900A2BF0B7F803460C4644EC103B2BF0A4
:1083440017FA54EC103B184621462BF095F80346D7
:108354007B617B689B681A46BB69D31A83EAE37224
:10836400A2EBE3727B689B6819467B69CB1A002BEE
:10837400B8BF5B429A4221DC3B6BDAB23B689A702D
:108384007B689B683B617B68BA699A607B689B6881
:1083940019463869FFF732FE0246FB6B1344FB6350
:1083A40020E000BF5839002000007F4600007A44D6
:1083B4000000FF470006F9000030C807FB6ADAB284
:1083C4003B689A707B689B68FB607B687A699A60FB
:1083D4007B689B681946F868FFF710FE0246FB6B42
:1083E4001344FB63FB6B18464437BD4690BD00BF86
:1083F40090B591B000AF786039600023FB633B68AF
:108404005B78002B06D13B68DB78002B02D100237C
:10841400BB6331E07B681B6907EE903AF8EE676A4C
:108424003B685B781A463B68DB789B00D31A07EEFF
:10843400903AB8EEE77A784B93ED006ADFED775A1D
:10844400C5EE867A27EE277AC6EE877A9FED747A90
:10845400C7EE876A16EE900A2BF024F803460C4602
:1084640044EC103B2BF084F954EC103B18462146A5
:108474002BF002F80346BB633B685B78002B06D104
:108484003B68DB78002B02D100237B6332E07B68FE
:108494001B6907EE903AF8EE676A3B685B781A4608
:1084A4003B68DB789B00D31A1B0107EE903AB8EEC9
:1084B400E77A594B93ED006ADFED585AC5EE867A98
:1084C40027EE277AC6EE877A9FED557AC7EE876A3C
:1084D40016EE900A2AF0E6FF03460C4644EC103BE5
:1084E4002BF046F954EC103B184621462AF0C4FF01
:1084F40003467B63BB6B0F2B01D90F23BB637B6BE1
:108504001F2B01D91F237B637B6B0F2B01D81023F7
:108514007B633B685B781A463B68DB789B00D31A25
:108524001A46BB6B03FB02F213461B029B1A07EEAF
:10853400903AF8EE676A384B93ED007AC6EE877A84
:108544009FED377A67EE877A17EE900A2AF0AAFF32
:1085540003460C4644EC103B2BF00AF954EC103B58
:10856400184621462AF088FF0346BB623B685B78C5
:108574001A463B68DB789B00D31A1A467B6B03FBD5
:1085840002F213461B029B1A1B0107EE903AF8EE07
:10859400676A214B93ED007AC6EE877A9FED207AC5
:1085A40067EE877A17EE900A2AF07CFF03460C46A2
:1085B40044EC103B2BF0DCF854EC103B18462146FD
:1085C4002AF05AFF03467B627B681B691A46BB6A22
:1085D400D31A83EAE372A2EBE3727B681B69194640
:1085E4007B6ACB1A002BB8BF5B429A421ADCBB6B86
:1085F400DAB23B681A717B681B693B627B68BA6AB2
:108604001A617B681B691946386AFFF7F7FC024652
:10861400FB6B1344FB6319E05839002000007F43CF
:1086240000007A447B6BDAB23B681A717B681B6981
:10863400FB617B687A6A1A617B681B691946F86971
:10864400FFF7DCFC0246FB6B1344FB637B685B694E
:1086540007EE903AF8EE676A3B685B781A463B6827
:10866400DB789B00D31A07EE903AB8EEE77A854B95
:1086740093ED006ADFED845AC5EE867A27EE277AF9
:10868400C6EE877A9FED817AC7EE876A16EE900A66
:108694002AF008FF03460C4644EC103B2BF068F824
:1086A40054EC103B184621462AF0E6FE03463B6391
:1086B4007B685B6907EE903AF8EE676A3B685B7823
:1086C4001A463B68DB789B00D31A1B0107EE903AED
:1086D400B8EEE77A6B4B93ED006ADFED6B5AC5EEAB
:1086E400867A27EE277AC6EE877A9FED687AC7EEF8
:1086F400876A16EE900A2AF0D5FE03460C4644EC2F
:10870400103B2BF035F854EC103B184621462AF068
:10871400B3FE0346FB623B685B78002B07D13B68E2
:10872400DB78002B03D100233B630023FB623B6B0C
:108734000F2B01D90F233B63FB6A1F2B01D91F2386
:10874400FB62FB6A0F2B01D81023FB623B685B784A
:108754001A463B68DB789B00D31A1A463B6B03FB33
:1087640002F213461B029B1A07EE903AF8EE676A70
:10877400444B93ED007AC6EE877A9FED447A67EE18
:10878400877A17EE900A2AF08DFE03460C4644ECD5
:10879400103B2AF0EDFF54EC103B184621462AF01A
:1087A4006BFE0346BB613B685B781A463B68DB782B
:1087B4009B00D31A1A46FB6A03FB02F213461B0200
:1087C4009B1A1B0107EE903AF8EE676A2D4B93ED66
:1087D400007AC6EE877A9FED2D7A67EE877A17EED8
:1087E400900A2AF05FFE03460C4644EC103B2AF044
:1087F400BFFF54EC103B184621462AF03DFE0346C9
:108804007B617B685B691A46BB69D31A83EAE372AE
:10881400A2EBE3727B685B6919467B69CB1A002B78
:10882400B8BF5B429A4214DC3B6BDAB23B685A71C4
:108834007B685B693B617B68BA695A617B685B6989
:1088440019463869FFF7DAFB0246FB6B1344FB63F6
:1088540013E0FB6ADAB23B685A717B685B69FB60C0
:108864007B687A695A617B685B691946F868FFF727
:10887400C5FB0246FB6B1344FB63FB6B1846443792
:10888400BD4690BD5839002000007F4300007A4463
:1088940080B586B000AF0346B9607A60FB810023DF
:1088A4007B61FB89002B01D1022367E0354B1B78E8
:1088B40083F00103DBB2002B01D004235EE0BB682C
:1088C400002B01D10E2359E07B6800221A707B68CB
:1088D400FF225A707B6800229A707B680022DA704B
:1088E4007B6800221A717B6800225A71BB681A796E
:1088F4007B685A70BB681B7B0233002B00DA03339E
:108904009B10DAB27B68DA707B68DB78072B02D9BC
:108914007B680722DA707B68DB789B00DAB2BB687D
:108924001A737968B868FFF7A3FB02467B6913449E
:108934007B61FB891846FFF739FB0346002B08D0FF
:108944007968B868FFF754FD02467B6913447B617C
:108954000EE0BB681B69002BBB6800221A61BB6870
:1089640000225A617B6800221A717B6800225A71C6
:108974007B69002B01D0012300E00023184618373F
:10898400BD4680BD5C39002080B483B000AF03468F
:108994003960FB803B6807EE903AF8EE677A074B44
:1089A400C3ED007A064AFB881380064B01221A7035
:1089B40000BF0C37BD465DF8047B70475839002072
:1089C4005E3900205C39002072DF704700BF184612
:1089D40073DF704700BF184674DF704700BF184646
:1089E40080B5A8B000AF03463960FB8013467B71A5
:1089F400102200214C482BF091F84C4B1B781A465E
:108A040013465B019B1A4A4A1344474A1360474B77
:108A14001B781A4613465B019B1A464A1344424A82
:108A24009360414B1F229A803F4B1F229A813F4BF8
:108A34001B780133DBB203F00103DAB23B4B1A704B
:108A440007F154033C22002118462BF067F8062353
:108A540087F85730FB88A7F85030012387F8523045
:108A64000123A7F8643007F15003BB66FB88A7F81D
:108A740044307B799BB2A7F848303B68FB6407F12C
:108A84004403FB67012387F8803007F108033C2285
:108A9400002118462BF042F802233B72224B19683E
:108AA40007F15403244A18461DF0ABF9C7F898009F
:108AB400D7F89830002B03D0D7F898001EF09EFA10
:108AC400194B996807F108031C4A18461DF099F9D7
:108AD400C7F89400D7F89430002B03D0D7F894004B
:108AE4001EF08CFA164A10491648FFF76DFFC7F8B6
:108AF4009C00D7F89C30082B06D100220A49114863
:108B0400FFF762FFC7F89C00D7F89C30C7F8903095
:108B1400D7F89030002B03D0D7F890001EF06EFAEF
:108B240000BFA037BD4680BD60390020EE3900206B
:108B340070390020B0390020643900206C390020DD
:108B4400E8320020E432002080B483B000AF7860C3
:108B540039607B689BB21A46920013445B009AB258
:108B6400054B9A81044A3B68936000BF0C37BD46AD
:108B74005DF8047B704700BFE832002080B582B006
:108B840000AF094B1B7801211846FFF721FF7860DD
:108B94007B68002B02D078681EF030FA07F072F878
:108BA40000BF0837BD4680BDE432002080B582B0E6
:108BB40000AF084B1B781846FFF70EFF78607B6800
:108BC400002B02D078681EF019FA00BF0837BD46A2
:108BD40080BD00BFE432002080B400AF034BD3F863
:108BE40004351846BD465DF8047B704700B000406C
:108BF40080B483B000AF786039607B689A683B6862
:108C04005B681B689A4206D93B685B687A6892681D
:108C14001A60012300E0002318460C37BD465DF8B6
:108C2400047B704780B590B000AF786039607B6892
:108C34001B7C0D2B0AD87B6858683B681B6806228E
:108C440019462AF00BFF0346002B01D0002337E01E
:108C54007B68596807F13003062218462AF034FF6E
:108C64007B68DB6804331B68C7F8363007F13003D0
:108C74000A330322002118462AF050FF3B689B6800
:108C8400FB6007F130033B6100237B6100233B83DE
:108C94007B68DB68FB617B681B7C9BB23B840023A5
:108CA4007B627B685B69BB62042387F82C3007F125
:108CB4000B0207F10C031146184607F06EFCFB7A11
:108CC40018464037BD4680BD80B485B000AF78609B
:108CD40039607B685B68FB60FB685B78FF2B29D19C
:108CE400FB681B78102B25D8FB685B889BB240F28D
:108CF400DA3293421ED13B6801221A70FB685A682B
:108D04003B689A607B689B6803F10F023B685A607A
:108D14003B68FA68DA607B685B78043BDAB23B68EC
:108D24001A747B685B683A68127C1A443B685A611F
:108D340001234BE07B685B68BB60BB685B78FF2BFF
:108D44001ED1BB681B781D2B1AD1BB685B889BB2F4
:108D540040F2DA32934213D13B6800221A70BB68A6
:108D64005A683B689A60BB6803F108023B68DA60A2
:108D74007B685B6803F118023B685A60012325E0B5
:108D8400BB685B78082B20D1BB681B7AFF2B1CD1F6
:108D9400BB68B3F809309BB240F2DA32934214D183
:108DA4003B6800221A70BB68D3F80B203B689A60BA
:108DB400BB6803F10F023B68DA607B689B6803F1D0
:108DC4000F023B685A60012300E000231846143761
:108DD400BD465DF8047B704790B597B002AF7860EC
:108DE40007F1200319467868FFF76EFF0346002B4E
:108DF40000F0C78097F82030002B02D0012B27D039
:108E0400B5E0614B1B68FB6410E0FB6C0C3B7B64BE
:108E14007B6C1B68796A062218462AF01FFE0346FB
:108E2400002B00F0AB80FB6C1B68FB64FB6C002B1D
:108E3400EBD100233B727B6AFB60BB6A3B61FB6A3C
:108E44007B61524B1B6807F108021046984798E073
:108E540001233B727B6AFB604B4B1B68BB6481E064
:108E6400BB6C0C3B3B6407F12003396C1846FFF7DD
:108E7400D9FE0346002B72D007F12003396C184643
:108E8400FFF7B6FE0346002B69D0FB6A08331B7854
:108E940003F01F0387F83F303D4B1B6803F4804306
:108EA400002B15D03B4B1B68032B11DD3A4B002BD9
:108EB40001D03A4C00E03A4CFFF78EFE0246394BA3
:108EC4000093134640F22B122146042008F006FFBB
:108ED40097F83F305B08DBB203F00103002B14BFAB
:108EE40001230023DBB2BB7497F83F309B08DBB24D
:108EF40003F00103002B14BF01230023DBB2FB7436
:108F040097F83F30DB08DBB203F00103002B14BFFA
:108F140001230023DBB23B7497F83F301B09DBB21B
:108F240003F00103002B14BF01230023DBB27B7485
:108F340097F83F3003F00103DBB23B75FB6A09335A
:108F4400BB6197F83030093BDBB23B773B7F042BA6
:108F540016D80E4B1B6807F1080210469847BB6CE5
:108F64001B68BB64BB6C002B7FF47AAF09E07B46C3
:108F7400BB63B86BFEF766FE00BF02E000BF00E013
:108F840000BF5437BD4690BDF0390020F4390020AD
:108F94006433002068330020A6410500A741050082
:108FA40034410500B441050080B584B000AF786059
:108FB4007B68002B04D17B46FB60F868FEF742FE19
:108FC4007B680C331946034808F068FD00BF10376E
:108FD400BD4680BDF039002080B584B000AF786014
:108FE4007B68002B04D17B46FB60F868FEF72AFE01
:108FF400034A7B68136000BF1037BD4680BD00BFC5
:10900400F439002080B400AF034BD3F8043518467C
:10901400BD465DF8047B704700B0004080B500AFEA
:1090240005E007F09FF90346002B00D020BF0AF0AB
:1090340019F8034683F00103DBB2002BF1D100BF22
:1090440080BD000090B58BB002AFF860B9601346E4
:10905400FB711E4B1B6803F48043002B14D01C4B84
:109064001B68032B10DD1B4B002B01D01A4C00E0B6
:109074001A4CFFF7C7FF0246194B009313463822D8
:109084002146042008F02AFEFB79012B04D17B46FB
:10909400FB61F869FEF7D6FDFB79022B04D17B4610
:1090A400BB61B869FEF7CEFDFB79032B09D104231C
:1090B4007B617B69002B04D0084A412178691DF04B
:1090C400FFFF00BF2437BD4690BD00BF64330020BE
:1090D400683300204242050043420500D0410500A8
:1090E4005442050080B584B000AF78600B467B80A5
:1090F40013467B700323FB60FB68002B04D0044AF7
:109104004821F8681DF0DCFF00BF1037BD4680BD64
:10911400D041050090B585B002AF7860104B1B6854
:1091240003F48043002B14D00E4B1B68032B10DD7B
:109134000D4B002B01D00D4C00E00D4CFFF762FFEE
:1091440002460C4B009313464D222146042008F09E
:10915400C5FD7B68984700BF0C37BD4690BD00BF76
:109164006433002068330020424205004342050076
:10917400D04105006C42050090B585B002AF78601F
:109184000F4B1B6803F48043002B14D00D4B1B685A
:10919400032B10DD0C4B002B01D00C4C00E00C4CCD
:1091A400FFF730FF02460B4B00931346542221462F
:1091B400042008F093FD00BF0C37BD4690BD00BFEE
:1091C4006433002068330020424205004342050016
:1091D400D04105008442050090B58DB002AF07F17F
:1091E400180207F11C03114618460DF09DFE786223
:1091F4007B6A002B04D01F4A7021786A1DF060FF3F
:109204001D4BFB601D4B3B611D4B7B610423BB600D
:10921400FB69A3F580533B6001237B603B46194601
:10922400184809F041FD38623B6A002B1DD01648EE
:1092340009F0F0FE154B1B6803F48043002B14D097
:10924400134B1B68002B10DD124B002B01D0124C6A
:1092540000E0084CFFF7D6FE0246104B009313467D
:109264007E222146012008F039FD00BF2C37BD467F
:1092740090BD00BFD041050049900200E990020072
:109284007D910200F839002000330020643300206F
:10929400683300204242050043420500AC42050009
:1092A40080B584B000AF03463960FB8013467B7100
:1092B400FFF7B4FEFB8819460D4809F075FDF86008
:1092C400FB68002B07D17B791A46002138682AF005
:1092D40025FC052307E0FB6804337A7919463868CE
:1092E4002AF0F2FB002318461037BD4680BD00BFAC
:1092F400F839002090B587B002AF03463960FB808F
:1093040013467B71FFF78AFE7A79FB881946194860
:1093140009F0E3FDF860184B1B6803F48043002B4D
:1093240014D0164B1B68032B10DD154B002B01D0FA
:10933400144C00E0144CFFF765FE0246134B0093F7
:10934400134695222146042008F0C8FCFB68002B34
:1093540001D111230AE0FB6804337A79396818468D
:109364002AF0B2FBF86809F007FE00231846143708
:10937400BD4690BDF83900206433002068330020D6
:109384004242050043420500D0410500D842050091
:1093940090B482B000AF7860064A7B6814461868BF
:1093A40059689A68DB680FC400BF0837BD4690BC93
:1093B400704700BF1C3A002080B500AF0822054961
:1093C40005482AF081FB0822044905482AF07CFB61
:1093D40000BF80BD600000101C3A0020A4000010F3
:1093E400243A002080B400AF024B1846BD465DF815
:1093F400047B70471C3A002080B483B000AF002384
:109404007B6013E00F4A7B68DB00134400225A8020
:109414000C4A7B68DB00134400225A60094A7B68CB
:10942400002102F833107B6801337B607B681F2BBB
:10943400E8D9054B00221A6000BF0C37BD465DF821
:10944400047B70472C3A00202C3B002080B485B06C
:1094540000AF03463960FB801B4B1B68FB60002395
:10946400BB6026E0FB685A1EFA60002B01D11F2363
:10947400FB60164AFB6812F8333083F00103DBB259
:10948400002B01D0002318E0104AFB68DB001344D2
:109494005B88FA889A4209D10C4AFB68DB001344C2
:1094A4005A683B689A4201D1012306E0BB68013344
:1094B400BB60BB681F2BD5D9002318461437BD46A3
:1094C4005DF8047B704700BF2C3B00202C3A002041
:1094D40080B483B000AF03463960FB80124B1B6835
:1094E400124ADB001344FA885A800F4B1B680F4A58
:1094F400DB0013443A685A600B4B1B680B4A01218A
:1095040002F83310084B1B680133074A1360064BFB
:109514001B68202B02D1044B00221A6000BF0C37B9
:10952400BD465DF8047B70472C3B00202C3A00209C
:1095340080B400AF034BD3F804351846BD465DF83C
:10954400047B704700B0004080B483B000AF786003
:109554007B68043318460C37BD465DF8047B7047BE
:1095640080B483B000AF78607B68013318460C3751
:10957400BD465DF8047B704780B483B000AF78606B
:109584007B681B789B011BB203F4FE531AB27B6801
:109594005B789B08DBB21BB213431BB29BB2184629
:1095A4000C37BD465DF8047B704780B483B000AFD0
:1095B40078600B467B807B681B7823F07F03DAB2EC
:1095C4007B681A707B681B785AB27B889B099BB2B4
:1095D4005BB203F07F035BB213435BB2DAB27B6826
:1095E4001A707B685B7803F00303DAB27B685A7005
:1095F4007B685B785AB27B889B005BB213435BB297
:10960400DAB27B685A7000BF0C37BD465DF8047B44
:10961400704780B483B000AF78607B689B781A068B
:109624007B68DB781B041A437B681B791B0213439A
:109634007A685279134318460C37BD465DF8047BAB
:10964400704780B483B000AF786039603B681B0E0C
:10965400DAB27B689A703B681B0CDAB27B68DA700A
:109664003B681B0ADAB27B681A713B68DAB27B6822
:109674005A7100BF0C37BD465DF8047B704780B457
:1096840083B000AF78607B681B7803F04003002B45
:10969400CCBF01230023DBB218460C37BD465DF86E
:1096A400047B704780B483B000AF78600B46FB70D6
:1096B4007B681B7823F04003DAB27B681A707B68FE
:1096C4001B785AB2FB789B015BB203F040035BB298
:1096D40013435BB2DAB27B681A7000BF0C37BD4625
:1096E4005DF8047B704780B483B000AF78607B681A
:1096F4001B7803F03F03DBB218460C37BD465DF818
:10970400047B704780B483B000AF78600B46FB7075
:109714007B681B7823F03F03DAB27B681A707B689E
:109724001B785AB297F9033003F03F035BB213433B
:109734005BB2DAB27B681A7000BF0C37BD465DF8C5
:10974400047B704780B483B000AF78607B681B787B
:1097540003F08003002BCCBF01230023DBB21846A7
:109764000C37BD465DF8047B704780B483B000AF0E
:1097740078600B46FB707B681B7803F07F03DAB2DA
:109784007B681A707B681B785AB2FB78DB015BB28A
:1097940013435BB2DAB27B681A7000BF0C37BD4664
:1097A4005DF8047B704780B483B000AF78607B6859
:1097B4001B7803F07F03DBB218460C37BD465DF817
:1097C400047B704780B483B000AF78600B46FB70B5
:1097D4007B681B7823F07F03DAB27B681A707B689E
:1097E4001B785AB297F9033003F07F035BB213433B
:1097F4005BB2DAB27B681A7000BF0C37BD465DF805
:10980400047B704780B483B000AF78607B685B787A
:1098140003F08003002BCCBF01230023DBB21846E6
:109824000C37BD465DF8047B704780B483B000AF4D
:1098340078600B46FB707B685B7803F07F03DAB2D9
:109844007B685A707B685B785AB2FB78DB015BB249
:1098540013435BB2DAB27B685A7000BF0C37BD4663
:109864005DF8047B704780B483B000AF78607B6898
:109874005B789B011BB203F4FE531AB27B689B789E
:109884009B08DBB21BB213431BB29BB218460C37C6
:10989400BD465DF8047B704780B483B000AF786048
:1098A4000B467B807B685B7823F07F03DAB27B68AE
:1098B4005A707B685B785AB27B889B099BB25BB217
:1098C40003F07F035BB213435BB2DAB27B685A7076
:1098D4007B689B7803F00303DAB27B689A707B6839
:1098E4009B785AB27B889B005BB213435BB2DAB2BB
:1098F4007B689A7000BF0C37BD465DF8047B7047E7
:1099040080B483B000AF78607B689B78DB005BB287
:1099140003F018035AB27B68DB785B09DBB25BB2F5
:1099240013435BB2DBB218460C37BD465DF8047BCB
:10993400704780B483B000AF78600B46FB707B68DF
:109944009B7823F00303DAB27B689A707B689B7878
:109954005AB2FB78DB08DBB25BB203F003035BB201
:1099640013435BB2DAB27B689A707B68DB7803F0EE
:109974001F03DAB27B68DA707B68DB785AB2FB7853
:109984005B015BB213435BB2DAB27B68DA7000BF8F
:109994000C37BD465DF8047B704780B483B000AFDC
:1099A40078607B68DB7803F01F03DBB218460C3762
:1099B400BD465DF8047B704780B483B000AF786027
:1099C4000B46FB707B68DB7823F01F03DAB27B68FD
:1099D400DA707B68DB785AB297F9033003F01F031F
:1099E4005BB213435BB2DAB27B68DA7000BF0C3748
:1099F400BD465DF8047B704780B584B000AF7860E5
:109A04007B681B7883F00103DBB2002B04D07B4618
:109A1400FB60F868FEF716F97B68DB7901330122F5
:109A240002FA03F3013B18461037BD4680BD80B4EB
:109A340083B000AF78600B467B807B68C3F30C0275
:109A44007B889A4209D27A887B68C3F30C03D21AC2
:109A54007B681344A3F5005306E07A887B68C3F35C
:109A64000C03D21A7B68134418460C37BD465DF8C4
:109A7400047B704780B58EB000AF0346FB800B4675
:109A84007B7113463B7107F10C032C22002118460D
:109A94002AF044F80E233B73FB883B827B7903F066
:109AA4000103DAB2BB7C62F30003BB743B79FB7441
:109AB40007F10C03184601F057FF00BF3837BD46C5
:109AC40080BD80B58EB000AF78600B46FB7007F1A7
:109AD4000C032C22002118462AF020F80F233B7394
:109AE4007B683B61FB783B7507F10C03184601F07A
:109AF4003BFF00BF3837BD4680BD000080B483B053
:109B040000AF0346FB71074B5A68064B9B68F97913
:109B140001FB03F3134418460C37BD465DF8047B80
:109B2400704700BF303B002080B483B000AF0346D1
:109B3400FB71074BDA68064B1B69F97901FB03F3E8
:109B4400134418460C37BD465DF8047B704700BFCC
:109B5400303B002080B586B000AF78607B681B780E
:109B640083F00103DBB2002B04D07B463B613869F0
:109B7400FEF768F87B689B8AFB817B68DB69DBB254
:109B840003F001037B737B689A697B689B881946A1
:109B94001046FFF74CFFB86000237B611FE0144AB6
:109BA4007B69DB0013445A68BB689A4214D1104A9B
:109BB4007B69DB0013445B88FA899A420CD10C4A16
:109BC4007B69DB0013445B787A7B9A4204D17B691E
:109BD400DB00074A134406E07B6901337B617B6940
:109BE400072BDCD9002318461837BD4680BD00BFBB
:109BF400043D002080B584B000AF78600B46FB7054
:109C04007B681B7883F00103DBB2002B04D07B4616
:109C1400FB60F868FEF716F8144B1B685A1C1349CE
:109C24000A6003F00703DB00114A1344BB607B683E
:109C34009A8ABB685A807B689A697B689B881946B4
:109C44001046FFF7F4FE0246BB685A607B68DB6986
:109C5400DBB203F00103DAB2BB685A70BB68FA786E
:109C64001A7000BF1037BD4680BD00BF003D002004
:109C7400043D002080B586B000AFF860B9603B6059
:109C84001346FB71FB79022B07D0FB79012B04D01F
:109C94007B467B617869FDF7D5FFFB689B6E002BE3
:109CA40004D07B463B613869FDF7CCFF344B1B681D
:109CB400386898470246FB689A66FB689B6E002BDF
:109CC40001D1002357E0FB682C22B968184629F01B
:109CD400FBFEFB6800229A643B689AB2FB68A3F817
:109CE4004620BB689A69BB689B8819461046FFF7F3
:109CF4009EFE0246FB689A61FB79012B1FD1214B22
:109D04001A7DFB6883F84D20FB68002283F84E20FF
:109D1400FB68002283F84F20FB68002283F84C2064
:109D2400BB689A6AFB681A65FB686FF001029A6265
:109D3400FB68154A5A63FB68FA68DA6313E0FB6848
:109D44006FF001029A62FB68002283F86420FB68CA
:109D54000E4A5A65FB68FA68DA65FB680C4A5A636E
:109D6400FB68FA68DA63012003F09AFCFB68FA796D
:109D740083F84420012318461837BD4680BD00BF30
:109D8400F83C0020303B0020FFB30200B1B30200D6
:109D94006BB4020080B582B000AF7860124B1B68D0
:109DA4007A68926E104698477B682C33184605F003
:109DB40087F87B6893F84430022B04D17B684C33DA
:109DC400184605F07DF86C220021786829F0A6FE7B
:109DD4007B68002283F84420002003F061FC00BF6C
:109DE4000837BD4680BD00BFFC3C002090B589B05B
:109DF40004AF78600B46FB707B68002B04D17B4674
:109E0400FB60F868FDF71EFF7B6800211846FFF72A
:109E1400F1FE7B681B6DFA7811461846FFF751FE78
:109E24007868FFF7B7FF134B1B6803F00403002B9C
:109E34001CD0114B1B68032B18DD104B002B01D0D9
:109E44000F4C00E00F4CFFF773FB01467B6893F85F
:109E540044301A46FB78029301920B4B00930B4655
:109E64004FF4D6722146042007F038FF00BF1437A0
:109E7400BD4690BD64330020683300200E430500C6
:109E84000F430500E84205001C43050080B582B07D
:109E940000AF78607B6801211846FFF7ABFE786855
:109EA400FFF778FF00BF0837BD4680BD80B58EB090
:109EB40000AF78607B6893F84430012B04D07B4674
:109EC4007B63786BFDF7BEFE01233B727B681B6DE1
:109ED400FB6007F10803184601F046FD7868FFF7B8
:109EE40059FF00BF3837BD4680BD000090B585B02E
:109EF40000AF78607B6893F84430022B04D07B4633
:109F0400FB60F868FDF79EFE0C4B5B7D1846FFF77F
:109F1400F5FDB8607B6803F14C0405F069F902466D
:109F2400BB6813441946204604F0F3FF7B68012202
:109F340083F8642000BF1437BD4690BD303B002039
:109F440090B585B000AF78607B6893F84430022BFD
:109F540004D07B46FB60F868FDF774FE094B1B6870
:109F6400BB607B6803F12C0405F042F90246BB6830
:109F740013441946204604F0CCFF00BF1437BD46F5
:109F840090BD00BF303B002090B585B000AF786035
:109F94007B6893F84430012B04D07B46FB60F8685F
:109FA400FDF750FE7B681B7B012B08D17B689B7DF2
:109FB4001846FFF7B9FD02467B689A6305E0002066
:109FC400FFF7B2FD02467B689A637B6803F12C04B9
:109FD40005F00EF902467B689B6B13441946204634
:109FE40004F097FF00BF1437BD4690BD80B582B022
:109FF40000AF786039607B68DB7D002B06D07B681E
:10A004009B7819463868FFF7DDFB0BE07B689B788B
:10A0140019463868FFF746FB7B68DB7819463868D1
:10A02400FFF770FB7B681B7819463868FFF79DFBC8
:10A034007B681B78002B1CD07B685B78082B0CBFDB
:10A0440001230023DBB219463868FFF7EEFB7B6877
:10A054009B8819463868FFF71FFC7B689B79194673
:10A064003868FFF766FC7B68DB7919463868FFF7C8
:10A07400A3FC00BF0837BD4680BD80B586B000AFE5
:10A08400F860B9607A603B60FB681B78002B01D0F4
:10A09400042300E001237B617A697B681A44BB686E
:10A0A4009A60FB6803F10C02BB681A60FB689A6A49
:10A0B400BB685A60B8680BF00BFE38613B69002B33
:10A0C40005D1BB681A697B691A443B681A603B690D
:10A0D40018461837BD4680BD80B58EB000AF786095
:10A0E400396000237B637B681B7B012B3ED107F126
:10A0F4002C0306220021184629F010FD7B689A885B
:10A1040007F12C0311461846FFF74FFA07F12C0309
:10A1140039681846FFF795FA06237B6101233B77DC
:10A124007B689B8AFB8300233B6200233B7307F11C
:10A134002C033B617B681B6A7B6200233B767B6854
:10A14400DB897B837B689B7D002B03D1002387F80D
:10A15400283003E0084B5B7D87F8283007F10C03B7
:10A164006FF00101184601F049FB78637B6B1846D8
:10A174003837BD4680BD00BF303B002080B485B079
:10A1840000AF78600B467B800023FB602AE01A4A0C
:10A19400FB686C2101FB03F3134444331B78012B4C
:10A1A4001DD1154AFB686C2101FB03F313441433DE
:10A1B4001A887B68DB899A4211D10F4AFB686C21AB
:10A1C40001FB03F3134404331B887A889A4206D1B3
:10A1D400FB686C2202FB03F3074A134406E0FB68A6
:10A1E4000133FB60FB68032BD1DD002318461437D1
:10A1F400BD465DF8047B7047483B002080B485B0C1
:10A2040000AF78600023FB601FE0154AFB686C21F7
:10A2140001FB03F3134444331B78022B12D1104A7D
:10A22400FB686C2101FB03F3134414331A887B6825
:10A234009B8A9A4206D1FB686C2202FB03F3084A0C
:10A24400134406E0FB680133FB60FB68032BDCDD91
:10A25400002318461437BD465DF8047B704700BFE1
:10A26400483B002090B587B002AF78607B68DB790B
:10A2740001337A68D27D002A01D0082200E00C2242
:10A2840002FB03F3BB607B68DB7D002B02D04FF441
:10A29400807201E04FF4C072BB689A421FD2294B0E
:10A2A4001B6803F00403002B17D0274B1B68002BFB
:10A2B40013DD264B002B01D0254C00E0254CFFF785
:10A2C40037F90246BB680193234B0093134640F2CF
:10A2D40063222146012007F001FD00232DE0002325
:10A2E400FB6024E01D4AFB686C2101FB03F313446B
:10A2F40044331B78002B17D1FB686C2202FB03F359
:10A30400164A9818BB6802227968FFF7B3FC034623
:10A3140083F00103DBB2002B0DD1FB686C2202FB3E
:10A3240003F30E4A134408E0FB680133FB60FB6847
:10A33400032BD7DD00E000BF002318461437BD46C9
:10A3440090BD00BF64330020683300200E43050035
:10A354000F430500E842050040430500483B002048
:10A3640090B58BB002AFF860B9607A603B607868F2
:10A37400FFF744FFF861FB69002B12D07B689A88D1
:10A38400FB699B889A42C0F0DE807B689A88FB69EF
:10A394009B889A4205D90521F869FFF727FD002318
:10A3A400FB617868FFF7D6FBB861BB69002B0DD061
:10A3B400BB691B78002B00F0C8807868FFF71CFB92
:10A3C400034619467868FFF787FEBEE0FB69002B59
:10A3D4000FD17868FFF746FFF861FB69002B08D1BD
:10A3E40000217868FFF778FE02210020FFF769FB5F
:10A3F400AEE0594B1B6803F00403002B18D0574BF5
:10A404001B68032B14DD564B002B01D0554C00E088
:10A41400554CFFF78DF802467B689B790193534BAB
:10A424000093134640F2A7222146042007F056FC6D
:10A43400F869FFF785FDFB691B7B012B07D1FB69DD
:10A4440093F86430002B02D1F869FFF74FFDFB69E4
:10A454009A6C7B689B79194601238B401340002B2F
:10A4640075D1FB699A6C7B689B79194601238B40F3
:10A474001A43FB699A647B689A79FB69DB799A428F
:10A4840014D1FB69DB799AB27B68DB7D002B01D0A8
:10A49400082300E00C2312FB03F39AB2BB689BB2BF
:10A4A40013449AB2FB69A3F846200EE07B68DB7D77
:10A4B400002B01D0082200E00C22BB689A4204D091
:10A4C4000421F869FFF792FC42E0FB699B6E7A680D
:10A4D400927911467A68D27D002A01D0082200E0E0
:10A4E4000C2202FB01F21344BA68F968184629F0F9
:10A4F400EBFAFB699C6CFB691846FFF77DFA03468F
:10A504009C4225D1FB69022283F86420FA69FB6925
:10A514009B6C19461046FFF7DFFD7861FB69986E66
:10A52400FB69B3F846301946FA693B6800F022FF2C
:10A534007B69002B0CD1FB69002283F86420F86945
:10A54400FFF7A4FC04E000BF02E000BF00E000BF8E
:10A554002437BD4690BD00BF64330020683300201B
:10A564000E4305000F430500E8420500544305006F
:10A5740090B587B002AF786039600023FB737B68C5
:10A58400002B28D07B689A1C3B681A6007F10F03E4
:10A594001946386806F001F8FB7B002B1BD0104BE2
:10A5A4001B6803F00403002B15D00E4B1B68032B10
:10A5B40011DD0D4B002B01D00C4C00E00C4CFEF7D0
:10A5C400B7FF02460B4B0093134640F2EB222146A1
:10A5D400042007F083FBFB7B18461437BD4690BD6F
:10A5E40064330020683300200E4305000F43050048
:10A5F400E84205006443050080B596B000AFF860FA
:10A60400B9607A603B60FB68002B04D17B467B65B4
:10A61400786DFDF717FBBB68002B04D17B463B65C7
:10A62400386DFDF70FFB3B68002B04D17B46FB64C0
:10A63400F86CFDF707FB3B685B6A02337B623B689F
:10A6440003F10C003B689B78002B01D0012100E052
:10A6540002213B685B78082B0CBF01230023DBB28B
:10A664001A4607F1140305F0A5FF07F11403BB62B2
:10A67400FB68FB627B689BB23B86BB68FB63FB6B3E
:10A684003A8E13443B643B685B7887F844303B68FC
:10A694001B7B022B0ED13B681B69002B04D17B462C
:10A6A400BB64B86CFDF7CEFA3B681B697B6310236F
:10A6B4003B8701E000233B8707F12403184605F09C
:10A6C40061FF00BF5837BD4680BD80B483B000AF82
:10A6D4000346FB71FB79002B01D1042300E008231E
:10A6E40018460C37BD465DF8047B704780B584B0CE
:10A6F40000AF786039603B68DB695A787B68DA7050
:10A704003B68DB691B78002B14BF01230023DBB2F9
:10A7140083F00103DBB203F00103DAB27B689A70C1
:10A724003B68DA697B685A623B681B7B022B07D162
:10A734003A4B9B7D1846FFF7C8FF03461A4606E0CE
:10A744003B681B7B1846FFF7C0FF03461A467B682D
:10A754005A703B68DB7A83F00103DBB2002B0ED026
:10A764003B689B8A1A467B685B78C3F10F039A4265
:10A7740005DC7B685B78082B01D107234AE03B6842
:10A784009B8A1A467B685B78C3F10F039A4203DC09
:10A794003B68DB7A002B01D0012300E0002303F0A7
:10A7A4000103DAB27B681A707B681B78002B16D021
:10A7B4003B689B8A1A467B685B7813440B33184AC0
:10A7C40082FB03125210DB17D31AFB60FB68DBB267
:10A7D400013BDAB27B68DA717B6800229A717B688C
:10A7E4000022DA757B683A680C3392E8030083E848
:10A7F40003003B689A697B681A623B681A897B6824
:10A804009A823B689A7A7B689A753B681A6A7B6875
:10A814009A62002318461037BD4680BD303B0020A5
:10A82400ABAAAA2A80B487B000AFF860B9607A6096
:10A83400BB681A78FB689A70FB6800225A62BB688E
:10A844009B680B2B03D8BB681B7B002B01D0012317
:10A8540000E0002303F00103DAB2FB681A70FB681E
:10A8640000225A70FB681B78002B0DD0BB689B68D4
:10A874000733DB087B617B69DBB2013BDAB2FB683F
:10A88400DA71FB6800229A71FB680122DA75FB68B1
:10A89400BA680C33103292E8030083E80300BB6803
:10A8A400DA89FB689A82BB689A69FB681A62BB689A
:10A8B4001A7FFB689A75FB687A689A6200BF1C3736
:10A8C400BD465DF8047B704780B58CB000AFF8607E
:10A8D400B9607A60FB685B781A467B681A44FB6847
:10A8E400DB7D002B01D00B2300E00F239A4201D91A
:10A8F40009232BE0FB685B781A467B681A4407F14E
:10A90400140307F11801F868FFF7B7FBF862FB6A54
:10A91400002B1AD1BB6A1946F868FFF767FBFB687E
:10A92400DB7D002B06D07B697A68B968184629F06C
:10A93400CBF805E07969FB687A68B868FFF75CFED4
:10A9440007F1180318460BF0EDF9FB6A1846303787
:10A95400BD4680BD80B58CB000AF786039607B683F
:10A96400DB7D002B01D0082300E00C23FB62FB6A93
:10A974003A6802FB03F3BB627B68DB791A463B68E7
:10A984009A4206D17B68B3F846301A46BB6AD31A9A
:10A99400FB623B68DAB27B689A71786807F1080356
:10A9A40007F10C01FA6AFFF768FB78627B6A002BF7
:10A9B40054D13B68002B13D17B6893F84F3083F05C
:10A9C4000103DBB2002B0BD07B689B699BB2C3F302
:10A9D4000C039AB27B689A807B68012283F84F202B
:10A9E4007B68DB7D83F00103DBB2002B22D07B6824
:10A9F40093F84E3083F00103DBB2002B1AD03B688E
:10AA0400002B04D07B463B62386AFDF71BF97B6858
:10AA1400986E7B68996E7B68B3F846301A467B68FB
:10AA24005B78D31A1A467B68FFF7E6FD7B68012240
:10AA340083F84E207B68FA6911461846FFF7D6FA68
:10AA4400B8687B689A6EBB6A1344FA6A194629F09F
:10AA54003BF807F10C0318460BF064F97B6A002BF2
:10AA64000CBF01230023DBB218463037BD4680BD3E
:10AA740080B584B000AF78600023FB607B6893F8F6
:10AA84004C30FB721CE07B689A6CFB7A012101FA62
:10AA940003F31340002B10D1FB7A19467868FFF7B3
:10AAA40059FF0346002B11D0FB680133FB60FB7A8E
:10AAB4000133DAB27B6883F84C20FB7A0133FB72F2
:10AAC4007B68DB79FA7A9A42DDD900E000BFFB6843
:10AAD40018461037BD4680BD2DE9F04393B004AF4E
:10AAE400F860B9607A60FB685B781A467B68134447
:10AAF400BB62FB68DB7D002B02D04FF4807201E067
:10AB04004FF4C072BB6A9A4201D20923B6E0002313
:10AB14007B63EFF310837B6272B600233B6314E024
:10AB2400594A3B6B6C2101FB03F3134444331B78F8
:10AB3400002B07D13B6B6C2202FB03F3524A1344F4
:10AB44007B6305E03B6B01333B633B6B032BE7DD2E
:10AB54007B6A002B00D162B67B6B002B01D10423EE
:10AB64008CE0BB6A0122F968786BFFF783F803462F
:10AB7400002B00F082807B6B9B6E7A68B968184664
:10AB840028F0A2FF414B1B6803F00403002B6CD098
:10AB94003F4B1B68032B68DD6B461E467B6BB3F88B
:10ABA40046303B623B6A5B00591C0B46013BFB6130
:10ABB4000A464FF000034FEAC30949EA52794FEAC3
:10ABC400C2080A464FF00003DD0045EA5275D4007E
:10ABD400CB1DDB08DB00ADEB030D04AB0033BB6125
:10ABE4000023FB6221E07B6B9A6EFB6A13441B78A3
:10ABF400FB75FB6A5B00274A1168FA7D1209D2B221
:10AC040002F00F020A441178BA69D154FB6A5B005E
:10AC14000133204A1168FA7D02F00F020A441178C8
:10AC2400BA69D154FB6A0133FB62FA6A3B6A9A42FD
:10AC3400D9D33B6A5B00BA690021D154164B002B6F
:10AC440001D0164C00E0164CFEF772FC0246BB69BC
:10AC54000293144B0193144B0093134640F2F732C2
:10AC64002146042007F03AF8B546786BFFF700FF59
:10AC7400786BFFF789F9002300E0042318463C377A
:10AC8400BD46BDE8F08300BF483B0020643300208C
:10AC940068330020603300200E4305000F43050095
:10ACA400E8420500784305008843050080B582B07A
:10ACB40000AF00237B6021E0144A7B686C2101FB18
:10ACC40003F3134444331B78012B14D17B686C22A7
:10ACD40002FB03F30D4A13441846FFF7C9FE03466B
:10ACE400002B08D07B686C2202FB03F3074A134451
:10ACF4001846FFF749F97B6801337B607B68032BB7
:10AD0400DAD900BF0837BD4680BD00BF483B0020EC
:10AD140090B583B000AF00237B6050E02B4A7B6882
:10AD24006C2101FB03F3134444331B78022B43D1FE
:10AD3400264A7B686C2101FB03F3134464331B78BC
:10AD4400022B39D17B686C2202FB03F31F4A98184B
:10AD54001E4A7B686C2101FB03F3134448331B68D0
:10AD64001946FFF7B9F90346002B25D1174A7B682A
:10AD74006C2101FB03F31344643300221A70134A59
:10AD84007B686C2101FB03F3134448331C687B6824
:10AD94006C2202FB03F30D4A13441846FEF72CFE03
:10ADA40003469C4208D17B686C2202FB03F3074AEA
:10ADB40013441846FFF76AF87B6801337B607B68AD
:10ADC400032BABD900BF0C37BD4690BD483B0020D8
:10ADD40080B500AFFFF76AFFFFF79AFF012318461B
:10ADE40080BD80B592B000AFF860B9607A603B6016
:10ADF400FB689B697B64FB681B78002B0AD0FB68AB
:10AE04009A69FB689B8819461046FEF710FE0246B5
:10AE1400FB689A61FB6803F10C00FB689B78002BCC
:10AE240001D0012100E00221FB685B78082B0CBFF4
:10AE340001230023DBB21A4607F1340305F0BAFB01
:10AE4400FB687A6C9A6107F134037B61BB68BB6170
:10AE54007B689AB2FB685B789BB2D31A9BB2BB83C4
:10AE6400BB69BA8B1344FB623B68BB62FB685B78CB
:10AE740087F830300023BB84FB681B7B022B01D195
:10AE84001023BB84FB689B78002B3DD0FB681B7BA5
:10AE9400022B02D1FB681B693B62FB6800225A62E9
:10AEA400FB68186AFB68D978FB6824331A4615F0E6
:10AEB40067FA15E0FB685B6A07F110021146184651
:10AEC400FFF756FB0346002B01D0002351E0FB683B
:10AED400186AFB68D978FB6824331A4615F050FACF
:10AEE400FB685B6A002BE5D1FB681B7B022B3FD11F
:10AEF400FB68DA89FB680C331946104615F050FBE1
:10AF04000346002BC2D133E0FB6800225A62FB687F
:10AF14001B7B012B14D1FB68DA89FB6824331946A7
:10AF2400104615F05CFAFB685B6A07F110021146E3
:10AF34001846FFF71DFB0346002B01D0002318E041
:10AF4400FB6800225A62FB689A8AFB68243319461C
:10AF5400104615F044FAFB685B6A07F110021146CB
:10AF64001846FFF705FB0346002B01D0002300E041
:10AF7400052318464837BD4680BD80B584B000AF70
:10AF8400F860B9607A607B680C331822B968184697
:10AF940028F09AFDF868FEF7D5FB0346002B14BF92
:10AFA40001230023DAB27B681A707B68DB7D002BF7
:10AFB4000AD0F868FEF7F7FB03461A467B689A70D6
:10AFC4007B6800225A7024E0F868FEF758FB0346B9
:10AFD400002B14BF01230023DAB27B689A70F8684F
:10AFE400FEF781FB03461A467B68DA707B681B78A0
:10AFF400002B0BD0F868FEF705FC0346002B01D0AC
:10B00400082200E004227B685A7002E07B68042274
:10B014005A707B681B78002B14D0F868FEF723FC69
:10B0240003461A467B689A80F868FEF769FC034673
:10B034001A467B689A71F868FEF7AFFC03461A4615
:10B044007B68DA717B6800225A6200BF1037BD4604
:10B0540080BD000090B58BB002AFF860B9607A6033
:10B064003B60BB68062B54D1F868FEF785FA0346AB
:10B07400FB83F868FEF7CDFAB861FB8B1946786854
:10B08400FFF77CF878617B69002B1CD1234B1B688C
:10B0940003F00403002B3DD0214B1B68012B39DD49
:10B0A400204B002B01D0204C00E0204CFEF740FA4E
:10B0B40002461F4B0093134640F2B9422146022038
:10B0C40006F00CFE26E07B699A6CBB691A437B6927
:10B0D4009A64BB69002B04D103217869FEF786FECC
:10B0E40018E07B699C6C7B691846FEF785FC034677
:10B0F4009C4203D17869FEF7D9FE0BE07B690022FC
:10B1040083F84C207869FFF7B3FC7869FEF73CFFBD
:10B1140000E000BF2437BD4690BD00BF643300206B
:10B12400683300200E4305000F430500E842050084
:10B134009043050080B487B000AF0346FB71002341
:10B144007B6120E07B69DB00154A1344FB6000232C
:10B154003B6110E0FB681A683B69DB001344BB6089
:10B16400BB681B78FA799A4202D1BB685B6810E02D
:10B174003B6901333B61FB685A683B699A42E9D8F1
:10B184007B6901337B61074B1B687A699A42D9D387
:10B19400002318461C37BD465DF8047B704700BF8A
:10B1A400483D0020503D002080B58EB000AFF860CF
:10B1B400B9607A603B607B689B78002B06D13B6862
:10B1C4007A68B968F868FFF745FF2CE07B689B78DC
:10B1D4001846FFF7AFFF78637B6B002B22D07B68A8
:10B1E4009B783B757B681B6AFB627B689B8A7B84CC
:10B1F4007A6807F124030C3292E8030083E8030021
:10B204007B689B7D87F83030FB68BB61BB68FB6162
:10B214007B681B7887F8203007F114027B6B396850
:10B224001046984700BF00BF3837BD4680BD0000B8
:10B2340090B5F5B002AF07F10C04206007F10800E7
:10B244000160391D0A603A46136007F1440307F1AF
:10B25400080207F10C01381D126809680068FFF73D
:10B26400C0FDC7F8C401D7F8C431002B54D107F18D
:10B274003C0301221A703B1D1B689A8A07F13C03A8
:10B284005A8007F13C0300225A6007F110030022A0
:10B294001A7007F1100307F144025A6007F108031A
:10B2A4001B689AB23B1D1B685B789BB2D31A9AB297
:10B2B40007F110031A8107F1100307F13C020C3364
:10B2C40092E8030083E8030007F110033A1D1268B3
:10B2D40014330C3292E8030083E803003B1D1B681F
:10B2E4009A7D07F1100383F824203B1D1B681A6A1A
:10B2F40007F11003DA613B1D1B685A6A07F110035A
:10B304001A6207F110033A4612689A6207F11003B1
:10B31400184600F029FB1BE0104B1B6803F00403E4
:10B32400002B15D00E4B1B68052B11DD0D4B002B8C
:10B3340001D00D4C00E00D4CFEF7FAF802460C4B20
:10B34400009313464FF4A5622146062006F0C6FC7E
:10B3540000BF07F5E677BD4690BD00BF643300200B
:10B36400683300200E4305000F430500E842050042
:10B37400C043050080B584B000AFF860B9607A605E
:10B384003B607B68DB7D002B06D03B687A68B9683C
:10B39400F868FFF709FF05E03B687A68B968F86860
:10B3A400FFF746FF00BF1037BD4680BD80B584B0AF
:10B3B40000AF786039603B68FB60FB6893F8443009
:10B3C400022B04D07B46BB60B868FCF73BFCFB68EF
:10B3D400022283F86420FA68FB689B6C19461046C5
:10B3E400FEF77AFE0346002B03D1FB68002283F8A4
:10B3F400642000BF1037BD4680BD80B584B000AF67
:10B40400786039603B68FB60FB6893F84430012B3B
:10B4140004D07B46BB60B868FCF714FCFB6893F867
:10B424004D30002B0CD1FB681B7B012B04D1012177
:10B43400F868FEF7DBFC12E0F868FEF737FD0EE073
:10B44400FB6893F84D30013BDAB2FB6883F84D207A
:10B45400FB68002283F84C20F868FFF709FB00BF63
:10B464001037BD4680BD80B584B000AF78603960C8
:10B474003B68FB600021F868FEF7B8FC00BF10379A
:10B48400BD4680BD80B590B000AFB9607A603B60C6
:10B494000346FB73FB7B002B0CD13B6813F1020FBB
:10B4A40008D001233B753B68BB6107F114031846C0
:10B4B40000F05AFA044B1B68184604F0B5FE00BFAE
:10B4C4004037BD4680BD00BF443D002080B584B0F8
:10B4D40000AFF860B9607A60FB689B8A184602F096
:10B4E4006FFD0346012B0BD1FB681B7B002B07D0A0
:10B4F400FB681B7B022B05D1FB681B69002B01D168
:10B50400102317E0FB689B7D5BB2002B01DA072355
:10B5140010E0FB681B78002B06D07A68B968F868DD
:10B52400FFF7DAFA034605E07A68B968F868FFF7C6
:10B53400CBF9034618461037BD4680BD80B582B0AE
:10B5440000AF786000F088F84FF4D87200211B48EF
:10B5540028F0E4FA08F029F8194B00221A60402276
:10B564000021184828F0DAFA174B184A1A60164BCB
:10B57400174A5A60144B4CF250329A60124B154AD7
:10B58400DA60114B4CF250321A610F4B04221A75D7
:10B594000D4B00229A750C4B08225A750E4804F084
:10B5A40011FE02460D4B1A600D4B00221A600D4825
:10B5B40008F080FA00BF0837BD4680BD483B002034
:10B5C400003D0020043D0020303B00208096980080
:10B5D400F049020020A10700D5AD0200443D00203F
:10B5E400503D002089B4020080B584B000AF78607B
:10B5F40039607B68002B0CBF01230023DAB23B685F
:10B60400002B0CBF01230023DBB25340DBB2002B21
:10B6140001D00E2318E07B68002B06D13B68002B79
:10B6240003D100F019F800230EE0EFF31083FB6060
:10B6340072B6074A7B681360064A3B681360FB686E
:10B64400002B00D162B6002318461037BD4680BDDA
:10B65400F83C0020FC3C002080B582B000AF0849D3
:10B664000848FFF7C1FF0346002B04D07B467B60EC
:10B674007868FCF7E7FA00BF0837BD4680BD00BF15
:10B684008D390500F538050080B592B000AFF8603B
:10B69400B9607A603B6000237B64FB68002B02D0B6
:10B6A4007B68002B01D10E2373E007F13C030822D1
:10B6B4000021184628F032FA7B685B8807F13C02C7
:10B6C4001146184614F06CFF034683F00103DBB205
:10B6D400002B01D07B6C5CE07B6818897B68D9689F
:10B6E4007B681B69DBB203F00103DBB21A4607F087
:10B6F400CBFF0346002B01D07B6C4AE07B681889A2
:10B704007B68D9687B681B69DBB203F00103DBB299
:10B714001A4607F051FF78647B6C002B0DD07B68D0
:10B7240018897B681B69DBB203F00103DBB20022DA
:10B734001946FEF79FF97B6C2BE007F110031A46BC
:10B744007968F868FFF719FC07F11C0307F13C025C
:10B7540092E8030083E8030004F0DEFC3B7C002B4A
:10B764000AD0F868FDF7F0FEBB68191F07F1100254
:10B774003B68FEF7F5FD09E0F868FDF7F1FEBB68EC
:10B78400591E07F110023B68FFF7F4FD04F0EEFCCC
:10B79400002318464837BD4680BD80B58EB000AF43
:10B7A400786039607B68002B0BD07B681B69002BA9
:10B7B40007D07B68DB69002B03D07B689B69002B77
:10B7C40001D10E2316E007F1080379681846FEF745
:10B7D4008DFF78637B6B002B01D07B6B0AE07B6869
:10B7E40019697B689B8A1A4607F108031846FFF714
:10B7F4006DFE034618463837BD4680BD80B58EB011
:10B8040000AF786039607B68002B07D07B685B6889
:10B81400002B03D07B689B69002B01D10E2322E00F
:10B824007B681B7C022B03D07B681B7C002B01D123
:10B83400102318E07B681B785BB2002B01DA072326
:10B8440011E007F10C033A6879681846FEF7EAFF3D
:10B854007B685B6819467B689A6807F10C03184695
:10B86400FFF734FE034618463837BD4680BD000056
:10B8740080B584B000AF786039607B68002B01D15B
:10B884000E2349E0264B1B68002B01D0042343E020
:10B894000023FB6029E0FB68DB007A6813445B68E3
:10B8A400002B01D10E2337E0FB68DB007A681344D8
:10B8B4001B785BB2002B01DA0B232DE0FB68DB0065
:10B8C4007A6813441B78002B0AD0FB68DB007A6883
:10B8D40013441B781846FFF72DFC0346002B01D0B8
:10B8E4000F2319E0FB680133FB60FA683B689A4256
:10B8F400D1D30B4B1B680B497A6841F83320084BB2
:10B904001B68084ADB0013443A685A60044B1B68FE
:10B914000133034A1360002318461037BD4680BD27
:10B92400503D0020483D002080B584B000AF0D4B51
:10B934001B68FB600FE0FB68043BBB60FB681B6893
:10B944007B60BB681B7A002B03D0F968054806F0BE
:10B95400E7F87B68FB60FB68002BECD100BF103775
:10B96400BD4680BD543D002080B586B000AF7860F0
:10B974007B68002B04D17B463B613869FCF762F994
:10B98400154B1B68002B23D0144B01221A70124B49
:10B994001B687B6110E07B69043BFB60FB681B7ADE
:10B9A40083F00103DBB2002B03D0FB681B687868CB
:10B9B40098477B691B687B617B69002BEBD1074B44
:10B9C4001B78022B04D1FFF7AFFF044B00221A703F
:10B9D40000BF1837BD4680BD543D0020583D0020AF
:10B9E40080B584B000AF78607B68002B04D17B46BF
:10B9F400FB60F868FCF726F97B6800221A727B6802
:10BA040004331946034806F049F800BF1037BD4611
:10BA140080BD00BF543D002080B584B000AF786085
:10BA24007B68002B04D17B46FB60F868FCF70AF9BD
:10BA34000C4B1B78012B03D00A4B1B78022B06D12D
:10BA4400084B02221A707B6801221A7205E07B6897
:10BA540004331946044806F063F800BF1037BD46A6
:10BA640080BD00BF583D0020543D002080B483B009
:10BA740000AF786039603B687A6892689B1A9BB221
:10BA840018460C37BD465DF8047B704780B483B01C
:10BA940000AF78600B467B807B689A687B88134490
:10BAA40018460C37BD465DF8047B704780B584B0FA
:10BAB40000AF786039603B681B8819467868FFF7E7
:10BAC400E5FF03461B880433BB813B681A88BB89A6
