:020000022000DC
:1060000000F000206D630200556302005763020038
:10601000596302005B6302005D6302000000000040
:106020000000000000000000000000005F630200AC
:106030006163020000000000636302006563020008
:10604000676302006763020067630200D5600400B3
:106050006763020067630200456A0200676302002B
:106060006763020067630200A19003006763020098
:1060700067630200676302006763020067630200F0
:10608000676302003D2C040075C9020067630200CB
:10609000A12C04006763020039C10300676302009A
:1060A00067630200676302006763020067630200C0
:1060B0006763020067630200000000000000000048
:1060C00067630200676302006763020067630200A0
:1060D000676302006763020067630200000000005C
:1060E00000000000000000000000000000000000B0
:1060F00000000000000000000000000000000000A0
:10610000000000000000000000000000000000008F
:10611000000000000000000000000000000000007F
:10612000000000000000000000000000000000006F
:10613000000000000000000000000000000000005F
:10614000000000000000000000000000000000004F
:10615000000000000000000000000000000000003F
:10616000000000000000000000000000000000002F
:10617000000000000000000000000000000000001F
:10618000000000000000000000000000000000000F
:1061900000000000000000000000000000000000FF
:1061A00000000000000000000000000000000000EF
:1061B00000000000000000000000000000000000DF
:1061C00000000000000000000000000000000000CF
:1061D00000000000000000000000000000000000BF
:1061E00000000000000000000000000000000000AF
:1061F000000000000000000000000000000000009F
:10620000344935480A1A02D0072291438D46334952
:1062100033480A1A06D00722914381F309880222E3
:1062200082F314882F483049304A00F042F8304851
:106230003049314A00F03DF830483149314A00F0E8
:1062400038F831483149324A00F033F831483249A0
:10625000324A00F02EF832483249334A00F029F829
:1062600032483349334A00F024F833483349002296
:1062700000F02AF832483349002200F025F832486D
:106280003249091A082902DB0022026041601F48D6
:106290001F49884205D00268043003B4904703BC0C
:1062A000F7E700208646EC4600200021284A904768
:1062B000FEE7884207D0521A05D0037801300B70F0
:1062C0000131013AF9D17047884202D002700130A1
:1062D000FAE7704700F0002000E8002000F00020FE
:1062E00000F00020F88E0400A02D00201C2F0020BC
:1062F000A4630200A4630200026D0400F88E04008F
:10630000A02D0020A02D0020506E0400506E04002F
:10631000506E0400506E0400506E0400506E040075
:10632000506E0400506E0400F68E04007490040059
:106330001C2F00201C2F00201C2F0020206200207A
:1063400020620020206200202062002020660020C1
:106350000D6C0200FEE7FEE7FEE7FEE7FEE7FEE764
:10636000FEE7FEE7FEE7FEE7704700BF094880470B
:1063700009484FF007018843854608488047084888
:10638000016841F470010160BFF34F8FBFF36F8F5D
:10639000FFF736BF6963020000F0002065C7030005
:0463A00088ED00E0A4
:1063A40041DF70470C4B1B6813F4804F03D00B4B39
:1063B4001B68012B00DC704700B583B0084BD3F891
:1063C4000435084A009293220749022007F0EEFBA5
:1063D40003B05DF804FB00BF7C2E0020782E002063
:1063E40000100140DC6E0400D46E040010B586B0C9
:1063F4005068E0B11A4B1B6813F4804F03D0194B5B
:106404001B68032B01DC06B010BD174BD3F8043511
:106414004988147852780490039202940191134AA3
:106424000092BB221249042007F0C0FBEBE70C4B9F
:106434001B6813F4804FE6D00A4B1B68032BE2DD84
:10644400094BD3F804354988127802920191094A1C
:106454000092C0220649042007F0A8FBD3E700BF3E
:106464007C2E0020782E002000100140606F040074
:10647400D46E0400B46F040000B583B0012A1FD0A9
:1064840053B24BB1022A2FD0214AAE21032016F079
:1064940091FA03B05DF804FB1E4B1B6813F4804FA4
:1064A400F7D01D4B1B68032BF3DD1C4BD3F80435CD
:1064B4001B4A0092A1221B49042007F077FBE8E75E
:1064C400144B1B6813F4804FE3D0134B1B68032B4E
:1064D400DFDD124BD3F80435134A0092A62211498A
:1064E400042007F063FBD4E70A4B1B6813F4804FC6
:1064F400CFD0094B1B68032BCBDD084BD3F80435F5
:106504000A4A0092AA220749042007F04FFBC0E779
:106514007C6E04007C2E0020782E002000100140A8
:10652400FC6E0400D46E04001C6F04003C6F040075
:1065340010B586B00446234B1B6813F4804F03D078
:10654400214B1B68032B0DDC204A1378591C117056
:106554008DF815303223049364230393012C0DD951
:1065640006B010BD1A4BD3F804350190194A0092B5
:10657400D7221949042007F019FBE5E7174B1A78CD
:1065840082F001021A708DF814200E4B1B6813F46C
:10659400804F03D00C4B1B68032B06DC022303AA99
:1065A40005A90F481CF058F8DAE7094BD3F804356D
:1065B40001920C4A0092E9220749042007F0F6FAF6
:1065C400ECE700BF7C2E0020782E0020E02F002076
:1065D4000010014014700400D46E0400582F0020F1
:1065E4001C2F0020287004003038042800D970477C
:1065F40008B5FFF79DFF08BD00B583B0054B0193B7
:1066040001A81FF061FE10B903B05DF804FB16F099
:10661400C3F9F9E74871040000B58BB020220021CA
:1066240001A820F007FB01238DF8043007238DF81F
:10663400073006238DF80C30084B0593084B09935B
:10664400084901A80AF036FE10B90BB05DF804FB46
:10665400054A4FF4D27116F0ADF9F6E71D68020051
:10666400D9660200502F00207C6E040000B583B070
:106674000021114800F03EFC58B9104B1B6813F47C
:10668400804F03D00E4B1B68032B07DC03B05DF86F
:1066940004FB0C4A8C2116F08DF9EEE70A4BD3F873
:1066A4000435054A12880192084A00928D2208494D
:1066B400042007F07BFAE9E7A02D00207C2E0020BF
:1066C400782E00207C6E040000100140E06F04006E
:1066D400D46E040000B583B0164B1B6813F4804FCE
:1066E40003D0154B1B68032B11DCFFF7BFFF1348C6
:1066F400134B03630023836280F82C3080F82D3021
:1067040001211BF06FFF70B903B05DF804FB0D4B62
:10671400D3F804350C4A00924FF48F720B490420CD
:1067240007F044FAE1E70A4A40F2251116F042F96B
:10673400EAE700BF7C2E0020782E00201C2F0020CA
:1067440044700400001001409C700400D46E0400E6
:106754007C6E040010B50C4601F078FA207010BD70
:1067640010B582B00C460D4B1B6813F4804F03D058
:106774000B4B1B68032B04DC204601F07FFA02B0AC
:1067840010BD084BD3F804350191074A00927C22CE
:106794000649042007F00AFAEEE700BF7C2E002029
:1067A400782E002000100140FC6F0400D46E040019
:1067B40008B5002001F062FA1E21322001F00AFA25
:1067C40008BD000000B583B00E4B1B6813F4804F66
:1067D40003D00D4B1B68032B08DC0321C82001F0F8
:1067E400F9F90AF0BFFD03B05DF804FB074BD3F8D9
:1067F4000435074A0092C7220649042007F0D6F957
:10680400EBE700BF7C2E0020782E00200010014012
:10681400BC700400D46E040008B503781C2B00D0AF
:1068240008BDFFF7CFFFFBE730B589B064212548E9
:1068340000F092FB4FF0A0430C22C3F82C27224B0C
:106844001B789BB14FF0A043D3F8103513F4006FBD
:1068540021D00221642001F0BDF901F0B7FB00F062
:10686400B1FB0AF06FFD38BB09B030BD01AC174D68
:106874000FCD0FC495E8070084E8070001A801F0D4
:1068840027FB10B901F00CFAE7E7114A40F2CB11EB
:1068940016F090F8F6E70CF09BF90AF0F3FC4FF4CD
:1068A400FA744FF47A400B4B43F001039847013CD0
:1068B400F7D1FFF787FFCCE7054A40F2E31116F062
:1068C40079F8D1E7ED650200502F0020506E0400E6
:1068D4007C6E04005070040030B583B0054601207E
:1068E4001EF076FCF0B9194B1B6813F4804F03D0EB
:1068F400174B1B68032B1BDC01F09AF9002001F0F5
:10690400BDF94FF496744FF47A40124B43F00103EF
:106914009847013CF7D1E97B4FF4FA7001F05AF93A
:1069240003B030BD0C4A4FF4C87116F043F8DAE7EF
:106934000A4BD3F80435EA7B0192094A009240F2EB
:1069440091120849042007F031F9D5E77C2E002084
:10695400782E0020507004007C6E0400001001406A
:10696400D8700400D46E040008B501F061F908BDC4
:1069740000B585B01F4B1B6813F4804F03D01E4B2A
:106984001B68032B1BDC00F0A3FC00F0CFFC03A866
:1069940010F040FB174B1B6813F4804F03D0164BC9
:1069A4001B68032B17DC01F043F9002001F066F9A2
:1069B4000421C82001F00EF905B05DF804FB0F4B6B
:1069C400D3F804350E4A00924FF485720D49042021
:1069D40007F0ECF8D7E7094BD3F80435BDF80C20E1
:1069E4000192094A009240F215120649042007F068
:1069F400DDF8D8E77C2E0020782E0020001001401E
:106A0400E8700400D46E0400047104004FF0A04345
:106A1400084AC3F82C27084B4FF00042C3F804235C
:106A24000020C3F87C01054BC02283F806234022D2
:106A34001A6070470C0003000060004000E100E0B1
:106A4400194B0022C3F87C21184B1B68184AD2F852
:106A54000425991A19D443F23333994223D900B542
:106A640083B0144B1B6813F4804F03D0124B1B6884
:106A7400032B0CDC0E4BD3F804250C4B1A600020BE
:106A8400FFF756FD03B05DF804FBD11AE3E70B4BA7
:106A9400D3F804350A4A009240F2591209490420F5
:106AA40007F084F8E6E7704700600040542F0020A8
:106AB40000B000407C2E0020782E00200010014001
:106AC4006C6E0400D46E040000B585B0264B3E22E3
:106AD4001A70264A5A60264A9A60264A009202226E
:106AE4008DF8042004228DF80520029310238DF8DC
:106AF4000C30002168461EF0B1FB30BB00201EF0B4
:106B040067FB28BB01201EF063FB38BB4FF0A0439A
:106B14000322C3F84827C3F84C27C3F85027C3F807
:106B240054274FF48022C3F80C254FF40022C3F8F5
:106B34000C254FF48012C3F80C254FF40012C3F84F
:106B44000C25002005B05DF804FB15F025FFD5E702
:106B5400094A40F27D1115F02DFFD3E7064A4FF4A0
:106B6400BF7115F027FFD1E7D42F002094700400E3
:106B740064710400807004007C6E040000B583B06E
:106B84001A4A05214FF4103006F0F4FF184B1B6825
:106B940013F4804F03D0174B1B68032B13DC1CF03A
:106BA40081F8E0B901F05AF800F076FB00F090FBB0
:106BB40000F0BCFBFFF720FDFFF72EFDFFF784FF7D
:106BC40003B05DF804FB0C4BD3F804350B4A009278
:106BD4004FF4D5720A49042006F0E8FFDFE7094ABA
:106BE4004FF4D67115F0E6FEDCE700BF4DDB020082
:106BF4007C2E0020782E00200010014058700400E4
:106C0400D46E04007C6E040008B5FFF7B7FFFFF7ED
:106C14000BFEFFF7FBFEFFF7C3FBFCE730B583B0C9
:106C2400044615461D4B1B6813F4804F03D01C4BC0
:106C34001B68032B11DCA36B04F13C01204698472D
:106C440094F83C302B7094F83D306B70236C0BB18E
:106C5400626C6AB16B6003B030BD124BD3F804357B
:106C6400114A0092AA221149042006F09FFFE2E78C
:106C74001CF09AF8A16C1CF09DF84FF47A7303FB96
:106C840000F0C20B236C934205D3B0F5004F02D33E
:106C94009B1A6B60DFE700236B60DCE77C2E00202F
:106CA400782E002000100140B4710400A871040083
:106CB40010B588B00446436CE3B9036C13B190F883
:106CC4003D20BAB194F83D2084F83C208DF818207A
:106CD4008DF81920079306A920461BF075FB94F83C
:106CE4004C303BB9636B94F83C1020469847012321
:106CF40084F84C300F4B1B6813F4804F03D00E4BB9
:106D04001B68042B01DC08B010BD0C4BD3F8043510
:106D140094F83C2094F83D10206C0490606C03902F
:106D240002910192064A009285220649052006F046
:106D34003DFFE8E77C2E0020782E00200010014063
:106D4400F8710400A871040030B583B00446036BE5
:106D540018681CF013F8636C3BBB236C1BB3590C11
:106D6400D8034FF47A72002310F5FA7041F1000150
:106D74001FF0F0FDB0F1807F2AD2042831D9236BB3
:106D84002246014618681BF0DBFF05461CF00CF890
:106D9400A06445B11C4B1B6813F4804F03D01B4BFC
:106DA4001B68002B25DC03B030BD256B590CD803C0
:106DB4004FF47A72002310F5FA7041F100011FF0CC
:106DC400C9FD2246014628681BF0BAFF0546E0E7E4
:106DD400236B22466FF07F4118681BF0B1FF054614
:106DE400D4E7236B2246052118681BF0A9FF05464A
:106DF400CCE7074BD3F80435064A009268220649CB
:106E0400012006F0D3FECEE77C2E0020782E002051
:106E140000100140D8710400A8710400F0B583B0DB
:106E2400044617461E46089D1A4B1B6813F4804FF0
:106E340003D0194B1B68032B1BDC002384F84C3054
:106E44003B7884F83D300EB373686364336823641D
:106E54002046FFF72DFF2046FFF776FF3DB194F85B
:106E64003C302B7094F83D306B70236C6B6003B036
:106E7400F0BD0A4BD3F8043512780192084A009207
:106E8400CC220849042006F091FED6E7002363646F
:106E94002364DDE77C2E0020782E002000100140C2
:106EA400C0710400A871040038B50446436C9BB952
:106EB400056CADB1690CE8034FF47A72002310F548
:106EC400FA7041F100011FF045FDB0F1807F0BD352
:106ED400A5F2FF15256403E000234364FFF7E8FEF1
:106EE4002046FFF731FF38BD002323642046FFF717
:106EF400DFFEF5E7A0B110B504460D4AC262426B4D
:106F04008AB1826B8AB11BF029FA034608B118468C
:106F140010BD084A0021206B1BF0FCFE0346F6E777
:106F24000E23184670470E23F1E70E23EFE700BF48
:106F3400D0710400AD6E020008B5064B1B683BB16E
:106F440013F022FA002803DB024B1B689847F7E78B
:106F540008BD00BFE42F002010B50C46144B186088
:106F6400144A012114481BF0D5FE78B9610CE003E2
:106F740041F26F7200238B4208BF82420BD24FF45E
:106F84007A7200231FF0E6FC014605E00B4A4A2111
:106F940015F010FDEAE70521002209481BF0D0FE98
:106FA40000B910BD054A4B2115F004FDF9E700BFF7
:106FB400E42F00203D6F0200387204003C7204008C
:106FC400E82F0020002869D02DE9F043CFB0064611
:106FD400334B1B6813F4804F03D0324B1B68032BD5
:106FE4000BDC2F4B1B6813F4804F03D02D4B1B6815
:106FF400032B2ADC4FB0BDE8F08300230F2B0FD8FE
:10700400F25C29490D6810095900285C0DAC04F89C
:10701400130002F00F020131AA5C62540133EDE760
:107024000DAA00238DF8543003F1804303F588330F
:10703400D3F8043502921D4A01921D4A009241225E
:107044001C49042006F0B2FDCBE71B4BD3F80435F2
:10705400B288F188307A747AB57AF77A96F80CC0E7
:1070640096F80DE096F80E8096F80F90CDF82C90D7
:10707400CDF82880CDF824E0CDF820C007970695F8
:107084000594049003910292326801920B4A009293
:1070940046220849042006F089FDABE7704700BF8B
:1070A4007C2E0020782E0020802E0020C472040044
:1070B400D8720400B072040000100140E0720400B1
:1070C40072DF704773DF704774DF70472DE9F04754
:1070D400A2B0074688469146314C0026C4F80660A3
:1070E400E68130490B78C3EB43102F4D05442560EE
:1070F4002E4A0244A2601F22A280A281013303F01F
:1071040001030B704FF03C0A5246314613A81FF09E
:1071140091FD06238DF84F30ADF8487001238DF8AA
:107124004A30ADF85C3012AA1892ADF83C70ADF854
:107134004090CDF844800DEB0A021D928DF8783012
:107144005246314668461FF075FD02238DF8003023
:10715400221D294613A814F08FFD90B9104B03F19A
:107164000C029968684614F087FD68B9104A0C4906
:107174001048FFF7A5FF082809D070B922B0BDE870
:10718400F08715F009FCE9E715F006FCEEE70022AC
:1071940003490848FFF794FFEFE715F0FDFBEDE71F
:1071A4004C300020083000200C3000205C300020DF
:1071B400042E0020002E0020B0F5202F04D2074B0F
:1071C400A3FB0023DB0801E04FF6FF7308B103B90A
:1071D4000123034A93819160704700BFCDCCCCCC8E
:1071E400042E002008B50121054B1878FFF76AFF2B
:1071F40018B9002005F0C4F808BD15F0CDFBF8E778
:10720400002E002008B5044B1878FFF75DFF00B985
:1072140008BD15F0C1FBFBE7002E002076DF7047A8
:107224007ADF70477CDF704708B515F0B5FB08BD01
:1072340008B504F081F908BD00B583B0037823B123
:10724400012B0BD003B05DF804FB3B214088FFF712
:10725400E5FF0028F6D015F09FFBF3E7094B1B6808
:1072640013F4804FEED0084B1B68032BEADD074B69
:10727400D3F80435064A009268220649042006F031
:1072840095FCDFE77C2E0020782E002000100140C2
:10729400807304006473040000B583B014F0C0FE6E
:1072A40068B90023019301A9012014F0F1FD48B944
:1072B40001A814F03FFE40B903B05DF804FB15F0DB
:1072C4006BFBEEE715F068FBF2E715F065FBF3E7FF
:1072D40000B585B09DF80C30012262F3030362F31C
:1072E40007138DF80C300C220F490DEB0200FFF749
:1072F40099FF98B90023ADF808307823ADF804302D
:10730400C823ADF806304FF4C873ADF80A3001A8AD
:10731400FFF786FF28B905B05DF804FB15F03CFBC8
:10732400E8E715F039FBF6E72073040000B58BB0ED
:107334000023ADF808307822ADF80420C822ADF857
:1073440006204FF4C872ADF80A200693079301ABE8
:10735400039340F6CD4304934FF480330593032302
:107364008DF81830064B0893064B099303A815F0C3
:107374003DF810B90BB05DF804FB15F00DFBF9E70F
:107384003D7202002D7202000620704700B587B0DE
:1073940041F2010398424CD020D944F201039842AF
:1073A4005DD044F20203984274D1464B1B6813F437
:1073B400804F1ED0444B1B68002B1ADD434BD3F87F
:1073C400043510880390526802920191404A009259
:1073D4006C224049012006F0E9FB0AE0012859D15A
:1073E400384B1B6813F4804F03D0374B1B68002BBA
:1073F40012DC4FF0A0434FF4F012C3F81825C3F881
:107404000C25EFF3108372B64DF6AD6C324B1B783E
:10741400002B54D030BFF9E72C4BD3F8043502923B
:1074240001912E4A009260222A49012006F0BEFBF7
:10743400DFE7244B1B6813F4804FDAD0224B1B6820
:10744400002BD6DD214BD3F8043502920191244A56
:10745400009263221F49012006F0A8FBC9E7194BDB
:107464001B6813F4804FC4D0174B1B68002BC0DD7E
:10747400164BD3F8043510680490506803900291B9
:1074840092680192174A009277221249012006F06D
:107494008DFBAEE70B4B1B6813F4804FA9D00A4B4E
:1074A4001B68002BA5DD094BD3F8043501910E4A66
:1074B40000927B220749012006F078FB99E707B088
:1074C4005DF804FB7C2E0020782E00200010014083
:1074D40034740400E07304001C2E0020F4730400D0
:1074E40010740400547404007874040000B583B06C
:1074F4000023ADF80030054B01936A46014644F27F
:107504000200FFF743FF03B05DF804FB747404004A
:1075140007EE900AB8EE677ADFED0D7A67EE277A08
:1075240006EE901AF8EE666AF4EEE67AF1EE10FAD8
:107534000AD4DFED087A27EE277AF4EEC76AF1EE73
:1075440010FA03D5012070470120704700207047CE
:107554009A99993FCDCC4C3F2DE9F0472DED068B00
:1075640005468946046807EE904AB8EE67AA814B3F
:1075740093ED008ADFED807AC7EE888ACAEE287A16
:10758400DFED7E9AC7EEA97A17EE900A1FF02CF869
:1075940041EC100B1FF08EF951EC100B1FF00EF89C
:1075A4000746DFED777A87EE889ACAEE097AC7EE46
:1075B400A97A17EE900A1FF017F841EC100B1FF090
:1075C40079F951EC100B1EF0F9FF06460F2F00D984
:1075D4000F271F2E03D80F2E02D8102600E01F26D7
:1075E400684B03FB07F307EE903AF8EE677AC7EEB1
:1075F400887A17EE900A1EF0F7FF41EC100B1FF08B
:1076040059F951EC100B1EF0D9FF80465E4B03FB79
:1076140006F307EE903AF8EE677AC7EE887A17EE2B
:10762400900A1EF0E1FF41EC100B1FF043F951ECFE
:10763400100B1EF0C3FF0146A4EB0803002BB8BFD8
:107644005B42241A002CB8BF6442A3423CDC89F894
:1076540000702868C5F800804146FFF759FF0746C7
:10766400AC6807EE904AF8EE679AC9EEA87ADFEDA7
:10767400438AC7EEA87A17EE900A1EF0B5FF41ECD4
:10768400100B1FF017F951EC100B1EF097FF8046FA
:10769400C9EE897AC7EEA87A17EE900A1EF0A4FF05
:1076A40041EC100B1FF006F951EC100B1EF086FF95
:1076B4000646B8F10F0F01D94FF00F081F2E0BD853
:1076C4000F2E0AD8102608E089F80060286829607F
:1076D400FFF71EFF0746C3E71F262A4B03FB08F3E9
:1076E40007EE903AF8EE677AC7EE887A17EE900ABA
:1076F4001EF07AFF41EC100B1FF0DCF851EC100B7C
:107704001EF05CFF8246204B03FB06F307EE903A23
:10771400F8EE677AC7EE887A17EE900A1EF064FFD7
:1077240041EC100B1FF0C6F851EC100B1EF046FF95
:107734000146A4EB0A03002BB8BF5B42241A002CB9
:10774400B8BF6442A3420CDC89F80280A868C5F87B
:1077540008A05146FFF7DCFE3844BDEC068BBDE8BB
:10776400F08789F80260A868A960FFF7D1FE384461
:10777400F3E700BF9C30002000007F4600007A44FD
:107784000000FF470006F9000030C8072DE9F04F5C
:107794002DED048B83B006460D464C7814B9CB7896
:1077A400002B5DD0EB78A4EB830307EE903AB64B45
:1077B400D3ED006A9FEDB56A86EE267AF8EEE77A95
:1077C40067EE877A96ED047AB8EE477AC7EE276AB1
:1077D400DFEDAF7AC6EEA77A17EE900A1EF004FF2B
:1077E40041EC100B1FF066F851EC100B1EF0E6FE96
:1077F40007460CB9EB78ABB3EB78A4EB83031B011E
:1078040007EE903AA04BD3ED006A9FEDA06A86EE96
:10781400267AF8EEE77A67EE877A96ED047AB8EE80
:10782400477AC7EE276ADFED9A7AC6EEA77A17EE93
:10783400900A1EF0D9FE41EC100B1FF03BF851ECFE
:10784400100B1EF0BBFE80460F2F00D90F27B8F196
:107854001F0F0AD8B8F10F0F09D84FF0100806E02F
:107864000027C6E74FF00008EEE74FF01F08EB785B
:10787400A4EB830407FB04F3C3EB0323824A92EDD6
:10788400008A07EE903AF8EE677A87EE887ADFEDA1
:10789400808A67EE287A17EE900A1EF0A5FE41EC66
:1078A400100B1FF007F851EC100B1EF087FE8146F9
:1078B40008FB04F4C4EB0424230107EE903AF8EE29
:1078C400677A87EE887A67EE287A17EE900A1EF0B8
:1078D4008BFE41EC100B1EF0EDFF51EC100B1EF073
:1078E4006DFE01463369A3EB0902002AB8BF524278
:1078F4001B1A002BB8BF5B429A4259DC2F713069C6
:10790400C6F810904946FFF703FE0190776907EE29
:10791400907AB8EE679A95F801A095F803B0AAEBAF
:107924008B04DFED5A7AC7EE889A07EE904AF8EE98
:10793400E77A67EEA97A89EE277ADFED558AC7EEF2
:10794400287A17EE900A1EF04FFE41EC100B1EF041
:10795400B1FF51EC100B1EF031FE8146230107EEFE
:10796400903AF8EEE77A67EEA97A89EE277AC7EEBD
:10797400287A17EE900A1EF037FE41EC100B1EF029
:1079840099FF51EC100B1EF019FE8046BAF1000F5E
:1079940002D1BBF1000F13D0B9F10F0F14D8B8F115
:1079A4001F0F14D8B8F10F0F13D84FF0100810E0C0
:1079B40085F8048030693161FFF7AAFD0190A5E7DD
:1079C4004FF00008C146EAE74FF00F09E7E74FF030
:1079D4001F0809FB04F3C3EB032307EE903AF8EE08
:1079E400677A87EE887ADFED2A8A67EE287A17EEBF
:1079F400900A1EF0F9FD41EC100B1EF05BFF51ECF8
:107A0400100B1EF0DBFD824608FB04F4C4EB0424D7
:107A1400230107EE903AF8EE677A87EE887A67EEEC
:107A2400287A17EE900A1EF0DFFD41EC100B1EF0D1
:107A340041FF51EC100B1EF0C1FD0146A7EB0A03F8
:107A4400002BB8BF5B423F1A002FB8BF7F42BB4236
:107A54000FDC85F805907069C6F814A05146FFF74D
:107A640057FD019B0344184603B0BDEC048BBDE8ED
:107A7400F08F85F8058070697161FFF749FD019BFE
:107A840003441846F0E700BF9C30002000007F4309
:107A940000007A44074B1B7843B148B1064A128868
:107AA40030EA020200D00023184670470123FBE7A6
:107AB4000023F9E7A2300020A030002098B3F8B5E5
:107AC40006461D4B1B7883B389B300231370FF2034
:107AD40050709370D370137153710B7953700B7B87
:107AE40002339B08D370072B01D90723D3701446A4
:107AF4000D46D3789B000B7311462846FFF72CFDE7
:107B040007463046FFF7C6FF38B900232B616B6187
:107B1400237163716FB90020F8BD21462846FFF731
:107B240035FE0744F6E7022070470420F4E70E20F0
:107B3400F2E70120F0E700BFA230002007EE901A20
:107B4400F8EE677A044BC3ED007A044B1880044BBB
:107B540001221A70704700BF9C300020A030002022
:107B6400A230002008B5184B1B687BB1174B1B686B
:107B74009BB101201DF02CFB60B9144B00221A604C
:107B8400114A1368013B136093B108BD002014F03F
:107B940003FFEBE714F000FFEFE701201DF0F6FA16
:107BA40018B90A4B01221A60EAE714F0F5FEF8E767
:107BB40007481BF0E3F801201DF00AFB0028E4D07D
:107BC40014F0EAFEE1E700BFA8300020A430002052
:107BD400AC30002021B338B5132800D838BD4B0091
:107BE400013B104A13600025410CC4034FF47A7220
:107BF400002314F5FA7069411EF0ACFE2A460146D2
:107C040009481BF09DF80028E8D101201DF0BEFAB8
:107C140018B9064B01221A60E0E714F0BDFEF8E73C
:107C2400704700BFA8300020AC300020A4300020F2
:107C340008B505481BF0A2F801201DF0C9FA00B9E7
:107C440008BD14F0A9FEFBE7AC300020024B186815
:107C5400003018BF01207047A430002008B5054A41
:107C6400012105481BF056F800B908BD14F094FE34
:107C7400FBE700BF697B02009474040008B538B1C7
:107C840001201DF083FA00B908BD14F085FEFBE75E
:107C940001201DF09DFA0028F6D014F07DFEF3E7D4
:107CA40000B589B00023019303930593FF238DF856
:107CB4000C3001208DF804004FF4FA73029328234A
:107CC400049305238DF814304FF4C8730693079377
:107CD40001A91DF09FFA10B909B05DF804FB14F076
:107CE4005BFEF9E72B4B1B78002B52D000B585B017
:107CF400012804D0032845D005B05DF804FB002317
:107D0400029302A9012014F0C3F840BB02A814F0A6
:107D140011F938BB0123039303A90DF106000FF0F9
:107D24005DFF10BBBDF806000FF03CFB0DF1050133
:107D34000FF0E6FCE0B90AF0BFFC9DF80510002046
:107D44000AF086FFB8B903F085FBC0B9114B0022D5
:107D54001A70114B1B68002BCED09847CCE714F057
:107D64001BFED3E714F018FED4E714F015FED9E790
:107D740014F012FEDFE77846FFF7B8FBE3E714F0F0
:107D84000BFEE3E714F04CF90028B5D014F004FE20
:107D9400B2E77047CE300020D030002008B5064B43
:107DA40001221A70054803F0BFFB03F09FFB00B9E2
:107DB40008BD14F0F1FDFBE7CE300020202E00209A
:107DC40008B503781C2B00D008BD074B1B78002B8B
:107DD400FAD014F069F918B9044803F0A9FBF3E7E1
:107DE40014F0DAFDF8E700BFCE300020202E00208A
:107DF40008B50849084815F075FA034608B118464D
:107E040008BD0323002205494969054815F086FA8F
:107E14000346F4E7EC30002058340020D030002032
:107E24002433002008B50378023B082B3FD8DFE851
:107E340003F01C0511423E2C3E3E3600204B5B688D
:107E4400002B34D0007A002831D01E4A0121117051
:107E540098472CE01A4B9B684BB31A4A127832B3FA
:107E6400184A00211170984721E0174B1B784BB931
:107E7400134BDB681BB1134A002111709847FFF7BD
:107E8400B7FF14E0FFF78AFF11E010220C4B996949
:107E94000E4815F0D3FA50B114F07EFD07E0816866
:107EA400C06809F08FF918B9074B01221A7008BD90
:107EB40014F072FDF8E7024B1B69C0689847F6E7B7
:107EC400D0300020CC300020CD30002024330020DE
:107ED40070B586B004461F4A03AB07CA03C323F830
:107EE400022B120C1A701C4E35460FCC0FC594E8A9
:107EF400070085E80700B36953B3184B009303AB3D
:107F0400174A1849184815F0A9F9034610B118463C
:107F140006B070BD154816F069FE0146124815F00A
:107F2400C9F903460028F2D1114817F021F8034695
:107F34000028ECD10E4817F051F801460A4815F014
:107F4400B9F903460028E2D1FFF752FF0346DEE702
:107F54000723DCE798740400D0300020297E020057
:107F6400EC30002058340020243300200C31002051
:107F7400D432002010B40346044C006859689A684F
:107F8400DB680FC45DF8044B704700BF98340020D1
:107F94000B4B0C4A92E8030083E8030003F1080248
:107FA400094903C982E80300DA79042161F307125D
:107FB400DA711A7A022161F387121A72704700BFCC
:107FC4009834002060000010A4000010004870479E
:107FD4009834002000231F2B09D8074901EBC30064
:107FE40000224280426001F833200133F3E7034B5F
:107FF40000221A60704700BFA8340020A835002072
:1080040030B405460F4B1B6800240AE01F230E4AB8
:1080140012F83300A0B102EBC3025288AA4207D07F
:1080240001341F2C0BD85A1E002BEFD01346EEE759
:10803400054A02EBC30252688A42F1D100E00020F3
:1080440030BC7047A8350020A834002030B40A4A58
:1080540013680A4C04EBC30568806960012104F8C5
:1080640033100B441360202B01D030BC70471346EF
:1080740000221A60F9E700BFA8350020A8340020C8
:10808400C0F30C038B4204D2C91A0144A1F5005079
:108094007047C91A08447047C37D002B42D0C37887
:1080A4000A7802F0800203F07F0313430B70027816
:1080B4000B7803F07F0343EAC2130B700378002BA1
:1080C40041D030B48378082B14BF002201224B78AE
:1080D40003F07F0343EAC2134B70C58803F08003A7
:1080E400C5F3861423434B708A7802F0030242EAF4
:1080F4008502D2B28A70057A02F0FC02C5F3C1048B
:1081040022438A70CB7803F01F0343EA4513DBB2A2
:10811400CB70427A03F0E00302F01F021343CB70EA
:1081240030BC7047C3780A7802F0BF029B0103F0A9
:10813400400313430B70027903F0C00302F03F02C3
:1081440013430B70B3E770470023032B2DD810B4EF
:1081540002E00133032B24D8C3EBC3021401144AF5
:10816400224492F84820012AF3D1114A2244948AE5
:10817400C2899442EDD1C3EBC30214010C4A2244D8
:10818400D2888A42E5D10A4A2244B2F8582012B170
:10819400848AA242DDD1C3EBC3031A01044810440C
:1081A40000E000205DF8044B70470020704700BFDA
:1081B40064360020002300E00133032B14D8C3EB02
:1081C400C3021101094A0A4492F84820022AF3D151
:1081D400064A0A44918A828A9142EDD1C3EBC303D1
:1081E4001A0102481044704700207047643600208A
:1081F40008B9042070470820704730B403460C4681
:108204000978C17000214162A1680B2903D8217B40
:1082140001B3012100E0012119700020987029B1F7
:10822400A1680731C9080139597218720121D97539
:1082340003F10C0504F1100103C985E80300E18989
:108244009982A1691962217F9975216AD9629A621A
:1082540030BC70470021DFE70021174B1B688B42BD
:1082640027D90023154A02EBC10252689A421ED94B
:1082740010B40FE060685DF8044B704701310E4B99
:108284001B688B4211D900230C4A02EBC1025268CD
:108294009A42F3D9094A52F8312002EBC30412F886
:1082A40033208242E6D00133EEE70020E3E70131D8
:1082B400D3E70020704700BFAC350020B035002064
:1082C40070B58CB006460D4614462C22002101A838
:1082D4001EF0B0FC0F238DF80430ADF808604FF0A9
:1082E400000365F300038DF80A308DF80B4001A8F4
:1082F40001F060FA0CB070BD30B58DB005460C4687
:108304002C22002101A81EF095FC10238DF80430C6
:1083140002958DF80C4001A801F04CFA0DB030BD67
:1083240000B58DB010B913F1020F06D1074B1868D0
:1083340004F04EFA0DB05DF804FB01228DF8042020
:10834400029301A801F036FAF0E700BFC03500201F
:10835400D0B50446037853B1E3691F0A1E06E188C9
:10836400A069FFF78DFE301847F10001D0BD7846B3
:10837400FFF7BCF8F0E70000F8B50546002400E07C
:108384000134032C20D8C4EBC4031A010F4B13444B
:1083940093F84830022BF3D10C4B13449A8AAB8ADE
:1083A4009A42EDD12846FFF7D3FF06460F46C4EBA9
:1083B400C402130105481844FFF7CAFF8F4208BFDF
:1083C4008642DDD2012000E00020F8BD64360020A2
:1083D400F8B5064603783BB13046FFF7B9FF0446CB
:1083E4000D46B08A002304E07846FFF77FF8F3E7F0
:1083F4000133072B0ED81A0107498A5A8242F7D152
:1084040001EB0312D2E90267AF4208BFA642EFD1E3
:10841400104600E00020F8BDC835002038B50446F9
:108424000D46037853B10023072B0ED8A18A1A01F5
:108434001248825A914205D00133F5E77846FFF796
:1084440055F8F0E71B010021C1520D4A1368591C6D
:10845400116003F00703A08A1A010849885255B134
:108464006278064D05EB0315AA702046FFF770FFEE
:10847400C5E9020138BD0022F3E700BFC83500207A
:1084840048360020F8B5069C002962D00F461668CD
:108494005568D2F808E0D2F80CC0E6602561C4F84B
:1084A40014E0C4F818C016695569E6612562002213
:1084B40062700278D209227062B30421B9424AD8A8
:1084C400E57D4DB3017801F07F01E1700021A170D9
:1084D4009AB14278920102F4FE52817842EA910202
:1084E400E2808278D20002F01802C17842EA511286
:1084F4002272C27802F01F0262721D460023636278
:108504002B78032B21D82A78144B53F82230E362BA
:108514000020F8BD0121D1E70578C5F38015E57089
:10852400057805F03F05257142B190F90110002945
:1085340002DB0421A170CBE70821FBE70425A57029
:108544002944B942C4D90920E3E77846FEF7CEFFAF
:10855400D9E70920DDE70920DBE700BFA4740400A4
:1085640070B50C461E460378ABB104252A44A260BC
:1085740000F10C032360836A6360C36AE360002331
:108584002374204604F0A2FC034610B96269154422
:108594003560184670BD0125E8E72DE9F0418EB03D
:1085A4000D4616461C46804600282DD0002D2FD09F
:1085B400002C31D0636A0233059304F10C00E37894
:1085C400002B2DD00121A27801AF3B46082A14BF0D
:1085D4000022012204F041FA0697CDF81C80B2B2C1
:1085E400ADF820200B9515440C95A3788DF8343004
:1085F400237B022B16D00023ADF8283005A804F005
:1086040024FA0EB0BDE8F0817846FEF76FFFCDE79F
:108614007846FEF76BFFCBE77846FEF767FFC9E7BE
:108624000221D0E723692BB1236909931023ADF804
:108634002830E3E77846FEF759FFF5E72DE9F041E6
:1086440088B004460D46C37D002B3CD0082605FBAC
:1086540006F8637AAB4238D0257201AB324602A9E0
:108664002046FFF77DFF074648BB4DB994F85330C9
:1086740033B9A369C3F30C03E380012384F85330B3
:10868400E37D7BB994F8523063B91DBBB4F84A104A
:10869400A27823468A1AE16E0846FFF77EFF01237B
:1086A40084F8523007992046FFF7F6FCE16E324613
:1086B400414401981EF095FA02A804F02DFC3846B6
:1086C40008B0BDE8F0810C26C1E7B4F84A60A6EB17
:1086D4000806C1E77846FEF709FFD7E770B50546F7
:1086E4000E4609B100230B6095F85040002104E0C8
:1086F400631C85F850300134E4B26B7AA34210D382
:10870400EA6C0123A3401A42F5D121462846FFF71B
:1087140095FF014628B9002EEAD03368013333604F
:10872400E6E7084670BDF0B589B085781544C37D89
:108734007BB10B239D4224D816460F46044601AB59
:108744002A4602A9FFF70CFF054620B1284609B0C6
:10875400F0BD0F23EEE707992046FFF79DFCE37D6C
:1087640043B13246394601981EF03BFA02A804F0A0
:10877400D3FBEBE72346324601993846FFF70DFF5A
:10878400F4E70925E2E7000010B5044690F8483004
:10879400012B0CD103F00AFA237B012B0BD0094BDC
:1087A400D968014404F1300003F0D6F910BD7846CD
:1087B400FEF79CFEEEE7A37D024AD168126902FB34
:1087C4000311EEE74C36002030B583B0002403E0FB
:1087D4002846FFF7D9FF0134032C19D8C4EBC4038E
:1087E4001A010C4B134493F84830012BF3D10023A6
:1087F4000193C4EBC4021301064D1D4401A928468C
:10880400FFF76CFF0428E3D0019B002BE3D0DFE7E4
:1088140003B030BD6436002038B5044690F84830C3
:10882400022B09D1064B1D6803F0C0F9411904F16C
:10883400300003F091F938BD7846FEF757FEF1E7B2
:108844004C36002038B5044690F84830022B10D13D
:108854000A4B5D7D5A689B6803FB052503F0A6F966
:10886400411904F1500003F077F9012384F86830CA
:1088740038BD7846FEF73AFEEAE700BF4C360020E2
:1088840010B50446808A02F081FC01281CD1237BA8
:10889400E3B194F91620002A1ADBE27D4AB1022BD7
:1088A40018D094F90330002B16DBA378B3B9002059
:1088B4000BE0E2780AB9012B12D1237893B9A3789B
:1088C400042B11D1002000E0102010BD1020FCE783
:1088D4000720FAE71020F8E70720F6E70720F4E777
:1088E4000720F2E70020F0E70720EEE738B504465A
:1088F400C2698169808A06F03BFB054608B92846AF
:1089040038BDE169002201F00101A08AFFF7D8FC1B
:10891400F5E700002DE9F04780460E4617464B1E4A
:10892400DBB2012B0FD8B7F5C07F10D80024032C7D
:108934001AD8C4EBC4031A01304B134493F84830DB
:108944004BB10134F3E77846FEF7D0FDEBE7784608
:10895400FEF7CCFDEAE7DFF8A4A0154655443846F7
:1089640008F017FCE86600E000255DB3EB6E002B11
:1089740042D043462A4608F1300ED3F800C05C6862
:108984009868D968C2F800C054609060D160103310
:1089940010327345F1D10023EB64A5F84A70012E1F
:1089A40013D06FF00103AB62002385F86830144BD9
:1089B400AB652D66134BAB632D64012002F0C6F842
:1089C40085F848602846BDE8F0870F4B1B7D85F885
:1089D4005130002385F8523085F8533085F85030F3
:1089E400D8F828206A65A5F858306FF00103AB6207
:1089F400064BAB632D64E0E70025E3E76436002013
:108A04009F930200558D02004C360020A18D020078
:108A140000B585B000238DF80F3098B103460846A1
:108A240002330B600DF10F0104F013F89DF80F30C1
:108A340043B10D4B1B6813F0040F03D00B4B1B68A1
:108A4400032B04DC9DF80F0005B05DF804FB084B14
:108A5400D3F80435074A009240F23742064904200D
:108A640005F0A4F8EEE700BF7C2E0020782E00204D
:108A740000100140AC7504009E7504002DE9F0431C
:108A84008FB004460E4615461F46D0F8189003785A
:108A940023B1C1884846FFF7F3FAA06104F10C0042
:108AA400E378002B37D00121A2780DF12808434642
:108AB400082A14BF0022012203F0CFFFC4F8189043
:108AC400CDF808800396A378EA1A92B2ADF8102084
:108AD4003244089207978DF824300023ADF81830FB
:108AE400E37863B3237B022B17D02546002345F894
:108AF400243F2A462179206A0FF0DAFB606A90B19C
:108B040001A9FFF785FF00283ED12A462179206A72
:108B14000FF0CEFBF2E70221C6E71023ADF81830C0
:108B240023690593E1E7237B022B31D104F10C0186
:108B3400E0890FF06FFC0028D4D1052025E0237BC9
:108B4400012B01D0052020E0E389ADF80030A38A91
:108B5400ADF80230002500E00135012D12D8214680
:108B6400002341F8243F0EAB03EB450333F8380CE4
:108B74000FF0BBFB01A9606AFFF74AFF0028EBD0A6
:108B8400002002E0052000E000200FB0BDE8F083E3
:108B94000520FAE770B5F0B00D4614461E4610AB3A
:108BA4000A4601462046FFF769FF50B1224B1B6875
:108BB40013F0040F03D0214B1B68052B2FDC70B07E
:108BC40070BD2046FFF792FE0028F8D103AB0122C6
:108BD4008DF80C20A28AADF80E20002204928DF8A4
:108BE400142010AA0692A278AD1AADF81C5008AA57
:108BF40093E8030082E803000AAB04F10C0292E854
:108C0400030083E80300A37D8DF83830236A0C93B6
:108C1400636A0D930F9605A800F0CCFDCFE7084BCF
:108C2400D3F80435074A009240F20E720649062032
:108C340004F0BCFFC3E700BF7C2E0020782E002088
:108C440000100140D07504009E75040010B5044660
:108C5400C06E08F0A2FA04F1300002F065FF94F847
:108C64004830022B0AD07022002120461DF0E2FF7A
:108C7400002084F8480001F069FF10BD04F15000A1
:108C840002F052FFEFE710B58CB0044690F848307C
:108C9400012B0CD101238DF80430636D029301A8DC
:108CA40000F088FD2046FFF7D1FF0CB010BD7846D8
:108CB400FEF71CFCEEE7000030B585B00D46044617
:108CC400D0B1E18894F84830022B19D094F8483098
:108CD400022B1ED02946606DFFF70EFB2046FFF7DE
:108CE400B5FF164B1B6813F0040F03D0144B1B681D
:108CF400032B13DC05B030BD7846FEF7F7FBE0E745
:108D0400637813F0020FE1D00022A08A1BF060FB0D
:108D1400DCE700212046FFF781FBDBE7094BD3F8B2
:108D2400043594F8482002950192074A009240F2D3
:108D34002E220649042004F039FFDBE77C2E0020B4
:108D4400782E002000100140B47404009E750400C5
:108D540008B508460021FFF7AFFF08BD08B5037B3F
:108D6400012B02D0FFF78FFF08BD0121FFF7A4FFFD
:108D7400FAE7000008B590F8513053B1013B80F890
:108D84005130002380F85030034B186803F020FD65
:108D940008BDFFF7E3FFFBE7C035002010B50C4624
:108DA40091F84830012B03D12046FFF7E3FF10BDB3
:108DB4007846FEF79BFBF7E7062976D1F0B585B038
:108DC40015460278910101F4FE5147788478C378FE
:108DD4001B0443EA0463047943EA042344791C43EF
:108DE40056B241EA97012846FFF7AEF90746E0B1CB
:108DF400002E2FDBC289A98A8A422BD02B4B1B68F9
:108E040013F0040F3ED02A4B1B68012B3ADD294B8B
:108E1400D3F8043502910192274A009240F28C6201
:108E24002649022004F0C2FE2CE0204B1B6813F0FC
:108E3400040F27D01E4B1B68012B23DD1D4BD3F8D9
:108E440004351F4A009240F284621C49022004F057
:108E5400ADFE17E0002E17DBFD6C2543FD64BCB1AD
:108E64003B78D3B17B7A5A1C01239340013B9D424A
:108E740017D0002187F850103846FFF72FFC3846EA
:108E8400FFF782FC05B0F0BDAB8AA7F85830E3E7E2
:108E940003213846FFF710FFF4E77846FEF726FB78
:108EA400E0E73846FFF7EFFEECE770477C2E002042
:108EB400782E0020001001401C7504009E750400EB
:108EC400EC7404002DE9F0438BB007460E461446BB
:108ED4001D461046FFF70AFD50B994F80380B8F117
:108EE400000F08D12B46224631463846FFF764FF6F
:108EF4000BB0BDE8F0834046FFF7AEF98146002889
:108F0400F6D08DF80480236A0793A38AADF8123053
:108F140005AB04F10C0292E8030083E80300A37D8F
:108F24008DF820300297039623788DF81030E36A89
:108F34000993294601A8C847DAE710B5547814F014
:108F4400010F03D0D47D14B1FFF7BCFF10BDFFF7B0
:108F540021FEFBE7F8B505460E4614461F46537836
:108F640013F0020F06D13B462246711E681CFFF720
:108F7400E4FFF8BD0123C9B21BF07AF9F3E700005E
:108F8400F0B5C7B086781644C37D2BB14FF4807317
:108F9400B3427ED3002303E04FF4C073F8E70133F8
:108FA400032B19D8C3EBC30425013C4C2C4494F87F
:108FB4004840012CF3D1394C2C44A58A848AA5421B
:108FC400EDD1C3EBC3042501344C2C44E589C48999
:108FD400A542E4D1082455E014460F463246012147
:108FE400FFF798FC0546002855D022463946C06E46
:108FF4001DF0F7FD0023459345A92846FFF76EFBB6
:10900400044608B1042840D1459B7BB9244B1B6816
:1090140013F0040F35D0234B1B68032B31DDB5F857
:109024004A70802F28BF8027002313E02846FFF7CB
:10903400ABFBEBE7EA6ED25C1B490C6810095900E4
:10904400265C04A800F8136002F00F020131A25C50
:1090540042540133BB42EDD304AA002302F8173073
:1090640003F1804303F58833D3F8043502920F4AA1
:1090740001920F4A009240F271520E49042004F00A
:1090840095FD0024204647B0F0BD2846FFF7DEFDDD
:10909400F8E70924F6E70424F4E700BF6436002067
:1090A4007C2E0020782E0020802E00206075040085
:1090B400D87204009E75040070B504460D46164629
:1090C400FFF7DEFB034638B923783BB13246294625
:1090D4002046FFF755FF0346184670BD3246294621
:1090E4002046FFF720FB0346F6E7000038B50446A8
:1090F4000D46CB695B780371CB691B7883F0010360
:10910400C370CB6943628B8A0B2B07D8CB7A002BB5
:109114003DD10B7B012B02D0002300E001232370FF
:10912400002B39D0287B022833D0FFF761F8A070D8
:10913400AB8A03440B331B4880FB03235B10013BC6
:109144006372002323720023E37504F10C0395E892
:10915400030083E80300AB6923622B89A382AB7A03
:10916400A3752B6AA362DF23E36228460FF0CCFACF
:1091740020B12B78012B12D0FF23E36220461BF091
:10918400FFF818B1E36A43F02003E36238BD01231A
:10919400C5E7054B987DC8E70423A370D3E72023D4
:1091A400EBE700BFABAAAA2A4C36002010B54FF457
:1091B400E072002113481DF03DFD05F08BFF0024F3
:1091C400114B1C608022214610481DF033FD104BCA
:1091D400104A1A60104A5A604CF250329A600F4991
:1091E400D9601A6104221A759C7508225A750C48B4
:1091F40003F0CEFA0B4B18600B4B1C600B4806F0C7
:109204006DF810BD6436002048360020C8350020B3
:109214004C36002080969800F049020020A10700F7
:1092240091930200C0350020AC3500202583020054
:1092340008B505F095FE08BD98B110B58CB004468C
:10924400036983B1C36983B1836983B10146684605
:10925400FFF74CFFA28A21696846FFF72DFF0CB087
:1092640010BD0E2070470E20F9E70E20F7E70E2000
:10927400F5E790B110B58CB0044642687AB18269C2
:109284007AB10A4601466846FEF7B7FFA2686168EC
:109294006846FFF711FF0CB010BD0E2070470E207A
:1092A400F9E70E20F7E70000037B012B01D0002033
:1092B400704710B58CB000230193CDF80730C288F5
:1092C400C2F3861492008DF801200A0E8DF8022054
:1092D4000A0C8DF803200A0A8DF804208DF8051075
:1092E4004278022A14BF0022012244EAC2148DF8F3
:1092F40000400622059201228DF81C20828AADF8D6
:109304001E2008938DF80C30CDF810D0026A099213
:109314008DF81830C389ADF81A30C36A0B93837D76
:1093240043B98DF828306FF0010103A8FFF7A1FFBE
:109334000CB010BD024B5B7D8DF82830F3E700BF05
:109344004C36002090F84830022B00D0704790F83B
:109354006830022BFAD110B50446C16CFFF7A4FFA4
:1093640010B9002384F8683010BD000010B5002443
:1093740007E0C4EBC402130103481844FFF7E2FFFB
:109384000134032CF5D910BD6436002008B5FFF76D
:109394001BFAFFF7EBFF012008BD10B50C4691F84E
:1093A4004830022B06D1022384F868302046FFF7A8
:1093B400C9FF10BD7846FEF799F8F4E72DE9F043AC
:1093C4008FB00646FEF7D8FF002840F08E80304666
:1093D400FEF7FEFF074600283CD13046FEF7EAFEC2
:1093E400044658B13046FEF7B3FF8046894620460E
:1093F400FEF7AEFF494508BF404553D3002C75D155
:10940400757A6B1CF27D002A52D0082505FB03F502
:10941400002A4FD04FF48073AB424ED3F188B06929
:10942400FEF72EFEF2690146B08A05F0FDFD002824
:109434005CD12A4602213046FFF76CFA0446002824
:1094440054D100213046FFF72FFF02210020FEF700
:1094540053FF4BE002AC35460FCD0FC40FCD0FC404
:1094640095E80F0084E80F00BB788DF809307BB1D4
:109474009DF8083073B19DF811104B1C01219940DF
:10948400013902A8FFF710FFBB7813F0010F05D1D3
:1094940000242BE07846FEF729F8ECE73046FFF786
:1094A40025FAF5E705212046FFF706FC0024A7E787
:1094B4000C25ABE74FF4C073AEE70E4B1B6813F0FB
:1094C400040F03D00C4B1B68002B01DC00240DE0BF
:1094D4000A4BD3F804350195094A009240F29232BE
:1094E4000849012004F062FBF0E7002420460FB095
:1094F400BDE8F0837C2E0020782E0020001001406F
:10950400D87404009E7504002DE9F04782B0074624
:109514000E46154698461046FFF750FF00284ED0D9
:1095240004464F4B1B6813F0040F03D04D4B1B68CC
:10953400032B47DC2046FFF76FF9237B012B4FD029
:10954400E26C297A01238B401A4238D11343E36435
:10955400A6F1040A2B7AEA7D002A49D04FF0080CC0
:109564000CFB03FC617A8B4245D0002A48D00823C7
:10957400534547D1A269AB699A420BD204F10C0E50
:1095840005F10C09B9E80F00AEE80F0099E80300F3
:109594008EE80300E06E5246391D60441DF021FB45
:1095A4006B7813F0020F32D1E66C2378002B35D0A0
:1095B400637A5A1C01239340013B9E4232D002B08D
:1095C400BDE8F087284BD3F804352A7A0192274A5C
:1095D40000924FF471722649042004F0E7FAA9E7D7
:1095E40094F86830002BABD12046FFF72BF9A7E79E
:1095F4004FF00C0CB4E70CEB0A03A4F84A30B9E7BB
:109604000C23B5E704212046FFF756FBD7E70123D7
:109614002A46F1B238461AF02BFEC5E77846FDF724
:1096240065FFC5E7E16C2046FFF73EFE6B7813F05B
:10963400020F0ED143462246B4F84A10E06EFFF7FB
:109644007CFC01212046FEF7E9FE2046FFF7FEFAE6
:10965400B5E70122E988A88A1AF0BAFEEAE700BF52
:109664007C2E0020782E002000100140C0750400DC
:109674009E7504002DE9F04190B000284CD080463E
:10968400002A4BD01F4614460E4604AB00933B46BB
:10969400FEF7F8FE054618B1284610B0BDE8F08183
:1096A40004A8FFF7EDF805460028F5D12269E16822
:1096B400208905F0B9FC0028EED104A81AF060FE58
:1096C40028B19DF8113043F002038DF811300023C6
:1096D4000293039302A960880EF09CFE38B19DF8B2
:1096E400113043F001038DF81130039B08939DF86A
:1096F4001130002BD0D09DF8103033B13B4604AA72
:1097040031464046FFF700FFC6E73B4604AA314610
:109714004046FFF71FFCBFE70E25BDE70E25BBE75C
:1097240018B3F8B50546174B1F68012F1FD80E460E
:109734000024B4420ED205EBC4035B68CBB115F828
:10974400340010F0800F16D1B8B1FEF785FDB0B922
:109754000134EEE70C4B43F8375003EBC7035E606C
:109764000137084A1760002002E00E2070470420E9
:10977400F8BD0E20FCE70B20FAE70F20F8E70F20D6
:10978400F6E700BFAC350020B0350020084B19685F
:1097940061B110B504E0064804F071F9214624B122
:1097A4000C680B79002BF9D0F5E710BD704700BFAA
:1097B4002838002038B5054630B1104B1C68ACB1D0
:1097C4000F4B01221A7004E07846FDF78FFEF4E790
:1097D40024683CB12379002BFAD154F8043C284680
:1097E4009847F5E7064B1B78022B00D038BDFFF7EE
:1097F400CDFF034B00221A70F8E700BF2838002081
:109804002438002010B5044630B100232372211DF2
:10981400034804F009F910BD7846FDF767FEF4E744
:109824002838002010B5044658B10A4B1B78013B78
:10983400DBB2012B09D8074B02221A7001232372D1
:1098440010BD7846FDF752FEEFE7211D024804F0F3
:1098540016F9F5E724380020283800200A888368A0
:109864009B5A07339BB223F0030313449BB2028831
:10987400043A934200D900230B80704710B582B09C
:1098840004468368C91AADF806100DF10601FFF706
:10989400E5FFBDF80630A068184402B010BD00888A
:1098A400043880B2704743888268D018D1520123AB
:1098B400837070478268002393704380838070476D
:1098C400073189B221F0030189B2428883889A4220
:1098D40004D29B1A99421EDC0020704710B59A42AC
:1098E4000FD90488A41AA14217D98B4217D3032C89
:1098F40003D98368134404229A70002343801846D2
:1099040004E0826813449B780BB1042010BDFFF778
:10991400D1FF0020FAE7042070470020F6E7042076
:10992400F4E738B504460D468368828813448B42B5
:1099340002D07846FDF7DAFD0023AB70211D2046E6
:10994400FFF78CFFA288A36813449B78042B00D0F4
:1099540038BD0023A380FBE710B50C46836842881A
:1099640013448B4202D07846FDF7C0FD0023A37058
:1099740010BD70B5064615460C46002944D0002E8D
:1099840046D0B4F1005F08D94FF08053D3F80C31BE
:1099940003F50023B4EB832F0ED3B4F5000F08D9DD
:1099A4004FF08053D3F80C3103F50053B4EB832FFD
:1099B40002D37846FDF79AFD6B1E2344B3F1005F92
:1099C40008D94FF08052D2F80C2102F50022B3EBF3
:1099D400822F0ED3B3F5000F08D94FF08052D2F87E
:1099E4000C2102F50052B3EB822F02D37846FDF727
:1099F4007DFD042D10D9358000237380B380B460BD
:109A0400043D2580A37070BD7846FDF76FFDB6E771
:109A14007846FDF76BFDB4E77846FDF767FDEAE7A6
:109A240038B50446A0B16288A36813449B78012B1F
:109A340012D0EFF3108572B6A388A16819448B780D
:109A4400032B0DD02046FFF735FF05B962B638BDAC
:109A54007846FDF74BFDE6E77846FDF747FDE8E776
:109A64002046FFF70BFFA368C31A638000238370AB
:109A7400EBE72DE9F0410E4615460446D0B1EEB1B0
:109A84006288A36813449B78012B1BD025B320461E
:109A9400FFF705FFA84221D3EFF3108872B62946D9
:109AA4002046FFF70DFF074680B1B8F1000F16D12D
:109AB40062B614E07846FDF719FDE0E77846FDF755
:109AC40015FDDDE77846FDF711FDDFE72946204661
:109AD400FFF7E9FE3060E8E7092700E00927384688
:109AE400BDE8F081F8B50C4616460546E0B1FCB178
:109AF400A378012B20D12388B34221D326B3EFF3DB
:109B0400108772B626800223A370E9182846FFF74F
:109B1400A5FE6B88AA88934203D0AA681344002246
:109B24009A7007B962B6F8BD7846FDF7DFFCDEE748
:109B34007846FDF7DBFCDBE77846FDF7D7FCDAE790
:109B44007846FDF7D3FCD9E77846FDF7CFFCD6E796
:109B540070B50D46044690B1ADB1EFF3108672B600
:109B6400A288A36813449A78042A10D09A78022A07
:109B740015D0032A18D0052006B962B670BD784600
:109B8400FDF7B4FCE8E77846FDF7B0FCE5E7211DF6
:109B94002046FFF763FEA288A3681344E6E7032286
:109BA4009A702B600020E7E77846FDF79FFC0020C1
:109BB400E2E738B5044680B1EFF3108572B6A088A9
:109BC400A16801448B78042B0BD08878022814BF39
:109BD4000020012005B962B638BD7846FDF786FC41
:109BE400EAE72046FFF74AFE0146EEE738B50446A9
:109BF40078B1EFF3108572B6A088A1680144887823
:109C0400C31EDBB2012B08D82046FFF737FE0146FE
:109C1400F5E77846FDF76AFCEBE7022814BF00205D
:109C2400012005B962B638BD70B50C46064678B158
:109C340094B1EFF3108572B6A378012B10D0032BE7
:109C440013D121463046FFF76CFE05B962B670BDEC
:109C54007846FDF74BFCEBE77846FDF747FCE8E771
:109C640021463046FFF778FEEFE77846FDF73EFCE5
:109C7400EBE710B5EFF3108472B68388816819445A
:109C84008B78042B06D08878B0FA80F0400904B9A8
:109C940062B610BDFFF7F2FD0146F4E708B5064BC6
:109CA400986800221A605A609A60DA601A615A61F0
:109CB4009A6104F065FF08BD2C38002000B585B01A
:109CC4000A4BDB6802228DF8002001934FF4805385
:109CD4000293074A6946012001F06EF918B9012080
:109CE40005B05DF804FB0020FAE700BF2C38002023
:109CF4004838002000B585B00A4B1B6802228DF855
:109D0400002001934FF480530293074A69460120CF
:109D140001F052F918B9012005B05DF804FB0020E8
:109D2400FAE700BF4C38002048380020164BDA68A8
:109D3400137951795B1A03F57F2303F6FF7302EB62
:109D440003339A4205D002F580520F4BDA600320A8
:109D5400704700B585B00D4B1B6801208DF80000DD
:109D640001930B4B0393042302930A4A694601F0BF
:109D740023F918B1002005B05DF804FB024B012261
:109D84001A760220F7E700BF2C3800204C38002058
:109D9400503800204838002000B585B00C4BDA68F4
:109DA4000C4B1B68043301208DF8000001920393CF
:109DB40040F6FC730293084A694601F0FDF818B9AD
:109DC4000120034B187600E0002005B05DF804FB89
:109DD4002C3800204C3800204838002000B585B0CD
:109DE4000A4B1B6801208DF800000193084B039374
:109DF40004230293074A694601F0DEF818B90120EA
:109E040005B05DF804FB0020FAE700BF4C380020E1
:109E1400383800204838002010B584B0104BDA6878
:109E24001478104B1B68043301208DF80000019353
:109E3400039202940C4A694601F0BEF868B9094BD2
:109E44001B6804F0FC041C440434054B5C61D968B1
:109E54000A780A441A61012000E0002004B010BD11
:109E64002C3800204C3800204838002008B5002346
:109E7400092B09D8064A52F82320824201D0013323
:109E8400F6E7044A536002E07846FDF72FFB08BD6D
:109E9400FC7504002C38002010B5214BDB6853B14D
:109EA4001F4B1B7E5BB91E4B5B68092B26D978467A
:109EB400FDF71CFB22E07846FDF718FBF0E7784637
:109EC400FDF714FBEFE7164A536801335360092B7F
:109ED40021D97846FDF70AFB1DE0114B00225A6098
:109EE40019E00F4B1B7E1BB10D4B02221A7012E0BE
:109EF400FFF7D4FE0FE00A4B1B7E83B9084B5A6868
:109F0400084B53F82230984704460228E9D0032826
:109F1400E3D00128D7D0012CEDD0032CEBD010BD19
:109F24002C380020FC750400104B1B681B685A1E5B
:109F340012F1030F18D8C3F30B020AB100207047C3
:109F440010B50B4AD36000231376537601241470A2
:109F540093600848FFF78AFF0749204601F01AF882
:109F6400FFF79AFF204610BD002070474C380020B0
:109F74002C380020C19C0200819F020008B50B7898
:109F8400032B06D00B4B1B78012B06D0022B0BD0D6
:109F940008BD084B00221A76F4E7064B1B7E002B03
:109FA400F6D1FFF779FFF3E70B78032BF0D1FFF736
:109FB40075FEEDE72C38002000B585B0174BDB6843
:109FC40018784FF6FF7203F58051184405F03CF9F8
:109FD400F0B10246114BD9680B780B44984219D062
:109FE4000E4B5B7E93B10E4B01208DF80000019265
:109FF4000393042302930B4A694600F0DDFF58B92A
:10A004000120064B187605B05DF804FB064BEBE720
:10A014000120F8E70120F6E70020F4E72C380020BF
:10A0240028780400483800202478040008B5104B30
:10A03400DB681878002203F58051184405F004F910
:10A0440008B1012008BD0A4BDA68137951795B1A0B
:10A0540003F57F2303F6FF7302EB03339A4205D023
:10A0640002F58052024BDA600320EBE70220E9E7B5
:10A074002C380020F0B585B0514BDD686A792B7916
:10A08400591E8A4214D005F580510C780C444D4970
:10A094000968081D0E7906449B1A05EB033563888D
:10A0A400013B9BB247F6FE62934260D927461BE010
:10A0B4000120434B58767EE07846FDF717FA16E008
:10A0C40027F47F6323F00F0303F580531A781344B6
:10A0D4009D4247D99C4247D25A88013A92B21F46C0
:10A0E40047F6FE618A4210D93B88002BE4D03B88B6
:10A0F40007EB830323F47F6222F00F029342DFD045
:10A104007A88B2F5FE4FE3D1DAE71C462FE07846B1
:10A11400FDF7ECF916E027F47F6323F00F0303F552
:10A1240080531A7813449D4220D99C423BD25A88CA
:10A13400013A92B21F4647F6FE618A4210D93B8823
:10A14400002BE4D03B8807EB830323F47F6222F0E7
:10A154000F029342DFD07A88B2F5FE4FE3D1DAE7FB
:10A164001C4604E0002402E0002400E00024E4B1E2
:10A17400144B1968628801F58051304605F064F883
:10A18400064690B101200E4B18768DF8000001941C
:10A194000D4B0393042302930C4A694600F00CFF11
:10A1A40058B92746CBE70024E1E7B4FA84F46409FC
:10A1B400034B5C76012005B0F0BD0020FBE700BF37
:10A1C4002C3800204C380020207804004838002027
:10A1D4002DE9F04186B0644B1B6923B1624B5B6986
:10A1E4002BB1002748E07846FDF780F9F6E778467A
:10A1F400FDF77CF9F5E77846FDF778F917E028F4E0
:10A204007F6323F00F0303F580531A7813449E42AF
:10A214001FD99C4221D25A88013A92B2984647F6F5
:10A22400FE618A4213D9B8F80030002BE3D0B8F8A5
:10A23400003008EB830323F47F6222F00F02934281
:10A24400DDD0B8F80220B2F5FE4FE0D1D7E71C46C6
:10A2540000E000241CB1009438E00024FAE7002355
:10A264000093019B002B5AD10127002C76D06288E1
:10A2740047F6FF739A4271D0002F73D13A4B5A6953
:10A2840022F47F6525F00F05AD1A05F580551C698C
:10A29400DE68337972799B1A06EB03360023019347
:10A2A4006388013B9BB247F6FE629342D3D9A04632
:10A2B400B9E77846FDF71AF923E024F47F6424F023
:10A2C4000F0404F58054237823441C46A642C8D9BD
:10A2D4002388019A02EB83029542C2D9009B634012
:10A2E40023F47F6323F00F03002BBAD16388013B6F
:10A2F4009BB247F6FE618B42B3D801922388002BB0
:10A30400D7D0238804EB830323F47F6222F00F0267
:10A314009342D2D06288B2F5FE4FD6D1CDE7124A2D
:10A32400526901208DF808000392009A0592049363
:10A334000E4A02A900F040FE70B90B49019B23F0BC
:10A3440003024B6913444B6114B1074B1C618CE746
:10A354007846FDF7CBF8F8E7002000E0012006B0CE
:10A36400BDE8F0810120FAE72C38002048380020AD
:10A3740008B54FF010235B69B3F1FF3F09D04FF0EC
:10A3840010235B692BB14FF010235B69A3F5805355
:10A3940005E04FF080525169136903FB01F3A3F503
:10A3A4008053024A1360FFF7BFFD08BD4C380020FC
:10A3B40010B50446B0B1104B1B78BBB10E4BD96835
:10A3C400E3685879A3EB0032914211D31A79121A37
:10A3D40002F57F2202F6FF7203EB0233994209D899
:10A3E400012004E07846FDF781F8E4E7002010BD81
:10A3F4000020FCE70020FAE72C380020024B1878F4
:10A40400003018BF012070472C38002010B50446D6
:10A414000E4B1B7893B92378032B13D10B4B9C6001
:10A42400E268DA6000225A601A76012018705A76BF
:10A43400074900F0AFFDFFF72FFD10BD7846FDF78B
:10A4440055F8E8E77846FDF751F8E7E72C3800209F
:10A45400819F0200014B1868704700BF4C380020F0
:10A4640010B5044680B163681BB123680BB1A368BF
:10A4740013B97846FDF73AF8A3685A1E134207D178
:10A484000023E360236110BD7846FDF72FF8EAE767
:10A494007846FDF72BF8F3E770B5F0B1044683680E
:10A4A400EBB1EFF3108572B60369C068834210D034
:10A4B400084621686268A668013E334003FB021126
:10A4C40008B11CF08EFB2369013323614DB962B6D8
:10A4D40008E005B962B6052504E00E2502E0092569
:10A4E40000E00025284670BDC0F30B033BBB41B31D
:10A4F40001F6FF71090B144B0222C3F80425124B19
:10A50400D3F80034002BFAD0002202E000F580508A
:10A5140001328A4208D20C4BC3F808050A4BD3F81F
:10A524000034002BFAD0F1E7074B0022C3F80425CE
:10A53400054BD3F80034002BFAD0002070471020CC
:10A5440070470920704700BF00E0014010F0030F7E
:10A554002FD111F0030F2FD182B312F0030F2FD19B
:10A5640010B49208174B0124C3F80445154BD3F8D3
:10A574000034002BFAD002E0043004312246541E89
:10A5840052B10B68B3F1FF3FF6D003600D4BD3F823
:10A594000034002BFAD0EFE70A4B0021C3F804156E
:10A5A400084BD3F80034002BFAD010465DF8044B66
:10A5B40070471022104670471022FBE70922F9E782
:10A5C4000922F7E700E001404388012B05D0022B64
:10A5D40001D1043008600120704704304860FAE774
:10A5E40008B508220221084804F03BF938B1074AAB
:10A5F40091684160127B027204F06CF908BD044852
:10A6040004F096FAFAE700BF5C380020A83800206E
:10A614003C2E00200E4B1B78CBB910B50D4B5C685B
:10A6240004F50054B4F1807F00D910BD0422012147
:10A63400094804F016F930B14460054A012111704B
:10A6440004F048F9F1E7054804F072FAEDE77047C1
:10A65400BC380020A83800205C3800202C2E0020B4
:10A6640010B5044608B1A04710BD7846FCF73EFF7C
:10A67400F9E7000008B501210C4804F053F920B9AA
:10A6840002210A4804F04EF928B1094804F050FAAE
:10A69400FFF7C0FF08BD074A0023136053609360AF
:10A6A400D3601361044A1370F2E700BF5C380020E2
:10A6B4005C2E0020A83800208038002000B58DB022
:10A6C4000B4B1B7B012B0ED0094A926804928DF828
:10A6D4000830039002238DF8043001A8FFF76AF8CC
:10A6E4000DB05DF804FB024A9268013A0492EEE769
:10A6F400A838002010B58CB00C4682B94B88012BC9
:10A7040020D1134B1B7833B16268124B5A60104B43
:10A7140000221A7016E07846FCF7E8FEF4E7032AF4
:10A7240012D12C22002101A81CF084FA11238DF8E7
:10A7340004300394084BDA6805921B69069301A858
:10A74400FFF738F80CB010BD7846FCF7CFFEE8E709
:10A75400BC380020A83800205C38002000B583B045
:10A7640001F09EFF0021009101916B46134A1448A9
:10A7740003F06CFF009B63B1019A52B11868114950
:10A7840088601879087393420BD950B900220A6083
:10A794000AE00C4B00221A609A601A73FFF720FF3C
:10A7A40002E01268074B1A60064B1A685A60FFF7FA
:10A7B40031FF01F0B9FF03B05DF804FBCDA5020041
:10A7C4005C380020A838002008B504F005FAA0F58C
:10A7D400805008BD00B587B0002300930193029315
:10A7E400039304930593FFF7EFFF00900123019374
:10A7F400064B03936946064804F04BF910B907B0B9
:10A804005DF804FB034804F093F9F8E7F9A60200A5
:10A814005C3800204C2E002010B50B4B00241C602B
:10A824005C609C60DC601C6101F0C0F9074B5860FF
:10A83400074A9A60074ADA601C615C61064B1C7027
:10A84400FFF7C8FF10BD00BFA838002084380020DF
:10A854008DA9020000879303BD38002008B5084B7A
:10A864001B7803B108BD0748074B036000F05CFE8A
:10A87400064801F033F9024B01221A70F2E700BFD7
:10A88400583800209C380020B5AA020084380020E3
:10A8940010B501F005FF164B1B7B0BBB144B9B7BC8
:10A8A4001BBB134B1A8A41F282639A4204D8114BA0
:10A8B4001B782BB1012300E001231BB9082410E00D
:10A8C4000023FAE70A4B01221A7300241C829A68B7
:10A8D40001329A60FFF784FE2046FFF7EFFE00E0A6
:10A8E400082401F021FF204610BD0824F9E700BF29
:10A8F400A8380020BD38002010B501F0D1FE204B4F
:10A904005B7B9BB11E4B9B7BF3B91D4B1A8A41F2B7
:10A9140082639A4204D81B4B1B782BB1012300E0BD
:10A9240001239BB1012302E00023FAE700231C4624
:10A934000BB3134B00225A731B7B4BB1012B0ED06C
:10A944007846FCF7D3FD16E00023F0E70023EEE79A
:10A95400FFF79EFF78B17846FCF7C8FD0BE0084B83
:10A9640000201860586018731882FFF7A7FEFFF7DD
:10A9740037FEFFF74FFE01F0D7FE204610BD00BFA3
:10A98400A8380020BD38002008B5214B1B7B7BB1C3
:10A99400012B20D07846FCF7A9FD1D4A138A013308
:10A9A40013821B4B5B8A13B1013B194A538208BDC6
:10A9B400174B1A8A41F282639A4204D8154B1B78CA
:10A9C4003BB1012300E00123002BE6D0FFF794FF05
:10A9D400E7E70023F8E70E4B1B8A41F282629342B9
:10A9E40004D80C4A127872B1012200E00122002A34
:10A9F400D3D042F2B012934207D9054B01225A73C5
:10AA0400FFF77AFFCDE70022F1E7FFF775FFC4E710
:10AA1400A8380020BD38002010B5244B1B7B002B28
:10AA240035D10446214B5B8A2BBB1AB91F4B9B685B
:10AA34008B4205D3FAB11D4B9B6801338B421AD26A
:10AA44001A4B9B682A338B4223D3184B9B7B03BB43
:10AA5400164B996000221A605A601A8242F6065117
:10AA640059825A731A73FFF7BBFDFFF7D3FD2046D3
:10AA7400FFF724FE0DE062B10C4B9B6801338B425F
:10AA840007D10A4B01225A73FFF736FF01E0012B6D
:10AA940000D010BD002AFCD1044B9B688B42F8D136
:10AAA400024B01225A73FFF727FFF2E7A838002070
:10AAB4000378042B00D0704743681B78002BFAD02E
:10AAC40010B58468027E437E012A14BF002201224D
:10AAD400416904F11000FFF79FFF10BD10B5184B3A
:10AAE4001A685B689A4226D20446154B1B7B012BDD
:10AAF40014D0144B9A4213D2114B1A685B68403B32
:10AB04009A4215D2EFF3108172B60D4A1368581C9D
:10AB14001060236001B962B6002010BD0A4BE9E75A
:10AB2400074B01225A73FFF7E7FE0028EAD1E3E757
:10AB3400FFF770FDE6E7FFF76DFD0F20EDE700BFBF
:10AB4400A8380020FFFF7F0000E0FF0008B538B1FF
:10AB54000D4B01229A730D4A13680133136008BD2B
:10AB64000A4B1B685BB1094A1368013B1360002B55
:10AB7400F5D1054B00229A73FFF7BEFEEFE7784646
:10AB8400FCF7B4FCEFE700BFA838002054380020DD
:10AB940000B58DB0ADF808008DF8102003910323A3
:10ABA4008DF8043001A8FEF705FE0DB05DF804FB36
:10ABB400014B9868704700BFA8380020054B1B7BE9
:10ABC400012B02D0034B98687047024B98680138F8
:10ABD400704700BFA8380020044B9B68584010F011
:10ABE400010F00D0013B1846704700BFA838002071
:10ABF400014B187B704700BFA838002038B50B4BB9
:10AC04001B780BB1082038BD084B01221A70084D7F
:10AC1400A8602973FFF7E4FC0020FFF74FFD002430
:10AC24002C606C60FFF7F6FC2046ECE780380020CF
:10AC3400A83800202DE9F041002722E02449BC2354
:10AC440003FB04F3CA5A0132CA520221404602F0FD
:10AC54002EFD01360221404602F0F9FC70B11C4A77
:10AC6400BC2303FB04239D68002DE7D0BC2303FB16
:10AC740004F3D25A01463846A847DFE796B90137AC
:10AC8400FFB2022F20D83C46BC2303FB07F3083352
:10AC94000F4D1D4405F104080221404602F0D7FC83
:10ACA4000026DBE70021404602F069FD0828E6D1D2
:10ACB400074BBC2202FB0434A368002BDFD0002224
:10ACC400044938469847DAE70120BDE8F08100BF1F
:10ACD400C83800202476040008B5082383731023A1
:10ACE400437300F11C0343610323037300F118034E
:10ACF40003610C3002F015FD08BD000008B50378AF
:10AD0400012B06D0022B07D07846FCF7EFFB00207E
:10AD140003E04FF4A97000E0004808BD645E010040
:10AD240008B50278012A07D0022A13D07846FCF726
:10AD3400DDFB4FF4FA7308E083685B1A98084FF45C
:10AD4400A97303FB00F303F5FA730748984228BF7D
:10AD5400184608BD83685B1A180B044B03FB00F309
:10AD640003F5FA73F1E700BF60850100645E01003A
:10AD740038B5044601210C3002F069FC054678B16F
:10AD8400084BC4F89C300023C4F8A0306168FFF776
:10AD9400C7FFC4F8A800C4F8AC40012384F8B83055
:10ADA400284638BDC9AE020010B50446FFF7E0FFDF
:10ADB40020B104F19C000EF01DFA00B910BD7846D4
:10ADC400FCF794FBFAE70000F8B506460C46174674
:10ADD40015680378012B18D11249A1FB0431C90964
:10ADE4008900B468641B8C4200D30C468CB1706833
:10ADF40025F00305F168224629442844FFF7A6FB01
:10AE040058B93B681C443C60F8BD7846FCF76EFBBF
:10AE1400E2E77846FCF76AFBE9E77846FCF766FB6D
:10AE2400EFE700BFEB5DF260F8B507460C46164647
:10AE340015680378022B16D1114BA3FB04231B0CBA
:10AE44001B03BC68641B9C4200D31C467CB178681D
:10AE540025F0030521462844FFF746FB58B933681B
:10AE64001C443460F8BD7846FCF740FBE4E77846C0
:10AE7400FCF73CFBEBE77846FCF738FBEFE700BF59
:10AE8400B77609BB38B505460C4611462378012B25
:10AE940006D0022B0FD07846FCF728FB002304E0F1
:10AEA400021D2046FFF790FFA3686868984214BF0C
:10AEB4000020012038BD021D2046FFF7B5FFA3681E
:10AEC400F3E700002DE9F8438846D1F8A860234B46
:10AED4001B7863B90546A6F5FA7601F10C09012140
:10AEE400484602F0B4FB074640B1002424E00EF0CB
:10AEF400BDF9002388F8B830BDE8F8837846FCF73C
:10AF0400F5FAF2E70EF0B2F90121484602F0CFFB60
:10AF14000023C8F8043088F8B830114B186801F0E1
:10AF240057FC4046FFF740FFE6E72C1A3846FFF788
:10AF3400E5FE2044B0420BD8321B39464046FFF7A9
:10AF4400A1FF0028DED101F083FA441BEED5ECE723
:10AF54000EF08CF94046FFF727FFCDE7C4380020F8
:10AF6400C038002010B5084801F012FC074B1860E7
:10AF74000024022C07D8064BBC2000FB0430FFF74A
:10AF8400ABFE0134F5E710BD39AC0200C038002037
:10AF9400C838002038B504460D46022805D8054BAC
:10AFA400BC2202FB0434A56038BD7846FCF79EFA47
:10AFB400F5E700BFC83800202DE9F84306460C46E3
:10AFC4001746022816D8CCB12378012B1AD0022BAD
:10AFD4003ED16368C3F30B03002B31D1A368C3F3E1
:10AFE4000B03002B30D1A368002B34D17846FCF737
:10AFF4007DFA30E07846FCF779FAE4E77846FCF726
:10B0040075FAE1E7636813F0030F0DD1E36813F0F9
:10B01400030F0DD1A36813F0030F0DD1A368D3B9A7
:10B024007846FCF763FA16E07846FCF75FFAEDE73A
:10B034007846FCF75BFAEDE77846FCF757FAEDE75C
:10B044007846FCF753FAC9E77846FCF74FFACAE7A3
:10B054007846FCF74BFAEFF3108872B6BC2505FB73
:10B0640006F505F108032A4D1D4404350021284640
:10B0740002F0EDFA814678B30021284602F017FB6E
:10B0840020686168A268E368C9F80000C9F8041080
:10B09400C9F80820C9F80C302FB11D4ABC2303FBA2
:10B0A40006235B883B801A4ABC2303FB06235A8889
:10B0B40001325A8093F8B83083B9164B1B7813B118
:10B0C4000024A1460CE0124BBC2000FB0630FFF725
:10B0D4004FFE8146002403E0042401E00024A1463D
:10B0E400B8F1000F00D162B6B9F1000F09D0BC204D
:10B0F40000FB06F698360648304404300EF07AF821
:10B1040010B92046BDE8F8837846FCF7EFF9F8E774
:10B11400C8380020C438002038B50446EFF3108541
:10B1240072B610B9164B1B6873B18CB1144A13680C
:10B1340001331360124B1B68003318BF0123114AFB
:10B14400137005B962B638BD7846FCF7CFF9ECE761
:10B154000B4B1C68013C1C6034B1EBE7BC2000FBCA
:10B164000420FFF721FE0134022CE3D8064ABC2355
:10B1740003FB042393F8B830002BF4D1EEE700BFAF
:10B18400FC3A0020C4380020C838002018B1830BD2
:10B19400024AD05C70470020704700BF3476040038
:10B1A40012DF704700B583B01378A3B1022B14D01B
:10B1B400002110F8013C163B152B31D8DFE803F0D1
:10B1C4005930303030303030303030303030303052
:10B1D4003030302E0F3A517DEBE70721E9E70229A1
:10B1E40001D007291CD110F8021C013901F04AFFD3
:10B1F400B0B1264B1B6813F0400F11D0244B1B68D1
:10B20400012B0DDD234BD3F804350190224A009223
:10B2140093222249022002F0C9FC01E0022902D053
:10B2240003B05DF804FB10F8021C0139C9B213F035
:10B23400FFFCF5E70229F3D110F8021C0139C9B269
:10B2440003F080FF0028EBD0104B1B6813F0400F75
:10B25400E6D00F4B1B68012BE2DD0E4BD3F804350F
:10B2640001900F4A0092A6220C49022002F09EFC93
:10B27400D6E701884FF6E4639942D1D110F8021C55
:10B2840003390230FCF780F8CAE700BF7C2E0020A7
:10B29400782E0020001001409C7604008E76040075
:10B2A400C876040070B58AB00EF05AFD48B306465D
:10B2B40000238DF8103005AC05460FCD0FC42B6864
:10B2C4002360727D052A04D9337D03F00F03072B15
:10B2D4001ED1174B1A688AB104AB0393337DC3F3B1
:10B2E40003038DF80430737D062B1BD9063B8DF8C0
:10B2F400053006F11D03029301A8904730460EF075
:10B304000FFD0EF049FD80F00100C0B20AB070BD1F
:10B31400307D04AB063A06F11D0100F00F000DF07C
:10B3240067FAD6E700238DF805300293E4E700BFFF
:10B33400043B00200B4B1B78032B00D0704700B557
:10B344008DB0084B04221A702C22002101A81BF096
:10B3540071FC1C238DF8043001A8FEF72BFA0DB004
:10B364005DF804FB003B002070B582B0354B1B78C0
:10B37400002B5CD100285ED0067A0F2E01D0062E59
:10B384005BD1044605F004FFE06870B1FCF7F2FD00
:10B394000DF10700FFF704FF0546002848D19DF88A
:10B3A4000730012B04D0022542E0FCF7F1FDEFE762
:10B3B400FCF710FE00F07EFB304601F01FF9E07848
:10B3C40000F0A2F900F010FF0DF096FE1E480EF0FA
:10B3D4007FFD0DF0AFFBFFF7C5FD04F0B3FF00F0F8
:10B3E40063FD05F095FE05F05DFC204601F056FD79
:10B3F400FDF7DCFE04F0A8FAFBF7C6FF08B1062847
:10B404001DD112480DF0D6F92A200DF067FA2B2031
:10B414000DF064FA29200DF061FA16200DF05EFAA1
:10B424000B4B00221A60074B01221A7000E008251A
:10B43400284602B070BD0E25FAE70725F8E7054651
:10B44400F6E700BF003B0020A9B202006C2E0020EA
:10B45400043B002010B582B01E4B1B78012B0DD08D
:10B464005AB282B3033BDBB2012B2ED80DF0B2FEED
:10B47400044658BB174B02221A7027E00EF02EFC2C
:10B4840001F01EFDFDF7D4FEFBF77EFF0446B8B1C4
:10B49400062815D0104B1B6813F4804F16D00F4BA1
:10B4A4001B68012B12DD0E4BD3F8043501900D4AB5
:10B4B400009240F2A7120C49022002F077FB05E04B
:10B4C40001F0C8F8D2E7082400E00824204602B0BE
:10B4D40010BD00BF003B00207C2E0020782E0020F1
:10B4E40000100140387604008E76040008B50A4B3B
:10B4F4001B78022B02D00823184608BD064B0322F2
:10B504001A7006480DF01AFE03460028F4D0784657
:10B51400FBF7ECFF0023EFE7003B002039B3020008
:10B5240008B5FDF789FE08BD08B5FEF76BF908BD3F
:10B5340008B5FEF777F908BD08B500F01BFE00203A
:10B5440008BD08B507F02AF908BD0000064A1368CB
:10B5540001331360B3F1704F02D0034B1868704786
:10B56400134601221A60F8E7083B002010B5044690
:10B5740018B100232360636010BD7846FBF7B6FF63
:10B58400F7E738B50C46054668B184B1002363601B
:10B59400EFF3108372B62A686AB16A6854606C600B
:10B5A40003B962B638BD7846FBF7A0FFEDE77846ED
:10B5B400FBF79CFFEAE72C60F1E710B5044658B1AD
:10B5C400EFF3108372B6206808B1426822602268E3
:10B5D40032B103B962B610BD7846FBF787FFEFE7D7
:10B5E4006260F6E710B5044608B1206810BD7846DD
:10B5F400FBF77CFFF9E738B50C46054688B1A4B1E2
:10B604002046FFF7EFFF58B12846FFF7EBFF80B164
:10B614006B6822685A6063686B602046FFF7A6FF78
:10B6240038BD7846FBF762FFE9E77846FBF75EFF33
:10B63400E6E794E8030085E803002046FFF796FF59
:10B64400EEE7037A13B100230372704743681B6863
:10B6540004334360704710B584B0044641680368FE
:10B664001A1D91420DD06368186822685168884297
:10B674001CD063681A6852681A600123237204B0EC
:10B6840010BD0193029300238DF80C30029B1B68BC
:10B69400002BE8D0626812689A4203D001A8FFF731
:10B6A400D0FFF3E701A8FFF7D6FFE8E7934202D003
:10B6B400043B5360DDE700235360DAE735DF70476E
:10B6C4003CDF70473DDF704710B504464FF0FF3054
:10B6D400FFF7F4FFFF210020FFF7F4FF21460020CD
:10B6E400FFF7EEFFBFF34F8F0549CA6802F4E0622B
:10B6F400044B1343CB60BFF34F8F00BFFDE700BF84
:10B7040000ED00E00400FA05072814D8DFE800F093
:10B71400080C1504110F0A066420704714207047A2
:10B72400FA2070471E2070474FF4FA707047322099
:10B7340070474B207047FA207047962070470000EE
:10B74400024B5868103840B2704700BF00ED00E06B
:10B75400034600280FDB5B11084A52F823304242AB
:10B7640000F01F0002F01F0258BF504223FA00F0FD
:10B7740000F00100704700F11F03ECE700E100E076
:10B7840046DF7047F8B504460D464B1EDBB2012B6D
:10B7940009D8002222616261A261E2612046FFF7BA
:10B7A400EFFF01200AE07846FBF7A0FEF1E7CB7B30
:10B7B4005B00CB73002F14DB0130C0B2A84217D852
:10B7C400214611F9207F00230E2BF0D8CA5CCE1835
:10B7D4005200D2B2767842EAD612CA5401339BB2EE
:10B7E400F2E794F82F3083F0870384F82F30E3E7EF
:10B7F400F8BD2DE9F04190B084460C4696461F46AC
:10B8040002F10F0636111FFA86F804AD0068DCF861
:10B814000410DCF80820DCF80C300FC50EF00F051E
:10B82400B8F1000F02D07DB1002300E00023984658
:10B8340063B1012104A8FFF7A5FFB8F1000F1AD0E6
:10B84400701E000110230EE00123F0E70221F1E74E
:10B85400013B9BB22218D25C10A9194411F8101CA8
:10B864004A400DF80320002BF2D100250C950D95CC
:10B874000E950F9526E0711EADB22A4604EB011118
:10B8840068461BF0AEF980230DF805306B1C03E00D
:10B8940000220DF8032001330F2BF9DD10230AE0F9
:10B8A400013B9BB21DF8032010A9194411F8101C88
:10B8B4004A400DF80320002BF2D1D6E704A8FFF785
:10B8C4005FFF0135731EAB420FDD28011023002BEF
:10B8D400F4D0013B9BB210AA1A4412F8102C211880
:10B8E400C95C4A4008A9CA54F1E710230AE0013BA5
:10B8F4009BB210AAD11811F8402C11F8101C4A4020
:10B9040008A9CA54002BF2D104A8FFF739FF0CACE4
:10B914000FCC38607960BA60FB6010B0BDE8F0818C
:10B9240010B50446134B1B684BB14068114B1B68A0
:10B934005B68C31A002B02DB0E4B19680DE00D4B3C
:10B944001A6862611C600B4A938801339BB293802E
:10B9540063B10123237010BD19464B691BB15A68AA
:10B96400121A002AF8DB63614C61ECE77846FBF7B6
:10B97400BDFDEEE7103B002038B505461CE07846D7
:10B98400FBF7B4FD6369204A136000236361938865
:10B994009BB2591E89B29180F3B1A36803B3022309
:10B9A4002370A36821692846984700F0FFF80546EC
:10B9B4002378DBB2022B17D0134B1B681BB3124B3B
:10B9C4001B685B685B1B642B1DD50F4B1C682378BD
:10B9D400DBB2012BD6D0D2E77846FBF787FDDCE754
:10B9E4007846FBF783FDDAE7E26812B90023237097
:10B9F400E2E76368134463605B1B642BF9D420465D
:10BA0400FFF78EFFD8E738BD103B002010B5044681
:10BA1400144B1B68834207D0124B1B68D3B15A697D
:10BA2400A2420ED01346F9E743690E4A1360938885
:10BA34009BB2591E89B2918063B97846FBF756FDD3
:10BA440008E062695A6107498B889BB25A1E92B218
:10BA54008A8013B10023237010BD7846FBF746FD9E
:10BA6400F8E700BF103B002008B5064B1B6833B154
:10BA7400044B1B680449586800F046F908BD00F0FF
:10BA8400A1F9FBE7103B0020A9BA020008B500F0B9
:10BA94008DF8FFF771FF00F089F8FFF7E5FF01204B
:10BAA40008BD000008B5024B186800F091FE08BDFF
:10BAB4000C3B002008B5064B00221A605A6005486A
:10BAC40000F066FE044B186000F063F808BD00BF88
