:020000022000DC
:1060000000F0002035620200656202006762020053
:10601000696202006B6202006D6202000000000013
:106020000000000000000000000000006F6202009D
:1060300071620200000000007362020075620200DB
:10604000796202007B6202007D620200DD1C0500B5
:1060500081620200836202002573020087620200EF
:10606000896202008B620200E90004008F62020074
:106070009162020093620200956202009762020040
:1060800099620200C10C0500D3F202009F62020077
:10609000010D0500A362020041580400A76202003E
:1060A000A9620200AB620200AD620200AF620200B0
:1060B000B1620200B36202007762020077620200FE
:1060C000B5620200B7620200B9620200BB62020060
:0C60D000BD620200BF620200C16202005B
:1060DC00354936480A1A02D0072291438D46344975
:1060EC0034480A1A06D00722914381F30988022208
:1060FC0082F3148830483149314A00F043F8314872
:10610C003149324A00F03EF831483249324A00F007
:10611C0039F832483249334A00F034F832483349BE
:10612C00334A00F02FF833483349344A00F02AF848
:10613C0033483449344A00F025F8344834490022B5
:10614C0000F02BF833483449002200F026F833488D
:10615C003349091A082903DB00220260043001606C
:10616C001F482049884205D00268043003B4904788
:10617C0003BCF7E700208646EC4600200021294AA4
:10618C009047FEE7884207D0521A05D003780130B9
:10619C000B700131013AF9D17047884202D002707C
:1061AC000130FAE77047000000F0002000E8002002
:1061BC0000F0002000F00020A8450500C8320020A7
:1061CC0040340020C4620200C4620200C42D0500E9
:1061DC00A8450500C8320020C8320020C82E050092
:1061EC00C82E0500C82E0500C82E0500C82E0500B7
:1061FC00C82E0500C82E0500C82E0500A6450500B2
:10620C00204705004034002040340020403400205A
:10621C00CC6C0020CC6C0020CC6C0020CC6C002012
:10622C00CC7000203975020008484FF007018843F4
:10623C008546074880470748016841F470010160B2
:10624C00BFF34F8FBFF36F8FFFF742BF00F00020FB
:10625C00955B040088ED00E0FEE7FEE7FEE7FEE755
:10626C00FEE7FEE7FEE7FEE7FEE7FEE7FEE7FEE7FA
:10627C00FEE7FEE7FEE7FEE7FEE7FEE7FEE7FEE7EA
:10628C00FEE7FEE7FEE7FEE7FEE7FEE7FEE7FEE7DA
:10629C00FEE7FEE7FEE7FEE7FEE7FEE7FEE7FEE7CA
:1062AC00FEE7FEE7FEE7FEE7FEE7FEE7FEE7FEE7BA
:0862BC00FEE7FEE7FEE700BF6C
:1062C40080B483B000AF0346FB71094997F90730E6
:1062D4005B09FA7902F01F02012000FA02F241F888
:1062E400232000BF0C37BD465DF8047B704700BF18
:1062F40000E100E080B483B000AF03463960FB7175
:1063040097F90730002B0BDA0D49FB7903F00F03E3
:10631400043B3A68D2B25201D2B20B441A7609E075
:10632400084997F907303A68D2B25201D2B20B4405
:1063340083F8002300BF0C37BD465DF8047B70472B
:1063440000ED00E000E100E080B400AFBFF34F8F48
:106354000549054BDB6803F4E062044B1343CB604F
:10636400BFF34F8F00BFFDE700ED00E00400FA0526
:1063740041DF704700BF184680B483B000AFEFF32D
:1063840010833B603B687B6072B67B6818460C37B1
:10639400BD465DF8047B704780B400AF62B600BFB1
:1063A400BD465DF8047B704780B584B000AF78606B
:1063B400FFF7E2FFF860164B9B68002B1BD1144BD0
:1063C40001229A60134BD3F88020134B1340104AD8
:1063D4001360104B104AC3F880200E4BD3F884305E
:1063E4000B4A53600B4B4FF0FF32C3F884207B6899
:1063F40000221A7002E07B6801221A70FB68002BED
:1064040001D1FFF7C9FF002318461037BD4680BDF0
:10641400E86A002000E100E0FC06FFBD80B584B01E
:1064240000AF0346FB710F4B9B68002B15D0FB7923
:10643400002B12D1FFF7A0FFF8600B4A094B1B6831
:106444001360094A074B5B685360064B00229A604D
:10645400FB68002B01D1FFF79FFF0023184610377C
:10646400BD4680BDE86A002000E100E080B584B04C
:1064740000AF78607B68002B0AD0074B43F0010320
:10648400FB607B689B01BB60FB68B868984700E0D1
:1064940000BF1037BD4680BDF030050080B483B026
:1064A40000AF78604FF0A04318460C37BD465DF846
:1064B400047B704780B584B000AF7860084611460D
:1064C4001A460346FB700B46BB7013467B703B1D9C
:1064D4001846FFF7E3FFF8607A68F978BB785B0049
:1064E40019437B789B0019433B7E1B0219433B7F76
:1064F4001B041943FB6802F5E07243F8221000BF45
:106504001037BD4680BD80B584B002AF78600023EB
:106514000193002300930023012201217868FFF7EF
:10652400C9FF00BF0837BD4680BD80B584B002AF47
:1065340078600B46FB70FA780023019300230093E4
:106544001346002200217868FFF7B4FF00BF083724
:10655400BD4680BD80B584B000AF78603B1D184651
:10656400FFF79CFFF8607B68012202FA03F31946E7
:10657400F86800F027F800BF1037BD4680BD80B52D
:1065840084B000AF78603B1D1846FFF787FFF860C2
:10659400F86800F00AF802467B6822FA03F303F075
:1065A400010318461037BD4680BD80B483B000AFE8
:1065B40078607B68D3F8103518460C37BD465DF813
:1065C400047B704780B483B000AF786039607B6827
:1065D4003A68C3F80C2500BF0C37BD465DF8047B50
:1065E4007047000080B400AF034BD3F8043518465D
:1065F400BD465DF8047B704700B000407ADF704709
:1066040000BF18467CDF704700BF184680B586B0CF
:1066140000AF786007F10F031846FFF7C5FE7861F5
:106624007B69002B04D00C4A762178691FF038FE70
:106634007B689847FB7B1846FFF7F0FE38613B699F
:10664400002B04D0044A782138691FF029FE00BFCA
:106654001837BD4680BD00BFC82E050080B483B086
:1066640000AF786039607A683B68D31A002B03DA8C
:106674003A687B68D31A02E07A683B68D31A1846F2
:106684000C37BD465DF8047B704780B582B000AF1F
:1066940078607B68002B0AD04FF47A70FFF7E6FE2F
:1066A4007B68013B7B607B68002BF5D100E000BF79
:1066B4000837BD4680BD80B582B000AF78603960D0
:1066C400786807F0B4F800BF0837BD4680BD000005
:1066D40080B582B000AF012028F05AFE78607B6854
:1066E400002B04D00C4A702178681FF0D9FD642077
:1066F400FFF7CBFF012028F07DFE38603B68002BBC
:1067040004D0054A722138681FF0CAFD00BF18463C
:106714000837BD4680BD00BFF02E050090B58DB092
:1067240002AF3B4B1B6803F48043002B14D0394B5E
:106734001B68032B10DD384B002B01D0374C00E0D5
:10674400374CFFF74FFF0246364B00931346772230
:10675400214604200AF016FC07F12003184617F01E
:1067640003FD2B4B1B6803F48043002B16D0294BED
:106774001B68032B12DD284B002B01D0274C00E0B3
:10678400274CFFF72FFF02463B8C0193264B0093C7
:1067940013467922214604200AF0F4FB3B1D002213
:1067A4001A605A609A60DA601A615A619A61232306
:1067B400BB60FF233B734FF4FA63BB614FF4FA737E
:1067C400FB6102233B714FF4FA73BB6080233B737C
:1067D40028233B6105233B754FF4C873BB614FF419
:1067E400C873FB613B1D1946012028F035FE786211
:1067F4007B6A002B04D00A4A8221786A1FF050FD7C
:106804004FF49670FFF741FF00BF2C37BD4690BD93
:10681400483300204C330020622F0500632F05000D
:10682400F02E05006C2F0500882F050080B588B078
:1068340000AF3B4600221A605A609A60DA601A611F
:106844005A619A6123237B60FF233B724FF4FA63FE
:106854007B614FF4FA73BB6101233B704FF4FA730D
:106864007B60FF233B722823FB6005233B744FF4BA
:10687400C8737B614FF4C873BB613B461946012062
:1068840028F0EAFDF861FB69002B04D0044A922148
:10689400F8691FF005FD00BF2037BD4680BD00BF6D
:1068A400F02E050080B582B000AF012028F0A2FDD3
:1068B40078607B68002B04D0044A982178681FF024
:1068C400EFFC00BF0837BD4680BD00BFF02E0500B9
:1068D40090B589B002AF7860012028F08BFD786113
:1068E4007B69002B04D01F4A9F2178691FF0D8FCD4
:1068F4001D4B1B6803F48043002B18D01B4B1B68F3
:10690400032B14DD1A4B002B01D01A4C00E0154C5C
:10691400FFF768FE02467B680F331B780193164B22
:1069240000931346A022214604200AF02BFB7B6827
:106934000F331B785AB2114B1A70114B002245F6D3
:106944009A1118462AF04AFA38613B69FB60FB68E1
:10695400002B02D0F8681FF041FC00BF1C37BD4675
:1069640090BD00BFF02E0500483300204C330020BA
:10697400622F0500632F0500A02F05009C34002022
:10698400A034002080B483B000AF7860034B1B7840
:1069940018460C37BD465DF8047B7047DD34002093
:1069A40090B587B002AF78600B46FB70214B1B6833
:1069B40003F48043002B16D01F4B1B68032B12DDFE
:1069C4001E4B002B01D01E4C00E01E4CFFF70AFEAC
:1069D4000246FB7801931C4B00931346AF222146D9
:1069E40004200AF0CFFAFB78002B0FD0012028F006
:1069F400CFFCF860FB68002B04D0124AB221F8687F
:106A04001FF04EFC114B01221A700EE0012028F0F9
:106A1400F1FCB860BB68002B04D00A4AB721B868FF
:106A24001FF03EFC094B00221A70FB7818461437FD
:106A3400BD4690BD483300204C330020622F050032
:106A4400632F0500F02E0500B02F0500DD34002073
:106A540090B583B002AF104B1B6803F48043002B46
:106A640014D00E4B1B68032B10DD0D4B002B01D0F3
:106A74000C4C00E00C4CFFF7B5FD02460B4B0093A9
:106A84001346C022214604200AF07CFA0FF068FB6A
:106A940000BF0437BD4690BD483300204C3300206E
:106AA400622F0500632F0500F02E0500C82F050096
:106AB40080B582B000AF78607B681B781C2B01D155
:106AC400FFF7C6FF7B681B780A2B01D1FFF700FE96
:106AD4007B681B78022B01D1FFF7FAFD00BF083752
:106AE400BD4680BD80B582B000AF0C4B1B88BA1D7B
:106AF4001146184614F032F80346002B06D1FB88E1
:106B04004FF6FF72934203D1002302E0002300E01A
:106B1400012318460837BD4680BD00BFCC34002091
:106B240090B587B002AF7860304B1B6803F48043A4
:106B3400002B16D02E4B1B68032B12DD2D4B002B84
:106B440001D02D4C00E02D4CFFF74CFD02467B6834
:106B540001932B4B00931346EA22214604200AF0AA
:106B640011FAFFF7BFFF0346002B1CD00023FB6084
:106B74007B68012B34D8234B1B78002B14BF0123D3
:106B84000023DBB283F00103DBB203F00103DAB2CA
:106B94001C4B1A701B4B1B78052219461A4827F008
:106BA40073FBF8601DE0114B1B6803F48043002B5A
:106BB40017D00F4B1B68032B13DD0E4B002B01D09A
:106BC4000D4C00E00D4CFFF70DFD02460F4B0093FA
:106BD40013464FF48272214604200AF0D3F900E0F0
:106BE40000BF00BF1437BD4690BD00BF483300202E
:106BF4004C330020622F0500632F0500F02E0500A2
:106C0400E42F0500DE340020CC340020F82F0500EA
:106C140080B584B000AF78607B682F2B08DD7B687B
:106C2400342B05DC7B68303BFB60F868FFF778FFAA
:106C340000BF1037BD4680BD90B585B002AF786007
:106C44000B46FB7013463B80274B1B6803F48043C1
:106C5400002B15D0254B1B68002B11DD244B002B7A
:106C640001D0244C00E0244CFFF7BCFC0246234B2B
:106C7400009313464FF48A72214601200AF082F9E8
:106C8400FB78012B07D0022B26D0002B07D11C4BFD
:106C940001221A7023E01A4B00221A701FE0124BD3
:106CA4001B6803F48043002B18D0104B1B68002B87
:106CB40014DD0F4B002B01D00E4C00E00E4CFFF7FF
:106CC40091FC02460F4B0093134640F227122146D3
:106CD40001200AF057F901E000BF00E000BF00BF47
:106CE4000C37BD4690BD00BF483300204C33002014
:106CF400622F0500632F0500F02E05001C300500EF
:106D0400DE3400203830050090B585B002AF03466C
:106D14003960FB800F4B1B6803F48043002B15D0B4
:106D24000D4B1B68002B11DD0C4B002B01D00C4CC0
:106D340000E00C4CFFF756FC02460B4B0093134645
:106D440040F22D12214601200AF01CF900BF0C3735
:106D5400BD4690BD483300204C330020622F05000F
:106D6400632F0500F02E05004C30050090B587B068
:106D740002AF334B1B6803F48043002B15D0314B17
:106D84001B68032B11DD304B002B01D02F4C00E08E
:106D94002F4CFFF727FC02462E4B009313464FF46B
:106DA4009972214604200AF0EDF82B4B2B4A5A60C5
:106DB400294B2B4A9A600021274827F0A7FBF8604B
:106DC400FB68002B05D0224A40F23511F8681FF009
:106DD40067FA214B1B88184614F04CF8B860BB685E
:106DE400002B05D01A4A4FF49B71B8681FF058FA6B
:106DF4001C4B1D4A5A601B4B1C4A9A6001211948BE
:106E040027F012FA78607B68002B05D0104A4FF403
:106E14009D7178681FF044FA124B1B88184614F0D1
:106E240029F838603B68002B05D0094A40F23B1131
:106E340038681FF035FA00BF1437BD4690BD00BF57
:106E4400483300204C330020622F0500632F0500D7
:106E5400F02E050068300500C03400208969020066
:106E6400A5690200CC3400203D6C02000D6D0200C7
:106E740080B590B000AF1D4B1B687B6207F1240105
:106E840007F128030422184600F0ECFBF863FB6BBF
:106E9400002B05D0164A4FF4A271F86B1FF000FACC
:106EA4003B462422002118462BF026FF01233B7089
:106EB4000723FB7007233B7207F12803FB600D4B8C
:106EC4003B610D4B3B623B460C4918460FF04CF8B6
:106ED400B863BB6B002B05D0054A40F24D11B86B6B
:106EE4001FF0DEF900BF4037BD4680BD8830050085
:106EF400F02E0500B56A0200716D0200DC3400203A
:106F040080B586B000AF3B78012262F303033B7087
:106F14003B78012262F307133B703B460622174974
:106F24001846FFF76FFB78617B693B613B69002B77
:106F340002D038691FF052F93B1D0822002118467F
:106F44002BF0DAFEC823BB804FF44873FB80002388
:106F54003B814FF4C8737B813B1D1846FFF74EFB02
:106F640078617B69FB60FB68002B02D0F8681FF036
:106F740035F900BF1837BD4680BD00BF8C30050011
:106F840090B589B002AF294A07214FF4C04009F0F7
:106F9400DDFF274B1B6803F48043002B15D0254BE2
:106FA4001B68032B11DD244B002B01D0234C00E084
:106FB400234CFFF717FB0246224B0093134640F283
:106FC4006B122146042009F0DDFF1EF07BFB786183
:106FD4007B693B613B69002B02D038691FF0FEF8E6
:106FE40000237B603B1D194601201EF0A9FC78613B
:106FF4007B69FB60FB68002B02D0F8681FF0EEF899
:107004003B1D18461EF02AFD78617B69BB60BB6896
:10701400002B02D0B8681FF0E1F8FFF771FFFFF70B
:1070240027FF00BF1C37BD4690BD00BF150F0300EE
:10703400483300204C330020622F0500632F0500E5
:10704400F02E0500943005002DE9F0439DB004AF07
:1070540064218C4800F0B0FA0EF0E0FFB865BB6D17
:10706400002B05D0884A4FF4C271B86D1FF018F98F
:10707400864B1B7883F00103DBB2002B55D007F15C
:107084001C0300221A605A609A60DA601A615A611D
:107094007F4BFB617F4B3B627F4B7B627F4BBB62D1
:1070A4007F4B3B6307F11C03184600F04DFC7865E9
:1070B4007B6D002B05D0744A40F29111786D1FF05E
:1070C400EFF83B4600221A605A609A60DA601A614F
:1070D4005A619A6123237B60FF233B724FF4FA6366
:1070E4007B614FF4FA73BB6101233B704FF4FA7375
:1070F4007B60FF233B722823FB6005233B744FF422
:10710400C8737B614FF4C873BB613B4619460120C9
:1071140028F0A2F938653B6D002B37D05A4A4FF45A
:10712400CE71386D1FF0BCF830E003210B20FFF75F
:10713400FCF90B20FFF723FA0346002B09D111F0C9
:107144002FFB0EF0E3FF4FF4FA70FFF79EFAFFF700
:107154007FFC012028F01CF9F864FB6C002B05D09F
:10716400494A40F2AB11F86C1FF09AF86420FFF71B
:107174008CFA012028F03EF9B864BB6C002B05D0D2
:10718400414A40F2AD11B86C1FF08AF801F090FA50
:107194007864444B1B6803F48043002B6CD0424B4F
:1071A4001B68032B68DD6B461E4610233B643B6C57
:1071B4005B00591C0B46013BFB630A464FF000037E
:1071C4004FEAC30949EA52794FEAC2080A464FF026
:1071D4000003DD0045EA5275D400CB1DDB08DB005B
:1071E400ADEB030D04AB0033BB630023FB6523E06D
:1071F4007A6CFB6D13441B7887F83730FB6D5B00AA
:107204002A4A116897F837201209D2B202F00F0205
:107214000A441178BA6BD154FB6D5B000133234AE5
:10722400116897F8372002F00F020A441178BA6BFC
:10723400D154FB6D0133FB65FA6D3B6C9A42D7D395
:107244003B6C5B00BA6B0021D154194B002B01D06D
:10725400184C00E00C4CFFF7C5F90246BB6B0293D7
:10726400154B0193154B0093134640F2B11221467E
:10727400042009F087FEB54600BF6437BD46BDE86B
:10728400F08300BF156C0200F02E0500DC340020F2
:107294002167020031680200A9680200D568020073
:1072A400F8300500483300204C33002044330020DC
:1072B400622F0500632F0500CC300500DC3005008B
:1072C40080B584B000AFF860B9607A60FFF73CF82D
:1072D4007A68B968F8681EF097FF00BF1037BD469A
:1072E40080BD000080B500AF4FF0A0430A4AC3F848
:1072F4002C270A4B4FF00042C3F80423074B00220B
:10730400C3F87C2107210620FEF7F4FF0620FEF7D0
:10731400D7FF0023184680BD0C0003000060004026
:1073240080B500AF0D4B0022C3F87C210C4B1A68CA
:107334000C4BD3F8043519461046FFF78FF9024673
:1073440043F233339A4207D9064BD3F80435044A3F
:1073540013600020FFF7E4FB00BF80BD0060004025
:107364009834002000B0004080B588B000AF2C4BAA
:107374003E221A702A4B2B4A5A60294B2A4A9A6099
:107384002A4B3B6002233B7104237B71244BBB607B
:1073940010233B733B460021184628F08DF8F86112
:1073A400FB69BB61BB69002B02D0B8691EF016FFF4
:1073B400002028F01FF878617B69002B05D01C4A57
:1073C40040F2012178691EF06BFF012028F012F8C9
:1073D40038613B69002B05D0154A40F20221386917
:1073E4001EF05EFF1220FFF78EF81320FFF78BF8D4
:1073F4001420FFF788F81520FFF785F81220FFF70F
:10740400A9F81320FFF7A6F81420FFF7A3F8152016
:10741400FFF7A0F8002318462037BD4680BD00BF03
:10742400E0340020E830050008310500183105007B
:10743400F02E050080B584B000AF094B7B603B1D86
:1074440018462AF0B7FEF860FB68BB60BB68002BE7
:1074540002D0B8681EF0C2FE00BF1037BD4680BD22
:107464002831050080B586B000AF7860012027F090
:107474008FFF78617B69002B05D0194A40F23521D2
:1074840078691EF00DFF6420FFF7FFF8012027F054
:10749400B1FF38613B69002B05D0114A4FF40E71DE
:1074A40038691EF0FDFE0F4B93F90030DBB2013B4F
:1074B400DBB25AB20B4B1A700A4B93F90030002B13
:1074C4000ADC094B184629F0BDFCF860FB68002B68
:1074D40002D0F8681EF082FE00BF1837BD4680BD9A
:1074E400F02E05009C340020A034002080B584B028
:1074F40000AF29F009FCF860FB68BB60BB68002B97
:1075040002D0B8681EF06AFE084A0121084829F032
:1075140031FCF860FB687B607B68002B02D07868E4
:107524001EF05CFE00BF1037BD4680BD69740200CA
:10753400E430050080B584B000AF0023FB60FB6835
:10754400BB60BB68002B02D0B8681EF047FEFFF793
:10755400CDFFFFF76FFFFFF707FFF860FB687B6065
:107564007B68002B02D078681EF038FEFFF708FD18
:107574000348FFF74BF8FFF7B5FEFEF7F9FEFCE70B
:107584004D70020080B584B000AF7860094B1B6871
:10759400002B0BD01BF0BCF8F860FB68002B04DB5D
:1075A400044B1B68F8689847F4E700BF00BF103726
:1075B400BD4680BDEC3400202DE9F04385B000AF1A
:1075C40078603960224A7B681360224A012122488C
:1075D40029F0D0FBF860FB68002B04D01F4A462139
:1075E400F8681EF05DFE1E4E3B681A464FF000031D
:1075F400550CD40341F26F724FF00003AB4208BF45
:10760400A24211D23B684FF000044FEA53494FEABB
:10761400C3384FF47A724FF00003404649462BF0CA
:10762400EDF903460C4600E00523002219463046D6
:1076340029F0D4FBB860BB68002B04D0074A47216B
:10764400B8681EF02DFE00BF1437BD46BDE8F083B8
:10765400EC340020897502004431050048310500EE
:10766400F034002080B584B000AFF860B9601346F0
:10767400FB71FB79082B01D9092317E0FB791A4622
:10768400B968F8682BF00EFBFB79FA68D018FB791F
:10769400C3F108031A4600212BF02EFBFB680833C4
:1076A4000822044918462BF0FDFA00231846103727
:1076B400BD4680BD6000001080B400AF06231846AC
:1076C400BD465DF8047B704780B584B000AF786038
:1076D40000233B81064BFB6007F108031A467968D7
:1076E40044F20200FFF7ECFD00BF1037BD4680BD39
:1076F4008431050080B58EB000AF03463960FB715C
:10770400404B1B7883F00103DBB2002B72D1FB7971
:10771400012B02D0032B61D071E000237B6107F1C0
:107724001403194601201EF00BF978637B6B3B634D
:107734003B6B002B02D0386B1EF050FD07F1140395
:1077440018461EF08BF978637B6BFB62FB6A002B97
:1077540002D0F86A1EF042FD0123FB6007F10C021F
:1077640007F112031146184617F060FBB862BB6AB2
:10777400002B02D0B86A1EF031FD7B8A184616F041
:1077840067FF03461A4607F10B031946104617F024
:10779400CBF878627B6A002B02D0786A1EF01EFD5B
:1077A40010F07EFEFB7A1946002011F001F805F076
:1077B4006FFF78637B6B3B623B6A002B02D0386AB5
:1077C4001EF00CFD0F4B00221A700F4B1B68002B90
:1077D40012D00D4B1B68984700BF0DE01DF072FFDF
:1077E400F861FB69BB61BB69002B07D0B8691EF067
:1077F400F5FC03E000BF02E000BF00E000BF383743
:10780400BD4680BD103500202C37002080B584B0E3
:1078140000AF0E4B01221A7005F0A2FFF860FB685E
:10782400BB60BB68002B02D0B8681EF0D7FC1DF00B
:107834009DFFF860FB687B607B68002B02D0786852
:107844001EF0CCFC00BF1037BD4680BD10350020B3
:1078540080B500AF044B19690323002203481FF0CD
:1078640087FC0346184680BD2C370020443700208F
:1078740080B586B000AF78600023FB757B681B7809
:10788400013B092B53D801A252F823F02B790200B3
:10789400B978020033790200337902001D790200BD
:1078A40033790200D9780200337902003379020077
:1078B400F7780200214B1B7883F00103DBB2002B25
:1078C40005D0FFF7C5FF1E4B5B68984732E0FFF712
:1078D4009DFF2FE01A4B5B691022194619481FF0CF
:1078E400DEFC38613B69002B23D038691EF076FC3E
:1078F4001FE07B68DA687B689B68194610460EF0C7
:10790400A7FBF860FB68002B02D0F8681EF066FC49
:107914000A4B01221A700DE0094BDB687A68D268C1
:107924001046984706E0064B9B68984702E000BF64
:1079340000E000BF00BF1837BD4680BDD838002026
:107944002C37002044370020B0B58CB002AF7860EB
:107954002F4A07F1080307CA03C31A800233120C23
:107964001A702C4A7B6814461D460FCD0FC495E847
:10797400030084E80300274B5B69002B01D1072334
:1079840041E0254925481FF0E5FB78627B6A002B1E
:1079940001D07B6A37E007F10802214B00931346BC
:1079A4001D4A1E491F481FF044FB38623B6A002BE6
:1079B40001D03B6A27E01C4821F0F0F90346194640
:1079C40018481FF09FFBF861FB69002B01D0FB698D
:1079D40019E0164821F004FDB861BB69002B01D001
:1079E400BB6910E0114821F03DFD034619460D48DE
:1079F4001FF088FB78617B69002B01D07B6902E072
:107A0400FFF726FF034618462837BD46B0BD00BF22
:107A1400883105002C370020B83800207838002041
:107A2400757802004437002014350020DC3600202D
:107A340080B483B000AF0346FB800F4B1B7883F008
:107A44000103DBB2002B01D001230FE0FB88002BE4
:107A540001D100230AE0094B1A88FB8813409BB22A
:107A6400FA889A4201D1012300E0002318460C371A
:107A7400BD465DF8047B7047E0380020E238002002
:107A840080B483B000AF786039607B6807EE903AC9
:107A9400F8EE677A9FED157A27EE877A3B6807EE52
:107AA400903AF8EE677AB4EEE77AF1EE10FA01D57F
:107AB400012315E07B6807EE903AF8EE677A9FEDB4
:107AC4000C7A27EE877A3B6807EE903AF8EE677AED
:107AD400B4EEE77AF1EE10FA01DD012300E00023B1
:107AE40018460C37BD465DF8047B70479A99993F58
:107AF400CDCC4C3F90B591B000AF78603960002395
:107B0400FB637B681B6807EE903AF8EE676AC64B26
:107B1400D3ED007A9FEDC56A86EE277AC6EE877AA2
:107B24009FEDC37AC7EE876A16EE900A2AF0A8FD85
:107B340003460C4644EC103B2AF008FF54EC103B7F
:107B4400184621462AF086FD0346BB637B681B6802
:107B540007EE903AF8EE676AB34BD3ED007A9FEDE7
:107B6400B56A86EE277AC6EE877A9FEDB17AC7EEBC
:107B7400876A16EE900A2AF083FD03460C4644EC0D
:107B8400103B2AF0E3FE54EC103B184621462AF041
:107B940061FD03467B63BB6B0F2B01D90F23BB63D2
:107BA4007B6B1F2B01D91F237B637B6B0F2B01D8AE
:107BB40010237B63BB6BA04A02FB03F307EE903AEE
:107BC400B8EE677A984BD3ED007AC7EE276A16EEC3
:107BD400900A2AF055FD03460C4644EC103B2AF06B
:107BE400B5FE54EC103B184621462AF033FD0346FB
:107BF400BB627B6B914A02FB03F307EE903AB8EE4B
:107C0400677A894BD3ED007AC7EE276A16EE900A9D
:107C14002AF036FD03460C4644EC103B2AF096FE4F
:107C240054EC103B184621462AF014FD03467B62AF
:107C34007B681B681A46BB6AD31A83EAE372A2EB19
:107C4400E3727B681B6819467B6ACB1A002BB8BFAA
:107C54005B429A4214DCBB6BDAB23B681A707B68F5
:107C64001B683B627B68BA6A1A607B681B681946AA
:107C7400386AFFF705FF0246FB6B1344FB6313E00E
:107C84007B6BDAB23B681A707B681B68FB617B68AC
:107C94007A6A1A607B681B681946F869FFF7F0FE78
:107CA4000246FB6B1344FB637B689B6807EE903AC8
:107CB400F8EE676A5C4BD3ED007A9FED5C6A86EE62
:107CC400277AC6EE877A9FED5A7AC7EE876A16EE50
:107CD400900A2AF0D5FC03460C4644EC103B2AF0EB
:107CE40035FE54EC103B184621462AF0B3FC0346FB
:107CF4003B637B689B6807EE903AF8EE676A4A4BF1
:107D0400D3ED007A9FED4B6A86EE277AC6EE877A2A
:107D14009FED477AC7EE876A16EE900A2AF0B0FC08
:107D240003460C4644EC103B2AF010FE54EC103B86
:107D3400184621462AF08EFC0346FB623B6B0F2B50
:107D440001D90F233B63FB6A1F2B01D91F23FB625D
:107D5400FB6A0F2B01D81023FB623B6B364A02FBF4
:107D640003F307EE903AB8EE677A2F4BD3ED007A1F
:107D7400C7EE276A16EE900A2AF082FC03460C46E8
:107D840044EC103B2AF0E2FD54EC103B184621462B
:107D94002AF060FC0346BB61FB6A284A02FB03F33A
:107DA40007EE903AB8EE677A1F4BD3ED007AC7EE30
:107DB400276A16EE900A2AF063FC03460C4644EC4C
:107DC400103B2AF0C3FD54EC103B184621462AF020
:107DD40041FC03467B617B689B681A46BB69D31AE6
:107DE40083EAE372A2EBE3727B689B6819467B69C2
:107DF400CB1A002BB8BF5B429A4221DC3B6BDAB250
:107E04003B689A707B689B683B617B68BA699A603F
:107E14007B689B6819463869FFF732FE0246FB6BA4
:107E24001344FB6320E000BFDC38002000007F46E1
:107E340000007A440000FF470006F9000030C8073C
:107E4400FB6ADAB23B689A707B689B68FB607B686C
:107E54007A699A607B689B681946F868FFF710FE98
:107E64000246FB6B1344FB63FB6B18464437BD4669
:107E740090BD00BF90B591B000AF78603960002329
:107E8400FB633B685B78002B06D13B68DB78002BF7
:107E940002D10023BB6331E07B681B6907EE903A93
:107EA400F8EE676A3B685B781A463B68DB789B00B0
:107EB400D31A07EE903AB8EEE77A784B93ED006A5E
:107EC400DFED775AC5EE867A27EE277AC6EE877AF3
:107ED4009FED747AC7EE876A16EE900A2AF0D0FBFB
:107EE40003460C4644EC103B2AF030FD54EC103BA6
:107EF400184621462AF0AEFB0346BB633B685B7819
:107F0400002B06D13B68DB78002B02D100237B6376
:107F140032E07B681B6907EE903AF8EE676A3B68CB
:107F24005B781A463B68DB789B00D31A1B0107EE8B
:107F3400903AB8EEE77A594B93ED006ADFED585A60
:107F4400C5EE867A27EE277AC6EE877A9FED557AB4
:107F5400C7EE876A16EE900A2AF092FB03460C4697
:107F640044EC103B2AF0F2FC54EC103B184621463A
:107F74002AF070FB03467B63BB6B0F2B01D90F23E5
:107F8400BB637B6B1F2B01D91F237B637B6B0F2B85
:107F940001D810237B633B685B781A463B68DB7827
:107FA4009B00D31A1A46BB6B03FB02F213461B0257
:107FB4009B1A07EE903AF8EE676A384B93ED007A15
:107FC400C6EE877A9FED377A67EE877A17EE900AC6
:107FD4002AF056FB03460C4644EC103B2AF0B6FC50
:107FE40054EC103B184621462AF034FB0346BB628E
:107FF4003B685B781A463B68DB789B00D31A1A46C9
:108004007B6B03FB02F213461B029B1A1B0107EE58
:10801400903AF8EE676A214B93ED007AC6EE877AC0
:108024009FED207A67EE877A17EE900A2AF028FBF4
:1080340003460C4644EC103B2AF088FC54EC103BFD
:10804400184621462AF006FB03467B627B681B69BF
:108054001A46BB6AD31A83EAE372A2EBE3727B6823
:108064001B6919467B6ACB1A002BB8BF5B429A4244
:108074001ADCBB6BDAB23B681A717B681B693B6222
:108084007B68BA6A1A617B681B691946386AFFF70C
:10809400F7FC0246FB6B1344FB6319E0DC38002059
:1080A40000007F4300007A447B6BDAB23B681A71AC
:1080B4007B681B69FB617B687A6A1A617B681B6950
:1080C4001946F869FFF7DCFC0246FB6B1344FB63BB
:1080D4007B685B6907EE903AF8EE676A3B685B7809
:1080E4001A463B68DB789B00D31A07EE903AB8EE49
:1080F400E77A854B93ED006ADFED845AC5EE867A04
:1081040027EE277AC6EE877A9FED817AC7EE876AD3
:1081140016EE900A2AF0B4FA03460C4644EC103BDF
:108124002AF014FC54EC103B184621462AF092FA2B
:1081340003463B637B685B6907EE903AF8EE676A37
:108144003B685B781A463B68DB789B00D31A1B01BB
:1081540007EE903AB8EEE77A6B4B93ED006ADFEDE9
:108164006B5AC5EE867A27EE277AC6EE877A9FED9C
:10817400687AC7EE876A16EE900A2AF081FA0346F7
:108184000C4644EC103B2AF0E1FB54EC103B18463F
:1081940021462AF05FFA0346FB623B685B78002BBA
:1081A40007D13B68DB78002B03D100233B6300231A
:1081B400FB623B6B0F2B01D90F233B63FB6A1F2B25
:1081C40001D91F23FB62FB6A0F2B01D81023FB622A
:1081D4003B685B781A463B68DB789B00D31A1A46E7
:1081E4003B6B03FB02F213461B029B1A07EE903A09
:1081F400F8EE676A444B93ED007AC6EE877A9FEDFA
:10820400447A67EE877A17EE900A2AF039FA034621
:108214000C4644EC103B2AF099FB54EC103B1846F6
:1082240021462AF017FA0346BB613B685B781A467D
:108234003B68DB789B00D31A1A46FB6A03FB02F205
:1082440013461B029B1A1B0107EE903AF8EE676A6D
:108254002D4B93ED007AC6EE877A9FED2D7A67EE6B
:10826400877A17EE900A2AF00BFA03460C4644EC80
:10827400103B2AF06BFB54EC103B184621462AF0C5
:10828400E9F903467B617B685B691A46BB69D31ACB
:1082940083EAE372A2EBE3727B685B6919467B694C
:1082A400CB1A002BB8BF5B429A4214DC3B6BDAB2A8
:1082B4003B685A717B685B693B617B68BA695A6148
:1082C4007B685B6919463869FFF7DAFB0246FB6B8A
:1082D4001344FB6313E0FB6ADAB23B685A717B68B0
:1082E4005B69FB607B687A695A617B685B691946E4
:1082F400F868FFF7C5FB0246FB6B1344FB63FB6B9B
:1083040018464437BD4690BDDC38002000007F434A
:1083140000007A4480B586B000AF0346B9607A6045
:10832400FB8100237B61FB89002B01D1022367E0E1
:10833400354B1B7883F00103DBB2002B01D00423FF
:108344005EE0BB68002B01D10E2359E07B6800225C
:108354001A707B68FF225A707B6800229A707B68CF
:108364000022DA707B6800221A717B6800225A713D
:10837400BB681A797B685A70BB681B7B0233002B7D
:1083840000DA03339B10DAB27B68DA707B68DB783F
:10839400072B02D97B680722DA707B68DB789B00A5
:1083A400DAB2BB681A737968B868FFF7A3FB0246B0
:1083B4007B6913447B61FB891846FFF739FB03464D
:1083C400002B08D07968B868FFF754FD02467B6932
:1083D40013447B610EE0BB681B69002BBB68002261
:1083E4001A61BB6800225A617B6800221A717B689B
:1083F40000225A717B69002B01D0012300E0002385
:1084040018461837BD4680BDE038002080B483B0DC
:1084140000AF03463960FB803B6807EE903AF8EE04
:10842400677A074BC3ED007A064AFB881380064B34
:1084340001221A7000BF0C37BD465DF8047B7047FB
:10844400DC380020E2380020E038002072DF70477A
:1084540000BF184673DF704700BF184674DF7047CB
:1084640000BF184680B5A8B000AF03463960FB8052
:1084740013467B71102200214C482AF03DFC4C4BE2
:108484001B781A4613465B019B1A4A4A1344474A0F
:108494001360474B1B781A4613465B019B1A464AE6
:1084A4001344424A9360414B1F229A803F4B1F2240
:1084B4009A813F4B1B780133DBB203F00103DAB23C
:1084C4003B4B1A7007F154033C22002118462AF052
:1084D40013FC062387F85730FB88A7F85030012394
:1084E40087F852300123A7F8643007F15003BB66C4
:1084F400FB88A7F844307B799BB2A7F848303B68E7
:10850400FB6407F14403FB67012387F8803007F11C
:1085140008033C22002118462AF0EEFB02233B729A
:10852400224B196807F15403244A18461CF059FDDC
:10853400C7F89800D7F89830002B03D0D7F89800E4
:108544001DF04CFE194B996807F108031C4A1846A4
:108554001CF047FDC7F89400D7F89430002B03D0E3
:10856400D7F894001DF03AFE164A10491648FFF752
:108574006DFFC7F89C00D7F89C30082B06D1002269
:108584000A491148FFF762FFC7F89C00D7F89C30EE
:10859400C7F89030D7F89030002B03D0D7F890006C
:1085A4001DF01CFE00BFA037BD4680BDE43800208E
:1085B40072390020F438002034390020E8380020D3
:1085C400F0380020DC320020D832002080B483B0A0
:1085D40000AF786039607B689BB21A4692001344FE
:1085E4005B009AB2054B9A81044A3B68936000BFD2
:1085F4000C37BD465DF8047B704700BFDC320020B9
:1086040080B582B000AF094B1B7801211846FFF7F3
:1086140021FF78607B68002B02D078681DF0DEFDB6
:1086240006F084FC00BF0837BD4680BDD832002068
:1086340080B582B000AF084B1B781846FFF70EFFD9
:1086440078607B68002B02D078681DF0C7FD00BFFE
:108654000837BD4680BD00BFD832002090B482B038
:1086640000AF7860064A7B681446186859689A68AF
:10867400DB680FC400BF0837BD4690BC704700BF1D
:108684007439002080B500AF0822054905482AF056
:1086940009FB0822044905482AF004FB00BF80BDF9
:1086A4006000001074390020A40000107C39002000
:1086B40080B400AF024B1846BD465DF8047B70479A
:1086C4007439002080B483B000AF00237B6013E0D2
:1086D4000F4A7B68DB00134400225A800C4A7B68F3
:1086E400DB00134400225A60094A7B68002102F827
:1086F40033107B6801337B607B681F2BE8D9054B03
:1087040000221A6000BF0C37BD465DF8047B704739
:1087140084390020843A002080B485B000AF034639
:108724003960FB801B4B1B68FB600023BB6026E0A9
:10873400FB685A1EFA60002B01D11F23FB60164A06
:10874400FB6812F8333083F00103DBB2002B01D055
:10875400002318E0104AFB68DB0013445B88FA88A6
:108764009A4209D10C4AFB68DB0013445A683B68FF
:108774009A4201D1012306E0BB680133BB60BB68A8
:108784001F2BD5D9002318461437BD465DF8047B4A
:10879400704700BF843A00208439002080B483B03D
:1087A40000AF03463960FB80124B1B68124ADB00A2
:1087B4001344FA885A800F4B1B680F4ADB0013449A
:1087C4003A685A600B4B1B680B4A012102F83310BC
:1087D400084B1B680133074A1360064B1B68202BA8
:1087E40002D1044B00221A6000BF0C37BD465DF86D
:1087F400047B7047843A00208439002080B400AFA1
:10880400034BD3F804351846BD465DF8047B704726
:1088140000B0004080B483B000AF78607B6804335C
:1088240018460C37BD465DF8047B704780B483B0AE
:1088340000AF78607B68013318460C37BD465DF89D
:10884400047B704780B483B000AF78607B681B788A
:108854009B011BB203F4FE531AB27B685B789B083E
:10886400DBB21BB213431BB29BB218460C37BD4696
:108874005DF8047B704780B483B000AF78600B462A
:108884007B807B681B7823F07F03DAB27B681A70E5
:108894007B681B785AB27B889B099BB25BB203F05E
:1088A4007F035BB213435BB2DAB27B681A707B68F6
:1088B4005B7803F00303DAB27B685A707B685B78F9
:1088C4005AB27B889B005BB213435BB2DAB27B681B
:1088D4005A7000BF0C37BD465DF8047B704780B406
:1088E40083B000AF78607B689B781A067B68DB787E
:1088F4001B041A437B681B791B0213437A68527961
:10890400134318460C37BD465DF8047B704780B4AA
:1089140083B000AF786039603B681B0EDAB27B68C5
:108924009A703B681B0CDAB27B68DA703B681B0AEE
:10893400DAB27B681A713B68DAB27B685A7100BF9D
:108944000C37BD465DF8047B704780B483B000AF3C
:1089540078607B681B7803F04003002BCCBF0123B5
:108964000023DBB218460C37BD465DF8047B704724
:1089740080B483B000AF78600B46FB707B681B78D3
:1089840023F04003DAB27B681A707B681B785AB212
:10899400FB789B015BB203F040035BB213435BB211
:1089A400DAB27B681A7000BF0C37BD465DF8047BF1
:1089B400704780B483B000AF78607B681B7803F0A5
:1089C4003F03DBB218460C37BD465DF8047B7047A5
:1089D40080B483B000AF78600B46FB707B681B7873
:1089E40023F03F03DAB27B681A707B681B785AB2B3
:1089F40097F9033003F03F035BB213435BB2DAB27F
:108A04007B681A7000BF0C37BD465DF8047B704765
:108A140080B483B000AF78607B681B7803F0800378
:108A2400002BCCBF01230023DBB218460C37BD4614
:108A34005DF8047B704780B483B000AF78600B4668
:108A4400FB707B681B7803F07F03DAB27B681A70D3
:108A54007B681B785AB2FB78DB015BB213435BB2D1
:108A6400DAB27B681A7000BF0C37BD465DF8047B30
:108A7400704780B483B000AF78607B681B7803F0E4
:108A84007F03DBB218460C37BD465DF8047B7047A4
:108A940080B483B000AF78600B46FB707B681B78B2
:108AA40023F07F03DAB27B681A707B681B785AB2B2
:108AB40097F9033003F07F035BB213435BB2DAB27E
:108AC4007B681A7000BF0C37BD465DF8047B7047A5
:108AD40080B483B000AF78607B685B7803F0800378
:108AE400002BCCBF01230023DBB218460C37BD4654
:108AF4005DF8047B704780B483B000AF78600B46A8
:108B0400FB707B685B7803F07F03DAB27B685A7092
:108B14007B685B785AB2FB78DB015BB213435BB2D0
:108B2400DAB27B685A7000BF0C37BD465DF8047B2F
:108B3400704780B483B000AF78607B685B789B013A
:108B44001BB203F4FE531AB27B689B789B08DBB21A
:108B54001BB213431BB29BB218460C37BD465DF8DB
:108B6400047B704780B483B000AF78600B467B8091
:108B74007B685B7823F07F03DAB27B685A707B688A
:108B84005B785AB27B889B099BB25BB203F07F038C
:108B94005BB213435BB2DAB27B685A707B689B7832
:108BA40003F00303DAB27B689A707B689B785AB24D
:108BB4007B889B005BB213435BB2DAB27B689A702A
:108BC40000BF0C37BD465DF8047B704780B483B0AA
:108BD40000AF78607B689B78DB005BB203F018031E
:108BE4005AB27B68DB785B09DBB25BB213435BB2DE
:108BF400DBB218460C37BD465DF8047B704780B481
:108C040083B000AF78600B46FB707B689B7823F0E1
:108C14000303DAB27B689A707B689B785AB2FB785C
:108C2400DB08DBB25BB203F003035BB213435BB25A
:108C3400DAB27B689A707B68DB7803F01F03DAB2E0
:108C44007B68DA707B68DB785AB2FB785B015BB2D5
:108C540013435BB2DAB27B68DA7000BF0C37BD46EF
:108C64005DF8047B704780B483B000AF78607B68A4
:108C7400DB7803F01F03DBB218460C37BD465DF802
:108C8400047B704780B483B000AF78600B46FB7000
:108C94007B68DB7823F01F03DAB27B68DA707B68C9
:108CA400DB785AB297F9033003F01F035BB2134326
:108CB4005BB2DAB27B68DA7000BF0C37BD465DF890
:108CC400047B704780B584B000AF78607B681B7804
:108CD40083F00103DBB2002B04D07B46FB60F86811
:108CE400FEF7F2FC7B68DB790133012202FA03F31D
:108CF400013B18461037BD4680BD80B483B000AF39
:108D040078600B467B807B68C3F30C027B889A42B5
:108D140009D27A887B68C3F30C03D21A7B681344A4
:108D2400A3F5005306E07A887B68C3F30C03D21AD8
:108D34007B68134418460C37BD465DF8047B7047C6
:108D440080B58EB000AF0346FB800B467B711346A3
:108D54003B7107F10C032C220021184629F0CCFFAB
:108D64000E233B73FB883B827B7903F00103DAB269
:108D7400BB7C62F30003BB743B79FB7407F10C0307
:108D8400184601F057FF00BF3837BD4680BD80B597
:108D94008EB000AF78600B46FB7007F10C032C22F9
:108DA4000021184629F0A8FF0F233B737B683B6121
:108DB400FB783B7507F10C03184601F03BFF00BF3D
:108DC4003837BD4680BD000080B483B000AF034691
:108DD400FB71074B5A68064B9B68F97901FB03F357
:108DE400134418460C37BD465DF8047B704700BF3A
:108DF400883A002080B483B000AF0346FB71074B70
:108E0400DA68064B1B69F97901FB03F3134418462E
:108E14000C37BD465DF8047B704700BF883A0020DC
:108E240080B586B000AF78607B681B7883F001035F
:108E3400DBB2002B04D07B463B613869FEF744FC6F
:108E44007B689B8AFB817B68DB69DBB203F00103EF
:108E54007B737B689A697B689B8819461046FFF789
:108E64004CFFB86000237B611FE0144A7B69DB0080
:108E740013445A68BB689A4214D1104A7B69DB00D8
:108E840013445B88FA899A420CD10C4A7B69DB0053
:108E940013445B787A7B9A4204D17B69DB00074AEE
:108EA400134406E07B6901337B617B69072BDCD9C2
:108EB400002318461837BD4680BD00BF5C3C002027
:108EC40080B584B000AF78600B46FB707B681B787C
:108ED40083F00103DBB2002B04D07B46FB60F8680F
:108EE400FEF7F2FB144B1B685A1C13490A6003F08B
:108EF4000703DB00114A1344BB607B689A8ABB6892
:108F04005A807B689A697B689B8819461046FFF7EC
:108F1400F4FE0246BB685A607B68DB69DBB203F08F
:108F24000103DAB2BB685A70BB68FA781A7000BFE2
:108F34001037BD4680BD00BF583C00205C3C00207B
:108F440080B586B000AFF860B9603B601346FB7132
:108F5400FB79022B07D0FB79012B04D07B467B6184
:108F64007869FEF7B1FBFB689B6E002B04D07B464F
:108F74003B613869FEF7A8FB344B1B683868984797
:108F84000246FB689A66FB689B6E002B01D10023A6
:108F940057E0FB682C22B968184629F083FEFB6869
:108FA40000229A643B689AB2FB68A3F84620BB6827
:108FB4009A69BB689B8819461046FFF79EFE0246D5
:108FC400FB689A61FB79012B1FD1214B1A7DFB6849
:108FD40083F84D20FB68002283F84E20FB680022B2
:108FE40083F84F20FB68002283F84C20BB689A6A00
:108FF400FB681A65FB686FF001029A62FB68154A08
:109004005A63FB68FA68DA6313E0FB686FF00102E5
:109014009A62FB68002283F86420FB680E4A5A6552
:10902400FB68FA68DA65FB680C4A5A63FB68FA68FD
:10903400DA63012003F09AFCFB68FA7983F8442090
:10904400012318461837BD4680BD00BF503C0020A0
:10905400883A0020CBA602007DA6020037A70200B2
:1090640080B582B000AF7860124B1B687A68926E4C
:10907400104698477B682C33184605F075F87B68D2
:1090840093F84430022B04D17B684C33184605F026
:109094006BF86C220021786829F02EFE7B68002290
:1090A40083F84420002003F061FC00BF0837BD466C
:1090B40080BD00BF543C002090B589B004AF7860F7
:1090C4000B46FB707B68002B04D17B46FB60F86881
:1090D400FEF7FAFA7B6800211846FFF7F1FE7B6879
:1090E4001B6DFA7811461846FFF751FE7868FFF7B2
:1090F400B7FF134B1B6803F00403002B1CD0114B68
:109104001B68032B18DD104B002B01D00F4C00E023
:109114000F4CFFF773FB01467B6893F844301A4603
:10912400FB78029301920B4B00930B464FF4D672DB
:109134002146042007F026FF00BF1437BD4690BD2A
:10914400483300204C330020BA310500BB31050000
:1091540094310500C831050080B582B000AF786055
:109164007B6801211846FFF7ABFE7868FFF778FFAC
:1091740000BF0837BD4680BD80B58EB000AF7860B3
:109184007B6893F84430012B04D07B467B63786B77
:10919400FEF79AFA01233B727B681B6DFB6007F1B3
:1091A4000803184601F046FD7868FFF759FF00BF31
:1091B4003837BD4680BD000090B585B000AF7860FB
:1091C4007B6893F84430022B04D07B46FB60F8683C
:1091D400FEF77AFA0C4B5B7D1846FFF7F5FDB86095
:1091E4007B6803F14C0405F057F90246BB6813444D
:1091F4001946204604F0E1FF7B68012283F86420CD
:1092040000BF1437BD4690BD883A002090B585B0A4
:1092140000AF78607B6893F84430022B04D07B461F
:10922400FB60F868FEF750FA094B1B68BB607B686B
:1092340003F12C0405F030F90246BB6813441946C7
:10924400204604F0BAFF00BF1437BD4690BD00BFEE
:10925400883A002090B585B000AF78607B6893F8B9
:109264004430012B04D07B46FB60F868FEF72CFAEF
:109274007B681B7B012B08D17B689B7D1846FFF71D
:10928400B9FD02467B689A6305E00020FFF7B2FD52
:1092940002467B689A637B6803F12C0405F0FCF8B2
:1092A40002467B689B6B13441946204604F085FFF5
:1092B40000BF1437BD4690BD80B582B000AF786062
:1092C40039607B68DB7D002B06D07B689B78194670
:1092D4003868FFF7DDFB0BE07B689B78194638683C
:1092E400FFF746FB7B68DB7819463868FFF770FBAD
:1092F4007B681B7819463868FFF79DFB7B681B78F1
:10930400002B1CD07B685B78082B0CBF0123002347
:10931400DBB219463868FFF7EEFB7B689B88194679
:109324003868FFF71FFC7B689B7919463868FFF79C
:1093340066FC7B68DB7919463868FFF7A3FC00BF3D
:109344000837BD4680BD80B586B000AFF860B9600F
:109354007A603B60FB681B78002B01D0042300E09B
:1093640001237B617A697B681A44BB689A60FB6855
:1093740003F10C02BB681A60FB689A6ABB685A6006
:10938400B8680BF0F9FD38613B69002B05D1BB6867
:109394001A697B691A443B681A603B691846183796
:1093A400BD4680BD80B58EB000AF786039600023C3
:1093B4007B637B681B7B012B3ED107F12C030622C8
:1093C4000021184629F098FC7B689A8807F12C0341
:1093D40011461846FFF74FFA07F12C03396818466F
:1093E400FFF795FA06237B6101233B777B689B8A11
:1093F400FB8300233B6200233B7307F12C033B6197
:109404007B681B6A7B6200233B767B68DB897B83FA
:109414007B689B7D002B03D1002387F8283003E071
:10942400084B5B7D87F8283007F10C036FF00101CE
:10943400184601F049FB78637B6B18463837BD4604
:1094440080BD00BF883A002080B485B000AF78604A
:109454000B467B800023FB602AE01A4AFB686C21E0
:1094640001FB03F3134444331B78012B1DD1154A2C
:10947400FB686C2101FB03F3134414331A887B68E3
:10948400DB899A4211D10F4AFB686C2101FB03F37B
:10949400134404331B887A889A4206D1FB686C22F1
:1094A40002FB03F3074A134406E0FB680133FB6045
:1094B400FB68032BD1DD002318461437BD465DF845
:1094C400047B7047A03A002080B485B000AF786078
:1094D4000023FB601FE0154AFB686C2101FB03F3CA
:1094E400134444331B78022B12D1104AFB686C21BD
:1094F40001FB03F3134414331A887B689B8A9A4252
:1095040006D1FB686C2202FB03F3084A134406E00D
:10951400FB680133FB60FB68032BDCDD002318468A
:109524001437BD465DF8047B704700BFA03A0020A5
:1095340090B587B002AF78607B68DB7901337A68D5
:10954400D27D002A01D0082200E00C2202FB03F3A2
:10955400BB607B68DB7D002B02D04FF4807201E09E
:109564004FF4C072BB689A421FD2294B1B6803F0A8
:109574000403002B17D0274B1B68002B13DD264B4D
:10958400002B01D0254C00E0254CFFF737F90246AB
:10959400BB680193234B0093134640F26322214698
:1095A400012007F0EFFC00232DE00023FB6024E002
:1095B4001D4AFB686C2101FB03F3134444331B78FD
:1095C400002B17D1FB686C2202FB03F3164A981890
:1095D400BB6802227968FFF7B3FC034683F00103FA
:1095E400DBB2002B0DD1FB686C2202FB03F30E4AA5
:1095F400134408E0FB680133FB60FB68032BD7DDF1
:1096040000E000BF002318461437BD4690BD00BFDC
:10961400483300204C330020BA310500BB3105002B
:1096240094310500EC310500A03A002090B58BB0D0
:1096340002AFF860B9607A603B607868FFF744FF76
:10964400F861FB69002B12D07B689A88FB699B88C0
:109654009A42C0F0DE807B689A88FB699B889A42B4
:1096640005D90521F869FFF727FD0023FB61786818
:10967400FFF7D6FBB861BB69002B0DD0BB691B7823
:10968400002B00F0C8807868FFF71CFB03461946DE
:109694007868FFF787FEBEE0FB69002B0FD178687E
:1096A400FFF746FFF861FB69002B08D100217868B9
:1096B400FFF778FE02210020FFF769FBAEE0594B6B
:1096C4001B6803F00403002B18D0574B1B68032BB3
:1096D40014DD564B002B01D0554C00E0554CFFF7E0
:1096E4008DF802467B689B790193534B0093134694
:1096F40040F2A7222146042007F044FCF869FFF752
:1097040085FDFB691B7B012B07D1FB6993F8643052
:10971400002B02D1F869FFF74FFDFB699A6C7B6857
:109724009B79194601238B401340002B75D1FB69AB
:109734009A6C7B689B79194601238B401A43FB6919
:109744009A647B689A79FB69DB799A4214D1FB6944
:10975400DB799AB27B68DB7D002B01D0082300E023
:109764000C2312FB03F39AB2BB689BB213449AB264
:10977400FB69A3F846200EE07B68DB7D002B01D05B
:10978400082200E00C22BB689A4204D00421F86944
:10979400FFF792FC42E0FB699B6E7A68927911466E
:1097A4007A68D27D002A01D0082200E00C2202FB54
:1097B40001F21344BA68F968184629F073FAFB6990
:1097C4009C6CFB691846FFF77DFA03469C4225D141
:1097D400FB69022283F86420FA69FB699B6C1946D1
:1097E4001046FFF7DFFD7861FB69986EFB69B3F8FB
:1097F40046301946FA693B6800F022FF7B69002B6A
:109804000CD1FB69002283F86420F869FFF7A4FCFB
:1098140004E000BF02E000BF00E000BF2437BD4603
:1098240090BD00BF483300204C330020BA310500FE
:10983400BB310500943105000032050090B587B0B6
:1098440002AF786039600023FB737B68002B28D05B
:109854007B689A1C3B681A6007F10F031946386845
:1098640005F0EFFFFB7B002B1BD0104B1B6803F0B4
:109874000403002B15D00E4B1B68032B11DD0D4B7D
:10988400002B01D00C4C00E00C4CFEF7B7FF024655
:109894000B4B0093134640F2EB222146042007F0C1
:1098A40071FBFB7B18461437BD4690BD483300203E
:1098B4004C330020BA310500BB310500943105005A
:1098C4001032050080B596B000AFF860B9607A60D8
:1098D4003B60FB68002B04D17B467B65786DFDF70C
:1098E400F3FEBB68002B04D17B463B65386DFDF766
:1098F400EBFE3B68002B04D17B46FB64F86CFDF760
:10990400E3FE3B685B6A02337B623B6803F10C0055
:109914003B689B78002B01D0012100E002213B68C9
:109924005B78082B0CBF01230023DBB21A4607F136
:10993400140305F093FF07F11403BB62FB68FB6299
:109944007B689BB23B86BB68FB63FB6B3A8E13441C
:109954003B643B685B7887F844303B681B7B022B95
:109964000ED13B681B69002B04D17B46BB64B86CE9
:10997400FDF7AAFE3B681B697B6310233B8701E06C
:1099840000233B8707F12403184605F04FFF00BF6F
:109994005837BD4680BD80B483B000AF0346FB7129
:1099A400FB79002B01D1042300E0082318460C376F
:1099B400BD465DF8047B704780B584B000AF786025
:1099C40039603B68DB695A787B68DA703B68DB692D
:1099D4001B78002B14BF01230023DBB283F00103A7
:1099E400DBB203F00103DAB27B689A703B68DA6990
:1099F4007B685A623B681B7B022B07D13A4B9B7DE9
:109A04001846FFF7C8FF03461A4606E03B681B7B6F
:109A14001846FFF7C0FF03461A467B685A703B6836
:109A2400DB7A83F00103DBB2002B0ED03B689B8A08
:109A34001A467B685B78C3F10F039A4205DC7B68A6
:109A44005B78082B01D107234AE03B689B8A1A46BE
:109A54007B685B78C3F10F039A4203DC3B68DB7AD3
:109A6400002B01D0012300E0002303F00103DAB24C
:109A74007B681A707B681B78002B16D03B689B8A26
:109A84001A467B685B7813440B33184A82FB031233
:109A94005210DB17D31AFB60FB68DBB2013BDAB26E
:109AA4007B68DA717B6800229A717B680022DA7520
:109AB4007B683A680C3392E8030083E803003B6850
:109AC4009A697B681A623B681A897B689A823B6848
:109AD4009A7A7B689A753B681A6A7B689A62002353
:109AE40018461037BD4680BD883A0020ABAAAA2A82
:109AF40080B487B000AFF860B9607A60BB681A7848
:109B0400FB689A70FB6800225A62BB689B680B2B47
:109B140003D8BB681B7B002B01D0012300E000238A
:109B240003F00103DAB2FB681A70FB6800225A7072
:109B3400FB681B78002B0DD0BB689B680733DB08E0
:109B44007B617B69DBB2013BDAB2FB68DA71FB68EB
:109B540000229A71FB680122DA75FB68BA680C333B
:109B6400103292E8030083E80300BB68DA89FB68DB
:109B74009A82BB689A69FB681A62BB681A7FFB68A1
:109B84009A75FB687A689A6200BF1C37BD465DF817
:109B9400047B704780B58CB000AFF860B9607A6020
:109BA400FB685B781A467B681A44FB68DB7D002BF4
:109BB40001D00B2300E00F239A4201D909232BE0A3
:109BC400FB685B781A467B681A4407F1140307F1B3
:109BD4001801F868FFF7B7FBF862FB6A002B1AD18B
:109BE400BB6A1946F868FFF767FBFB68DB7D002B4F
:109BF40006D07B697A68B968184629F053F805E0FD
:109C04007969FB687A68B868FFF75CFE07F11803A6
:109C140018460BF0DBF9FB6A18463037BD4680BDA9
:109C240080B58CB000AF786039607B68DB7D002B39
:109C340001D0082300E00C23FB62FB6A3A6802FBB4
:109C440003F3BB627B68DB791A463B689A4206D110
:109C54007B68B3F846301A46BB6AD31AFB623B688A
:109C6400DAB27B689A71786807F1080307F10C018E
:109C7400FA6AFFF768FB78627B6A002B54D13B6871
:109C8400002B13D17B6893F84F3083F00103DBB2D0
:109C9400002B0BD07B689B699BB2C3F30C039AB275
:109CA4007B689A807B68012283F84F207B68DB7D88
:109CB40083F00103DBB2002B22D07B6893F84E3093
:109CC40083F00103DBB2002B1AD03B68002B04D0D5
:109CD4007B463B62386AFDF7F7FC7B68986E7B68CD
:109CE400996E7B68B3F846301A467B685B78D31A62
:109CF4001A467B68FFF7E6FD7B68012283F84E2055
:109D04007B68FA6911461846FFF7D6FAB8687B688B
:109D14009A6EBB6A1344FA6A194628F0C3FF07F126
:109D24000C0318460BF052F97B6A002B0CBF01237D
:109D34000023DBB218463037BD4680BD80B584B001
:109D440000AF78600023FB607B6893F84C30FB72B3
:109D54001CE07B689A6CFB7A012101FA03F313403F
:109D6400002B10D1FB7A19467868FFF759FF034698
:109D7400002B11D0FB680133FB60FB7A0133DAB2AC
:109D84007B6883F84C20FB7A0133FB727B68DB79B8
:109D9400FA7A9A42DDD900E000BFFB681846103712
:109DA400BD4680BD2DE9F04393B004AFF860B960BF
:109DB4007A60FB685B781A467B681344BB62FB6875
:109DC400DB7D002B02D04FF4807201E04FF4C072AF
:109DD400BB6A9A4201D20923B6E000237B63EFF306
:109DE40010837B6272B600233B6314E0594A3B6BD9
:109DF4006C2101FB03F3134444331B78002B07D17C
:109E04003B6B6C2202FB03F3524A13447B6305E071
:109E14003B6B01333B633B6B032BE7DD7B6A002B1E
:109E240000D162B67B6B002B01D104238CE0BB6AAA
:109E34000122F968786BFFF783F80346002B00F0E2
:109E440082807B6B9B6E7A68B968184628F02AFF7B
:109E5400414B1B6803F00403002B6CD03F4B1B6881
:109E6400032B68DD6B461E467B6BB3F846303B62C2
:109E74003B6A5B00591C0B46013BFB610A464FF0F1
:109E840000034FEAC30949EA52794FEAC2080A4675
:109E94004FF00003DD0045EA5275D400CB1DDB080A
:109EA400DB00ADEB030D04AB0033BB610023FB62AD
:109EB40021E07B6B9A6EFB6A13441B78FB75FB6A8B
:109EC4005B00274A1168FA7D1209D2B202F00F0230
:109ED4000A441178BA69D154FB6A5B000133204A01
:109EE4001168FA7D02F00F020A441178BA69D1545C
:109EF400FB6A0133FB62FA6A3B6A9A42D9D33B6A32
:109F04005B00BA690021D154164B002B01D0164CCA
:109F140000E0164CFEF772FC0246BB690293144B38
:109F24000193144B0093134640F2F7322146042068
:109F340007F028F8B546786BFFF700FF786BFFF75A
:109F440089F9002300E0042318463C37BD46BDE8E8
:109F5400F08300BFA03A0020483300204C33002097
:109F640044330020BA310500BB31050094310500AB
:109F7400243205003432050080B582B000AF0023DE
:109F84007B6021E0144A7B686C2101FB03F31344DA
:109F940044331B78012B14D17B686C2202FB03F33E
:109FA4000D4A13441846FFF7C9FE0346002B08D098
:109FB4007B686C2202FB03F3074A13441846FFF73D
:109FC40049F97B6801337B607B68032BDAD900BFD6
:109FD4000837BD4680BD00BFA03A002090B583B0CD
:109FE40000AF00237B6050E02B4A7B686C2101FBAF
:109FF40003F3134444331B78022B43D1264A7B6872
:10A004006C2101FB03F3134464331B78022B39D115
:10A014007B686C2202FB03F31F4A98181E4A7B6874
:10A024006C2101FB03F3134448331B681946FFF703
:10A03400B9F90346002B25D1174A7B686C2101FB33
:10A0440003F31344643300221A70134A7B686C21AF
:10A0540001FB03F3134448331C687B686C2202FB46
:10A0640003F30D4A13441846FEF72CFE03469C42A4
:10A0740008D17B686C2202FB03F3074A1344184699
:10A08400FFF76AF87B6801337B607B68032BABD9ED
:10A0940000BF0C37BD4690BDA03A002080B500AF8C
:10A0A400FFF76AFFFFF79AFF0123184680BD80B5CA
:10A0B40092B000AFF860B9607A603B60FB689B695E
:10A0C4007B64FB681B78002B0AD0FB689A69FB68E9
:10A0D4009B8819461046FEF710FE0246FB689A61FB
:10A0E400FB6803F10C00FB689B78002B01D0012175
:10A0F40000E00221FB685B78082B0CBF01230023DE
:10A10400DBB21A4607F1340305F0A8FBFB687A6C4E
:10A114009A6107F134037B61BB68BB617B689AB2C7
:10A12400FB685B789BB2D31A9BB2BB83BB69BA8BC7
:10A134001344FB623B68BB62FB685B7887F8303092
:10A144000023BB84FB681B7B022B01D11023BB843F
:10A15400FB689B78002B3DD0FB681B7B022B02D154
:10A16400FB681B693B62FB6800225A62FB68186A41
:10A17400FB68D978FB6824331A4615F0F1F915E029
:10A18400FB685B6A07F1100211461846FFF756FB9D
:10A194000346002B01D0002351E0FB68186AFB68DA
:10A1A400D978FB6824331A4615F0DAF9FB685B6A40
:10A1B400002BE5D1FB681B7B022B3FD1FB68DA89BE
:10A1C400FB680C331946104615F0DAFA0346002BE7
:10A1D400C2D133E0FB6800225A62FB681B7B012B6F
:10A1E40014D1FB68DA89FB6824331946104615F04C
:10A1F400E6F9FB685B6A07F1100211461846FFF79F
:10A204001DFB0346002B01D0002318E0FB6800224D
:10A214005A62FB689A8AFB6824331946104615F083
:10A22400CEF9FB685B6A07F1100211461846FFF786
:10A2340005FB0346002B01D0002300E0052318464C
:10A244004837BD4680BD80B584B000AFF860B960C2
:10A254007A607B680C331822B968184628F022FD0E
:10A26400F868FEF7D5FB0346002B14BF0123002337
:10A27400DAB27B681A707B68DB7D002B0AD0F86841
:10A28400FEF7F7FB03461A467B689A707B68002248
:10A294005A7024E0F868FEF758FB0346002B14BFFD
:10A2A40001230023DAB27B689A70F868FEF781FB19
:10A2B40003461A467B68DA707B681B78002B0BD048
:10A2C400F868FEF705FC0346002B01D0082200E0E5
:10A2D40004227B685A7002E07B6804225A707B680F
:10A2E4001B78002B14D0F868FEF723FC03461A46AB
:10A2F4007B689A80F868FEF769FC03461A467B6817
:10A304009A71F868FEF7AFFC03461A467B68DA7167
:10A314007B6800225A6200BF1037BD4680BD000032
:10A3240090B58BB002AFF860B9607A603B60BB68EF
:10A33400062B54D1F868FEF785FA0346FB83F868C8
:10A34400FEF7CDFAB861FB8B19467868FFF77CF805
:10A3540078617B69002B1CD1234B1B6803F0040339
:10A36400002B3DD0214B1B68012B39DD204B002BEA
:10A3740001D0204C00E0204CFEF740FA02461F4B6F
:10A384000093134640F2B9422146022006F0FAFD3A
:10A3940026E07B699A6CBB691A437B699A64BB6942
:10A3A400002B04D103217869FEF786FE18E07B694F
:10A3B4009C6C7B691846FEF785FC03469C4203D1DE
:10A3C4007869FEF7D9FE0BE07B69002283F84C2004
:10A3D4007869FFF7B3FC7869FEF73CFF00E000BF43
:10A3E4002437BD4690BD00BF483300204C330020C5
:10A3F400BA310500BB310500943105003C3205003B
:10A4040080B487B000AF0346FB7100237B6120E07A
:10A414007B69DB00154A1344FB6000233B6110E0B9
:10A42400FB681A683B69DB001344BB60BB681B789C
:10A43400FA799A4202D1BB685B6810E03B69013348
:10A444003B61FB685A683B699A42E9D87B690133EE
:10A454007B61074B1B687A699A42D9D3002318465B
:10A464001C37BD465DF8047B704700BFA03C00204C
:10A47400A83C002080B58EB000AFF860B9607A6067
:10A484003B607B689B78002B06D13B687A68B9688F
:10A49400F868FFF745FF2CE07B689B781846FFF7C8
:10A4A400AFFF78637B6B002B22D07B689B783B7576
:10A4B4007B681B6AFB627B689B8A7B847A6807F1F2
:10A4C40024030C3292E8030083E803007B689B7D3D
:10A4D40087F83030FB68BB61BB68FB617B681B7825
:10A4E40087F8203007F114027B6B396810469847CF
:10A4F40000BF00BF3837BD4680BD000090B5F5B041
:10A5040002AF07F10C04206007F108000160391D57
:10A514000A603A46136007F1440307F1080207F1A1
:10A524000C01381D126809680068FFF7C0FDC7F800
:10A53400C401D7F8C431002B54D107F13C030122E4
:10A544001A703B1D1B689A8A07F13C035A8007F175
:10A554003C0300225A6007F1100300221A7007F12D
:10A56400100307F144025A6007F108031B689AB20A
:10A574003B1D1B685B789BB2D31A9AB207F1100398
:10A584001A8107F1100307F13C020C3392E803002F
:10A5940083E8030007F110033A1D126814330C32E8
:10A5A40092E8030083E803003B1D1B689A7D07F1D2
:10A5B400100383F824203B1D1B681A6A07F110035B
:10A5C400DA613B1D1B685A6A07F110031A6207F12E
:10A5D40010033A4612689A6207F11003184600F015
:10A5E40029FB1BE0104B1B6803F00403002B15D060
:10A5F4000E4B1B68052B11DD0D4B002B01D00D4CB0
:10A6040000E00D4CFEF7FAF802460C4B009313469B
:10A614004FF4A5622146062006F0B4FC00BF07F5FE
:10A62400E677BD4690BD00BF483300204C33002080
:10A63400BA310500BB310500943105006C320500C8
:10A6440080B584B000AFF860B9607A603B607B6825
:10A65400DB7D002B06D03B687A68B968F868FFF7A1
:10A6640009FF05E03B687A68B968F868FFF746FFB8
:10A6740000BF1037BD4680BD80B584B000AF7860A0
:10A6840039603B68FB60FB6893F84430022B04D0CC
:10A694007B46BB60B868FDF717F8FB68022283F8B5
:10A6A4006420FA68FB689B6C19461046FEF77AFE34
:10A6B4000346002B03D1FB68002283F8642000BF0B
:10A6C4001037BD4680BD80B584B000AF7860396076
:10A6D4003B68FB60FB6893F84430012B04D07B4655
:10A6E400BB60B868FCF7F0FFFB6893F84D30002BB3
:10A6F4000CD1FB681B7B012B04D10121F868FEF708
:10A70400DBFC12E0F868FEF737FD0EE0FB6893F817
:10A714004D30013BDAB2FB6883F84D20FB68002220
:10A7240083F84C20F868FFF709FB00BF1037BD46DB
:10A7340080BD80B584B000AF786039603B68FB6051
:10A744000021F868FEF7B8FC00BF1037BD4680BD95
:10A7540080B590B000AFB9607A603B600346FB738C
:10A76400FB7B002B0CD13B6813F1020F08D00123B3
:10A774003B753B68BB6107F11403184600F05AFAB5
:10A78400044B1B68184604F0A3FE00BF4037BD46C7
:10A7940080BD00BF9C3C002080B584B000AFF86051
:10A7A400B9607A60FB689B8A184602F06FFD034625
:10A7B400012B0BD1FB681B7B002B07D0FB681B7B99
:10A7C400022B05D1FB681B69002B01D1102317E074
:10A7D400FB689B7D5BB2002B01DA072310E0FB686A
:10A7E4001B78002B06D07A68B968F868FFF7DAFAA4
:10A7F400034605E07A68B968F868FFF7CBF90346C1
:10A8040018461037BD4680BD80B582B000AF786071
:10A8140000F088F84FF4D87200211B4828F06CFA35
:10A8240008F017F8194B00221A604022002118483A
:10A8340028F062FA174B184A1A60164B174A5A60E6
:10A84400144B4CF250329A60124B154ADA60114B99
:10A854004CF250321A610F4B04221A750D4B002230
:10A864009A750C4B08225A750E4804F0FFFD0246F7
:10A874000D4B1A600D4B00221A600D4808F06EFA59
:10A8840000BF0837BD4680BDA03A0020583C0020D8
:10A894005C3C0020883A002080969800F049020031
:10A8A40020A10700A1A002009C3C0020A83C00209D
:10A8B40055A7020080B584B000AF786039607B682A
:10A8C400002B0CBF01230023DAB23B68002B0CBF22
:10A8D40001230023DBB25340DBB2002B01D00E2353
:10A8E40018E07B68002B06D13B68002B03D100F0F5
:10A8F40019F800230EE0EFF31083FB6072B6074AE9
:10A904007B681360064A3B681360FB68002B00D128
:10A9140062B6002318461037BD4680BD503C002067
:10A92400543C002080B582B000AF08490848FFF7C6
:10A93400C1FF0346002B04D07B467B607868FCF79C
:10A94400C3FE00BF0837BD4680BD00BF692B0500AC
:10A95400D12A050080B592B000AFF860B9607A6082
:10A964003B6000237B64FB68002B02D07B68002BD8
:10A9740001D10E2373E007F13C030822002118469D
:10A9840028F0BAF97B685B8807F13C021146184647
:10A9940014F0F6FE034683F00103DBB2002B01D072
:10A9A4007B6C5CE07B6818897B68D9687B681B6971
:10A9B400DBB203F00103DBB21A4607F0B9FF03462A
:10A9C400002B01D07B6C4AE07B6818897B68D968CE
:10A9D4007B681B69DBB203F00103DBB21A4607F0A4
:10A9E4003FFF78647B6C002B0DD07B6818897B68F3
:10A9F4001B69DBB203F00103DBB200221946FEF748
:10AA04009FF97B6C2BE007F110031A467968F8680C
:10AA1400FFF719FC07F11C0307F13C0292E803005D
:10AA240083E8030004F0CCFC3B7C002B0AD0F868DC
:10AA3400FDF7F0FEBB68191F07F110023B68FEF733
:10AA4400F5FD09E0F868FDF7F1FEBB68591E07F152
:10AA540010023B68FFF7F4FD04F0DCFC0023184609
:10AA64004837BD4680BD80B58EB000AF7860396090
:10AA74007B68002B0BD07B681B69002B07D07B689D
:10AA8400DB69002B03D07B689B69002B01D10E236B
:10AA940016E007F1080379681846FEF78DFF78631E
:10AAA4007B6B002B01D07B6B0AE07B6819697B68A8
:10AAB4009B8A1A4607F108031846FFF76DFE034602
:10AAC40018463837BD4680BD80B58EB000AF78607B
:10AAD40039607B68002B07D07B685B68002B03D050
:10AAE4007B689B69002B01D10E2322E07B681B7CD1
:10AAF400022B03D07B681B7C002B01D1102318E0B0
:10AB04007B681B785BB2002B01DA072311E007F1A5
:10AB14000C033A6879681846FEF7EAFF7B685B68BD
:10AB240019467B689A6807F10C031846FFF734FE50
:10AB3400034618463837BD4680BD000080B584B052
:10AB440000AF786039607B68002B01D10E2349E0A7
:10AB5400264B1B68002B01D0042343E00023FB6039
:10AB640029E0FB68DB007A6813445B68002B01D1A1
:10AB74000E2337E0FB68DB007A6813441B785BB272
:10AB8400002B01DA0B232DE0FB68DB007A68134409
:10AB94001B78002B0AD0FB68DB007A6813441B780F
:10ABA4001846FFF72DFC0346002B01D00F2319E0B4
:10ABB400FB680133FB60FA683B689A42D1D30B4BC4
:10ABC4001B680B497A6841F83320084B1B68084A14
:10ABD400DB0013443A685A60044B1B680133034A90
:10ABE4001360002318461037BD4680BDA83C0020E2
:10ABF400A03C002080B584B000AF0D4B1B68FB6007
:10AC04000FE0FB68043BBB60FB681B687B60BB68B0
:10AC14001B7A002B03D0F968054806F0D5F87B6849
:10AC2400FB60FB68002BECD100BF1037BD4680BD34
:10AC3400AC3C002080B586B000AF78607B68002B08
:10AC440004D17B463B613869FCF73EFD154B1B681C
:10AC5400002B23D0144B01221A70124B1B687B610A
:10AC640010E07B69043BFB60FB681B7A83F0010303
:10AC7400DBB2002B03D0FB681B68786898477B69BC
:10AC84001B687B617B69002BEBD1074B1B78022B84
:10AC940004D1FFF7AFFF044B00221A7000BF18372E
:10ACA400BD4680BDAC3C0020B03C002080B584B0E3
:10ACB40000AF78607B68002B04D17B46FB60F868AA
:10ACC400FCF702FD7B6800221A727B680433194684
:10ACD400034806F037F800BF1037BD4680BD00BFFB
:10ACE400AC3C002080B584B000AF78607B68002B5A
:10ACF40004D17B46FB60F868FCF7E6FC0C4B1B7840
:10AD0400012B03D00A4B1B78022B06D1084B0222DD
:10AD14001A707B6801221A7205E07B6804331946B5
:10AD2400044806F051F800BF1037BD4680BD00BF8F
:10AD3400B03C0020AC3C002080B483B000AF78600D
:10AD440039603B687A6892689B1A9BB218460C3744
:10AD5400BD465DF8047B704780B483B000AF786073
:10AD64000B467B807B689A687B88134418460C37B3
:10AD7400BD465DF8047B704780B584B000AF786051
:10AD840039603B681B8819467868FFF7E5FF03467E
:10AD94001B880433BB813B681A88BB8903339BB28D
:10ADA40023F003039BB21344FB81FA897B681B885D
:10ADB400043B9A4201D90023FB813B68FA891A803B
:10ADC40000BF1037BD4680BD80B584B000AF786049
:10ADD400396039687868FFF7AFFF0346FB8107F1F4
:10ADE4000E0319467868FFF7C7FFFB891946786890
:10ADF400FFF7B2FF034618461037BD4680BD80B545
:10AE040084B000AF786039607B689B687A68928808
:10AE14001A443B689A4204D07B46FB60F868FCF70E
:10AE240053FC3B6800229A707B68043319467868A7
:10AE3400FFF7A2FF7B689B8819467868FFF78CFFB1
:10AE440003469B78042B02D17B6800229A8000BFC2
:10AE54001037BD4680BD80B584B000AF78603960DE
:10AE64007B689B687A6852881A443B689A4204D08B
:10AE74007B46FB60F868FCF727FC3B6800229A706D
:10AE840000BF1037BD4680BD80B483B000AF78608A
:10AE94007B681B88043B9BB218460C37BD465DF8A3
:10AEA400047B704780B584B000AF78600B467B802C
:10AEB4007B685B8819467868FFF74EFFF860FB688B
:10AEC4007A881A80FB6801229A70FB68184610374A
:10AED400BD4680BD80B582B000AF7860002178683F
:10AEE400FFF73AFF034600229A707B6800225A80DB
:10AEF4007B6800229A8000BF0837BD4680BD80B5BC
:10AF040086B000AF78600B467B807B8807339BB2AA
:10AF140023F003037B827B685A887B689B889A4270
:10AF24000ED27A8A7B689B8819467B685B88CB1A29
:10AF34009A4202DC00237B6142E004237B613FE010
:10AF44007B685A887B689B889A4227D97B681B88D0
:10AF54001A467B685B88D31AFB607A8AFB689A423C
:10AF640002D800237B612BE07B689B887A8A9A4213
:10AF740011D8FB68032B08D97B685B88194678686D
:10AF8400FFF7EAFE034604229A707B6800225A8087
:10AF940000237B6114E004237B6111E07B689B88C0
:10AFA40019467868FFF7D8FE03469B78002B05D135
:10AFB4007868FFF78FFF00237B6101E004237B6146
:10AFC4007B6918461837BD4680BD80B58AB000AF8E
:10AFD400F860B9601346FB80BB68002B04D17B4644
:10AFE4007B62786AFCF770FBFB68002B04D17B461C
:10AFF4003B62386AFCF768FBBB68B3F1005F09D9B0
:10B004004FF08053D3F80C3103F500239A02BB6848
:10B014009A4212D8BB68B3F5000F09D94FF0805398
:10B02400D3F80C3103F500539A02BB689A4204D852
:10B034007B46FB61F869FCF747FBFB88013BBA6878
:10B044001344B3F1005F0DD9FB88013BBA68134484
:10B054001A464FF08053D3F80C3103F500239B02BA
:10B064009A4219D3FB88013BBA681344B3F5000F25
:10B074000DD9FB88013BBA6813441A464FF080533C
:10B08400D3F80C3103F500539B029A4204D37B4658
:10B09400BB61B869FCF718FBFB88042B04D87B461A
:10B0A4007B617869FCF710FBFB68FA881A80FB68FF
:10B0B40000225A80FB6800229A80FB68BA689A6072
:10B0C4000021F868FFF748FE3861FB681B88043BE1
:10B0D4009AB23B691A803B6900229A7000BF2837F4
:10B0E400BD4680BD80B588B000AF78607B68002B1A
:10B0F40004D17B46FB61F869FCF7E6FA7B685B8860
:10B1040019467868FFF728FE03469B78012B04D183
:10B114007B46BB61B869FCF7D7FA7B689B88194604
:10B124007868FFF719FE7861EFF310833B6172B61C
:10B134007B699B78032B0CBF01230023FB73FB7BF0
:10B14400002B10D079697868FFF73EFE7861796941
:10B154007868FFF7F1FD03461A467B685A807B69DD
:10B1640000229A7002E07868FFF7B4FE3B69002B76
:10B1740000D162B600BF2037BD4680BD80B588B01F
:10B1840000AFF860B9601346FB80FB68002B04D164
:10B194007B46BB61B869FCF797FABB68002B04D106
:10B1A4007B467B617869FCF78FFAFB685B881946FC
:10B1B400F868FFF7D1FD03469B78012B04D17B4649
:10B1C4003B613869FCF780FA0023FB61FB88002BA4
:10B1D40007D0F868FFF758FE03461A46FB889342E7
:10B1E40002D90923FB6110E0FB881946F868FFF7D0
:10B1F40086FEF861FB69002B07D1FB881946F868C5
:10B20400FFF750FE0246BB681A60FB6918462037F8
:10B21400BD4680BD80B58AB000AFF860B960134602
:10B22400FB80FB68002B04D17B467B62786AFCF7C9
:10B234004BFABB68002B04D17B463B62386AFCF7AF
:10B2440043FABB689B78012B04D07B46FB61F86909
:10B25400FCF73AFABB681B88FA889A4204D97B4601
:10B26400BB61B869FCF730FAFB88002B04D17B463C
:10B274007B617869FCF728FABB68FA881A80BB6896
:10B2840002229A70FB6802331946F868FFF774FDCE
:10B29400FB685A88FB689B889A4209D0FB685B88E4
:10B2A4001946F868FFF758FD38613B6900229A7027
:10B2B40000BF2837BD4680BD80B588B000AF786038
:10B2C40039607B68002B04D17B467B617869FCF78D
:10B2D400FBF93B68002B04D17B463B613869FCF7E2
:10B2E400F3F90023FB617B689B8819467868FFF7B4
:10B2F40033FDB861BB699B78042B0CD17B680433A4
:10B3040019467868FFF738FD7B689B88194678688A
:10B31400FFF722FDB861BB699B78022B02D0032B97
:10B3240007D00CE0BB6903229A703B68BA691A60C3
:10B3340008E07B46FB60F868FCF7C6F902E00523E9
:10B34400FB6100BFFB6918462037BD4680BD80B550
:10B3540084B000AF78607B68002B04D17B46BB606F
:10B36400B868FCF7B1F97B689B8819467868FFF7E1
:10B37400F3FCF860FB689B78042B04D1F9687868C7
:10B38400FFF722FDF860FB689B78022B0CBF0123BA
:10B394000023DBB218461037BD4680BD80B584B0AB
:10B3A40000AF78607B68002B04D17B46BB60B86833
:10B3B400FCF78AF97B689B8819467868FFF7CCFC10
:10B3C400F86004E0F9687868FFF7FEFCF860FB6851
:10B3D4009B78032BF6D0FB689B78042BF2D0FB6898
:10B3E4009B78022B0CBF01230023DBB218461037D5
:10B3F400BD4680BD80B586B000AF786039607B689B
:10B40400002B04D17B467B617869FCF75DF93B68CE
:10B41400002B04D17B463B613869FCF755F93B6846
:10B424009B78012B06D0032B09D139687868FFF784
:10B43400E6FC09E039687868FFF70DFD04E07B4617
:10B44400FB60F868FCF740F900BF1837BD4680BDC3
:10B4540080B588B000AFF860B9607A603B600123C2
:10B464003B74FB687B61BB68FB617B68BB6107F174
:10B4740010033A681946012001F026FE03461846D7
:10B484002037BD4680BD80B588B000AFF860B96094
:10B494007A6002233B74FB687B61BB68BB6107F184
:10B4A40010037A681946012001F00EFE034618467F
:10B4B4002037BD4680BD80B483B000AF78607B6820
:10B4C4001B791A467B685B79D31A03F57F2303F64D
:10B4D400FF731B037A68134418460C37BD465DF8A6
:10B4E400047B704780B582B000AF78607868FFF75E
:10B4F400E2FF034603F5805318460837BD4680BD76
:10B5040080B483B000AF0346FB80FB88002B05D0DA
:10B51400FB88B3F5FE4F01D2012300E0002303F0C2
:10B524000103DBB218460C37BD465DF8047B704757
:10B5340080B483B000AF78607B681B781A467B6860
:10B54400134418460C37BD465DF8047B704780B53C
:10B5540084B000AF78607B681B88002B04D17B46E5
:10B56400FB60F868FCF7B0F87B681B889B007A687E
:10B574001A447B681B889B0079680B4423F47F631F
:10B5840023F00F039A4204D07B685B88B3F5FE4F27
:10B594000BD17B6823F47F6323F00F0303F58053FF
:10B5A4001846FFF7C5FF034604E07B681B889B0031
:10B5B4007A68134418461037BD4680BD80B584B000
:10B5C40000AF786039607B68FB607868FFF7BFFF85
:10B5D40078607A683B689A4203D27A68FB689A4238
:10B5E40001D800230BE07B685B881846FFF788FFCF
:10B5F400034683F00103DBB2002BE6D17B681846D7
:10B604001037BD4680BD80B584B000AFF860B96026
:10B614007A603B60FB6800225A60BB685B8818460E
:10B62400FFF76EFF034683F00103DBB2002B0CD05F
:10B634007968B868FFF7C2FFB860BB68002B04D113
:10B64400FB6800221A60002330E0FB68BA681A60C5
:10B654000BE0FB685A68BB681B889B001A44FB68B4
:10B664005A60B868FFF773FFB860BA687B689A429B
:10B674001BD2FB685A68BB681B889B001A443B6852
:10B684009A4212D2FB681B681A46BB68534023F4E3
:10B694007F6323F00F03002B07D1BB685B88184638
:10B6A400FFF72EFF0346002BD3D1BB681846103793
:10B6B400BD4680BD98B500AF134BDB681846FFF755
:10B6C40037FF114BDB6803F580530022194607F05E
:10B6D400F3FA0346002B13D10B4BDC680A4BDB68EF
:10B6E4001846FFF7E8FE03469C4201D1022308E016
:10B6F400054BDB6803F58053034AD360032300E062
:10B704000123184698BD00BFB83C002080B500AFA7
:10B71400074B1B68074A4FF480511846FFF7B3FEE6
:10B724000346002B01D1012300E00023184680BD0D
:10B73400B43C0020D43C002080B582B000AF154B4F
:10B74400DB681B787B60144B1B68181D114BD96890
:10B75400124B7A68FFF77CFE0346002B15D10E4B83
:10B764001A687B689B089B0013440433094A53619D
:10B77400084BDB681846FFF7DBFE0246054B1A61EF
:10B78400044B00225A76012300E0002318460837B0
:10B79400BD4680BDB83C0020B43C0020D43C002011
:10B7A40090B589B000AF394B1B69002B04D17B469F
:10B7B400BB61B869FBF788FF344B5B69002B04D18C
:10B7C4007B467B617869FBF77FFF0023FB774AE0C8
:10B7D4002E4B5B6923F47F6323F00F032B4A5269DA
:10B7E4009B1A03F580533B61284B1C69274BDB688C
:10B7F4001846FFF777FE024638463B692146FFF7B5
:10B8040002FFF8607B68002B1FD0204B5869396811
:10B814007A681F4BFFF71CFE0346002B13D11B4B0A
:10B824005A697B6823F003031344184A5361FB6885
:10B83400002B04D17B46BB60B868FBF745FF134A75
:10B84400FB68136103E000231BE00123FB77FB6823
:10B85400002B05D0FB685B8847F6FF72934202D148
:10B864000A4B01225A76094B5B7E83F00103DBB25B
:10B87400002B05D0FB7F83F00103DBB2002BA7D1A3
:10B88400012318462437BD4690BD00BFB83C0020B4
:10B89400D43C002080B500AF074B1B681846074B0B
:10B8A40004220749FFF7D4FD0346002B01D10123ED
:10B8B40000E00023184680BDB43C0020D43C0020A6
:10B8C400C43C002080B500AF074BDB68074A4FF447
:10B8D40080511846FFF7D7FD0346002B01D1012301
:10B8E40000E00023184680BDB83C0020D43C002072
:10B8F40080B500AF0A4BD8680A4B1B68191D0A4B68
:10B9040040F6FC72FFF7A4FD0346002B04D1044B60
:10B9140001221A76012300E00023184680BD00BFEF
:10B92400B83C0020B43C0020D43C002080B582B058
:10B9340000AF1C4BDB681846FFF7FAFD194BDB68B8
:10B9440003F580534FF6FF72194607F0B5F93860D6
:10B954003B68002B08D0134BDB681846FFF7E8FD63
:10B9640002463B689A4201D1012317E00D4B5B7EEE
:10B97400002B02D00C4B7B6001E00C4B7B600C4B2A
:10B98400042279683868FFF763FD0346002B04D16D
:10B99400044B01221A76012300E0002318460837DD
:10B9A400BD4680BDB83C00205C3405005834050019
:10B9B400D43C002080B584B000AF2E4BDB685B79AB
:10B9C4001A462C4BDB681B79013B9A4201D10123B7
:10B9D4004CE0284BDB6803F580531846FFF7A8FDBD
:10B9E400F860254B1B6804331846FFF7A1FDB860C7
:10B9F400204BDB681846FFF775FD7860FB685B88B1
:10BA04001846FFF77DFD034683F00103DBB2002BEC
:10BA140026D07968F868FFF7D1FDF86020E0164B6E
:10BA24001B6803F58051FB685B881A46B86807F009
:10BA340043F9B860BB68002B16D00E4B01221A766E
:10BA44000E4B04220E49F868FFF702FD0346002B53
:10BA540001D000230AE07968F868FFF7AFFDF860C9
:10BA6400FB68002BDBD100E000BF01231846103730
:10BA7400BD4680BDB83C0020B43C0020D43C00202E
:10BA84005434050098B500AF124BDC68114BDB68E9
:10BA94001846FFF710FD03469C4211D10E4B1B685C
:10BAA40018460E4B04220E49FFF7D2FC0346002B26
:10BAB40004D1084B01221A76022308E0002306E091
:10BAC400044BDB6803F58053024AD3600323184612
