:020000022000DC
:1060000000F000206D630200556302005763020038
:10601000596302005B6302005D6302000000000040
:106020000000000000000000000000005F630200AC
:106030006163020000000000636302006563020008
:10604000676302006763020067630200AD690400D2
:106050006763020067630200C96D020067630200A4
:1060600067630200676302007999030067630200B7
:1060700067630200676302006763020067630200F0
:106080006763020015350400E9D10200676302006E
:10609000793504006763020011CA030067630200D8
:1060A00067630200676302006763020067630200C0
:1060B0006763020067630200000000000000000048
:1060C00067630200676302006763020067630200A0
:1060D000676302006763020067630200000000005C
:1060E00000000000000000000000000000000000B0
:1060F00000000000000000000000000000000000A0
:10610000000000000000000000000000000000008F
:10611000000000000000000000000000000000007F
:10612000000000000000000000000000000000006F
:10613000000000000000000000000000000000005F
:10614000000000000000000000000000000000004F
:10615000000000000000000000000000000000003F
:10616000000000000000000000000000000000002F
:10617000000000000000000000000000000000001F
:10618000000000000000000000000000000000000F
:1061900000000000000000000000000000000000FF
:1061A00000000000000000000000000000000000EF
:1061B00000000000000000000000000000000000DF
:1061C00000000000000000000000000000000000CF
:1061D00000000000000000000000000000000000BF
:1061E00000000000000000000000000000000000AF
:1061F000000000000000000000000000000000009F
:10620000344935480A1A02D0072291438D46334952
:1062100033480A1A06D00722914381F309880222E3
:1062200082F314882F483049304A00F042F8304851
:106230003049314A00F03DF830483149314A00F0E8
:1062400038F831483149324A00F033F831483249A0
:10625000324A00F02EF832483249334A00F029F829
:1062600032483349334A00F024F833483349002296
:1062700000F02AF832483349002200F025F832486D
:106280003249091A082902DB0022026041601F48D6
:106290001F49884205D00268043003B4904703BC0C
:1062A000F7E700208646EC4600200021284A904768
:1062B000FEE7884207D0521A05D0037801300B70F0
:1062C0000131013AF9D17047884202D002700130A1
:1062D000FAE7704700F0002000E8002000F00020FE
:1062E00000F00020E89A0400A02D0020382F0020A4
:1062F000A4630200A4630200DA750400E89A0400B3
:10630000A02D0020A02D002028770400287704006D
:1063100028770400287704002877040028770400F1
:106320002877040028770400E69A0400809C040083
:10633000382F0020382F0020382F0020C062002086
:10634000C0620020C0620020C0620020C066002041
:106350009D6F0200FEE7FEE7FEE7FEE7FEE7FEE7D1
:10636000FEE7FEE7FEE7FEE7704700BF094880470B
:1063700009484FF007018843854608488047084888
:10638000016841F470010160BFF34F8FBFF36F8F5D
:10639000FFF736BF6963020000F000203DD0030024
:0463A00088ED00E0A4
:1063A40041DF70470C4B1B6813F4804F03D00B4B39
:1063B4001B68012B00DC704700B583B0084BD3F891
:1063C4000435084A00924FF4A8720749022008F0E5
:1063D40027F803B05DF804FB982E0020942E0020CB
:1063E4000010014008790400FE78040010B586B05E
:1063F4005068E8B11B4B1B6813F4804F03D01A4B51
:106404001B68032B01DC06B010BD184BD3F8043510
:106414004988147852780490039202940191144AA2
:1064240000924FF4BC721349042007F0F9FFEAE725
:106434000C4B1B6813F4804FE5D00B4B1B68032BEC
:10644400E1DD0A4BD3F804354988127802920191B0
:10645400094A009240F27D120649042007F0E0FF49
:10646400D1E700BF982E0020942E00200010014098
:106474008C790400FE780400E079040000B583B050
:10648400012A21D053B253B1022A32D0234A40F216
:106494006B11032016F0FAFE03B05DF804FB204BE9
:1064A4001B6813F4804FF7D01E4B1B68032BF3DDDE
:1064B4001D4BD3F804351D4A00924FF4AF721C49AA
:1064C400042007F0ADFFE7E7154B1B6813F4804F7A
:1064D400E2D0144B1B68032BDEDD134BD3F80435D9
:1064E400144A009240F263121149042007F098FF05
:1064F400D2E70B4B1B6813F4804FCDD0094B1B68BC
:10650400032BC9DD084BD3F804350B4A009240F243
:1065140067120749042007F083FFBDE79078040061
:10652400982E0020942E00200010014028790400A9
:10653400FE780400487904006879040010B586B038
:106544000446244B1B6813F4804F03D0224B1B6872
:10655400032B0DDC214A1378591C11708DF815306A
:106564003223049364230393012C0ED906B010BD87
:106574001B4BD3F8043501901A4A00924FF4CA72A7
:106584001949042007F04CFFE4E7184B1A7882F00D
:1065940001021A708DF814200E4B1B6813F4804FFF
:1065A40003D00D4B1B68032B06DC022303AA05A9A9
:1065B4000F481CF0BDFCD9E7094BD3F80435019210
:1065C4000C4A00924FF4D3720749042007F028FFC5
:1065D400EBE700BF982E0020942E002059300020B5
:1065E400001001405C7A0400FE780400CC2F0020E7
:1065F400902F0020707A04003038042800D97047A6
:1066040008B5FFF79BFF08BD00B583B038222349C6
:10661400012002F0ABF8B0B9214B1B6813F4804F92
:1066240003D0204B1B68032B02DC03B05DF804FB92
:106634001D4BD3F804351D4A009296221C490420B0
:1066440007F0EEFEF1E7062813D0154B1B6813F490
:10665400804FEAD0134B1B68002BE6DD124BD3F8B6
:106664000435144A00929E221149012007F0D8FEF5
:10667400DBE70B4B1B6813F4804FD6D0094B1B6828
:10668400032BD2DD084BD3F804350B4A00929A222F
:106694000749042007F0C4FEC7E700BF582F0020B5
:1066A400982E0020942E00200010014054770400FE
:1066B400FE780400A877040078770400F0B58BB066
:1066C40004460378012B1BD0002B2FD14A4B1B7897
:1066D400012B59D9494B1B6813F4804F26D0484BE2
:1066E4001B68002B22DD474BD3F8043502220192AC
:1066F400454A0092FD224549012007F091FE15E02C
:106704003E4B1B6813F4804F03D03D4B1B68032B97
:106714000EDC3F4A1378591C11708DF81D3032235A
:10672400099364230893237B012B16D00BB0F0BD8F
:10673400344BD3F80435827AC17A007A657A267BA1
:1067440005960495039002910192324A0092CB225D
:106754002E49042007F064FEDBE7237A0BB9627A42
:1067640042B18DF81C30022308AA07A92A481CF05C
:10677400DFFBDBE7A37A8DF81C30022308AA07A904
:1067840025481CF0D5FBD1E78668244DDA00D01AE1
:10679400810068188661666837686F50B1888180A7
:1067A4000346E268166854689068D268C3F80660C5
:1067B400C3F80A40C3F80E00C3F81220FFF724FF01
:1067C4000D4C2178CA00501A830018332B44144FFF
:1067D4000E01B8194360531A9A001544BD51063589
:1067E400856001F0B3FE2378013323700421C820AF
:1067F40001F0B8FB9AE700BFC52F0020982E0020B7
:10680400942E00200010014014780400FE78040047
:1068140058300020E4770400902F0020582F0020E7
:10682400382F002000B583B0054B019301A820F058
:10683400B7F910B903B05DF804FB16F019FDF9E7D8
:10684400987B040000B58BB02022002101A820F021
:106854005DFE01238DF8043007238DF807300623ED
:106864008DF80C300A4B05930A4B09930A4901A889
:106874000BF06EF928B9094805F08AFA0BB05DF8F7
:1068840004FB074A40F2612116F000FDF3E700BF64
:10689400A16B02005D6A0200C42F0020A02D00201D
:1068A4009078040070B582B02A4B1B6813F4804FB3
:1068B40003D0294B1B68032B0EDC38222749012007
:1068C40001F03CFF002842D0254B00221A702548D5
:1068D40005F06CFA02B070BD234BD3F80435234A9B
:1068E40000924FF482722249042007F099FDE4E7F4
:1068F4000134E4B2012CEAD81849E200101B8300E9
:106904000B441C4E25017019735106338360131B0D
:106914009A00183211444160114A137801331370FC
:1069240001F014FE0B4B1B6813F4804FE0D00A4BAC
:106934001B68032BDCDD0C4BD3F804350E4A0092A4
:106944004FF488720A49042007F06AFDD0E7002456
:10695400D0E700BF982E0020942E0020582F00204E
:10696400C52F0020E969020000100140507804009E
:10697400FE780400382F00206878040003780E2B7A
:1069840000D0704700B583B0104B1B6813F4804FE0
:1069940003D00F4B1B68042B05DC0E4B1B7873B123
:1069A40003B05DF804FB0C4BD3F804350B4A00929A
:1069B40040F223120A49052007F032FDEDE7FFF704
:1069C40071FF044B01221A70EAE700BF982E0020E1
:1069D400942E002048300020001001400C7A04005E
:1069E400FE78040008B501F023FD08BD00B583B0AE
:1069F4000021124800F046FC58B9114B1B6813F4EF
:106A0400804F03D00F4B1B68032B08DC03B05DF8E9
:106A140004FB0D4A40F2491116F038FCEDE70B4B2C
:106A2400D3F80435054A12880192094A00924FF4BA
:106A3400A5720849042007F0F3FCE7E7AC2D002019
:106A4400982E0020942E002090780400001001401D
:106A5400287A0400FE78040000B583B0164B1B6846
:106A640013F4804F03D0154B1B68032B11DCFFF785
:106A7400BDFF1348134B03630023836280F82C305B
:106A840080F82D3001211CF019FA70B903B05DF8BB
:106A940004FB0D4BD3F804350C4A009240F2DB1290
:106AA4000B49042007F0BCFCE1E70A4A4FF4F171FA
:106AB40016F0ECFBEAE700BF982E0020942E00208D
:106AC400902F00208C7A040000100140EC7A04001E
:106AD400FE7804009078040010B50C4601F07EFAAC
:106AE400207010BD10B582B00C460D4B1B6813F41A
:106AF400804F03D00B4B1B68032B04DC204601F0B2
:106B040085FA02B010BD084BD3F804350191074A49
:106B1400009240F239120649042007F081FCEDE7A7
:106B2400982E0020942E002000100140447A040086
:106B3400FE78040008B5002001F068FA1E21322016
:106B440001F010FA08BD000000B583B00E4B1B68BD
:106B540013F4804F03D00D4B1B68032B08DC032177
:106B6400C82001F0FFF90BF04BF803B05DF804FB0B
:106B7400074BD3F80435074A00924FF4C272064912
:106B8400042007F04DFCEAE7982E0020942E002004
:106B9400001001400C7B0400FE78040008B5037863
:106BA4001C2B00D008BDFFF7CFFFFBE730B589B041
:106BB4006421254800F098FB4FF0A0430C22C3F851
:106BC4002C27224B1B789BB14FF0A043D3F81035F0
:106BD40013F4006F21D00221642001F0C3F901F005
:106BE40029FE00F0B7FB0AF0FBFF38BB09B030BD4B
:106BF40001AC174D0FCD0FC495E8070084E80700DA
:106C040001A801F02DFB10B901F012FAE7E7114ACF
:106C140040F28D2116F03AFBF6E70CF045FC0AF041
:106C24007FFF4FF4FA744FF47A400B4B43F00103A7
:106C34009847013CF7D1FFF787FFCCE7054A40F2BC
:106C4400A32116F023FBD1E7FD650200C42F002029
:106C54002877040090780400A07A040030B583B04B
:106C6400054601201EF020FFF0B9194B1B6813F4F0
:106C7400804F03D0174B1B68032B1BDC01F0A0F9DA
:106C8400002001F0C3F94FF496744FF47A40124B8C
:106C940043F001039847013CF7D1E97B4FF4FA70C4
:106CA40001F060F903B030BD0C4A40F24D2116F0FA
:106CB400EDFADAE70A4BD3F80435EA7B0192094A84
:106CC400009240F24E220849042007F0A9FBD5E7C0
:106CD400982E0020942E0020A07A040090780400BE
:106CE40000100140287B0400FE78040008B501F080
:106CF40067F908BD00B585B01F4B1B6813F4804FBE
:106D040003D01E4B1B68032B1BDC00F0A9FC00F016
:106D1400D5FC03A810F0EAFD174B1B6813F4804F51
:106D240003D0164B1B68032B17DC01F049F9002034
:106D340001F06CF90421C82001F014F905B05DF8E4
:106D440004FB0F4BD3F804350E4A009240F2C712ED
:106D54000D49042007F064FBD7E7094BD3F8043549
:106D6400BDF80C200192094A00924FF4E9720649D9
:106D7400042007F055FBD8E7982E0020942E00201D
:106D840000100140387B0400FE780400547B0400AA
:106D94004FF0A043084AC3F82C27084B4FF0004299
:106DA400C3F804230020C3F87C01054BC02283F8F8
:106DB400062340221A6070470C0003000060004064
:106DC40000E100E0194B0022C3F87C21184B1B683A
:106DD400184AD2F80425991A19D443F23333994244
:106DE40023D900B583B0144B1B6813F4804F03D030
:106DF400124B1B68032B0CDC0E4BD3F804250C4BF5
:106E04001A600020FFF79AFB03B05DF804FBD11A67
:106E1400E3E70B4BD3F804350A4A009240F21622FA
:106E24000949042007F0FCFAE6E7704700600040D7
:106E3400C82F002000B00040982E0020942E00207F
:106E44000010014044770400FE78040000B585B0CA
:106E5400264B3E221A70264A5A60264A9A60264ACF
:106E6400009202228DF8042004228DF8052002935A
:106E740010238DF80C30002168461EF05BFE30BBF9
:106E840000201EF011FE28BB01201EF00DFE38BBB1
:106E94004FF0A0430322C3F84827C3F84C27C3F894
:106EA4005027C3F854274FF48022C3F80C254FF41D
:106EB4000022C3F80C254FF48012C3F80C254FF4BC
:106EC4000012C3F80C25002005B05DF804FB16F091
:106ED400CFF9D5E7094A40F23A2116F0D7F9D3E7BA
:106EE400064A40F23B2116F0D1F9D1E74C3000209C
:106EF400E47A0400B47B0400D07A0400907804009F
:106F040000B583B01C4A05214FF4103007F06CFA29
:106F14001A4B1B6813F4804F03D0194B1B68032BC7
:106F240018DC1CF02BFB08BB01F060F800F07CFBC4
:106F340000F096FB00F0C2FBFFF774FCFFF782FC45
:106F4400FFF784FF01F028FB0E4801F00FFB03B0AC
:106F54005DF804FB0C4BD3F804350C4A009240F264
:106F64006A220B49042007F05BFADAE7094A4FF476
:106F74001B7116F08BF9D7E7C1E30200982E0020AD
:106F8400942E0020C166020000100140A87A04007B
:106F9400FE7804009078040008B5FFF7B1FFFFF70E
:106FA40005FEFFF7F5FEFFF7FBF9FCE730B583B00C
:106FB400044615461D4B1B6813F4804F03D01C4B2D
:106FC4001B68032B11DCA36B04F13C01204698479A
:106FD40094F83C302B7094F83D306B70236C0BB1FB
:106FE400626C6AB16B6003B030BD124BD3F80435E8
:106FF400114A0092AA221149042007F011FAE2E78B
:107004001CF03EFBA16C1CF041FB4FF47A7303FBB4
:1070140000F0C20B236C934205D3B0F5004F02D3AA
:107024009B1A6B60DFE700236B60DCE7982E00207F
:10703400942E002000100140047C0400F87B04001E
:1070440010B588B00446436CE3B9036C13B190F8EF
:107054003D20BAB194F83D2084F83C208DF81820E6
:107064008DF81920079306A920461BF019FE94F801
:107074004C303BB9636B94F83C102046984701238D
:1070840084F84C300F4B1B6813F4804F03D00E4B25
:107094001B68042B01DC08B010BD0C4BD3F804357D
:1070A40094F83C2094F83D10206C0490606C03909C
:1070B40002910192064A009285220649052007F0B2
:1070C400AFF9E8E7982E0020942E0020001001402C
:1070D400487C0400F87B040030B583B00446036B9D
:1070E40018681CF0B7FA636C3BBB236C1BB3590CD8
:1070F400D8034FF47A72002310F5FA7041F10001BD
:1071040020F094F8B0F1807F2AD2042831D9236B7F
:107114002246014618681CF07FFA05461CF0B0FAB6
:10712400A06445B11C4B1B6813F4804F03D01B4B68
:107134001B68002B25DC03B030BD256B590CD8032C
:107144004FF47A72002310F5FA7041F1000120F037
:107154006DF82246014628681CF05EFA0546E0E711
:10716400236B22466FF07F4118681CF055FA0546E0
:10717400D4E7236B2246052118681CF04DFA054616
:10718400CCE7074BD3F80435064A00926822064937
:10719400012007F045F9CEE7982E0020942E002018
:1071A40000100140287C0400F87B0400F0B583B093
:1071B400044617461E46089D1A4B1B6813F4804F5D
:1071C40003D0194B1B68032B1BDC002384F84C30C1
:1071D4003B7884F83D300EB373686364336823648A
:1071E4002046FFF72DFF2046FFF776FF3DB194F8C8
:1071F4003C302B7094F83D306B70236C6B6003B0A3
:10720400F0BD0A4BD3F8043512780192084A009273
:10721400CC220849042007F003F9D6E7002363646D
:107224002364DDE7982E0020942E002000100140F6
:10723400107C0400F87B040038B50446436C9BB909
:10724400056CADB1690CE8034FF47A72002310F5B4
:10725400FA7041F100011FF0E9FFB0F1807F0BD318
:10726400A5F2FF15256403E000234364FFF7E8FE5D
:107274002046FFF731FF38BD002323642046FFF783
:10728400DFFEF5E7A0B110B504460D4AC262426BB9
:107294008AB1826B8AB11BF0CDFC034608B1184653
:1072A40010BD084A0021206B1CF0A0F90346F6E744
:1072B4000E23184670470E23F1E70E23EFE700BFB5
:1072C400207C04003D72020008B5064B1B683BB1EC
:1072D40013F0C6FC002803DB024B1B689847F7E752
:1072E40008BD00BF5C30002010B50C46144B18607C
:1072F400144A012114481CF079F978B9610CE003AF
:1073040041F26F7200238B4208BF82420BD24FF4CA
:107314007A7200231FF08AFF014605E00B4A4A21D6
:1073240015F0B4FFEAE70521002209481CF074F9BE
:1073340000B910BD054A4B2115F0A8FFF9E700BFBD
:107344005C300020CD720200887C04008C7C040038
:1073540060300020002869D02DE9F043CFB0064604
:10736400334B1B6813F4804F03D0324B1B68032B41
:107374000BDC2F4B1B6813F4804F03D02D4B1B6881
:10738400032B2ADC4FB0BDE8F08300230F2B0FD86A
:10739400F25C29490D6810095900285C0DAC04F809
:1073A400130002F00F020131AA5C62540133EDE7CD
:1073B4000DAA00238DF8543003F1804303F588337C
:1073C400D3F8043502921D4A01921D4A00924122CB
:1073D4001C49042007F024F8CBE71B4BD3F80435F1
:1073E400B288F188307A747AB57AF77A96F80CC054
:1073F40096F80DE096F80E8096F80F90CDF82C9044
:10740400CDF82880CDF824E0CDF820C00797069564
:107414000594049003910292326801920B4A0092FF
:1074240046220849042006F0FBFFABE7704700BF83
:10743400982E0020942E00209C2E0020147D040001
:10744400287D0400007D040000100140307D04000C
:1074540072DF704773DF704774DF70472DE9F047C0
:10746400A2B0074688469146314C0026C4F806600F
:10747400E68130490B78C3EB43102F4D054425605A
:107484002E4A0244A2601F22A280A281013303F08B
:1074940001030B704FF03C0A5246314613A820F00A
:1074A40035F806238DF84F30ADF8487001238DF878
:1074B4004A30ADF85C3012AA1892ADF83C70ADF8C1
:1074C4004090CDF844800DEB0A021D928DF878307F
:1074D40052463146684620F019F802238DF80030F0
:1074E400221D294613A815F033F890B9104B03F167
:1074F4000C029968684615F02BF868B9104A0C49D3
:107504001048FFF7A5FF082809D070B922B0BDE8DC
:10751400F08715F0ADFEE9E715F0AAFEEEE70022CC
:1075240003490848FFF794FFEFE715F0A1FEEDE7E4
:10753400C43000208030002084300020D43000206B
:10754400102E00200C2E0020B0F5202F04D2074B63
:10755400A3FB0023DB0801E04FF6FF7308B103B976
:107564000123034A93819160704700BFCDCCCCCCFA
:10757400102E002008B50121054B1878FFF76AFF8B
:1075840018B9002005F036FB08BD15F071FEF8E7C8
:107594000C2E002008B5044B1878FFF75DFF00B9E6
:1075A40008BD15F065FEFBE70C2E002076DF704762
:1075B4007ADF70477CDF704708B515F059FE08BDC7
:1075C40008B504F0EDFB08BD00B583B0037823B122
:1075D400012B0BD003B05DF804FB3B214088FFF77F
:1075E400E5FF0028F6D015F043FEF3E7094B1B68CE
:1075F40013F4804FEED0084B1B68032BEADD074BD6
:10760400D3F80435064A009268220649042006F09D
:1076140007FFDFE7982E0020942E00200010014081
:10762400D07D0400B47D040000B583B015F064F986
:1076340068B90023019301A9012015F095F848B910
:1076440001A815F0E3F840B903B05DF804FB15F0A8
:107654000FFEEEE715F00CFEF2E715F009FEF3E776
:1076640000B585B09DF80C30012262F3030362F388
:1076740007138DF80C300C220F490DEB0200FFF7B5
:1076840099FF98B90023ADF808307823ADF8043099
:10769400C823ADF806304FF4C873ADF80A3001A81A
:1076A400FFF786FF28B905B05DF804FB15F0E0FD8F
:1076B400E8E715F0DDFDF6E7707D040000B58BB05A
:1076C4000023ADF808307822ADF80420C822ADF8C4
:1076D40006204FF4C872ADF80A200693079301AB55
:1076E400039340F6CD4304934FF48033059303236F
:1076F4008DF81830064B0893064B099303A815F030
:10770400E1FA10B90BB05DF804FB15F0B1FDF9E72F
:10771400CD750200BD7502000620704700B587B024
:1077240041F2010398424CD020D944F2010398421B
:107734005DD044F20203984274D1464B1B6813F4A3
:10774400804F1ED0444B1B68002B1ADD434BD3F8EB
:10775400043510880390526802920191404A0092C5
:107764006C224049012006F05BFE0AE0012859D151
:10777400384B1B6813F4804F03D0374B1B68002B26
:1077840012DC4FF0A0434FF4F012C3F81825C3F8ED
:107794000C25EFF3108372B64DF6AD6C324B1B78AB
:1077A400002B54D030BFF9E72C4BD3F804350292A8
:1077B40001912E4A009260222A49012006F030FEEF
:1077C400DFE7244B1B6813F4804FDAD0224B1B688D
:1077D400002BD6DD214BD3F8043502920191244AC3
:1077E400009263221F49012006F01AFEC9E7194BD3
:1077F4001B6813F4804FC4D0174B1B68002BC0DDEB
:10780400164BD3F804351068049050680390029125
:1078140092680192174A009277221249012006F0D9
:10782400FFFDAEE70B4B1B6813F4804FA9D00A4B46
:107834001B68002BA5DD094BD3F8043501910E4AD2
:1078440000927B220749012006F0EAFD99E707B080
:107854005DF804FB982E0020942E002000100140B7
:10786400847E0400307E0400282E0020447E040020
:10787400607E0400A47E0400C87E040000B583B0CA
:107884000023ADF80030054B01936A46014644F2EB
:107894000200FFF743FF03B05DF804FBE077040048
:1078A40007EE900AB8EE677ADFED0D7A67EE277A75
:1078B40006EE901AF8EE666AF4EEE67AF1EE10FA45
:1078C4000AD4DFED087A27EE277AF4EEC76AF1EEE0
:1078D40010FA03D50120704701207047002070473B
:1078E4009A99993FCDCC4C3F2DE9F0472DED068B6D
:1078F40005468946046807EE904AB8EE67AA814BAC
:1079040093ED008ADFED807AC7EE888ACAEE287A82
:10791400DFED7E9AC7EEA97A17EE900A1FF0D0FA2F
:1079240041EC100B1FF032FC51EC100B1FF0B2FABB
:107934000746DFED777A87EE889ACAEE097AC7EEB2
:10794400A97A17EE900A1FF0BBFA41EC100B1FF056
:107954001DFC51EC100B1FF09DFA06460F2F00D9A9
:107964000F271F2E03D80F2E02D8102600E01F2643
:10797400684B03FB07F307EE903AF8EE677AC7EE1D
:10798400887A17EE900A1FF09BFA41EC100B1FF057
:10799400FDFB51EC100B1FF07DFA80465E4B03FBA0
:1079A40006F307EE903AF8EE677AC7EE887A17EE98
:1079B400900A1FF085FA41EC100B1FF0E7FB51EC25
:1079C400100B1FF067FA0146A4EB0803002BB8BFA5
:1079D4005B42241A002CB8BF6442A3423CDC89F801
:1079E40000702868C5F800804146FFF759FF074634
:1079F400AC6807EE904AF8EE679AC9EEA87ADFED14
:107A0400438AC7EEA87A17EE900A1FF059FA41ECA0
:107A1400100B1FF0BBFB51EC100B1FF03BFA804620
:107A2400C9EE897AC7EEA87A17EE900A1FF048FAD1
:107A340041EC100B1FF0AAFB51EC100B1FF02AFABB
:107A44000646B8F10F0F01D94FF00F081F2E0BD8BF
:107A54000F2E0AD8102608E089F8006028682960EB
:107A6400FFF71EFF0746C3E71F262A4B03FB08F355
:107A740007EE903AF8EE677AC7EE887A17EE900A26
:107A84001FF01EFA41EC100B1FF080FB51EC100BA1
:107A94001FF000FA8246204B03FB06F307EE903AF0
:107AA400F8EE677AC7EE887A17EE900A1FF008FAA4
:107AB40041EC100B1FF06AFB51EC100B1FF0EAF9BC
:107AC4000146A4EB0A03002BB8BF5B42241A002C26
:107AD400B8BF6442A3420CDC89F80280A868C5F8E8
:107AE40008A05146FFF7DCFE3844BDEC068BBDE828
:107AF400F08789F80260A868A960FFF7D1FE3844CE
:107B0400F3E700BF1431002000007F4600007A44F0
:107B14000000FF470006F9000030C8072DE9F04FC8
:107B24002DED048B83B006460D464C7814B9CB7802
:107B3400002B5DD0EB78A4EB830307EE903AB64BB1
:107B4400D3ED006A9FEDB56A86EE267AF8EEE77A01
:107B540067EE877A96ED047AB8EE477AC7EE276A1D
:107B6400DFEDAF7AC6EEA77A17EE900A1FF0A8F9F8
:107B740041EC100B1FF00AFB51EC100B1FF08AF9BB
:107B840007460CB9EB78ABB3EB78A4EB83031B018A
:107B940007EE903AA04BD3ED006A9FEDA06A86EE03
:107BA400267AF8EEE77A67EE877A96ED047AB8EEED
:107BB400477AC7EE276ADFED9A7AC6EEA77A17EE00
:107BC400900A1FF07DF941EC100B1FF0DFFA51EC25
:107BD400100B1FF05FF980460F2F00D90F27B8F163
:107BE4001F0F0AD8B8F10F0F09D84FF0100806E09C
:107BF4000027C6E74FF00008EEE74FF01F08EB78C8
:107C0400A4EB830407FB04F3C3EB0323824A92ED42
:107C1400008A07EE903AF8EE677A87EE887ADFED0D
:107C2400808A67EE287A17EE900A1FF049F941EC32
:107C3400100B1FF0ABFA51EC100B1FF02BF981461F
:107C440008FB04F4C4EB0424230107EE903AF8EE95
:107C5400677A87EE887A67EE287A17EE900A1FF023
:107C64002FF941EC100B1FF091FA51EC100B1FF09F
:107C740011F901463369A3EB0902002AB8BF524245
:107C84001B1A002BB8BF5B429A4259DC2F71306932
:107C9400C6F810904946FFF703FE0190776907EE96
:107CA400907AB8EE679A95F801A095F803B0AAEB1C
:107CB4008B04DFED5A7AC7EE889A07EE904AF8EE05
:107CC400E77A67EEA97A89EE277ADFED558AC7EE5F
:107CD400287A17EE900A1FF0F3F841EC100B1FF00E
:107CE40055FA51EC100B1FF0D5F88146230107EE2D
:107CF400903AF8EEE77A67EEA97A89EE277AC7EE2A
:107D0400287A17EE900A1FF0DBF841EC100B1FF0F5
:107D14003DFA51EC100B1FF0BDF88046BAF1000F8C
:107D240002D1BBF1000F13D0B9F10F0F14D8B8F181
:107D34001F0F14D8B8F10F0F13D84FF0100810E02C
:107D440085F8048030693161FFF7AAFD0190A5E749
:107D54004FF00008C146EAE74FF00F09E7E74FF09C
:107D64001F0809FB04F3C3EB032307EE903AF8EE74
:107D7400677A87EE887ADFED2A8A67EE287A17EE2B
:107D8400900A1FF09DF841EC100B1FF0FFF951EC25
:107D9400100B1FF07FF8824608FB04F4C4EB0424A4
:107DA400230107EE903AF8EE677A87EE887A67EE59
:107DB400287A17EE900A1FF083F841EC100B1FF09D
:107DC400E5F951EC100B1FF065F80146A7EB0A0327
:107DD400002BB8BF5B423F1A002FB8BF7F42BB42A3
:107DE4000FDC85F805907069C6F814A05146FFF7BA
:107DF40057FD019B0344184603B0BDEC048BBDE85A
:107E0400F08F85F8058070697161FFF749FD019B6A
:107E140003441846F0E700BF1431002000007F43FC
:107E240000007A44074B1B7843B148B1064A1288D4
:107E340030EA020200D00023184670470123FBE712
:107E44000023F9E71A3100201831002098B3F8B55F
:107E540006461D4B1B7883B389B300231370FF20A0
:107E640050709370D370137153710B7953700B7BF3
:107E740002339B08D370072B01D90723D370144610
:107E84000D46D3789B000B7311462846FFF72CFD53
:107E940007463046FFF7C6FF38B900232B616B61F4
:107EA400237163716FB90020F8BD21462846FFF79E
:107EB40035FE0744F6E7022070470420F4E70E205D
:107EC400F2E70120F0E700BF1A31002007EE901A14
:107ED400F8EE677A044BC3ED007A044B1880044B28
:107EE40001221A70704700BF14310020183100209D
:107EF4001A31002008B5184B1B687BB1174B1B685F
:107F04009BB101201DF0D0FD60B9144B00221A6012
:107F1400114A1368013B136093B108BD002015F0AA
:107F2400A7F9EBE715F0A4F9EFE701201DF09AFD9E
:107F340018B90A4B01221A60EAE715F099F9F8E733
:107F440007481BF087FB01201DF0AEFD0028E4D09C
:107F540015F08EF9E1E700BF203100201C3100202C
:107F64002431002021B338B5132800D838BD4B0084
:107F7400013B104A13600025410CC4034FF47A728C
:107F8400002314F5FA7069411FF050F92A4601469E
:107F940009481BF041FB0028E8D101201DF062FDD7
:107FA40018B9064B01221A60E0E715F061F9F8E709
:107FB400704700BF20310020243100201C310020F4
:107FC40008B505481BF046FB01201DF06DFD00B906
:107FD40008BD15F04DF9FBE724310020024B186869
:107FE400003018BF012070471C31002008B5054A35
:107FF400012105481BF0FAFA00B908BD15F038F95B
:10800400FBE700BFF97E0200E47E040008B538B146
:1080140001201DF027FD00B908BD15F029F9FBE783
:1080240001201DF041FD0028F6D015F021F9F3E7F9
:1080340000B589B00023019303930593FF238DF8C2
:108044000C3001208DF804004FF4FA7302932823B6
:10805400049305238DF814304FF4C87306930793E3
:1080640001A91DF043FD10B909B05DF804FB15F03A
:10807400FFF8F9E72B4B1B78002B52D000B585B0E5
:10808400012804D0032845D005B05DF804FB002383
:10809400029302A9012014F067FB40BB02A814F06C
:1080A400B5FB38BB0123039303A90DF1060010F0BF
:1080B40001FA10BBBDF806000FF0E0FD0DF105015B
:1080C4000FF08AFFE0B90AF063FF9DF80510002065
:1080D4000BF02AFAB8B903F0F1FDC0B9114B002234
:1080E4001A70114B1B68002BCED09847CCE715F0C3
:1080F400BFF8D3E715F0BCF8D4E715F0B9F8D9E721
:1081040015F0B6F8DFE77846FFF7B8FBE3E715F0BC
:10811400AFF8E3E714F0F0FB0028B5D015F0A8F8A9
:10812400B2E77047463100204831002008B5064BBD
:1081340001221A70054803F02BFE03F00BFE00B970
:1081440008BD15F095F8FBE7463100202C2E0020E1
:1081540008B503781C2B00D008BD074B1B78002BF7
:10816400FAD014F00DFC18B9044803F015FEF3E737
:1081740015F07EF8F8E700BF463100202C2E0020D1
:1081840008B50849084815F019FD034608B1184612
:1081940008BD0323002205494969054815F02AFD55
:1081A4000346F4E764310020D03400204831002035
:1081B4009C33002008B50378023B082B3FD8DFE846
:1081C40003F01C0511423E2C3E3E3600204B5B68FA
:1081D400002B34D0007A002831D01E4A01211170BE
:1081E40098472CE01A4B9B684BB31A4A127832B367
:1081F400184A00211170984721E0174B1B784BB99E
:10820400134BDB681BB1134A002111709847FFF729
:10821400B7FF14E0FFF78AFF11E010220C4B9969B5
:108224000E4815F077FD50B115F022F807E081688B
:10823400C06809F015FC18B9074B01221A7008BD73
:1082440015F016F8F8E7024B1B69C0689847F6E783
:108254004831002044310020453100209C33002067
:1082640070B586B004461F4A03AB07CA03C323F89C
:10827400022B120C1A701C4E35460FCC0FC594E815
:10828400070085E80700B36953B3184B009303ABA9
:10829400174A1849184815F04DFC034610B1184602
:1082A40006B070BD154817F00DF90146124815F0D7
:1082B4006DFC03460028F2D1114817F0C5FA0346B5
:1082C4000028ECD10E4817F0F5FA01460A4815F0DB
:1082D4005DFC03460028E2D1FFF752FF0346DEE7C8
:1082E4000723DCE7E87E040048310020B98102005E
:1082F40064310020D03400209C33002084310020DD
:108304004C33002082684B6819688A4201D80020E7
:1083140070471A600120704730B442685378FF2BCD
:1083240006D0FF2B1DD0082B2ED0002030BC704768
:108334001478102CF5D8558840F2DA34A542F0D1DF
:1083440001230B7054688C6084680F344C60CA60DD
:108354004278043AD2B20A74406802444A61184628
:10836400E4E714781D2CDED1558840F2DA34A542B6
:10837400D9D100230B7053688B600832CA604368FC
:1083840018334B600120D1E7137AFF2B01D0002072
:10839400CCE7B2F8094040F2DA339C4201D0002025
:1083A400C4E700230B70D2F80B308B600F32CA6025
:1083B40083680F334B600120B8E7037C0D2B35D85D
:1083C40070B58EB00E4604464568062209682846F4
:1083D4001FF038F810B100200EB070BD0AA928684B
:1083E4000A90AB88ADF82C30E2685368CDF82E3093
:1083F4000023ADF832308DF83430B068019002912A
:108404000393ADF810300592227CADF81820079341
:108414006369089304238DF824300DF103010DEBF7
:10842400030004F050FF9DF80300D5E700207047D7
:1084340070B58EB008A9FFF76FFF38B19DF82030F2
:1084440033B1012B1FD07846FFF718FA0EB070BD78
:10845400374B1C684CB10622099954F80C0C1EF0D9
:10846400F1FF0028F2D02468F4E700238DF80830E7
:10847400099B03930A9B04930B9B05932D4B1B6849
:1084840002A89847E2E701238DF80830099B03937B
:10849400274B1C6822E0C5F340038DF81230C5F366
:1084A40080038DF81330C5F3C0038DF810302D0907
:1084B4008DF8115006F001068DF814600B9B0933FA
:1084C40006939DF83030093BDBB28DF81C30042B49
:1084D400BCD8184B1B6802A898472468002CB5D058
:1084E400A4F10C05294608A8FFF767FF0028F4D07B
:1084F400294608A8FFF706FF0028EED00B9B1E7A3A
:1085040006F01F050C4B1B6813F4804FC3D00B4BB4
:108514001B68032BBFDD0A4BD3F80435094A0092CC
:1085240040F22B120849042005F07AFFB3E700BF9C
:108534001435002010350020982E0020942E0020A1
:10854400001001406C7F0400627F040010B50446F3
:1085540028B104F10C01044805F0A0FE10BD7846D2
:10856400FFF78CF9F5E700BF1435002010B5044679
:1085740010B1034B1C6010BD7846FFF77FF9F8E794
:108584001035002008B5034A4821032014F07EFE6C
:1085940008BD00BFC47F040000B58BB008A909A8BA
:1085A40009F03CFBA8B9194B0593194B0693194BD9
:1085B400079304230493099BA3F580530293012397
:1085C400039302A9144806F09EFE38B90BB05DF877
:1085D40004FB124A702114F059FEE4E7104806F037
:1085E400E1FE104B1B6813F4804FEFD00E4B1B6859
:1085F400002BEBDD0D4BD3F804350D4A00927E229F
:108604000C49012005F00CFFE0E700BFCD86020015
:10861400898502003D86020018350020C47F0400CD
:10862400382E0020982E0020942E002000100140A7
:10863400987F0400328004000C4B1B6813F4804FB5
:1086440003D00B4B1B68032B00DC704700B583B0D1
:10865400084BD3F80435084A0092542207490420F1
:1086640005F0DEFE03B05DF804FB00BF982E002089
:10867400942E0020001001405C800400328004002D
:1086840010B582B004460B4B1B6813F4804F03D023
:10869400094B1B68032B02DCA04702B010BD074B3B
:1086A400D3F80435064A00924D220649042005F009
:1086B400B7FEF1E7982E0020942E00200010014010
:1086C400448004003280040010B582B01446154B77
:1086D4001B6813F4804F03D0134B1B68032B07DC78
:1086E400012C10D0022C12D0032C14D002B010BDD7
:1086F4000E4BD3F804350E4A009238220D4904205B
:1087040005F08EFEECE77846FFF7B8F8EAE778461E
:10871400FFF7B4F8E8E7084A4121042014F0B6FD55
:10872400E4E700BF982E0020942E002000100140A2
:108734007480040032800400C47F040070B582B0E9
:108744000C461546019201AB0A460146064806F05E
:1087540083FC064610B9304602B070BD2A4600219B
:1087640020461EF0D3FEF6E71835002070B582B01F
:108774000D4616460146134806F0ADFC0446124B5E
:108784001B6813F4804F03D0104B1B68032B0BDCC6
:10879400ACB132462946201D1EF08FFE204606F05D
:1087A400D3FC002002B070BD094BD3F80435094A4C
:1087B400009292220849042005F032FEE8E71120D5
:1087C400F0E700BF18350020982E0020942E0020DA
:1087D40000100140887F04003280040010B4034676
:1087E400044C006859689A68DB680FC45DF8044B50
:1087F400704700BF3C3500200B4B0C4A92E8030045
:1088040083E8030003F10802094903C982E803006D
:10881400DA79042161F30712DA711A7A022161F319
:1088240087121A72704700BF3C35002060000010A8
:10883400A4000010004870473C35002000231F2B83
:1088440009D8074901EBC30000224280426001F8C5
:1088540033200133F3E7034B00221A60704700BF53
:108864004C3500204C36002030B405460F4B1B68B5
:1088740000240AE01F230E4A12F83300A0B102EBD1
:10888400C3025288AA4207D001341F2C0BD85A1EA7
:10889400002BEFD01346EEE7054A02EBC302526801
:1088A4008A42F1D100E0002030BC70474C360020F1
:1088B4004C35002030B40A4A13680A4C04EBC30553
:1088C40068806960012104F833100B441360202B85
:1088D40001D030BC7047134600221A60F9E700BF8C
:1088E4004C3600204C350020C0F30C038B4204D2DC
:1088F400C91A0144A1F500507047C91A08447047C9
:10890400C37D002B42D0C3780A7802F0800203F0C2
:108914007F0313430B7002780B7803F07F0343EA61
:10892400C2130B700378002B41D030B48378082B2A
:1089340014BF002201224B7803F07F0343EAC213E1
:108944004B70C58803F08003C5F3861423434B7032
:108954008A7802F0030242EA8502D2B28A70057A6A
:1089640002F0FC02C5F3C10422438A70CB7803F001
:108974001F0343EA4513DBB2CB70427A03F0E003F2
:1089840002F01F021343CB7030BC7047C3780A78DF
:1089940002F0BF029B0103F0400313430B70027902
:1089A40003F0C00302F03F0213430B70B3E77047B8
:1089B4000023032B2DD810B402E00133032B24D859
:1089C400C3EBC3021401144A224492F84820012A3A
:1089D400F3D1114A2244948AC2899442EDD1C3EB63
:1089E400C30214010C4A2244D2888A42E5D10A4ABD
:1089F4002244B2F8582012B1848AA242DDD1C3EBDA
:108A0400C3031A010448104400E000205DF8044B3D
:108A140070470020704700BF04370020002300E0A7
:108A24000133032B14D8C3EBC3021101094A0A44CE
:108A340092F84820022AF3D1064A0A44918A828A8B
:108A44009142EDD1C3EBC3031A01024810447047AD
:108A5400002070470437002008B90420704708201C
:108A6400704730B403460C460978C1700021416256
:108A7400A1680B2903D8217B01B3012100E0012166
:108A840019700020987029B1A1680731C90801390B
:108A9400597218720121D97503F10C0504F1100102
:108AA40003C985E80300E1899982A1691962217FDC
:108AB4009975216AD9629A6230BC70470021DFE758
:108AC4000021174B1B688B4227D90023154A02EB60
:108AD400C10252689A421ED910B40FE060685DF872
:108AE400044B704701310E4B1B688B4211D9002394
:108AF4000C4A02EBC10252689A42F3D9094A52F86D
:108B0400312002EBC30412F833208242E6D0013351
:108B1400EEE70020E3E70131D3E70020704700BF10
:108B2400503600205436002070B58CB006460D46F1
:108B340014462C22002101A81EF0E8FC0F238DF816
:108B44000430ADF808604FF0000365F300038DF8BE
:108B54000A308DF80B4001A801F060FA0CB070BD2A
:108B640030B58DB005460C462C22002101A81EF01C
:108B7400CDFC10238DF8043002958DF80C4001A82B
:108B840001F04CFA0DB030BD00B58DB010B913F141
:108B9400020F06D1074B186804F054FA0DB05DF8C3
:108BA40004FB01228DF80420029301A801F036FA97
:108BB400F0E700BF64360020D0B50446037853B113
:108BC400E3691F0A1E06E188A069FFF78DFE3018CD
:108BD40047F10001D0BD7846FEF750FEF0E70000F3
:108BE400F8B50546002400E00134032C20D8C4EB7A
:108BF400C4031A010F4B134493F84830022BF3D1EA
:108C04000C4B13449A8AAB8A9A42EDD12846FFF75B
:108C1400D3FF06460F46C4EBC402130105481844AB
:108C2400FFF7CAFF8F4208BF8642DDD2012000E071
:108C34000020F8BD04370020F8B5064603783BB1A0
:108C44003046FFF7B9FF04460D46B08A002304E01E
:108C54007846FEF713FEF3E70133072B0ED81A010B
:108C640007498A5A8242F7D101EB0312D2E902671B
:108C7400AF4208BFA642EFD1104600E00020F8BD85
:108C84006836002038B504460D46037853B10023F6
:108C9400072B0ED8A18A1A011248825A914205D094
:108CA4000133F5E77846FEF7E9FDF0E71B01002103
:108CB400C1520D4A1368591C116003F00703A08ABE
:108CC4001A010849885255B16278064D05EB03151F
:108CD400AA702046FFF770FFC5E9020138BD0022E3
:108CE400F3E700BF68360020E8360020F8B5069C9C
:108CF400002962D00F4616685568D2F808E0D2F809
:108D04000CC0E6602561C4F814E0C4F818C0166904
:108D14005569E6612562002262700278D2092270E8
:108D240062B30421B9424AD8E57D4DB3017801F01C
:108D34007F01E1700021A1709AB14278920102F49E
:108D4400FE52817842EA9102E2808278D20002F0F7
:108D54001802C17842EA51122272C27802F01F024C
:108D640062721D46002363622B78032B21D82A7874
:108D7400144B53F82230E3620020F8BD0121D1E7FF
:108D84000578C5F38015E570057805F03F05257174
:108D940042B190F90110002902DB0421A170CBE754
:108DA4000821FBE70425A5702944B942C4D9092048
:108DB400E3E77846FEF762FDD9E70920DDE70920FD
:108DC400DBE700BF8C80040070B50C461E460378B8
:108DD400ABB104252A44A26000F10C032360836A2A
:108DE4006360C36AE36000232374204604F0A8FC94
:108DF400034610B9626915443560184670BD0125F3
:108E0400E8E72DE9F0418EB00D4616461C46804633
:108E140000282DD0002D2FD0002C31D0636A0233CE
:108E2400059304F10C00E378002B2DD00121A278E6
:108E340001AF3B46082A14BF0022012204F047FA7E
:108E44000697CDF81C80B2B2ADF820200B951544DE
:108E54000C95A3788DF83430237B022B16D0002395
:108E6400ADF8283005A804F02AFA0EB0BDE8F08168
:108E74007846FEF703FDCDE77846FEF7FFFCCBE727
:108E84007846FEF7FBFCC9E70221D0E723692BB142
:108E9400236909931023ADF82830E3E77846FEF7F9
:108EA400EDFCF5E72DE9F04188B004460D46C37D9D
:108EB400002B3CD0082605FB06F8637AAB4238D079
:108EC400257201AB324602A92046FFF77DFF074613
:108ED40048BB4DB994F8533033B9A369C3F30C03B9
:108EE400E380012384F85330E37D7BB994F8523056
:108EF40063B91DBBB4F84A10A27823468A1AE16EFE
:108F04000846FFF77EFF012384F852300799204674
:108F1400FFF7F6FCE16E3246414401981EF0CDFAAB
:108F240002A804F033FC384608B0BDE8F0810C26F2
:108F3400C1E7B4F84A60A6EB0806C1E77846FEF735
:108F44009DFCD7E770B505460E4609B100230B60BA
:108F540095F85040002104E0631C85F8503001343A
:108F6400E4B26B7AA34210D3EA6C0123A3401A4201
:108F7400F5D121462846FFF795FF014628B9002E72
:108F8400EAD0336801333360E6E7084670BDF0B5D4
:108F940089B085781544C37D7BB10B239D4224D8C9
:108FA40016460F46044601AB2A4602A9FFF70CFFFA
:108FB400054620B1284609B0F0BD0F23EEE7079916
:108FC4002046FFF79DFCE37D43B1324639460198C4
:108FD4001EF073FA02A804F0D9FBEBE723463246ED
:108FE40001993846FFF70DFFF4E70925E2E7000091
:108FF40010B5044690F84830012B0CD103F010FA58
:10900400237B012B0BD0094BD968014404F13000B8
:1090140003F0DCF910BD7846FEF730FCEEE7A37DE3
:10902400024AD168126902FB0311EEE7EC36002014
:1090340030B583B0002403E02846FFF7D9FF01349C
:10904400032C19D8C4EBC4031A010C4B134493F832
:109054004830012BF3D100230193C4EBC402130164
:10906400064D1D4401A92846FFF76CFF0428E3D0F0
:10907400019B002BE3D0DFE703B030BD04370020B1
:1090840038B5044690F84830022B09D1064B1D68C8
:1090940003F0C6F9411904F1300003F097F938BD23
:1090A4007846FEF7EBFBF1E7EC36002038B50446D2
:1090B40090F84830022B10D10A4B5D7D5A689B68AA
:1090C40003FB052503F0ACF9411904F1500003F04A
:1090D4007DF9012384F8683038BD7846FEF7CEFB6D
:1090E400EAE700BFEC36002010B50446808A02F09F
:1090F40081FC01281CD1237BE3B194F91620002ABA
:109104001ADBE27D4AB1022B18D094F90330002B0C
:1091140016DBA378B3B900200BE0E2780AB9012B7F
:1091240012D1237893B9A378042B11D1002000E045
:10913400102010BD1020FCE70720FAE71020F8E704
:109144000720F6E70720F4E70720F2E70020F0E71E
:109154000720EEE738B50446C2698169808A06F0C3
:1091640041FB054608B9284638BDE169002201F0F3
:109174000101A08AFFF7D8FCF5E700002DE9F047CC
:1091840080460E4617464B1EDBB2012B0FD8B7F5AF
:10919400C07F10D80024032C1AD8C4EBC4031A01CE
:1091A400304B134493F848304BB10134F3E778461D
:1091B400FEF764FBEBE77846FEF760FBEAE7DFF8CF
:1091C400A4A015465544384608F031FCE86600E092
:1091D40000255DB3EB6E002B42D043462A4608F1CE
:1091E400300ED3F800C05C689868D968C2F800C033
:1091F40054609060D160103310327345F1D1002374
:10920400EB64A5F84A70012E13D06FF00103AB6232
:10921400002385F86830144BAB652D66134BAB63A4
:109224002D64012002F0C6F885F848602846BDE8A0
:10923400F0870F4B1B7D85F85130002385F85230A1
:1092440085F8533085F85030D8F828206A65A5F899
:1092540058306FF00103AB62064BAB632D64E0E75B
:109264000025E3E704370020079C0200BD950200B7
:10927400EC3600200996020000B585B000238DF875
:109284000F3098B10346084602330B600DF10F010D
:1092940004F019F89DF80F3043B10D4B1B6813F01F
:1092A400040F03D00B4B1B68032B04DC9DF80F0049
:1092B40005B05DF804FB084BD3F80435074A009267
:1092C40040F237420649042005F0AAF8EEE700BF51
:1092D400982E0020942E0020001001409481040058
:1092E400868104002DE9F0438FB004460E461546EE
:1092F4001F46D0F81890037823B1C1884846FFF779
:10930400F3FAA06104F10C00E378002B37D00121BB
:10931400A2780DF128084346082A14BF002201222E
:1093240003F0D5FFC4F81890CDF808800396A3780D
:10933400EA1A92B2ADF810203244089207978DF8D9
:1093440024300023ADF81830E37863B3237B022B79
:1093540017D02546002345F8243F2A462179206A60
:109364000FF012FC606A90B101A9FFF785FF002895
:109374003ED12A462179206A0FF006FCF2E7022149
:10938400C6E71023ADF8183023690593E1E7237B82
:10939400022B31D104F10C01E0890FF0A7FC002865
:1093A400D4D1052025E0237B012B01D0052020E02A
:1093B400E389ADF80030A38AADF80230002500E05F
:1093C4000135012D12D82146002341F8243F0EAB6C
:1093D40003EB450333F8380C0FF0F3FB01A9606A83
:1093E400FFF74AFF0028EBD0002002E0052000E050
:1093F40000200FB0BDE8F0830520FAE770B5F0B0A7
:109404000D4614461E4610AB0A4601462046FFF799
:1094140069FF50B1224B1B6813F0040F03D0214B9A
:109424001B68052B2FDC70B070BD2046FFF792FE41
:109434000028F8D103AB01228DF80C20A28AADF8E4
:109444000E20002204928DF8142010AA0692A2780D
:10945400AD1AADF81C5008AA93E8030082E8030093
:109464000AAB04F10C0292E8030083E80300A37D35
:109474008DF83830236A0C93636A0D930F9605A810
:1094840000F0CCFDCFE7084BD3F80435074A00922F
:1094940040F20E720649062004F0C2FFC3E700BF83
:1094A400982E0020942E002000100140B881040062
:1094B4008681040010B50446C06E08F0BCFA04F1BD
:1094C400300002F06BFF94F84830022B0AD070226F
:1094D400002120461EF01AF8002084F8480001F00C
:1094E40069FF10BD04F1500002F058FFEFE710B51A
:1094F4008CB0044690F84830012B0CD101238DF830
:109504000430636D029301A800F088FD2046FFF744
:10951400D1FF0CB010BD7846FEF7B0F9EEE70000BD
:1095240030B585B00D460446D0B1E18894F8483092
:10953400022B19D094F84830022B1ED02946606DB6
:10954400FFF70EFB2046FFF7B5FF164B1B6813F021
:10955400040F03D0144B1B68032B13DC05B030BD80
:109564007846FEF78BF9E0E7637813F0020FE1D059
:109574000022A08A1BF098FBDCE700212046FFF7BD
:1095840081FBDBE7094BD3F8043594F848200295B6
:109594000192074A009240F22E220649042004F068
:1095A4003FFFDBE7982E0020942E0020001001409E
:1095B4009C8004008681040008B508460021FFF75A
:1095C400AFFF08BD08B5037B012B02D0FFF78FFF67
:1095D40008BD0121FFF7A4FFFAE7000008B590F8E1
:1095E400513053B1013B80F85130002380F85030A2
:1095F400034B186803F026FD08BDFFF7E3FFFBE704
:109604006436002010B50C4691F84830012B03D184
:109614002046FFF7E3FF10BD7846FEF72FF9F7E782
:10962400062976D1F0B585B015460278910101F48A
:10963400FE5147788478C3781B0443EA04630479B1
:1096440043EA042344791C4356B241EA970128466D
:10965400FFF7AEF90746E0B1002E2FDBC289A98AD5
:109664008A422BD02B4B1B6813F0040F3ED02A4B9D
:109674001B68012B3ADD294BD3F804350291019282
:10968400274A009240F28C622649022004F0C8FE68
:109694002CE0204B1B6813F0040F27D01E4B1B68D3
:1096A400012B23DD1D4BD3F804351F4A009240F2F1
:1096B40084621C49022004F0B3FE17E0002E17DB7D
:1096C400FD6C2543FD64BCB13B78D3B17B7A5A1C55
:1096D40001239340013B9D4217D0002187F850108D
:1096E4003846FFF72FFC3846FFF782FC05B0F0BD83
:1096F400AB8AA7F85830E3E703213846FFF710FF99
:10970400F4E77846FEF7BAF8E0E73846FFF7EFFEED
:10971400ECE77047982E0020942E002000100140A2
:109724000481040086810400D48004002DE9F04300
:109734008BB007460E4614461D461046FFF70AFD39
:1097440050B994F80380B8F1000F08D12B46224693
:1097540031463846FFF764FF0BB0BDE8F08340465E
:10976400FFF7AEF981460028F6D08DF80480236A0D
:109774000793A38AADF8123005AB04F10C0292E80A
:10978400030083E80300A37D8DF82030029703963D
:1097940023788DF81030E36A0993294601A8C84755
:1097A400DAE710B5547814F0010F03D0D47D14B166
:1097B400FFF7BCFF10BDFFF721FEFBE7F8B5054638
:1097C4000E4614461F46537813F0020F06D13B464B
:1097D4002246711E681CFFF7E4FFF8BD0123C9B2DD
:1097E4001BF0B2F9F3E70000F0B5C7B08678164471
:1097F400C37D2BB14FF48073B3427ED3002303E0C7
:109804004FF4C073F8E70133032B19D8C3EBC30437
:1098140025013C4C2C4494F84840012CF3D1394C9C
:109824002C44A58A848AA542EDD1C3EBC304250147
:10983400344C2C44E589C489A542E4D1082455E07C
:1098440014460F4632460121FFF798FC05460028CE
:1098540055D022463946C06E1DF02FFE0023459395
:1098640045A92846FFF76EFB044608B1042840D1F9
:10987400459B7BB9244B1B6813F0040F35D0234B55
:109884001B68032B31DDB5F84A70802F28BF802771
:10989400002313E02846FFF7ABFBEBE7EA6ED25C4C
:1098A4001B490C6810095900265C04A800F81360D1
:1098B40002F00F020131A25C42540133BB42EDD3EA
:1098C40004AA002302F8173003F1804303F5883318
:1098D400D3F8043502920F4A01920F4A009240F2E3
:1098E40071520E49042004F09BFD0024204647B029
:1098F400F0BD2846FFF7DEFDF8E70924F6E7042467
:10990400F4E700BF04370020982E0020942E002096
:109914009C2E002048810400287D040086810400D8
:1099240070B504460D461646FFF7DEFB034638B90C
:1099340023783BB1324629462046FFF755FF0346BC
:10994400184670BD324629462046FFF720FB0346E1
:10995400F6E7000038B504460D46CB695B78037121
:10996400CB691B7883F00103C370CB6943628B8A94
:109974000B2B07D8CB7A002B3DD10B7B012B02D0CC
:10998400002300E001232370002B39D0287B022818
:1099940033D0FFF761F8A070AB8A03440B331B4844
:1099A40080FB03235B10013B6372002323720023BB
:1099B400E37504F10C0395E8030083E80300AB6945
:1099C40023622B89A382AB7AA3752B6AA362DF235C
:1099D400E36228460FF004FB20B12B78012B12D050
:1099E400FF23E36220461BF037F918B1E36A43F022
:1099F4002003E36238BD0123C5E7054B987DC8E722
:109A04000423A370D3E72023EBE700BFABAAAA2A61
:109A1400EC36002010B54FF4E072002113481DF01D
:109A240075FD05F091FF0024114B1C608022214636
:109A340010481DF06BFD104B104A1A60104A5A6012
:109A44004CF250329A600F49D9601A6104221A7597
:109A54009C7508225A750C4803F0D4FA0B4B186015
:109A64000B4B1C600B4806F073F810BD0437002044
:109A7400E836002068360020EC36002080969800F6
:109A8400F049020020A10700F99B0200643600207F
:109A9400503600208D8B020008B505F09BFE08BDF2
:109AA40098B110B58CB00446036983B1C36983B11E
:109AB400836983B101466846FFF74CFFA28A216996
:109AC4006846FFF72DFF0CB010BD0E2070470E2026
:109AD400F9E70E20F7E70E20F5E790B110B58CB04A
:109AE400044642687AB182697AB10A4601466846F8
:109AF400FEF7B7FFA26861686846FFF711FF0CB074
:109B040010BD0E2070470E20F9E70E20F7E7000085
:109B1400037B012B01D00020704710B58CB00023CB
:109B24000193CDF80730C288C2F3861492008DF8F1
:109B340001200A0E8DF802200A0C8DF803200A0A6F
:109B44008DF804208DF805104278022A14BF0022F3
:109B5400012244EAC2148DF8004006220592012233
:109B64008DF81C20828AADF81E2008938DF80C30E5
:109B7400CDF810D0026A09928DF81830C389ADF877
:109B84001A30C36A0B93837D43B98DF828306FF084
:109B9400010103A8FFF7A1FF0CB010BD024B5B7DD0
:109BA4008DF82830F3E700BFEC36002090F84830F9
:109BB400022B00D0704790F86830022BFAD110B510
:109BC4000446C16CFFF7A4FF10B9002384F8683081
:109BD40010BD000010B5002407E0C4EBC40213015B
:109BE40003481844FFF7E2FF0134032CF5D910BDF4
:109BF4000437002008B5FFF71BFAFFF7EBFF01203D
:109C040008BD10B50C4691F84830022B06D102234A
:109C140084F868302046FFF7C9FF10BD7846FDF789
:109C24002DFEF4E72DE9F0438FB00646FEF7D8FF8A
:109C3400002840F08E803046FEF7FEFF07460028DD
:109C44003CD13046FEF7EAFE044658B13046FEF7F2
:109C5400B3FF804689462046FEF7AEFF494508BF5C
:109C6400404553D3002C75D1757A6B1CF27D002AC4
:109C740052D0082505FB03F5002A4FD04FF480731A
:109C8400AB424ED3F188B069FEF72EFEF26901466D
:109C9400B08A05F003FE00285CD12A460221304632
:109CA400FFF76CFA0446002854D100213046FFF730
:109CB4002FFF02210020FEF753FF4BE002AC354694
:109CC4000FCD0FC40FCD0FC495E80F0084E80F002B
:109CD400BB788DF809307BB19DF8083073B19DF8DD
:109CE40011104B1C01219940013902A8FFF710FF04
:109CF400BB7813F0010F05D100242BE07846FDF763
:109D0400BDFDECE73046FFF725FAF5E705212046CF
:109D1400FFF706FC0024A7E70C25ABE74FF4C0735C
:109D2400AEE70E4B1B6813F0040F03D00C4B1B68FB
:109D3400002B01DC00240DE00A4BD3F80435019517
:109D4400094A009240F292320849012004F068FB6B
:109D5400F0E7002420460FB0BDE8F083982E0020E1
:109D6400942E002000100140C0800400868104006D
:109D74002DE9F04782B007460E4615469846104630
:109D8400FFF750FF00284ED004464F4B1B6813F0DA
:109D9400040F03D04D4B1B68032B47DC2046FFF711
:109DA4006FF9237B012B4FD0E26C297A01238B407E
:109DB4001A4238D11343E364A6F1040A2B7AEA7DEC
:109DC400002A49D04FF0080C0CFB03FC617A8B424B
:109DD40045D0002A48D00823534547D1A269AB692E
:109DE4009A420BD204F10C0E05F10C09B9E80F00EC
:109DF400AEE80F0099E803008EE80300E06E5246D7
:109E0400391D60441DF059FB6B7813F0020F32D1F9
:109E1400E66C2378002B35D0637A5A1C01239340D7
:109E2400013B9E4232D002B0BDE8F087284BD3F804
:109E340004352A7A0192274A00924FF47172264916
:109E4400042004F0EDFAA9E794F86830002BABD1B4
:109E54002046FFF72BF9A7E74FF00C0CB4E70CEB07
:109E64000A03A4F84A30B9E70C23B5E704212046D5
:109E7400FFF756FBD7E701232A46F1B238461AF01A
:109E840063FEC5E77846FDF7F9FCC5E7E16C2046BB
:109E9400FFF73EFE6B7813F0020F0ED143462246C5
:109EA400B4F84A10E06EFFF77CFC01212046FEF76F
:109EB400E9FE2046FFF7FEFAB5E70122E988A88A01
:109EC4001AF0F2FEEAE700BF982E0020942E00203C
:109ED40000100140A8810400868104002DE9F041AE
:109EE40090B000284CD08046002A4BD01F46144620
:109EF4000E4604AB00933B46FEF7F8FE054618B148
:109F0400284610B0BDE8F08104A8FFF7EDF8054637
:109F14000028F5D12269E168208905F0BFFC0028FA
:109F2400EED104A81AF098FE28B19DF8113043F040
:109F340002038DF8113000230293039302A9608871
:109F44000EF0D4FE38B19DF8113043F001038DF8C2
:109F54001130039B08939DF81130002BD0D09DF84D
:109F6400103033B13B4604AA31464046FFF700FFA8
:109F7400C6E73B4604AA31464046FFF71FFCBFE74D
:109F84000E25BDE70E25BBE718B3F8B50546174BFC
:109F94001F68012F1FD80E460024B4420ED205EBD1
:109FA400C4035B68CBB115F8340010F0800F16D1F0
:109FB400B8B1FEF785FDB0B90134EEE70C4B43F8B8
:109FC400375003EBC7035E600137084A176000206F
:109FD40002E00E2070470420F8BD0E20FCE70B20A1
:109FE400FAE70F20F8E70F20F6E700BF503600200D
:109FF40054360020084B196861B110B504E00648D6
:10A0040004F077F9214624B10C680B79002BF9D0C0
:10A01400F5E710BD704700BFC838002038B50546C5
:10A0240030B1104B1C68ACB10F4B01221A7004E024
:10A034007846FDF723FCF4E724683CB12379002B30
:10A04400FAD154F8043C28469847F5E7064B1B78A8
:10A05400022B00D038BDFFF7CDFF034B00221A704E
:10A06400F8E700BFC8380020C438002010B5044603
:10A0740030B100232372211D034804F00FF910BDF1
:10A084007846FDF7FBFBF4E7C838002010B504461A
:10A0940058B10A4B1B78013BDBB2012B09D8074BA3
:10A0A40002221A700123237210BD7846FDF7E6FBE5
:10A0B400EFE7211D024804F01CF9F5E7C43800203D
:10A0C400C83800200A8883689B5A07339BB223F060
:10A0D400030313449BB20288043A934200D9002339
:10A0E4000B80704710B582B004468368C91AADF876
:10A0F40006100DF10601FFF7E5FFBDF80630A06874
:10A10400184402B010BD0088043880B270474388F8
:10A114008268D018D152012383707047826800236B
:10A124009370438083807047073189B221F0030123
:10A1340089B2428883889A4204D29B1A99421EDCCF
:10A144000020704710B59A420FD90488A41AA1427E
:10A1540017D98B4217D3032C03D9836813440422E1
:10A164009A7000234380184604E0826813449B7865
:10A174000BB1042010BDFFF7D1FF0020FAE7042043
:10A1840070470020F6E70420F4E738B504460D468E
:10A194008368828813448B4202D07846FDF76EFBB5
:10A1A4000023AB70211D2046FFF78CFFA288A36813
:10A1B40013449B78042B00D038BD0023A380FBE715
:10A1C40010B50C468368428813448B4202D078460B
:10A1D400FDF754FB0023A37010BD70B50646154669
:10A1E4000C46002944D0002E46D0B4F1005F08D9B3
:10A1F4004FF08053D3F80C3103F50023B4EB832FD5
:10A204000ED3B4F5000F08D94FF08053D3F80C31B6
:10A2140003F50053B4EB832F02D37846FDF72EFBEE
:10A224006B1E2344B3F1005F08D94FF08052D2F87B
:10A234000C2102F50022B3EB822F0ED3B3F5000FED
:10A2440008D94FF08052D2F80C2102F50052B3EB3A
:10A25400822F02D37846FDF711FB042D10D93580E7
:10A2640000237380B380B460043D2580A37070BD67
:10A274007846FDF703FBB6E77846FDF7FFFAB4E747
:10A284007846FDF7FBFAEAE738B50446A0B16288E0
:10A29400A36813449B78012B12D0EFF3108572B698
:10A2A400A388A16819448B78032B0DD02046FFF7AF
:10A2B40035FF05B962B638BD7846FDF7DFFAE6E743
:10A2C4007846FDF7DBFAE8E72046FFF70BFFA368C3
:10A2D400C31A638000238370EBE72DE9F0410E4637
:10A2E40015460446D0B1EEB16288A36813449B7846
:10A2F400012B1BD025B32046FFF705FFA84221D32D
:10A30400EFF3108872B629462046FFF70DFF074683
:10A3140080B1B8F1000F16D162B614E07846FDF7AB
:10A32400ADFAE0E77846FDF7A9FADDE77846FDF7F0
:10A33400A5FADFE729462046FFF7E9FE3060E8E7A3
:10A34400092700E009273846BDE8F081F8B50C4636
:10A3540016460546E0B1FCB1A378012B20D1238831
:10A36400B34221D326B3EFF3108772B626800223BB
:10A37400A370E9182846FFF7A5FE6B88AA889342C4
:10A3840003D0AA68134400229A7007B962B6F8BDD4
:10A394007846FDF773FADEE77846FDF76FFADBE7F8
:10A3A4007846FDF76BFADAE77846FDF767FAD9E7FE
:10A3B4007846FDF763FAD6E770B50D46044690B1CA
:10A3C400ADB1EFF3108672B6A288A36813449A78ED
:10A3D400042A10D09A78022A15D0032A18D005200E
:10A3E40006B962B670BD7846FDF748FAE8E77846E4
:10A3F400FDF744FAE5E7211D2046FFF763FEA28836
:10A40400A3681344E6E703229A702B600020E7E771
:10A414007846FDF733FA0020E2E738B5044680B108
:10A42400EFF3108572B6A088A16801448B78042BE1
:10A434000BD08878022814BF0020012005B962B629
:10A4440038BD7846FDF71AFAEAE72046FFF74AFED8
:10A454000146EEE738B5044678B1EFF3108572B6DD
:10A46400A088A16801448878C31EDBB2012B08D8F8
:10A474002046FFF737FE0146F5E77846FDF7FEF97B
:10A48400EBE7022814BF0020012005B962B638BDED
:10A4940070B50C46064678B194B1EFF3108572B6E8
:10A4A400A378012B10D0032B13D121463046FFF79C
:10A4B4006CFE05B962B670BD7846FDF7DFF9EBE7CF
:10A4C4007846FDF7DBF9E8E721463046FFF778FEEA
:10A4D400EFE77846FDF7D2F9EBE710B5EFF3108418
:10A4E40072B68388816819448B78042B06D08878E7
:10A4F400B0FA80F0400904B962B610BDFFF7F2FD6E
:10A504000146F4E708B5064B986800221A605A60C1
:10A514009A60DA601A615A619A6104F06BFF08BDAF
:10A52400CC38002000B585B00A4BDB6802228DF8D8
:10A53400002001934FF480530293074A6946012097
:10A5440001F06EF918B9012005B05DF804FB002094
:10A55400FAE700BFCC380020E838002000B585B009
:10A564000A4B1B6802228DF8002001934FF480539C
:10A574000293074A6946012001F052F918B90120F3
:10A5840005B05DF804FB0020FAE700BFEC380020BA
:10A59400E8380020164BDA68137951795B1A03F511
:10A5A4007F2303F6FF7302EB03339A4205D002F5CF
:10A5B40080520F4BDA600320704700B585B00D4B15
:10A5C4001B6801208DF8000001930B4B03930423B7
:10A5D40002930A4A694601F023F918B1002005B034
:10A5E4005DF804FB024B01221A760220F7E700BF54
:10A5F400CC380020EC380020F0380020E838002067
:10A6040000B585B00C4BDA680C4B1B680433012091
:10A614008DF800000192039340F6FC730293084AFC
:10A62400694601F0FDF818B90120034B187600E0E3
:10A63400002005B05DF804FBCC380020EC38002085
:10A64400E838002000B585B00A4B1B6801208DF85E
:10A6540000000193084B039304230293074A6946BD
:10A6640001F0DEF818B9012005B05DF804FB002004
:10A67400FAE700BFEC380020D8380020E838002082
:10A6840010B584B0104BDA681478104B1B6804338F
:10A6940001208DF800000193039202940C4A69464C
:10A6A40001F0BEF868B9094B1B6804F0FC041C44B3
:10A6B4000434054B5C61D9680A780A441A610120A4
:10A6C40000E0002004B010BDCC380020EC3800209D
:10A6D400E838002008B50023092B09D8064A52F8A7
:10A6E4002320824201D00133F6E7044A536002E09A
:10A6F4007846FDF7C3F808BDE4810400CC38002097
:10A7040010B5214BDB6853B11F4B1B7E5BB91E4B4D
:10A714005B68092B26D97846FDF7B0F822E0784625
:10A72400FDF7ACF8F0E77846FDF7A8F8EFE7164A2E
:10A73400536801335360092B21D97846FDF79EF8FD
:10A744001DE0114B00225A6019E00F4B1B7E1BB118
:10A754000D4B02221A7012E0FFF7D4FE0FE00A4BF1
:10A764001B7E83B9084B5A68084B53F8223098472C
:10A7740004460228E9D00328E3D00128D7D0012CCD
:10A78400EDD0032CEBD010BDCC380020E4810400C4
:10A79400104B1B681B685A1E12F1030F18D8C3F321
:10A7A4000B020AB10020704710B50B4AD360002396
:10A7B400137653760124147093600848FFF78AFFD8
:10A7C4000749204601F01AF8FFF79AFF204610BD0A
:10A7D40000207047EC380020CC38002029A5020066
:10A7E400E9A7020008B50B78032B06D00B4B1B78A6
:10A7F400012B06D0022B0BD008BD084B00221A7681
:10A80400F4E7064B1B7E002BF6D1FFF779FFF3E745
:10A814000B78032BF0D1FFF775FEEDE7CC38002061
:10A8240000B585B0174BDB6818784FF6FF7203F557
:10A834008051184405F042F9F0B10246114BD96831
:10A844000B780B44984219D00E4B5B7E93B10E4BA0
:10A8540001208DF8000001920393042302930B4A14
:10A86400694600F0DDFF58B90120064B187605B0A3
:10A874005DF804FB064BEBE70120F8E70120F6E75F
:10A884000020F4E7CC38002010840400E8380020CD
:10A894000C84040008B5104BDB681878002203F51B
:10A8A4008051184405F00AF908B1012008BD0A4B8B
:10A8B400DA68137951795B1A03F57F2303F6FF7382
:10A8C40002EB03339A4205D002F58052024BDA6060
:10A8D4000320EBE70220E9E7CC380020F0B585B08F
:10A8E400514BDD686A792B79591E8A4214D005F5DB
:10A8F40080510C780C444D490968081D0E790644B2
:10A904009B1A05EB03356388013B9BB247F6FE6255
:10A91400934260D927461BE00120434B58767EE0E2
:10A924007846FCF7ABFF16E027F47F6323F00F03B0
:10A9340003F580531A7813449D4247D99C4247D269
:10A944005A88013A92B21F4647F6FE618A4210D9EC
:10A954003B88002BE4D03B8807EB830323F47F621E
:10A9640022F00F029342DFD07A88B2F5FE4FE3D192
:10A97400DAE71C462FE07846FCF780FF16E027F460
:10A984007F6323F00F0303F580531A7813449D4229
:10A9940020D99C423BD25A88013A92B21F4647F6CC
:10A9A400FE618A4210D93B88002BE4D03B8807EB38
:10A9B400830323F47F6222F00F029342DFD07A886C
:10A9C400B2F5FE4FE3D1DAE71C4604E0002402E0CE
:10A9D400002400E00024E4B1144B1968628801F5F6
:10A9E4008051304605F06AF8064690B101200E4BBE
:10A9F40018768DF8000001940D4B03930423029301
:10AA04000C4A694600F00CFF58B92746CBE70024EE
:10AA1400E1E7B4FA84F46409034B5C76012005B0E1
:10AA2400F0BD0020FBE700BFCC380020EC3800204C
:10AA340008840400E83800202DE9F04186B0644B16
:10AA44001B6923B1624B5B692BB1002748E0784650
:10AA5400FCF714FFF6E77846FCF710FFF5E77846B5
:10AA6400FCF70CFF17E028F47F6323F00F0303F5D2
:10AA740080531A7813449E421FD99C4221D25A888B
:10AA8400013A92B2984647F6FE618A4213D9B8F861
:10AA94000030002BE3D0B8F8003008EB830323F434
:10AAA4007F6222F00F029342DDD0B8F80220B2F5A3
:10AAB400FE4FE0D1D7E71C4600E000241CB100940F
:10AAC40038E00024FAE700230093019B002B5AD1BD
:10AAD4000127002C76D0628847F6FF739A4271D022
:10AAE400002F73D13A4B5A6922F47F6525F00F0584
:10AAF400AD1A05F580551C69DE68337972799B1AA5
:10AB040006EB0336002301936388013B9BB247F6AF
:10AB1400FE629342D3D9A046B9E77846FCF7AEFE6D
:10AB240023E024F47F6424F00F0404F58054237894
:10AB340023441C46A642C8D92388019A02EB830207
:10AB44009542C2D9009B634023F47F6323F00F0333
:10AB5400002BBAD16388013B9BB247F6FE618B425E
:10AB6400B3D801922388002BD7D0238804EB830326
:10AB740023F47F6222F00F029342D2D06288B2F5AE
:10AB8400FE4FD6D1CDE7124A526901208DF8080054
:10AB94000392009A059204930E4A02A900F040FE23
:10ABA40070B90B49019B23F003024B6913444B61B9
:10ABB40014B1074B1C618CE77846FCF75FFEF8E79D
:10ABC400002000E0012006B0BDE8F0810120FAE792
:10ABD400CC380020E838002008B54FF010235B691A
:10ABE400B3F1FF3F09D04FF010235B692BB14FF055
:10ABF40010235B69A3F5805305E04FF0805251693F
:10AC0400136903FB01F3A3F58053024A1360FFF7B2
:10AC1400BFFD08BDEC38002010B50446B0B1104BA0
:10AC24001B78BBB10E4BD968E3685879A3EB0032AB
:10AC3400914211D31A79121A02F57F2202F6FF7299
:10AC440003EB0233994209D8012004E07846FCF76B
:10AC540015FEE4E7002010BD0020FCE70020FAE721
:10AC6400CC380020024B1878003018BF0120704700
:10AC7400CC38002010B504460E4B1B7893B92378CA
:10AC8400032B13D10B4B9C60E268DA6000225A60FC
:10AC94001A76012018705A76074900F0AFFDFFF7C5
:10ACA4002FFD10BD7846FCF7E9FDE8E77846FCF790
:10ACB400E5FDE7E7CC380020E9A70200014B18685E
:10ACC400704700BFEC38002010B5044680B16368BB
:10ACD4001BB123680BB1A36813B97846FCF7CEFD0A
:10ACE400A3685A1E134207D10023E360236110BDF9
:10ACF4007846FCF7C3FDEAE77846FCF7BFFDF3E7C7
:10AD040070B5F0B104468368EBB1EFF3108572B609
:10AD14000369C068834210D0084621686268A66847
:10AD2400013E334003FB021108B11CF0C6FB23694A
:10AD3400013323614DB962B608E005B962B6052551
:10AD440004E00E2502E0092500E00025284670BD38
:10AD5400C0F30B033BBB41B301F6FF71090B144B6A
:10AD64000222C3F80425124BD3F80034002BFAD086
:10AD7400002202E000F5805001328A4208D20C4BD6
:10AD8400C3F808050A4BD3F80034002BFAD0F1E7D6
:10AD9400074B0022C3F80425054BD3F80034002BDD
:10ADA400FAD000207047102070470920704700BF78
:10ADB40000E0014010F0030F2FD111F0030F2FD149
:10ADC40082B312F0030F2FD110B49208174B012451
:10ADD400C3F80445154BD3F80034002BFAD002E035
:10ADE400043004312246541E52B10B68B3F1FF3FC4
:10ADF400F6D003600D4BD3F80034002BFAD0EFE704
:10AE04000A4B0021C3F80415084BD3F80034002B77
:10AE1400FAD010465DF8044B704710221046704774
:10AE24001022FBE70922F9E70922F7E700E00140D5
:10AE34004388012B05D0022B01D104300860012086
:10AE4400704704304860FAE708B508220221084830
:10AE540004F041F938B1074A91684160127B0272EB
:10AE640004F072F908BD044804F09CFAFAE700BF44
:10AE7400FC38002048390020582E00200E4B1B7847
:10AE8400CBB910B50D4B5C6804F50054B4F1807F68
:10AE940000D910BD04220121094804F01CF930B185
:10AEA4004460054A0121117004F04EF9F1E70548A8
:10AEB40004F078FAEDE770475C3900204839002047
:10AEC400FC380020482E002010B5044608B1A047E5
:10AED40010BD7846FCF7D2FCF9E7000008B5012163
:10AEE4000C4804F059F920B902210A4804F054F935
:10AEF40028B1094804F056FAFFF7C0FF08BD074A15
:10AF04000023136053609360D3601361044A137089
:10AF1400F2E700BFFC380020782E002048390020DA
:10AF24002039002000B58DB00B4B1B7B012B0ED0BC
:10AF3400094A926804928DF80830039002238DF830
:10AF4400043001A8FFF76AF80DB05DF804FB024A6B
:10AF54009268013A0492EEE74839002010B58CB0AB
:10AF64000C4682B94B88012B20D1134B1B7833B18B
:10AF74006268124B5A60104B00221A7016E0784631
:10AF8400FCF77CFCF4E7032A12D12C22002101A84F
:10AF94001CF0BCFA11238DF804300394084BDA68D2
:10AFA40005921B69069301A8FFF738F80CB010BD91
:10AFB4007846FCF763FCE8E75C3900204839002058
:10AFC400FC38002000B583B001F0A4FF00210091FB
:10AFD40001916B46134A144803F072FF009B63B15E
:10AFE400019A52B11868114988601879087393421C
:10AFF4000BD950B900220A600AE00C4B00221A60F7
:10B004009A601A73FFF720FF02E01268074B1A6078
:10B01400064B1A685A60FFF731FF01F0BFFF03B017
:10B024005DF804FB35AE0200FC38002048390020EE
:10B0340008B504F00BFAA0F5805008BD00B587B040
:10B044000023009301930293039304930593FFF762
:10B05400EFFF009001230193064B039369460648D2
:10B0640004F051F910B907B05DF804FB034804F08B
:10B0740099F9F8E761AF0200FC380020682E00203F
:10B0840010B50B4B00241C605C609C60DC601C6190
:10B0940001F0C6F9074B5860074A9A60074ADA601C
:10B0A4001C615C61064B1C70FFF7C8FF10BD00BF3C
:10B0B4004839002024390020F5B1020000879303A9
:10B0C4005D39002008B5084B1B7803B108BD07485B
:10B0D400074B036000F05CFE064801F039F9024BAF
:10B0E40001221A70F2E700BFF83800203C39002032
:10B0F4001DB302002439002010B501F00BFF164BDC
:10B104001B7B0BBB144B9B7B1BBB134B1A8A41F25F
:10B1140082639A4204D8114B1B782BB1012300E0BF
:10B1240001231BB9082410E00023FAE70A4B01228B
:10B134001A7300241C829A6801329A60FFF784FE15
:10B144002046FFF7EFFE00E0082401F027FF204629
:10B1540010BD0824F9E700BF483900205D390020FC
:10B1640010B501F0D7FE204B5B7B9BB11E4B9B7B44
:10B17400F3B91D4B1A8A41F282639A4204D81B4BDD
:10B184001B782BB1012300E001239BB1012302E0D2
:10B194000023FAE700231C460BB3134B00225A7317
:10B1A4001B7B4BB1012B0ED07846FCF767FB16E0F6
:10B1B4000023F0E70023EEE7FFF79EFF78B178461F
:10B1C400FCF75CFB0BE0084B002018605860187318
:10B1D4001882FFF7A7FEFFF737FEFFF74FFE01F0D7
:10B1E400DDFE204610BD00BF483900205D39002037
:10B1F40008B5214B1B7B7BB1012B20D07846FCF793
:10B204003DFB1D4A138A013313821B4B5B8A13B126
:10B21400013B194A538208BD174B1A8A41F28263D3
:10B224009A4204D8154B1B783BB1012300E001235B
:10B23400002BE6D0FFF794FFE7E70023F8E70E4B77
:10B244001B8A41F28262934204D80C4A127872B18A
:10B25400012200E00122002AD3D042F2B01293422C
:10B2640007D9054B01225A73FFF77AFFCDE7002275
:10B27400F1E7FFF775FFC4E7483900205D39002086
:10B2840010B5244B1B7B002B35D10446214B5B8A24
:10B294002BBB1AB91F4B9B688B4205D3FAB11D4BCC
:10B2A4009B6801338B421AD21A4B9B682A338B4218
:10B2B40023D3184B9B7B03BB164B996000221A6067
:10B2C4005A601A8242F6065159825A731A73FFF76A
:10B2D400BBFDFFF7D3FD2046FFF724FE0DE062B16E
:10B2E4000C4B9B6801338B4207D10A4B01225A73E2
:10B2F400FFF736FF01E0012B00D010BD002AFCD17E
:10B30400044B9B688B42F8D1024B01225A73FFF71E
:10B3140027FFF2E7483900200378042B00D0704758
:10B3240043681B78002BFAD010B58468027E437EF4
:10B33400012A14BF00220122416904F11000FFF721
:10B344009FFF10BD10B5184B1A685B689A4226D24D
:10B354000446154B1B7B012B14D0144B9A4213D279
:10B36400114B1A685B68403B9A4215D2EFF3108187
:10B3740072B60D4A1368581C1060236001B962B696
:10B38400002010BD0A4BE9E7074B01225A73FFF76F
:10B39400E7FE0028EAD1E3E7FFF770FDE6E7FFF7F1
:10B3A4006DFD0F20EDE700BF48390020FFFF7F004F
:10B3B40000E0FF0008B538B10D4B01229A730D4A25
:10B3C40013680133136008BD0A4B1B685BB1094A5B
:10B3D4001368013B1360002BF5D1054B00229A73CF
:10B3E400FFF7BEFEEFE77846FCF748FAEFE700BF49
:10B3F40048390020F438002000B58DB0ADF80800BD
:10B404008DF81020039103238DF8043001A8FEF772
:10B4140005FE0DB05DF804FB014B9868704700BF52
:10B4240048390020054B1B7B012B02D0034B986845
:10B434007047024B98680138704700BF48390020B4
:10B44400044B9B68584010F0010F00D0013B184694
:10B45400704700BF48390020014B187B704700BF7C
:10B464004839002038B50B4B1B780BB1082038BD88
:10B47400084B01221A70084DA8602973FFF7E4FCF9
:10B484000020FFF74FFD00242C606C60FFF7F6FCF2
:10B494002046ECE720390020483900202DE9F0410E
:10B4A400002722E02449BC2303FB04F3CA5A0132D7
:10B4B400CA520221404602F034FD013602214046C0
:10B4C40002F0FFFC70B11C4ABC2303FB04239D68FB
:10B4D400002DE7D0BC2303FB04F3D25A01463846BF
:10B4E400A847DFE796B90137FFB2022F20D83C46C0
:10B4F400BC2303FB07F308330F4D1D4405F1040877
:10B504000221404602F0DDFC0026DBE70021404634
:10B5140002F06FFD0828E6D1074BBC2202FB04347D
:10B52400A368002BDFD00022044938469847DAE7A5
:10B534000120BDE8F08100BF683900200C820400BE
:10B5440008B5082383731023437300F11C0343617C
:10B554000323037300F1180303610C3002F01BFD95
:10B5640008BD000008B50378012B06D0022B07D0D4
:10B574007846FCF783F9002003E04FF4A97000E05B
:10B58400004808BD645E010008B50278012A07D0AE
:10B59400022A13D07846FCF771F94FF4FA7308E0E5
:10B5A40083685B1A98084FF4A97303FB00F303F54F
:10B5B400FA730748984228BF184608BD83685B1A87
:10B5C400180B044B03FB00F303F5FA73F1E700BF18
:10B5D40060850100645E010038B5044601210C3029
:10B5E40002F06FFC054678B1084BC4F89C30002388
:10B5F400C4F8A0306168FFF7C7FFC4F8A800C4F816
:10B60400AC40012384F8B830284638BD31B7020075
:10B6140010B50446FFF7E0FF20B104F19C000EF0E2
:10B6240055FA00B910BD7846FCF728F9FAE700008E
:10B63400F8B506460C46174615680378012B18D151
:10B644001249A1FB0431C9098900B468641B8C4206
:10B6540000D30C468CB1706825F00305F1682246CE
:10B6640029442844FFF7A6FB58B93B681C443C60B6
:10B67400F8BD7846FCF702F9E2E77846FCF7FEF8F5
:10B68400E9E77846FCF7FAF8EFE700BFEB5DF26014
:10B69400F8B507460C46164615680378022B16D1F2
:10B6A400114BA3FB04231B0C1B03BC68641B9C42AF
:10B6B40000D31C467CB1786825F003052146284454
:10B6C400FFF746FB58B933681C443460F8BD78462C
:10B6D400FCF7D4F8E4E77846FCF7D0F8EBE77846D3
:10B6E400FCF7CCF8EFE700BFB77609BB38B50546E1
:10B6F4000C4611462378012B06D0022B0FD0784636
:10B70400FCF7BCF8002304E0021D2046FFF790FF7D
:10B71400A3686868984214BF0020012038BD021D48
:10B724002046FFF7B5FFA368F3E700002DE9F843CF
:10B734008846D1F8A860234B1B7863B90546A6F563
:10B74400FA7601F10C090121484602F0BAFB0746DA
:10B7540040B1002424E00EF0F5F9002388F8B83055
:10B76400BDE8F8837846FCF789F8F2E70EF0EAF9C9
:10B774000121484602F0D5FB0023C8F8043088F8BC
:10B78400B830114B186801F05DFC4046FFF740FFEC
:10B79400E6E72C1A3846FFF7E5FE2044B0420BD802
:10B7A400321B39464046FFF7A1FF0028DED101F0E5
:10B7B40089FA441BEED5ECE70EF0C4F94046FFF7D6
:10B7C40027FFCDE7643900206039002010B5084810
:10B7D40001F018FC074B18600024022C07D8064B14
:10B7E400BC2000FB0430FFF7ABFE0134F5E710BDCD
:10B7F400A1B40200603900206839002038B504463D
:10B804000D46022805D8054BBC2202FB0434A56072
:10B8140038BD7846FCF732F8F5E700BF68390020F8
:10B824002DE9F84306460C461746022816D8CCB133
:10B834002378012B1AD0022B3ED16368C3F30B0388
:10B84400002B31D1A368C3F30B03002B30D1A368C1
:10B85400002B34D17846FCF711F830E07846FCF739
:10B864000DF8E4E77846FCF709F8E1E7636813F0BC
:10B87400030F0DD1E36813F0030F0DD1A36813F088
:10B88400030F0DD1A368D3B97846FBF7F7FF16E091
:10B894007846FBF7F3FFEDE77846FBF7EFFFEDE7BC
:10B8A4007846FBF7EBFFEDE77846FBF7E7FFC9E7E0
:10B8B4007846FBF7E3FFCAE77846FBF7DFFFEFF3D1
:10B8C400108872B6BC2505FB06F505F108032A4D60
:10B8D4001D4404350021284602F0F3FA814678B36A
:10B8E4000021284602F01DFB20686168A268E36815
:10B8F400C9F80000C9F80410C9F80820C9F80C30C8
:10B904002FB11D4ABC2303FB06235B883B801A4AE4
:10B91400BC2303FB06235A8801325A8093F8B830BB
:10B9240083B9164B1B7813B10024A1460CE0124BCB
:10B93400BC2000FB0630FFF74FFE8146002403E0E5
:10B94400042401E00024A146B8F1000F00D162B63E
:10B95400B9F1000F09D0BC2000FB06F69836064862
:10B96400304404300EF0B2F810B92046BDE8F88334
:10B974007846FBF783FFF8E7683900206439002034
:10B9840038B50446EFF3108572B610B9164B1B6830
:10B9940073B18CB1144A136801331360124B1B68E2
:10B9A400003318BF0123114A137005B962B638BDBC
:10B9B4007846FBF763FFECE70B4B1C68013C1C600B
:10B9C40034B1EBE7BC2000FB0420FFF721FE013477
:10B9D400022CE3D8064ABC2303FB042393F8B830B3
:10B9E400002BF4D1EEE700BF9C3B0020643900201B
:10B9F4006839002018B1830B024AD05C70470020DC
:10BA0400704700BF1C82040012DF704700B583B08A
:10BA14001378A3B1022B14D0002110F8013C163B7B
:10BA2400152B31D8DFE803F0593030303030303066
:10BA340030303030303030303030302E0F3A517DAD
:10BA4400EBE70721E9E7022901D007291CD110F807
:10BA5400021C013901F050FFB0B1264B1B6813F0F2
:10BA6400400F11D0244B1B68012B0DDD234BD3F861
:10BA740004350190224A009293222249022002F0C6
:10BA8400CFFC01E0022902D003B05DF804FB10F8FA
:10BA9400021C0139C9B213F037FDF5E70229F3D1CD
:10BAA40010F8021C0139C9B203F086FF0028EBD05C
:10BAB400104B1B6813F0400FE6D00F4B1B68012B93
:10BAC400E2DD0E4BD3F8043501900F4A0092A62212
