:020000022000DC
:106000000000012035620200656202006762020042
:10601000696202006B6202006D6202000000000013
:106020000000000000000000000000006F6202009D
:1060300071620200000000007362020075620200DB
:10604000796202007B6202007D620200B5020500F7
:10605000816202008362020079720200876202009C
:10606000896202008B6202000D7502008F620200DD
:106070009162020093620200956202009762020040
:106080009962020099F20400131203009F62020059
:10609000D9F20400A36202007D3A0400A762020064
:1060A000A9620200AB620200AD620200AF620200B0
:1060B000B1620200B36202007762020077620200FE
:1060C000B5620200B7620200B9620200BB62020060
:0C60D000BD620200BF620200C16202005B
:1060DC00354936480A1A02D0072291438D46344975
:1060EC0034480A1A06D00722914381F30988022208
:1060FC0082F3148830483149314A00F043F8314872
:10610C003149324A00F03EF831483249324A00F007
:10611C0039F832483249334A00F034F832483349BE
:10612C00334A00F02FF833483349344A00F02AF848
:10613C0033483449344A00F025F8344834490022B5
:10614C0000F02BF833483449002200F026F833488D
:10615C003349091A082903DB00220260043001606C
:10616C001F482049884205D00268043003B4904788
:10617C0003BCF7E700208646EC4600200021294AA4
:10618C009047FEE7884207D0521A05D003780130B9
:10619C000B700131013AF9D17047884202D002707C
:1061AC000130FAE7704700000000012000F80020E1
:1061BC000000012000000120882A0500C8320020C0
:1061CC0030340020C4620200C46202009C1305003B
:1061DC00882A0500C8320020C8320020C4130500EC
:1061EC00C4130500C4130500C4130500C413050033
:1061FC00C4130500C4130500C4130500862A05004A
:10620C00F02B0500303400203034002030340020D6
:10621C00E06B0020E06B0020E06B0020E06B0020C6
:10622C00E06F00203574020008484FF007018843E6
:10623C008546074880470748016841F470010160B2
:10624C00BFF34F8FBFF36F8FFFF742BF00000120EA
:10625C00D13D040088ED00E0FEE7FEE7FEE7FEE737
:10626C00FEE7FEE7FEE7FEE7FEE7FEE7FEE7FEE7FA
:10627C00FEE7FEE7FEE7FEE7FEE7FEE7FEE7FEE7EA
:10628C00FEE7FEE7FEE7FEE7FEE7FEE7FEE7FEE7DA
:10629C00FEE7FEE7FEE7FEE7FEE7FEE7FEE7FEE7CA
:1062AC00FEE7FEE7FEE7FEE7FEE7FEE7FEE7FEE7BA
:0862BC00FEE7FEE7FEE700BF6C
:1062C40080B483B000AF0346FB71094997F90730E6
:1062D4005B09FA7902F01F02012000FA02F241F888
:1062E400232000BF0C37BD465DF8047B704700BF18
:1062F40000E100E080B483B000AF03463960FB7175
:1063040097F90730002B0BDA0D49FB7903F00F03E3
:10631400043B3A68D2B25201D2B20B441A7609E075
:10632400084997F907303A68D2B25201D2B20B4405
:1063340083F8002300BF0C37BD465DF8047B70472B
:1063440000ED00E000E100E080B400AFBFF34F8F48
:106354000549054BDB6803F4E062044B1343CB604F
:10636400BFF34F8F00BFFDE700ED00E00400FA0526
:1063740041DF704700BF184680B483B000AFEFF32D
:1063840010833B603B687B6072B67B6818460C37B1
:10639400BD465DF8047B704780B400AF62B600BFB1
:1063A400BD465DF8047B704780B584B000AF78606B
:1063B400FFF7E2FFF860164B9B68002B1BD1144BD0
:1063C40001229A60134BD3F88020134B1340104AD8
:1063D4001360104B104AC3F880200E4BD3F884305E
:1063E4000B4A53600B4B4FF0FF32C3F884207B6899
:1063F40000221A7002E07B6801221A70FB68002BED
:1064040001D1FFF7C9FF002318461037BD4680BDF0
:10641400F469002000E100E0FC06FFBD80B584B013
:1064240000AF0346FB710F4B9B68002B15D0FB7923
:10643400002B12D1FFF7A0FFF8600B4A094B1B6831
:106444001360094A074B5B685360064B00229A604D
:10645400FB68002B01D1FFF79FFF0023184610377C
:10646400BD4680BDF469002000E100E080B584B041
:1064740000AF78607B68002B0AD0074B43F0010320
:10648400FB607B689B01BB60FB68B868984700E0D1
:1064940000BF1037BD4680BDF015050080B483B041
:1064A40000AF78604FF0A04318460C37BD465DF846
:1064B400047B704780B584B000AF7860084611460D
:1064C4001A460346FB700B46BB7013467B703B1D9C
:1064D4001846FFF7E3FFF8607A68F978BB785B0049
:1064E40019437B789B0019433B7E1B0219433B7F76
:1064F4001B041943FB6802F5E07243F8221000BF45
:106504001037BD4680BD80B584B002AF78600023EB
:106514000193002300930023012201217868FFF7EF
:10652400C9FF00BF0837BD4680BD80B584B002AF47
:1065340078600B46FB70FA780023019300230093E4
:106544001346002200217868FFF7B4FF00BF083724
:10655400BD4680BD80B584B000AF78603B1D184651
:10656400FFF79CFFF8607B68012202FA03F31946E7
:10657400F86800F027F800BF1037BD4680BD80B52D
:1065840084B000AF78603B1D1846FFF787FFF860C2
:10659400F86800F00AF802467B6822FA03F303F075
:1065A400010318461037BD4680BD80B483B000AFE8
:1065B40078607B68D3F8103518460C37BD465DF813
:1065C400047B704780B483B000AF786039607B6827
:1065D4003A68C3F80C2500BF0C37BD465DF8047B50
:1065E4007047000080B400AF034BD3F8043518465D
:1065F400BD465DF8047B704700B000407ADF704709
:1066040000BF18467CDF704700BF184680B586B0CF
:1066140000AF786007F10F031846FFF7C5FE7861F5
:106624007B69002B04D00C4A612178691DF056FF68
:106634007B689847FB7B1846FFF7F0FE38613B699F
:10664400002B04D0044A632138691DF047FF00BFC2
:106654001837BD4680BD00BFC413050080B483B0A5
:1066640000AF786039607A683B68D31A002B03DA8C
:106674003A687B68D31A02E07A683B68D31A1846F2
:106684000C37BD465DF8047B704780B582B000AF1F
:1066940078607B68002B0AD04FF47A70FFF7E6FE2F
:1066A4007B68013B7B607B68002BF5D100E000BF79
:1066B4000837BD4680BD80B582B000AF78603960D0
:1066C400786808F09CFF00BF0837BD4680BD80B5E0
:1066D40000AF012026F03AFC6420FFF7D6FF01202A
:1066E40026F066FC00BF184680BD000090B58DB052
:1066F40002AF3B4B1B6803F48043002B14D0394B8F
:106704001B68032B10DD384B002B01D0374C00E005
:10671400374CFFF767FF0246364B00931346772248
:10672400214604200CF06AFB07F12003184616F0FA
:106734003BFF2B4B1B6803F48043002B16D0294BE3
:106744001B68032B12DD284B002B01D0274C00E0E3
:10675400274CFFF747FF02463B8C0193264B0093DF
:1067640013467922214604200CF048FB3B1D0022ED
:106774001A605A609A60DA601A615A619A61232336
:10678400BB60FF233B734FF4FA63BB614FF4FA73AE
:10679400FB6102233B714FF4FA73BB6080233B73AC
:1067A40028233B6105233B754FF4C873BB614FF449
:1067B400C873FB613B1D1946012026F02BFC78624F
:1067C4007B6A002B04D00A4A8221786A1DF086FE77
:1067D4004FF49670FFF759FF00BF2C37BD4690BDAC
:1067E400A8330020AC3300205714050058140500CA
:1067F400EC130500601405007C14050080B588B016
:1068040000AF3B4600221A605A609A60DA601A614F
:106814005A619A6123237B60FF233B724FF4FA632E
:106824007B614FF4FA73BB6101233B704FF4FA733D
:106834007B60FF233B722823FB6005233B744FF4EA
:10684400C8737B614FF4C873BB613B461946012092
:1068540026F0E0FBF861FB69002B04D0044A922186
:10686400F8691DF03BFE00BF2037BD4680BD00BF68
:10687400EC13050080B500AF012026F099FB00BFA2
:1068840080BD000090B587B002AF7860012026F08B
:106894008FFB1C4B1B6803F48043002B18D01A4B4E
:1068A4001B68032B14DD194B002B01D0184C00E09E
:1068B400184CFFF797FE02467B680F331B78019351
:1068C400154B00931346A022214604200CF096FA9F
:1068D4007B680F331B785AB2104B1A70104B00228E
:1068E40045F69A11184628F065FDF860FB68BB6010
:1068F400BB68002B02D0B8681DF08EFD00BF1437B2
:10690400BD4690BDA8330020AC33002057140500C9
:1069140058140500EC130500941405008C34002071
:106924009034002080B483B000AF7860034B1B78B0
:1069340018460C37BD465DF8047B7047CD34002003
:1069440090B585B002AF78600B46FB70184B1B689E
:1069540003F48043002B16D0164B1B68032B12DD67
:10696400154B002B01D0154C00E0154CFFF73AFEF7
:106974000246FB780193134B00931346AF22214642
:1069840004200CF03BFAFB78002B06D0012026F003
:10699400DDFA0D4B01221A7005E0012026F008FBF8
:1069A400094B00221A70FB7818460C37BD4690BD7F
:1069B400A8330020AC3300205714050058140500F8
:1069C400EC130500A4140500CD34002090B583B069
:1069D40002AF104B1B6803F48043002B14D00E4B02
:1069E4001B68032B10DD0D4B002B01D00C4C00E079
:1069F4000C4CFFF7F7FD02460B4B00931346C022E5
:106A0400214604200CF0FAF90FF03CFF00BF0437D4
:106A1400BD4690BDA8330020AC33002057140500B8
:106A240058140500EC130500BC14050080B582B0B1
:106A340000AF78607B681B781C2B01D1FFF7C6FF81
:106A44007B681B780A2B01D1FFF741FE7B681B781A
:106A5400022B01D1FFF73BFE00BF0837BD4680BDC6
:106A640080B582B000AF0C4B1B88BA1D1146184686
:106A740013F0BCFA0346002B06D1FB884FF6FF72D5
:106A8400934203D1002302E0002300E001231846CF
:106A94000837BD4680BD00BFBC34002090B587B028
:106AA40002AF7860304B1B6803F48043002B16D090
:106AB4002E4B1B68032B12DD2D4B002B01D02D4CCC
:106AC40000E02D4CFFF78EFD02467B6801932B4BB3
:106AD40000931346EA22214604200CF08FF9FFF7B5
:106AE400BFFF0346002B1CD00023FB607B68012BF7
:106AF40034D8234B1B78002B14BF01230023DBB2B3
:106B040083F00103DBB203F00103DAB21C4B1A7009
:106B14001B4B1B78052219461A4825F093F9F86097
:106B24001DE0114B1B6803F48043002B17D00F4B5F
:106B34001B68032B13DD0E4B002B01D00D4C00E022
:106B44000D4CFFF74FFD02460F4B009313464FF4D5
:106B54008272214604200CF051F900E000BF00BF0E
:106B64001437BD4690BD00BFA8330020AC330020CD
:106B74005714050058140500EC130500D81405003B
:106B8400CE340020BC340020EC14050080B584B061
:106B940000AF78607B682F2B08DD7B68342B05DC25
:106BA4007B68303BFB60F868FFF778FF00BF103765
:106BB400BD4680BD90B585B002AF78600B46FB70D2
:106BC40013463B80274B1B6803F48043002B15D0EE
:106BD400254B1B68002B11DD244B002B01D0244CCA
:106BE40000E0244CFFF7FEFC0246234B00931346BF
:106BF4004FF48A72214601200CF000F9FB78012B36
:106C040007D0022B26D0002B07D11C4B01221A706F
:106C140023E01A4B00221A701FE0124B1B6803F486
:106C24008043002B18D0104B1B68002B14DD0F4B36
:106C3400002B01D00E4C00E00E4CFFF7D3FC0246B3
:106C44000F4B0093134640F22712214601200CF00B
:106C5400D5F801E000BF00E000BF00BF0C37BD461F
:106C640090BD00BFA8330020AC33002057140500AA
:106C740058140500EC13050010150500CE3400204F
:106C84002C15050090B585B002AF03463960FB8032
:106C94000F4B1B6803F48043002B15D00D4B1B686E
:106CA400002B11DD0C4B002B01D00C4C00E00C4CE4
:106CB400FFF798FC02460B4B0093134640F22D124B
:106CC400214601200CF09AF800BF0C37BD4690BD58
:106CD400A8330020AC3300205714050058140500D5
:106CE400EC1305004015050090B587B002AF334B97
:106CF4001B6803F48043002B15D0314B1B68032B16
:106D040011DD304B002B01D02F4C00E02F4CFFF74E
:106D140069FC02462E4B009313464FF499722146A8
:106D240004200CF06BF82B4B2B4A5A60294B2B4A4E
:106D34009A600021274825F0C7F9F860FB68002B0A
:106D440005D0224A40F23511F8681DF0C7FB214BEB
:106D54001B88184613F0D6FAB860BB68002B05D020
:106D64001A4A4FF49B71B8681DF0B8FB1C4B1D4ABE
:106D74005A601B4B1C4A9A600121194825F032F8CD
:106D840078607B68002B05D0104A4FF49D717868B9
:106D94001DF0A4FB124B1B88184613F0B3FA38609D
:106DA4003B68002B05D0094A40F23B1138681DF0BE
:106DB40095FB00BF1437BD4690BD00BFA83300202B
:106DC400AC3300205714050058140500EC130500DB
:106DD4005C150500B03400202969020045690200F1
:106DE400BC340020B96B0200896C020080B590B0FD
:106DF40000AF1D4B1B687B6207F1240107F12803D8
:106E04000422184600F00AFCF863FB6B002B05D043
:106E1400164A4FF4A271F86B1DF060FB3B46242226
:106E2400002118462AF054FA01233B700723FB7013
:106E340007233B7207F12803FB600D4B3B610D4BAD
:106E44003B623B460C4918460FF022FCB863BB6B0F
:106E5400002B05D0054A40F24D11B86B1DF03EFBE6
:106E640000BF4037BD4680BD7C150500EC1305000E
:106E7400316A0200ED6C0200CC34002080B586B08B
:106E840000AF3B78012262F303033B703B7801229D
:106E940062F307133B703B46062217491846FFF777
:106EA400B1FB78617B693B613B69002B02D0386997
:106EB4001DF0B2FA3B1D0822002118462AF008FAF8
:106EC400C823BB804FF44873FB8000233B814FF4FD
:106ED400C8737B813B1D1846FFF790FB78617B6983
:106EE400FB60FB68002B02D0F8681DF095FA00BF28
:106EF4001837BD4680BD00BF8015050090B589B028
:106F040002AF294A07214FF4C0400BF05BFF274B27
:106F14001B6803F48043002B15D0254B1B68032BFF
:106F240011DD244B002B01D0234C00E0234CFFF750
:106F340059FB0246224B0093134640F26B12214642
:106F440004200BF05BFF1CF0DBFC78617B693B6188
:106F54003B69002B02D038691DF05EFA00237B6088
:106F64003B1D194601201CF009FE78617B69FB601A
:106F7400FB68002B02D0F8681DF04EFA3B1D184642
:106F84001CF08AFE78617B69BB60BB68002B02D071
:106F9400B8681DF041FAFFF771FFFFF727FF00BF44
:106FA4001C37BD4690BD00BF8D2D0300A8330020C3
:106FB400AC3300205714050058140500EC130500E9
:106FC400881505002DE9F0439BB004AF6421824885
:106FD40000F0BEFA0FF0C0FB38653B6D002B05D006
:106FE4007E4A4FF4C271386D1DF078FA7C4B1B78E1
:106FF40083F00103DBB2002B55D007F11C03002200
:107004001A605A609A60DA601A615A61754BFB61C2
:10701400754B3B62754B7B62754BBB62754B3B6337
:1070240007F11C03184600F067FCF864FB6C002BA6
:1070340005D06A4A40F29111F86C1DF04FFA3B46B4
:1070440000221A605A609A60DA601A615A619A6181
:1070540023237B60FF233B724FF4FA637B614FF47D
:10706400FA73BB6101233B704FF4FA737B60FF2317
:107074003B722823FB6005233B744FF4C8737B6188
:107084004FF4C873BB613B461946012025F0C2FF8B
:10709400B864BB6C002B23D0504A4FF4CE71B86C4B
:1070A4001DF01CFA1CE003210B20FFF73EFA0B2015
:1070B400FFF765FA0346002B09D102F0B9FD0FF082
:1070C400B7FB4FF4FA70FFF7E0FAFFF77FFC0120FB
:1070D40025F03CFF6420FFF7D8FA012025F068FF73
:1070E40003F024F97864444B1B6803F48043002BB9
:1070F4006CD0424B1B68032B68DD6B461E46102385
:107104003B643B6C5B00591C0B46013BFB630A462A
:107114004FF000034FEAC30949EA52794FEAC20823
:107124000A464FF00003DD0045EA5275D400CB1D3A
:10713400DB08DB00ADEB030D04AB0033BB630023C2
:107144007B6523E07A6C7B6D13441B7887F83730BA
:107154007B6D5B002A4A116897F837201209D2B276
:1071640002F00F020A441178BA6BD1547B6D5B00B4
:107174000133234A116897F8372002F00F020A44BA
:107184001178BA6BD1547B6D01337B657A6D3B6C9E
:107194009A42D7D33B6C5B00BA6B0021D154194B94
:1071A400002B01D0184C00E00C4CFFF71BFA0246F0
:1071B400BB6B0293154B0193154B0093134640F29E
:1071C400B112214604200BF019FEB54600BF5C370E
:1071D400BD46BDE8F08300BF916B0200EC130500CF
:1071E400CC340020F16602000168020079680200D4
:1071F40089680200F8150500A8330020AC3300208C
:10720400A43300205714050058140500C0150500C8
:10721400D015050080B584B000AFF860B9607A601D
:10722400FFF792F87A68B968F8681DF00BF900BFA7
:107234001037BD4680BD000080B500AF4FF0A043BD
:107244000A4AC3F82C270A4B4FF00042C3F8042320
:10725400074B0022C3F87C2107210620FFF74AF8D8
:107264000620FFF72DF80023184680BD0C0003000C
:107274000060004080B500AF0D4B0022C3F87C21B4
:107284000C4B1A680C4BD3F8043519461046FFF71B
:10729400E5F9024643F233339A4207D9064BD3F851
:1072A4000435044A13600020FFF7F8FB00BF80BDDB
:1072B400006000408834002000B0004080B586B0F3
:1072C40000AF224B3E221A70204B214A5A601F4BBA
:1072D400204A9A60204B3B6002233B7104237B715C
:1072E4001A4BBB6010233B733B460021184625F024
:1072F400C1FE78617B693B613B69002B02D0386930
:107304001DF08AF8002025F053FE012025F050FEE0
:107314001220FFF7F8F81320FFF7F5F81420FFF711
:10732400F2F81520FFF7EFF81220FFF713F91320F6
:10733400FFF710F91420FFF70DF91520FFF70AF9EC
:10734400002318461837BD4680BD00BFD034002046
:10735400DC150500081605001816050080B584B074
:1073640000AF094B7B603B1D184629F00FFAF8600B
:10737400FB68BB60BB68002B02D0B8681DF04CF8FA
:1073840000BF1037BD4680BD2816050080B584B007
:1073940000AF7860012025F0D9FD6420FFF775F96E
:1073A400012025F005FE0E4B93F90030DBB2013BC2
:1073B400DBB25AB20A4B1A70094B93F90030002B16
:1073C4000ADC084B184628F029F8F860FB68002B03
:1073D40002D0F8681DF020F800BF1037BD4680BD0C
:1073E4008C3400209034002080B584B000AF27F0A6
:1073F40077FFF860FB68BB60BB68002B02D0B868FD
:107404001DF00AF8084A0121084827F09FFFF86098
:10741400FB687B607B68002B02D078681CF0FCFF63
:1074240000BF1037BD4680BD91730200D81505001A
:1074340080B584B000AF0023FB60FB68BB60BB6811
:10744400002B02D0B8681CF0E7FFFFF7CDFFFFF771
:1074540085FFFFF733FFF860FB687B607B68002BD8
:1074640002D078681CF0D8FFFFF748FD0348FFF707
:10747400CDF8FFF7E1FEFEF77BFFFCE7C96F0200E2
:1074840080B483B000AF0346FB71094997F9073014
:107494005B09FA7902F01F02012000FA02F241F8B6
:1074A400232000BF0C37BD465DF8047B704700BF46
:1074B40000E100E080B483B000AF03463960FB71A3
:1074C40097F90730002B0BDA0D49FB7903F00F0312
:1074D400043B3A68D2B25201D2B20B441A7609E0A4
:1074E400084997F907303A68D2B25201D2B20B4434
:1074F40083F8002300BF0C37BD465DF8047B70475A
:1075040000ED00E000E100E080B582B000AF0E4B7A
:10751400D3F84031002B13D00C4B1B68002B0BD03D
:1075240019F014FA78607B68002B04DB074B1B68A6
:1075340078689847F4E700BF034B0022C3F8402162
:1075440000BF0837BD4680BD00A00040DC340020E9
:107554002DE9F04F85B000AFF860B9602D49FA68A5
:107564000A602D4A0021C2F804152B4A0021C2F8F2
:107574000815294A0921C2F81015274A7A60BA6801
:1075840092464FF0000B51465A464FEA421949EAD7
:10759400D1694FEA411841464A46B1EB0A0162EB10
:1075A4000B02940144EA91648B015B1A64EB0204BC
:1075B400E60046EA5376DD002B46344613EB0A0315
:1075C40044EB0B04DB1844EB0404184621464FF447
:1075D4007A724FF0000329F0FDFC03460C467A68EA
:1075E400C2F840350C4B0122C3F800220A4B4FF479
:1075F4008032C3F80423084B01221A6007210A20B1
:10760400FFF758FF0A20FFF73BFF00BF1437BD46C2
:10761400BDE8F08FDC34002000A0004080B584B0C9
:1076240000AFF860B9601346FB71FB79082B01D9F0
:10763400092317E0FB791A46B968F86829F01EFE99
:10764400FB79FA68D018FB79C3F108031A460021C4
:1076540029F03EFEFB68083308220449184629F045
:107664000DFE002318461037BD4680BD6000001093
:1076740080B400AF06231846BD465DF8047B70470E
:1076840080B584B000AF786000233B81064BFB607B
:1076940007F108031A46796844F20200FFF7BAFDBD
:1076A40000BF1037BD4680BD4416050080B58EB0BE
:1076B40000AF03463960FB713C4B1B7883F0010338
:1076C400DBB2002B6BD1FB79012B02D0032B5AD0F8
:1076D40068E000237B6107F11403194601201CF0C4
:1076E4004DFA78637B6B3B633B6B002B02D0386BAA
:1076F4001CF092FE07F1140318461CF0CDFA7863CF
:107704007B6BFB62FB6A002B02D0F86A1CF084FEE0
:107714000123FB6007F10C0207F11203114618461E
:1077240016F09EFDB862BB6A002B02D0B86A1CF04A
:1077340073FE7B8A184616F0A5F903461A4607F12C
:107744000B031946104616F009FB78627B6A002B7E
:1077540002D0786A1CF060FE02F016F9FB7A194632
:10776400002002F001FA07F0B3FE78637B6B3B6202
:107774003B6A002B02D0386A1CF04EFE0B4B0022F1
:107784001A7000BF0EE01CF0BBF8F861FB69BB6126
:10779400BB69002B05D0B8691CF03EFE01E000BFB8
:1077A40000E000BF3837BD4680BD00BFE034002094
:1077B40080B584B000AF0E4B01221A7007F0B8FEFA
:1077C400F860FB68BB60BB68002B02D0B8681CF093
:1077D40023FE1CF0E9F8F860FB687B607B68002BF3
:1077E40002D078681CF018FE00BF1037BD4680BD7B
:1077F400E034002080B500AF044B19690323002254
:1078040003481DF069FD0346184680BDF836002084
:107814001037002080B586B000AF78600023FB7578
:107824007B681B78013B072B56D801A252F823F042
:10783400D578020055780200C7780200DD7802008E
:1078440083780200DD780200DD780200A17802006E
:10785400264B1B7883F00103DBB2002B05D0FFF726
:10786400C9FF234B5B68984738E0214B1B68002B0A
:1078740034D01F4B1B689847FFF79AFF2EE01C4B30
:107884005B69102219461B481DF0BDFD38613B6938
:10789400002B25D038691CF0BFFD21E07B68DA6835
:1078A4007B689B68194610460EF064FFF860FB681D
:1078B400002B02D0F8681CF0AFFD0C4B01221A70AB
:1078C4000FE00B4BDB687A68D2681046984708E0F3
:1078D400074B9B68984704E000BF02E000BF00E04C
:1078E40000BF00BF1837BD4680BD00BFA4380020CC
:1078F400F836002010370020B0B58CB002AF7860A5
:107904002F4A07F1080307CA03C31A800233120C73
:107914001A702C4A7B6814461D460FCD0FC495E897
:10792400030084E80300274B5B69002B01D1072384
:1079340041E0254925481DF0C1FC78627B6A002B93
:1079440001D07B6A37E007F10802214B009313460C
:107954001D4A1E491F481DF020FC38623B6A002B5B
:1079640001D03B6A27E01C481FF0C8FA03461946B9
:1079740018481DF07BFCF861FB69002B01D0FB6902
:1079840019E0164800F03AFFB861BB69002B01D03A
:10799400BB6910E0114800F073FF034619460D4817
:1079A4001DF064FC78617B69002B01D07B6902E0E7
:1079B400FFF720FF034618462837BD46B0BD00BF79
:1079C40048160500F836002084380020443800208A
:1079D4001978020010370020E4340020A836002073
:1079E40080B483B000AF78600B46FB70FB7806333D
:1079F400DAB27B685A7000BF0C37BD465DF8047B71
:107A0400704780B483B000AF78607B6893F84030EF
:107A1400DBB2002B0DD07B6893F84030DBB2042B33
:107A240007D07B6893F84030DBB2052B01D00123EB
:107A340000E0002303F00103DBB218460C37BD4617
:107A44005DF8047B704780B483B000AF78607B68D6
:107A5400043B18460C37BD465DF8047B704780B57F
:107A640082B000AF78607B689B6F002B09D07B6885
:107A74007C33184609F056FD0346002B01D0012340
:107A840000E0002303F00103DBB218460837BD46CB
:107A940080BD80B586B000AF786039607B68203BDC
:107AA4007B617B695B681B79002B04D07B695B6815
:107AB4001B79FF2B1AD17B699B6F002B16D07B6936
:107AC4005B681A687B69C3F890207B693A68C3F8DD
:107AD40094207B697C33184609F0ECFC0346002BA8
:107AE40004D07B463B613869FFF7CAFD7B695B685C
:107AF4001B79002B0ED17B695B681846FFF7A3FF47
:107B0400F8607B6900225A607B695833F96818462B
:107B140005F08DFB00BF1837BD4680BD80B584B02D
:107B240000AF78607B681B79002B28D00023FB739F
:107B340020E0154808F058FD03467A68D278B3FB74
:107B4400F2F102FB01F29B1ABB73BA7BFB7B9A42F4
:107B54000DD0FB7B7A68D35C7B73FB7BBA7B796843
:107B6400895C7A68D154BB7B7A68797BD154FB7B7E
:107B74000133FB737B68DB78FA7B9A42D9D300BF6D
:107B84001037BD4680BD00BFA838002080B584B042
:107B940000AF786039600C4808F026FD03463A6867
:107BA400B3FBF2F2396801FB02F29B1AFB6008F0A6
:107BB4009FFB0246FB6813441946786808F002FAF2
:107BC40000BF1037BD4680BDA838002080B584B002
:107BD40000AF786039607B681B78DBB2062B04D079
:107BE4007B46FB60F868FFF74BFD0B4808F0FCFC94
:107BF40003460A4AA2FB0312520B42F2107101FB24
:107C040002F29B1ABB603A68BB681A447B68DA606C
:107C140000BF1037BD4680BDA83800205917B7D122
:107C240080B584B000AF786039603B681B79002B65
:107C340004D17B46FB60F868FFF722FD3B681B79A3
:107C4400FF2B05D03B681B79013BDAB23B681A7104
:107C540000BF1037BD4680BD80B584B000AF7860EA
:107C64007B685B68002B04D17B46FB60F868FFF7F8
:107C740007FD7B685B681B79FF2B09D17B68583350
:107C8400184605F0ACFA0346002B01D0012300E0AE
:107C94000023FB72FB7A03F00103FB727B685B68D1
:107CA4001B79002B0CBF01230023BB72FB7A002B32
:107CB40002D1BB7A002B01D0012300E0002303F0A2
:107CC4000103DBB218461037BD4680BD90B585B0C0
:107CD40000AF78602BE07B685B68002B0FD07B687B
:107CE40003F158047B685B681846FFF7ACFE034653
:107CF4001946204605F09BFA7B6800225A607B688F
:107D0400583307F10C021146184605F011FA0346E0
:107D1400002B0AD1FB681A1D7B685A607B685B687C
:107D240003F108027B681A6201E000230AE07B6821
:107D34005B68002BCFD07868FFF78EFF0346002BDB
:107D4400C9D1012318461437BD4690BD80B584B00F
:107D540000AF78607B685B68002B04D17B46FB60D6
:107D6400F868FFF78DFC7B6870331846FFF7D6FE82
:107D74007B685B6819467868FFF752FF7B680833B5
:107D8400184617F009FD0346002B04D07B46BB6060
:107D9400B868FFF775FC00BF1037BD4680BD80B5DD
:107DA40084B000AF786039603B68BB60BB681B7807
:107DB400002B25D0BB6893F83C30002B05D1B86864
:107DC400FFF74DFE0346002B02D00123FB730AE0AC
:107DD400B868FFF77BFF0346FB73FB7B002B02D0E5
:107DE400B868FFF7B3FFFB7B002B0CD0BB6803F133
:107DF4004002BB68DB6E19461046FFF7E7FE02E05F
:107E0400BB680022DA6400BF1037BD4680BD80B570
:107E140084B000AF78607B681B7823F00103DBB289
:107E2400002B0BD07B681B7823F00103DBB2022B01
:107E340004D07B46FB60F868FFF722FC7B681B7864
:107E440023F00103DBB2022B06D17B689B7963F03C
:107E54003F03DAB27B689A7100BF1037BD4680BD1C
:107E640080B584B000AF78607B68184600F026FACD
:107E74007B6844F620629A600023FB730AE0FB7B74
:107E8400FA7B0C49895C7A6813440A461A73FB7BB3
:107E94000133FB73FB7B022B02D8FB7B022BEED955
:107EA4007B68FA7BDA737B6800221A7400BF103790
:107EB400BD4680BD5416050080B483B000AF786021
:107EC4007B68094A5A627B682522DA837B6803222D
:107ED40083F820207B6800221A7700BF0C37BD4648
:107EE4005DF8047B704700BFD6BE898E80B582B032
:107EF40000AF786039607B6893F86430C3F346035D
:107F0400DBB203F00103D9B23A68137861F3861344
:107F140013703B68D81C7B6865330622194629F028
:107F2400ADF900BF0837BD4680BD80B586B000AF4F
:107F340078607B687B617B69002B04D17B463B6165
:107F44003869FFF79DFB7B699B6F002B04D17B464F
:107F5400FB60F868FFF794FB7B699B6F7A69D2F842
:107F640090107A69D2F894207869984700BF18373E
:107F7400BD4680BD80B500AF024808F00BFB00BFD2
:107F840080BD00BFA838002080B586B000AFF8607F
:107F9400B9607A603B60FB68002B02D07B68002BE1
:107FA40004D17B467B617869FFF76AFB3B680A2B47
:107FB40004D87B463B613869FFF762FBFB685833A2
:107FC4003A6892B27968184604F03BFFFB68643360
:107FD4001846FFF745FFFB6808331846FFF76CFFA8
:107FE400FB6803F17002FB685A63FB6893F8732023
:107FF400FB6883F83820FB68104A1A63FB68002288
:108004001A62FB68BA689A67FB680D4A9A64FB684F
:10801400FA681A65FB6800221A70FB6800225A602D
:10802400BB68002B06D0FB687C33FA680549184608
:1080340009F012FA00BF1837BD4680BD977A0200D6
:10804400A37D02002F7F020080B582B000AF78606C
:108054007B681B7883F00103DBB2002B17D07B68AD
:1080640001221A707B685B68002B07D17B68583348
:10807400184605F097F80346002B08D07B6803F1F7
:1080840040027B68DB6E19461046FFF77FFD00BF98
:108094000837BD4680BD80B588B000AF78603960D0
:1080A4007B68002B04D17B46FB61F869FFF7E8FA93
:1080B4003B681F2B04D97B46BB61B869FFF7E0FA24
:1080C4007B6803F158003B689BB211339AB207F105
:1080D4000803194604F08EFF78617B69002B1BD1DD
:1080E400BB6804333B613B6908333A68D2B211463A
:1080F4001846FFF775FC3A69137A022161F303030A
:1081040013723B69083319467868FFF7EFFE3B6941
:1081140000221A603B6908E07B69042B04D07B468B
:10812400FB60F868FFF7ACFA002318462037BD4619
:1081340080BD80B586B000AF786039603B68002BA5
:1081440002D07B68002B04D17B467B617869FFF702
:1081540097FA3B681B79002B04D17B463B61386955
:10816400FFF78EFA3868FFF76EFCF8603A68137A06
:108174006FF3051313723A68137A6FF3C71313720C
:108184003B6800229A727B6803F15800FB681B88E5
:108194001A46F96804F07AFF7B681B78002B11D02B
:1081A4007868FFF72EFC034683F00103DBB2002B53
:1081B40008D07B6803F140027B68DB6E19461046E9
:1081C400FFF7E4FC00BF1837BD4680BD80B584B01E
:1081D40000AF786039603B68002B02D07B68002BCD
:1081E40004D17B46FB60F868FFF74AFA3868FFF76A
:1081F4002AFCB8607B685833B968184605F017F84C
:1082040000BF1037BD4680BD80B586B000AF786032
:1082140039607B68002B04D17B467B617869FFF76A
:108224002FFA3B68132B04D87B463B613869FFF770
:1082340027FA3B68B3F5205F04D97B46FB60F868F6
:10824400FFF71EFA3B684FF47A7202FB03F27B6875
:10825400DA667868FFF7D5FB0346002B0CD07B6801
:108264001B78002B08D07B6803F140027B68DB6E2F
:1082740019461046FFF78AFC00BF1837BD4680BD7B
:1082840080B584B000AF78607B685833184604F03A
:1082940065FEEFF31083FB6072B67B685B68002BAE
:1082A40003D07B685B6800221A71FB68002B00D145
:1082B40062B600BF1037BD4680BD000080B584B0F3
:1082C40000AF78604FF08053D3F8A03003F001037F
:1082D400FB60FB68002B02D0012B06D00CE07A680F
:1082E40013786FF3470313700BE07A681378012156
:1082F40061F34703137004E07B46BB60B868FFF783
:10830400BFF97B68013306220549184628F0B6FFF9
:108314007868FFF77CFD00BF1037BD4680BD00BF05
:10832400A400001080B582B000AF03463960FB7131
:10833400FB79044A52F823303868984700BF08375D
:10834400BD4680BD3018050080B582B000AF03463D
:108354003960FB71034B3868984703461846083761
:10836400BD4680BD9783020080B584B000AF7860BD
:1083740007F0BEFF02467B685B6A1344FB607B68C0
:108384000C33F968184607F01DFE00BF1037BD46D0
:1083940080BD80B485B000AF78607B68FB60FB680B
:1083A4009B7B032B0CBF01230023DBB2184614373D
:1083B400BD465DF8047B704780B584B000AF78603B
:1083C4007B68FB60FB681B681846FFF7CDFFFB6802
:1083D4001B689B6C9B68FA6812683C32104698478D
:1083E40000BF1037BD4680BD80B584B000AF786053
:1083F4007B68FB60FB681B680C33184607F096FD2E
:10840400FB681B689B6CDB68FA6812683C320221CB
:108414001046984700BF1037BD4680BD80B584B074
:1084240000AF78607B68FB60FB681B681B8918469B
:108434000FF0D0F90346002B04D07B46BB60B8682C
:10844400FFF71EF900BF1037BD4680BD80B586B06A
:1084540000AF78607B687B617B691B6818897B69E6
:108464001A89002303210FF091F838613B69002B2E
:1084740004D17B46FB60F868FFF702F97B69596811
:108484007B691B891A46386928F0F8FE7B691B68EA
:108494001B89396918460FF0EDF80346002B04D008
:1084A4007B46BB60B868FFF7EBF87B691B6818462E
:1084B400FFF75AFF00BF1837BD4680BD80B584B0B2
:1084C40000AF78607B68FB60FB681B683C33BB6073
:1084D400FB681B681846FFF747FFBB68DB681B682F
:1084E400FA689168FA689289B868984700BF1037AB
:1084F400BD4680BD80B584B000AF78607B68FB600A
:10850400FB681B683C33BB60BB68DB685B68B868AE
:10851400984700BF1037BD4680BD90B58BB000AF03
:1085240078607B687B627B6A1B683B627B6A9A68C3
:108534003B6A5A6201F0FAFE034607F10C0418681C
:1085440059689A68DB680FC47B6ADB88BB83202187
:10855400002000F06BFA07F10C031222194641F6D1
:10856400270000F0AFF900F07BFA00BF2C37BD46BE
:1085740090BD80B582B000AF786000F089FA00BF8A
:108584000837BD4680BD80B586B000AF78603960DD
:108594003B687B610A233B733B68BB6001237B73AD
:1085A4007B6907F108020A2118460DF04BFE00BF53
:1085B4001837BD4680BD000080B588B000AF786034
:1085C40039603B68FB6107F108031022002118465B
:1085D40028F07EFEFB69BB607B681B78052B5CD8AA
:1085E40001A252F823F000BF158602003F86020064
:1085F40005860200578602006F8602008786020005
:10860400FB6907F10802022118460DF01BFE4AE03F
:108614007B689B683B617B689B89BB827B685B78DA
:108624009BB2BB817B681B79BB75FB6907F10802B0
:10863400082118460DF006FE35E07B685B789BB296
:10864400BB81FB6907F10802072118460DF0FAFD0A
:1086540029E07B685B789BB2BB81FB6907F1080268
:10866400032118460DF0EEFD1DE07B685B789BB29C
:10867400BB81FB6907F10802052118460DF0E2FDF4
:1086840011E07B685B789BB2BB81FB6907F1080250
:10869400042118460DF0D6FD05E07B46BB61B869A0
:1086A400FEF7EEFF00BF00BF2037BD4680BD00BF10
:1086B40080B584B000AF78607B68FB60FB681B68A2
:1086C4001846FB681B79FA6819460DF0BBFD00BF1C
:1086D4001037BD4680BD000080B500AF094B1B6854
:1086E40018460DF019FE0346002B06D0054B1B68F7
:1086F4002833184608F0DEFE02E00248FFF7D8FFF0
:1087040000BF80BDB838002080B588B000AFF860E5
:10871400B9601346FB8007F114030C2200211846AC
:1087240028F0D6FDFB683C3B7B61BB68BB61FB88E2
:10873400BB837B69184607F114031A4606210DF022
:1087440081FD002318462037BD4680BD80B582B028
:1087540000AF78600B46FB700C220021074828F01C
:10876400B7FD064B09221A717B683C3B034A136030
:10877400FFF7B2FF00BF0837BD4680BDB838002000
:1087840080B584B000AFF860B9603B601346FB80ED
:108794000C2200210B4828F09BFD0A4B00221A7181
:1087A400FB683C3B074A1360064AFB88D380054AB2
:1087B4003B689360FFF790FF002318461037BD46CF
:1087C40080BD00BFB838002080B582B000AF7860AB
:1087D4000C220021084828F07BFD074B01221A7166
:1087E4007B683C3B044A1360FFF776FF002318467E
:1087F4000837BD4680BD00BFB838002080B584B0BE
:1088040000AF78607B68002B01D10E2329E07B68E0
:10881400164918460DF0C4FC7B680C33182200215D
:10882400184628F055FD7B68114A5A617B687A68BE
:10883400DA617B6828330F4A0F49184608F00CFEAA
:1088440041F627033B8142F6DB23BB8142F6DC235E
:108854007B8107F108037A68084918460EF054FD35
:10886400002318461037BD4680BD00BF0C18050014
:108874008B850200B8380020B5860200BD85020051
:1088840080B483B000AF78607B68074A5A647B6821
:10889400022283F840207B683C3318460C37BD46DF
:1088A4005DF8047B704700BF5018050072DF704705
:1088B40000BF184673DF704700BF184674DF704767
:1088C40000BF184680B5A8B000AF03463960FB80EE
:1088D40013467B71102200214C4828F0F9FC4C4BC4
:1088E4001B781A4613465B019B1A4A4A1344474AAB
:1088F4001360474B1B781A4613465B019B1A464A82
:108904001344424A9360414B1F229A803F4B1F22DB
:108914009A813F4B1B780133DBB203F00103DAB2D7
:108924003B4B1A7007F154033C220021184628F0EF
:10893400CFFC062387F85730FB88A7F85030012373
:1089440087F852300123A7F8643007F15003BB665F
:10895400FB88A7F844307B799BB2A7F848303B6882
:10896400FB6407F14403FB67012387F8803007F1B8
:1089740008033C220021184628F0AAFC02233B727B
:10898400224B196807F15403244A18461AF047FC8D
:10899400C7F89800D7F89830002B03D0D7F8980080
:1089A4001BF03AFD194B996807F108031C4A184655
:1089B4001AF035FCC7F89400D7F89430002B03D094
:1089C400D7F894001BF028FD164A10491648FFF703
:1089D4006DFFC7F89C00D7F89C30082B06D1002205
:1089E4000A491148FFF762FFC7F89C00D7F89C308A
:1089F400C7F89030D7F89030002B03D0D7F8900008
:108A04001BF00AFD00BFA037BD4680BDC43800205E
:108A140052390020D438002014390020C8380020EE
:108A2400D03800203C3300203833002080B483B099
:108A340000AF786039607B689BB21A469200134499
:108A44005B009AB2054B9A81044A3B68936000BF6D
:108A54000C37BD465DF8047B704700BF3C330020F3
:108A640080B582B000AF094B1B7801211846FFF78F
:108A740021FF78607B68002B02D078681BF0CCFC67
:108A840008F01CFA00BF0837BD4680BD383300200B
:108A940080B582B000AF084B1B781846FFF70EFF75
:108AA40078607B68002B02D078681BF0B5FC00BFAF
:108AB4000837BD4680BD00BF3833002080B483B082
:108AC40000AF0346FB71FB79002B01D0082300E0C3
:108AD400042318460C37BD465DF8047B704700003C
:108AE40080B400AF034BD3F804351846BD465DF897
:108AF400047B704700B0004080B483B000AF0346ED
:108B0400FB71FB79022B0CBF01230023DBB2184657
:108B14000C37BD465DF8047B704780B483B000AF6A
:108B240078600B46FB707B68002B08D0FB78002B29
:108B340002D17B68083303E07B68303300E0002314
:108B440018460C37BD465DF8047B704780B483B08B
:108B540000AF78607B68064A9B1A9B10054A02FBAB
:108B640003F39BB218460C37BD465DF8047B70478F
:108B740054390020A737BDE980B582B000AF7860D2
:108B84007B6818460EF0A7FF7B6800229A6400BF3A
:108B94000837BD4680BD000080B483B000AF002319
:108BA4007B6000233B600FE00C4A3B685C2101FBC7
:108BB40003F3134444331B78002B02D07B68013346
:108BC4007B603B6801333B603B68002BECD07B68E7
:108BD40018460C37BD465DF8047B704754390020B5
:108BE40080B588B000AF786000233B7207F10803BA
:108BF400013308227968184628F040FB0923FB61F9
:108C0400FB69DAB207F10803194641F62800FFF7B9
:108C140059FE00BF2037BD4680BD80B590B000AF7F
:108C240078600B467B8007F12C030622002118464E
:108C340028F04EFB07F12C0306330821184607F0F1
:108C440003FD7B881B021AB27B881B0A9BB21BB2F2
:108C540013431BB29BB27B8707F11C0207F12C0361
:108C64001946786808F0FCFC01233B7207F10902FD
:108C740007F1240303CB1060516007F1110307F1DE
:108C840032021168526819605A601123FB63FB6B4E
:108C9400DAB207F10803194641F62800FFF712FE7D
:108CA40000BF4037BD4680BD80B500AF034807F024
:108CB4003DF9034B00221A7000BF80BDC03900206B
:108CC400BC39002080B586B000AFF8607A603B60A4
:108CD4000B46FB72FB68DB6C002B04D07B467B618C
:108CE4007869FEF7CDFCF868FFF730FF03461846B5
:108CF4007B689AB2F97A3B680EF048FC0246FB683E
:108D0400DA64FB68DB6C002B01D0002300E0042351
:108D140018461837BD4680BD80B584B000AF786072
:108D24007B68DB6C002B04D17B46FB60F868FEF7A4
:108D3400A7FC7868FFF70AFF03461A467B68DB6CDA
:108D4400194610460EF096FC0346002B0AD07868AC
:108D5400FFF7FCFE03461A467B68DB6C1946104697
:108D64000EF0F6FC7B680022DA6400BF1037BD46C3
:108D740080BD80B584B000AF78607B68DB6C002B6D
:108D840004D17B46FB60F868FEF77AFC7868FFF74D
:108D9400DDFE03461A467B68DB6C194610460EF06E
:108DA400D7FC7B680022DA6400BF1037BD4680BD63
:108DB40080B588B002AFF860B9607A60FB700023B8
:108DC40016220121F868FFF77DFF0346002B17D117
:108DD400FB68DB6C97F82010FA7800930B467968EF
:108DE400B8680CF071FF0346002B04D07B467B610E
:108DF4007869FEF745FCF868FFF78EFF002300E072
:108E0400042318461837BD4680BD80B582B000AF34
:108E140078607B6803F148017B6845331A4600207B
:108E240015F000FE00BF0837BD4680BDB0B584B064
:108E340002AF786008E07B6803F148017B68453342
:108E44001A46002015F0EEFD7B689B6C002B22D0A7
:108E54007B689A6C7B6893F8453019461046FFF797
:108E64005CFE044605F0D2FC054605F00BFD034606
:108E74001A467B6893F84530002B14BF0123002366
:108E8400DBB2009313462A4621467868FFF790FF29
:108E94000346002BCFD000BF0837BD46B0BD00004D
:108EA40080B588B002AFF860B96011461A460B4627
:108EB400FB711346BB7100237B6100233B611FE000
:108EC400134A3B695C2101FB03F3134444331B78CD
:108ED400002B12D03B695C2202FB03F30C4A981866
:108EE400FA79BB7900931346BA68F968FFF760FF13
:108EF4000346002B01D004237B613B6901333B61B2
:108F04003B69002BDCD07B6918461837BD4680BD11
:108F14005439002080B588B002AFF860B9607A6037
:108F24003B60012300933B68BA687968F86809F0EC
:108F3400C3F978617B69002B12D1FB68DB7A002BC3
:108F440009D0FB689B7A002B05D1FB685B88002B5A
:108F540001D1012300E0002303F00103DBB200E0B0
:108F6400002318461837BD4680BD80B582B000AFD7
:108F740078600120FFF7A2FD02467B6813440933A1
:108F840018460837BD4680BD80B582B000AF786012
:108F940039603868FFF7E9FF024600230221786848
:108FA400FFF790FE0346002B06D17B68DB6C184666
:108FB40009F0E9FA034600E0002318460837BD46E5
:108FC40080BD80B58CB000AFF860B9607A6007F1FD
:108FD400140300221A605A609A60DA601A615A61B6
:108FE4000123FB7705F01EFC03467B62BB68BB6272
:108FF40007F12E0207F1140308331146184615F041
:109004000DFE07F114030C33184605F02BFB034641
:10901400002B04D0F868FFF7ACFE112313E0FB68C3
:10902400DB6C07F114021146184609F010FAFB68CC
:10903400DA6C07F114000123796809F0A5F9F868DE
:10904400FFF76AFE002318463037BD4680BD80B561
:1090540084B000AF786039600423FB60F9687868F5
:10906400FFF792FFB860BB68002B1ED0BB680322D9
:109074001A707B6893F84220BB685A707B68B3F817
:1090840040301B021AB27B68B3F840301B0A9BB213
:109094001BB213431BB29AB2BB685A80FA68396890
:1090A4007868FFF78EFF034600E004231846103764
:1090B400BD4680BD80B584B000AFF860B9607A6009
:1090C4007B68012B08D1FA68BB681B7819461046E7
:1090D4000EF019FD034600E0092318461037BD467B
:1090E40080BD80B596B000AFF860B9607A607B68E7
:1090F400402B33D87B6803F00103002B2ED17B680F
:109104005B083B6500237B651BE0BB687A6D33F825
:1091140012309BB21B021AB2BB68796D33F811305E
:109124009BB21B0A9BB21BB213431BB29AB27B6D58
:109134005B0007F158010B4423F8482C7B6D013385
:109144007B657A6D3B6D9A42DFD3FB6807F11001B2
:109154003A6D18460EF0F6FC002300E00923184689
:109164005837BD4680BD80B596B000AFF860B96091
:109174007A607B68402B33D87B6803F00103002BB3
:109184002ED17B685B083B6500237B651BE0BB68D5
:109194007A6D33F812309BB21B021AB2BB68796D38
:1091A40033F811309BB21B0A9BB21BB213431BB2A0
:1091B4009AB27B6D5B0007F158010B4423F8482CED
:1091C4007B6D01337B657A6D3B6D9A42DFD3FB681F
:1091D40007F110013A6D18460EF004FD002300E07B
:1091E400092318465837BD4680BD000090B5A1B08C
:1091F40002AFF860B9607A607B68422B67D87B68FD
:10920400002B64D007F1100307F154007A68B968A1
:10921400FFF780FE0346002B3CD007F110031846ED
:1092240009F0B1F9386707F154037968184609F071
:1092340080F90346013BFB663B6F1B78012B0CD086
:10924400022B13D0002B1AD13B6F0133FA6E19464F
:10925400F868FFF72FFF786713E03B6F0133FA6E6E
:109264001946F868FFF73DFF78670AE03B6F013362
:10927400FA6E1946F868FFF776FF786701E0052370
:109284007B677B6F002B41D1BB6E1946F868FFF7F3
:10929400DEFE3BE0204B1B6803F00103002B35D0BE
:1092A4001E4B1B68032B31DD1D4B002B01D01D4CC5
:1092B40000E01D4CFFF714FC02461C4B00931346C0
:1092C4004FF403722146042009F098FD1EE0124B6E
:1092D4001B6803F00103002B19D0104B1B68012BF2
:1092E40015DD0F4B002B01D00E4C00E00E4CFFF7A8
:1092F400F7FB02467B6801930D4B0093134640F243
:1093040011222146022009F079FD00E000BF00BFD0
:109314007C37BD4690BD00BFA8330020AC3300208D
:10932400E0180500E118050070180500EC180500A8
:109334000019050090B58FB004AFF8607A603B6007
:109344000B46FB7207F1100300221A605A609A6000
:10935400DA601A615A6101233B7406F0C9FF0346BF
:109364007B61F868FFF7F2FB03463B83214B1B68E4
:1093740003F00103002B19D01F4B1B68032B15DDD1
:109384001E4B002B01D01E4C00E01E4CFFF7A8FB27
:109394000146FB7A3A68029201931B4B00930B46F9
:1093A40040F222222146042009F028FDFB7A012BF9
:1093B4000CD0022B13D0002B00D016E007F11003C1
:1093C4001A463968786800F011FF0EE03B68DBB29A
:1093D40007F11002194678680CF09AFC05E03A6827
:1093E4007968F868FFF702FF00BF00BF2C37BD465D
:1093F40090BD00BFA8330020AC330020E018050066
:10940400E1180500701805003019050090B587B003
:1094140002AF786039607B685B781A465C2303FB93
:1094240002F3A44A1344FB607B681B78052B00F20B
:10943400158101A252F823F05F950200AB9502005A
:109444001796020055940200BB9402001F95020077
:10945400994B1B6803F00103002B15D0974B1B6835
:10946400032B11DD964B002B01D0964C00E0964C5B
:10947400FFF736FB0246954B009313464FF40F72E9
:109484002146042009F0BAFCFFF70EFCFB68012218
:1094940083F84420F868FFF76FFBF868FFF7B5FC22
:1094A400FFF77AFB0346002B40F0F88001210020EF
:1094B40000F0B0F9F2E0804B1B6803F00103002BCD
:1094C40015D07E4B1B68032B11DD7D4B002B01D087
:1094D4007C4C00E07C4CFFF703FB02467C4B009382
:1094E40013464FF413722146042009F087FCFB68ED
:1094F400002283F84420774B1B78002B00F0D080A7
:10950400754B1B7883F00103DBB2002B00F0C8809D
:109514000121002000F07EF9C2E0674B1B6803F0D4
:109524000103002B15D0654B1B68032B11DD644B25
:10953400002B01D0634C00E0634CFFF7D1FA0246E4
:10954400664B0093134640F256222146042009F04C
:1095540055FCF868FFF76AFCA7E0574B1B6803F05B
:109564000103002B15D0554B1B68032B11DD544B05
:10957400002B01D0534C00E0534CFFF7B1FA0246E4
:10958400574B0093134640F25B222146042009F016
:1095940035FC7B6819797B689A687B689B89F868D5
:1095A400FFF7C8FE81E0444B1B6803F00103002B66
:1095B40015D0424B1B68032B11DD414B002B01D00E
:1095C400404C00E0404CFFF78BFA0246454B0093B9
:1095D400134640F263222146042009F00FFC7B6805
:1095E4001B7A002B5ED17B685B68B3F1FF3F0CBF35
:1095F40001230023DBB2FB72FB6803F1500406F085
:1096040077FE02467B685B68F97A20460BF03CFCE7
:1096140048E0294B1B6803F00103002B15D0274BAE
:109624001B68032B11DD264B002B01D0254C00E0D9
:10963400254CFFF755FA02462B4B0093134640F294
:1096440072222146042009F0D9FB224B1B78002BFF
:109654002AD00121002000F0DDF825E0164B1B681C
:1096640003F00103002B20D0144B1B68012B1CDDDD
:10967400134B002B01D0134C00E0134CFFF730FACE
:1096840002467B681B780193184B0093134640F203
:109694007B222146022009F0B1FB06E000BF04E072
:1096A40000BF02E000BF00E000BF00BF1437BD46AA
:1096B40090BD00BF54390020A8330020AC330020F3
:1096C400E0180500E11805007018050050190500A0
:1096D4005C190500B8390020BC3900206C1905005C
:1096E400781905007C1905008C1905009C190500E2
:1096F40080B582B000AF78607B681B78042B23D1DF
:109704007B68DB681B78012B1ED07B681B691946BC
:109714000F4809F0B1F9034683F00103DBB2002BD3
:1097240012D07B6898687B6859697B681A7E7B686D
:109734005B7EFFF7B5FB0346002B05D17B681B69F5
:109744001946034809F0E2F900BF0837BD4680BD59
:10975400203A002080B582B000AFFB1C1A460D49A8
:10976400002015F05FF90C4BDB69002B0ED1FB1CBC
:109774001A460849002015F055F9074BDB69002B00
:1097840004D17B467B607868FDF77AFF00BF083719
:10979400BD4680BDD8390020BC39002080B582B0D8
:1097A40000AF144BDA69134B93F820301946104676
:1097B400FFF7B3F978600F4B5B78002B05D17B681A
:1097C40010331846FFF70CFA10E00A4B5B78012BB4
:1097D4000CD13A46BB1C1146184615F01FFA7B689B
:1097E40018337A8811461846FFF717FA00BF08376E
:1097F400BD4680BDBC39002080B582B000AF786022
:109804003960FFF7A7FFFFF7C9FF00BF0837BD4660
:1098140080BD000080B584B000AF03460A46FB71EA
:109824001346BB71FB79002B01D1002301E04EF6F6
:109834006023FB60154AFB795370144B1B78002B93
:1098440001D0FFF725F9BB79002B0CD0FFF782FF7D
:1098540006F04EFD02460D4B1B69134419460C4895
:1098640006F0B0FB02E00A4806F060FB4FF44871D2
:10987400F868FFF7DBF8FFF791FFFFF7F1F8034B08
:1098840001221A7000BF1037BD4680BDBC390020CC
:10989400C039002080B586B000AF786039607B683D
:1098A400002B02D03B68002B04D17B467B61786996
:1098B400FDF7E6FE7B68503B3B613B6993F844301F
:1098C400002B1AD03A693B689B685B88194610469E
:1098D4000EF0D8F90346002B0FD03B685A683B685A
:1098E400DB6800213869FFF7EDF9F860FB68002BAD
:1098F40001D1002302E0022300E0012318461837B7
:10990400BD4680BD80B588B000AFF860B9607A60AC
:10991400FB68002B02D0BB68002B04D17B46FB61A3
:10992400F869FDF7ADFEFB68503BBB61BB69DB6CBE
:10993400002B04D17B467B617869FDF7A1FEBB69EE
:10994400DB6C7A68B968184627F098FCB869FFF7A9
:10995400E3F900BF2037BD4680BD80B584B000AFB9
:1099640078607B68002B04D17B46FB60F868FDF7C8
:1099740087FE7B68503BBB60B868FFF7FAF900BF0D
:109984001037BD4680BD000080B584B000AF264BC3
:1099940000221A70254A3B1D92E803001860043324
:1099A40019803B1D0022224918460DF0ADFC214BC5
:1099B400214A1A601F4805F017FE204B08229A60BE
:1099C4001E4B1F4A1A601D4B04225A601B4809F0A3
:1099D40037F81C4B1C4ADA601A4B1C4A1A61194BA3
:1099E40000221A700023FB6017E0FB685C2202FB74
:1099F40003F35033164A13440222164918460BF057
:109A040067FA134AFB685C2101FB03F313444433F4
:109A140000221A70FB680133FB60FB68002BE4D062
:109A240000BF1037BD4680BDB8390020BC19050001
:109A340011940200B0390020F5960200203A00206B
:109A4400E0390020BC390020FD9702008096980080
:109A54005439002064180500F0B587B000AF034600
:109A64003960FB803B68002B04D17B467B617869BD
:109A7400FDF706FE0023FB6007F10B0207F10C0360
:109A84001946386814F0CEFFFB68002B04D17B46DE
:109A94003B613869FDF7F4FDFB68FA7A1146184614
:109AA400FFF73BF8044604F0B1FE054604F0EAFE75
:109AB40003461E46FB7A1846FFF71EF80346324655
:109AC40029462046FFF7ECF900BF1C37BD46F0BD20
:109AD40080B584B000AF786039603B681B78012B97
:109AE40021D13B681B891A465C2303FB02F3104A0D
:109AF4001344FB60FB6893F84430002B13D0FB68DD
:109B040093F84230002B07D1F8687B6808330122B0
:109B140019460EF017F806E0F8687B68083301224E
:109B240019460EF05FF800BF1037BD4680BD00BF78
:109B34005439002080B500AF094B1B78002B01D0AD
:109B440008230AE0074B0022DA61054B01221A7050
:109B540001210020FFF75EFE0023184680BD00BFF0
:109B6400B8390020BC39002080B582B000AF7860DD
:109B74000B46FB700F4A7B68D3610E4AFB7882F870
:109B840020300D4B01221A70FFF706F80346002B14
:109B94000BD17B68002B0CBF01230023DBB21946D9
:109BA4000120FFF737FE002300E011231846083791
:109BB400BD4680BDBC390020B839002080B483B0D4
:109BC40000AF78600F4B1B78002B11D00E4B1B7825
:109BD400002B0DD00C4B5B78012B09D17B68002B3B
:109BE40004D0094BDA697B689A4201D1012300E071
:109BF400002303F00103DBB218460C37BD465DF8C1
:109C0400047B7047B8390020BC39002080B500AF10
:109C14000020FFF7D3FF0346002B05D001210020CD
:109C2400FFF7F8FD002300E00823184680BD00007C
:109C340080B582B000AF1A4B1B78002B2BD0184B89
:109C440000221A70174B1B78002B03D0FEF720FF5D
:109C5400FFF72AF800237B601AE0134A7B685C2133
:109C640001FB03F3134444331B78002B0DD07B68B2
:109C74009BB218460DF0AEFD0B4A7B685C2101FBDC
:109C840003F31344443300221A707B6801337B606E
:109C94007B68002BE1D000BF0837BD4680BD00BF04
:109CA400B8390020BC3900205439002080B400AFFA
:109CB400034B1B781846BD465DF8047B704700BF14
:109CC400B839002080B483B000AF78607B68093372
:109CD40018460C37BD465DF8047B704780B483B0EA
:109CE40000AF0346FB71FB79002B01D0082300E091
:109CF400042318460C37BD465DF8047B704700000A
:109D040080B400AF034BD3F804351846BD465DF864
:109D1400047B704700B0004080B582B000AF78602B
:109D240039607B68DB7A1846FFF7D8FF02463B6848
:109D34001344093318460837BD4680BD90B589B031
:109D440000AF78607B681B7B3B727B681A687B681A
:109D54009B6819461046FFF7DFFF0346FB607B68EC
:109D64001B683B617B685B687B6107F1180207F144
:109D74000803114618460AF09DFF0346002B27D01E
:109D84007B681B7B012B13D07B681C6804F04AFDA5
:109D9400034623617B681B680C33184604F062FC9D
:109DA400F861FB69002B03D00BF03AF8FB6910E073
:109DB400BA697B681B681946104608F048FBBB6902
:109DC4001846FFF77FFF02467B681A61002300E014
:109DD400042318462437BD4690BD000090B58DB0CD
:109DE40002AFF860B9601346FB71FB689B7A013BD4
:109DF400DAB2FB689A72FB687B61FB79FB614FF016
:109E0400FF33BB61012387F8203007F114031846A0
:109E1400FFF794FF0346002B0BD17B6AFA79B968EC
:109E2400184627F02BFA07F11403184600F0A2F99C
:109E34001AE0124B1B6803F00203002B14D0104BE2
:109E44001B68012B10DD0F4B002B01D00E4C00E0E2
:109E54000E4CFFF755FF02460D4B0093134691221B
:109E64002146022008F0CAFFFB689B7A0133DAB26C
:109E7400FB689A7200BF2C37BD4690BDA833002002
:109E8400AC330020341A0500351A0500C419050046
:109E9400401A050080B584B000AF78607B68002B61
:109EA40004D17B46FB60F868FDF7EAFB7B681B780E
:109EB400002B0BD07B68DB68B3F1807F06D27B6814
:109EC4009B7A5BB2002B01DB012300E0002303F04B
:109ED4000103DBB218461037BD4680BD80B584B09F
:109EE40000AF78601C4B1B7883F00103DBB2002BBE
:109EF40001D000232CE07B689B7A012B01D800233E
:109F040026E07B681B78012B0CD17B685B8807F10A
:109F140008021146184614F04DFE0346002B01D0EA
:109F2400002315E00D4B1B68002B10D00B4B1B6856
:109F34007A6810897A6851887A68927A98470346D1
:109F440083F00103DBB2002B01D0002300E00123E6
:109F540018461037BD4680BD3C3A0020403A0020E8
:109F640080B582B000AF78607B68002B03D10A4BC8
:109F740000221A6003E07B685B68074A1360074BA2
:109F840001221A7004F038FB04F0A4FA0BF00CFE62
:109F940000BF0837BD4680BD403A00203C3A00204F
:109FA40080B582B000AF03463960FB803B68002B6C
:109FB40001D10E2354E0FB88A3F5C873042B4BD8BE
:109FC40001A252F823F000BFEF9F020017A0020085
:109FD400E19F020041A0020033A002003B685B68DD
:109FE400194601200CF00AFB39E01F4B1B781A4676
:109FF4003B685B689A4231D03B685B68002B14BFB6
:10A0040001230023DAB2184B1A7001200BF08CFAEA
:10A0140024E03B685B68072B01D9072320E03B68F9
:10A024005B68DBB2194601200CF0A6FA17E03B6826
:10A034005B68194600200CF0E1FA10E03B685B68AD
:10A04400072B01D907230BE03B685B68DBB2194699
:10A0540000200CF091FA02E0052301E000BF002388
:10A0640018460837BD4680BD3C3A002080B582B012
:10A0740000AF03463960FB803B68002B01D10E23FF
:10A0840048E0FB88A3F5C873042B40D801A252F81A
:10A0940023F000BFC1A00200D3A00200ADA00200C3
:10A0A400FDA00200E9A0020001200CF0C7FA02465C
:10A0B4003B685A603B6804221A602AE0174B1B78FD
:10A0C4001A463B685A603B6804221A6021E001206A
:10A0D4000CF078FA03461A463B685A603B6804223F
:10A0E4001A6016E000200CF0A9FA02463B685A6098
:10A0F4003B6804221A600CE000200CF063FA03466B
:10A104001A463B685A603B6804221A6001E0052342
:10A1140000E0002318460837BD4680BD3C3A0020C5
:10A1240080B586B000AF78607B68002B04D17B4695
:10A134007B617869FDF7A4FA7B681B68002B04D166
:10A144007B463B613869FDF79BFA7B681B685B695A
:10A15400002B04D17B46FB60F868FDF791FA7B681D
:10A1640000221A737868FFF7E9FD0346184618378A
:10A17400BD4680BD80B588B000AF78607B68002B99
:10A1840004D17B46FB61F869FDF77AFA7B681B69A9
:10A19400002B04D17B46BB61B869FDF771FA7B687B
:10A1A4001B68002B04D17B467B617869FDF768FA54
:10A1B4007B681B685B69002B04D17B463B61386973
:10A1C400FDF75EFA7B681B69184608F0C4F9F8606D
:10A1D4007B6818687B6899680023FA6808F0D4F8EB
:10A1E4000AF0E6FD00BF2037BD4680BD80B598B0BB
:10A1F40002AFF860B9607A60FB68002B01D10E23CE
:10A2040065E0FB683B6500237B65386D08F0C7F9A2
:10A2140003461A463B6DD31A1A4607F12803396DD3
:10A22400184627F02BF807F1280207F11000002345
:10A23400009313463A6DB96808F03EF878657B6D73
:10A24400002B43D107F110031846FFF723FE034602
:10A25400002B3BD07B6A002B04D17B46FB64F86C5B
:10A26400FDF70EFA07F1100379681846FFF730FC82
:10A2740007F128031846FFF725FDB86407F110031A
:10A28400B968184608F055F9034687F8473097F837
:10A29400471007F110027B68B86C02F0C5F97865C5
:10A2A40007F110031846FFF719FE0346002B07D0E9
:10A2B40097F8472007F11003B96C1846FFF78EFD95
:10A2C4003B8BFA691146184600F0D2F87B6D1846AC
:10A2D4005837BD4680BD000090B482B000AF7860AE
:10A2E400064A7B681446186859689A68DB680FC484
:10A2F40000BF0837BD4690BC704700BF443A0020F9
:10A3040080B500AF08220549054826F0B7FF0822AA
:10A314000449054826F0B2FF00BF80BD600000106C
:10A32400443A0020A40000104C3A002080B400AF4E
:10A33400024B1846BD465DF8047B7047443A002042
:10A3440046DF704700BF1846B0B590B000AFF86064
:10A35400B9607A60FB6807F11004186859689A6854
:10A36400DB680FC4BB6807F12004186859689A6851
:10A37400DB680FC407F110031846FFF7E1FF7B68A1
:10A384001D4607F130040FCC28606960AA60EB60B9
:10A3940000BF4037BD46B0BD80B483B000AF0023DA
:10A3A4007B6013E00F4A7B68DB00134400225A8071
:10A3B4000C4A7B68DB00134400225A60094A7B681C
:10A3C400002102F833107B6801337B607B681F2B0C
:10A3D400E8D9054B00221A6000BF0C37BD465DF872
:10A3E400047B7047543A0020543B002080B485B06D
:10A3F40000AF03463960FB801B4B1B68FB600023E6
:10A40400BB6026E0FB685A1EFA60002B01D11F23B3
:10A41400FB60164AFB6812F8333083F00103DBB2A9
:10A42400002B01D0002318E0104AFB68DB00134422
:10A434005B88FA889A4209D10C4AFB68DB00134412
:10A444005A683B689A4201D1012306E0BB68013394
:10A45400BB60BB681F2BD5D9002318461437BD46F3
:10A464005DF8047B704700BF543B0020543A002041
:10A4740080B483B000AF03463960FB80124B1B6885
:10A48400124ADB001344FA885A800F4B1B680F4AA8
:10A49400DB0013443A685A600B4B1B680B4A0121DA
:10A4A40002F83310084B1B680133074A1360064B4C
:10A4B4001B68202B02D1044B00221A6000BF0C370A
:10A4C400BD465DF8047B7047543B0020543A00209D
:10A4D40080B400AF034BD3F804351846BD465DF88D
:10A4E400047B704700B0004080B483B000AF786054
:10A4F4007B68043318460C37BD465DF8047B70470F
:10A5040080B483B000AF78607B68013318460C37A1
:10A51400BD465DF8047B704780B483B000AF7860BB
:10A524007B681B789B011BB203F4FE531AB27B6851
:10A534005B789B08DBB21BB213431BB29BB2184679
:10A544000C37BD465DF8047B704780B483B000AF20
:10A5540078600B467B807B681B7823F07F03DAB23C
:10A564007B681A707B681B785AB27B889B099BB204
:10A574005BB203F07F035BB213435BB2DAB27B6876
:10A584001A707B685B7803F00303DAB27B685A7055
:10A594007B685B785AB27B889B005BB213435BB2E7
:10A5A400DAB27B685A7000BF0C37BD465DF8047B95
:10A5B400704780B483B000AF78607B689B781A06DC
:10A5C4007B68DB781B041A437B681B791B021343EB
:10A5D4007A685279134318460C37BD465DF8047BFC
:10A5E400704780B483B000AF786039603B681B0E5D
:10A5F400DAB27B689A703B681B0CDAB27B68DA705B
:10A604003B681B0ADAB27B681A713B68DAB27B6872
:10A614005A7100BF0C37BD465DF8047B704780B4A7
:10A6240083B000AF78607B681B7803F04003002B95
:10A63400CCBF01230023DBB218460C37BD465DF8BE
:10A64400047B704780B483B000AF78600B46FB7026
:10A654007B681B7823F04003DAB27B681A707B684E
:10A664001B785AB2FB789B015BB203F040035BB2E8
:10A6740013435BB2DAB27B681A7000BF0C37BD4675
:10A684005DF8047B704780B483B000AF78607B686A
:10A694001B7803F03F03DBB218460C37BD465DF868
:10A6A400047B704780B483B000AF78600B46FB70C6
:10A6B4007B681B7823F03F03DAB27B681A707B68EF
:10A6C4001B785AB297F9033003F03F035BB213438C
:10A6D4005BB2DAB27B681A7000BF0C37BD465DF816
:10A6E400047B704780B483B000AF78607B681B78CC
:10A6F40003F08003002BCCBF01230023DBB21846F8
:10A704000C37BD465DF8047B704780B483B000AF5E
:10A7140078600B46FB707B681B7803F07F03DAB22A
:10A724007B681A707B681B785AB2FB78DB015BB2DA
:10A7340013435BB2DAB27B681A7000BF0C37BD46B4
:10A744005DF8047B704780B483B000AF78607B68A9
:10A754001B7803F07F03DBB218460C37BD465DF867
:10A76400047B704780B483B000AF78600B46FB7005
:10A774007B681B7823F07F03DAB27B681A707B68EE
:10A784001B785AB297F9033003F07F035BB213438B
:10A794005BB2DAB27B681A7000BF0C37BD465DF855
:10A7A400047B704780B483B000AF78607B685B78CB
:10A7B40003F08003002BCCBF01230023DBB2184637
:10A7C4000C37BD465DF8047B704780B483B000AF9E
:10A7D40078600B46FB707B685B7803F07F03DAB22A
:10A7E4007B685A707B685B785AB2FB78DB015BB29A
:10A7F40013435BB2DAB27B685A7000BF0C37BD46B4
:10A804005DF8047B704780B483B000AF78607B68E8
:10A814005B789B011BB203F4FE531AB27B689B78EE
:10A824009B08DBB21BB213431BB29BB218460C3716
:10A83400BD465DF8047B704780B483B000AF786098
:10A844000B467B807B685B7823F07F03DAB27B68FE
:10A854005A707B685B785AB27B889B099BB25BB267
:10A8640003F07F035BB213435BB2DAB27B685A70C6
:10A874007B689B7803F00303DAB27B689A707B6889
:10A884009B785AB27B889B005BB213435BB2DAB20B
:10A894007B689A7000BF0C37BD465DF8047B704737
:10A8A40080B483B000AF78607B689B78DB005BB2D8
:10A8B40003F018035AB27B68DB785B09DBB25BB246
:10A8C40013435BB2DBB218460C37BD465DF8047B1C
:10A8D400704780B483B000AF78600B46FB707B6830
:10A8E4009B7823F00303DAB27B689A707B689B78C9
:10A8F4005AB2FB78DB08DBB25BB203F003035BB252
:10A9040013435BB2DAB27B689A707B68DB7803F03E
:10A914001F03DAB27B68DA707B68DB785AB2FB78A3
:10A924005B015BB213435BB2DAB27B68DA7000BFDF
:10A934000C37BD465DF8047B704780B483B000AF2C
:10A9440078607B68DB7803F01F03DBB218460C37B2
:10A95400BD465DF8047B704780B483B000AF786077
:10A964000B46FB707B68DB7823F01F03DAB27B684D
:10A97400DA707B68DB785AB297F9033003F01F036F
:10A984005BB213435BB2DAB27B68DA7000BF0C3798
:10A99400BD465DF8047B704780B584B000AF786035
:10A9A4007B681B7883F00103DBB2002B04D07B4669
:10A9B400FB60F868FCF764FE7B68DB7901330122F5
:10A9C40002FA03F3013B18461037BD4680BD80B43C
:10A9D40083B000AF78600B467B807B68C3F30C02C6
:10A9E4007B889A4209D27A887B68C3F30C03D21A13
:10A9F4007B681344A3F5005306E07A887B68C3F3AD
:10AA04000C03D21A7B68134418460C37BD465DF814
:10AA1400047B704780B58EB000AF0346FB800B46C5
:10AA24007B7113463B7107F10C032C22002118465D
:10AA340026F04EFC0E233B73FB883B827B7903F0AC
:10AA44000103DAB2BB7C62F30003BB743B79FB7491
:10AA540007F10C03184602F053F800BF3837BD461F
:10AA640080BD80B58EB000AF78600B46FB7007F1F7
:10AA74000C032C220021184626F02AFC0F233B73DA
:10AA84007B683B61FB783B7507F10C03184602F0C9
:10AA940037F800BF3837BD4680BD000080B483B0AE
:10AAA40000AF0346FB71074B5A68064B9B68F97964
:10AAB40001FB03F3134418460C37BD465DF8047BD1
:10AAC400704700BF583B002080B483B000AF0346FA
:10AAD400FB71074BDA68064B1B69F97901FB03F339
:10AAE400134418460C37BD465DF8047B704700BF1D
:10AAF400583B002080B586B000AF78607B681B7837
:10AB040083F00103DBB2002B04D07B463B61386940
:10AB1400FCF7B6FD7B689B8AFB817B68DB69DBB253
:10AB240003F001037B737B689A697B689B881946F1
:10AB34001046FFF74CFFB86000237B611FE0144A06
:10AB44007B69DB0013445A68BB689A4214D1104AEB
:10AB54007B69DB0013445B88FA899A420CD10C4A66
:10AB64007B69DB0013445B787A7B9A4204D17B696E
:10AB7400DB00074A134406E07B6901337B617B6990
:10AB8400072BDCD9002318461837BD4680BD00BF0B
:10AB94002C3D002080B584B000AF78600B46FB707C
:10ABA4007B681B7883F00103DBB2002B04D07B4667
:10ABB400FB60F868FCF764FD144B1B685A1C1349CE
:10ABC4000A6003F00703DB00114A1344BB607B688F
:10ABD4009A8ABB685A807B689A697B689B88194605
:10ABE4001046FFF7F4FE0246BB685A607B68DB69D7
:10ABF400DBB203F00103DAB2BB685A70BB68FA78BF
:10AC04001A7000BF1037BD4680BD00BF283D00202C
:10AC14002C3D002080B586B000AFF860B9603B6081
:10AC24001346FB71FB79022B07D0FB79012B04D06F
:10AC34007B467B617869FCF723FDFB689B6E002BE8
:10AC440004D07B463B613869FCF71AFD334B1B6823
:10AC5400386898470246FB689A66FB689B6E002B2F
:10AC640001D1002355E0FB682C22B968184626F070
:10AC740005FBFB6800229A643B689AB2FB68A3F860
:10AC84004620BB689A69BB689B8819461046FFF743
:10AC94009EFE0246FB689A61FB79012B1ED1204B74
:10ACA4001A7DFB6883F84D20FB68002283F84E2050
:10ACB400FB68002283F84F20FB68002283F84C20B5
:10ACC400BB689A6AFB681A65FB68164A9A62FB6855
:10ACD400154A5A63FB68FA68DA6312E0FB68114AA2
:10ACE4009A62FB68002283F86420FB680F4A5A6565
:10ACF400FB68FA68DA65FB680D4A5A63FB68FA6810
:10AD0400DA63012003F038FDFB68FA7983F8442004
:10AD1400012318461837BD4680BD00BF203D0020E2
:10AD2400583B00205EE6655E9BC302004DC30200F3
:10AD340007C4020080B582B000AF7860114B1B6875
:10AD44007A68926E104698477B6800229A667B6800
:10AD54002C33184605F0EAF87B6893F84430022B4C
:10AD640004D17B684C33184605F0E0F87B68002278
:10AD740083F84420002003F0FFFC00BF0837BD46E1
:10AD840080BD00BF243D002090B589B004AF786039
:10AD94000B46FB707B68002B04D17B46FB60F86894
:10ADA400FCF76EFC7B6800211846FFF7F3FE7B6816
:10ADB4001B6DFA7811461846FFF753FE7868FFF7C3
:10ADC400B9FF134B1B6803F00403002B1CD0114B79
:10ADD4001B68032B18DD104B002B01D00F4C00E037
:10ADE4000F4CFFF775FB01467B6893F844301A4615
:10ADF400FB78029301920B4B00930B464FF4D372F2
:10AE04002146042007F0FAFF00BF1437BD4690BD69
:10AE1400A8330020AC330020961A0500971A0500C9
:10AE2400701A0500A41A050080B582B000AF7860DE
:10AE34007B6801211846FFF7ADFE7868FFF77AFFBB
:10AE440000BF0837BD4680BD80B58EB000AF7860C6
:10AE54007B6893F84430012B04D07B467B63786B8A
:10AE6400FCF70EFC01233B727B681B6DFB6007F152
:10AE74000803184601F044FE7868FFF75BFF00BF43
:10AE84003837BD4680BD000090B585B000AF78600E
:10AE94007B6893F84430022B04D07B46FB60F8684F
:10AEA400FCF7EEFB0C4B5B7D1846FFF7F7FDB86033
:10AEB4007B6803F14C0405F01BFA0246BB6813449B
:10AEC4001946204605F07EF87B68012283F8642049
:10AED40000BF1437BD4690BD583B002090B585B0E7
:10AEE40000AF78607B6893F84430022B04D07B4633
:10AEF400FB60F868FCF7C4FB094B1B68BB607B680C
:10AF040003F12C0405F0F4F90246BB681344194616
:10AF1400204605F057F800BF1437BD4690BD00BF6A
:10AF2400583B002090B585B000AF78607B6893F8FB
:10AF34004430012B04D07B46FB60F868FCF7A0FB8F
:10AF44007B681B7B012B08D17B689B7D1846FFF730
:10AF5400BBFD02467B689A6305E00020FFF7B4FD61
:10AF640002467B689A637B6803F12C0405F0C0F900
:10AF740002467B689B6B13441946204605F022F871
:10AF840000BF1437BD4690BD80B582B000AF786075
:10AF940039607B68DB7D002B06D07B689B78194683
:10AFA4003868FFF7DFFB0BE07B689B78194638684D
:10AFB400FFF748FB7B68DB7819463868FFF772FBBC
:10AFC4007B681B7819463868FFF79FFB7B681B7802
:10AFD400002B1CD07B685B78082B0CBF012300235B
:10AFE400DBB219463868FFF7F0FB7B689B8819468B
:10AFF4003868FFF721FC7B689B7919463868FFF7AE
:10B0040068FC7B68DB7919463868FFF7A5FC00BF4C
:10B014000837BD4680BD80B586B000AFF860B96022
:10B024007A603B60FB681B78002B01D0042300E0AE
:10B0340001237B617A697B681A44BB689A60FB6868
:10B0440003F10C02BB681A60FB689A6ABB685A6019
:10B05400B868FFF765F838613B69002B05D1BB6818
:10B064001A697B691A443B681A603B6918461837A9
:10B07400BD4680BD80B58EB000AF786039600023D6
:10B084007B637B681B7B012B3DD107F12C030622DC
:10B094000021184626F01CF97B689A8807F12C03D6
:10B0A40011461846FFF751FA07F12C033968184680
:10B0B400FFF797FA06237B6101233B777B689B8A22
:10B0C400FB8300233B6200233B7307F12C033B61AA
:10B0D4007B681B6A7B6200233B767B68DB897B830E
:10B0E4007B689B7D002B03D1002387F8283003E085
:10B0F400074B5B7D87F8283007F10C030549184698
:10B1040001F04CFB78637B6B18463837BD4680BD35
:10B11400583B00205EE6655E80B485B000AF786081
:10B124000B467B800023FB602AE01A4AFB686C21F3
:10B1340001FB03F3134444331B78012B1DD1154A3F
:10B14400FB686C2101FB03F3134414331A887B68F6
:10B15400DB899A4211D10F4AFB686C2101FB03F38E
:10B16400134404331B887A889A4206D1FB686C2204
:10B1740002FB03F3074A134406E0FB680133FB6058
:10B18400FB68032BD1DD002318461437BD465DF858
:10B19400047B7047703B002080B485B000AF7860BA
:10B1A4000023FB601FE0154AFB686C2101FB03F3DD
:10B1B400134444331B78022B12D1104AFB686C21D0
:10B1C40001FB03F3134414331A887B689B8A9A4265
:10B1D40006D1FB686C2202FB03F3084A134406E021
:10B1E400FB680133FB60FB68032BDCDD002318469E
:10B1F4001437BD465DF8047B704700BF703B0020E8
:10B2040090B587B002AF78607B68DB7901337A68E8
:10B21400D27D002A01D0082200E00C2202FB03F3B5
:10B22400BB607B68DB7D002B02D04FF4807201E0B1
:10B234004FF4C072BB689A421FD2294B1B6803F0BB
:10B244000403002B17D0274B1B68002B13DD264B60
:10B25400002B01D0254C00E0254CFFF739F90246BC
:10B26400BB680193234B0093134640F25E222146B0
:10B27400012007F0C3FD00232DE00023FB6024E040
:10B284001D4AFB686C2101FB03F3134444331B7810
:10B29400002B17D1FB686C2202FB03F3164A9818A3
:10B2A400BB6802227968FFF7B5FC034683F001030B
:10B2B400DBB2002B0DD1FB686C2202FB03F30E4AB8
:10B2C400134408E0FB680133FB60FB68032BD7DD04
:10B2D40000E000BF002318461437BD4690BD00BFF0
:10B2E400A8330020AC330020961A0500971A0500F5
:10B2F400701A0500C81A0500703B002090B58BB089
:10B3040002AFF860B9607A603B607868FFF744FF89
:10B31400F861FB69002B12D07B689A88FB699B88D3
:10B324009A42C0F0DE807B689A88FB699B889A42C7
:10B3340005D90521F869FFF727FD0023FB6178682B
:10B34400FFF7D8FBB861BB69002B0DD0BB691B7834
:10B35400002B00F0C8807868FFF71EFB03461946EF
:10B364007868FFF787FEBEE0FB69002B0FD1786891
:10B37400FFF746FFF861FB69002B08D100217868CC
:10B38400FFF778FE02210020FFF76BFBAEE0594B7C
:10B394001B6803F00403002B18D0574B1B68032BC6
:10B3A40014DD564B002B01D0554C00E0554CFFF7F3
:10B3B4008FF802467B689B790193534B00931346A5
:10B3C40040F2A2222146042007F018FDF869FFF795
:10B3D40085FDFB691B7B012B07D1FB6993F8643066
:10B3E400002B02D1F869FFF74FFDFB699A6C7B686B
:10B3F4009B79194601238B401340002B75D1FB69BF
:10B404009A6C7B689B79194601238B401A43FB692C
:10B414009A647B689A79FB69DB799A4214D1FB6957
:10B42400DB799AB27B68DB7D002B01D0082300E036
:10B434000C2312FB03F39AB2BB689BB213449AB277
:10B44400FB69A3F846200EE07B68DB7D002B01D06E
:10B45400082200E00C22BB689A4204D00421F86957
:10B46400FFF792FC42E0FB699B6E7A689279114681
:10B474007A68D27D002A01D0082200E00C2202FB67
:10B4840001F21344BA68F968184625F0F7FEFB691F
:10B494009C6CFB691846FFF77FFA03469C4225D152
:10B4A400FB69022283F86420FA69FB699B6C1946E4
:10B4B4001046FFF7DFFD7861FB69986EFB69B3F80E
:10B4C40046301946FA693B6800F022FF7B69002B7D
:10B4D4000CD1FB69002283F86420F869FFF7A4FC0F
:10B4E40004E000BF02E000BF00E000BF2437BD4617
:10B4F40090BD00BFA8330020AC330020961A05008D
:10B50400971A0500701A0500DC1A050090B587B07B
:10B5140002AF786039600023FB737B68002B28D06E
:10B524007B689A1C3B681A6007F10F031946386858
:10B5340006F0C2F8FB7B002B1BD0104B1B6803F0FA
:10B544000403002B15D00E4B1B68032B11DD0D4B90
:10B55400002B01D00C4C00E00C4CFEF7B9FF024666
:10B564000B4B0093134640F2E6222146042007F0D9
:10B5740045FCFB7B18461437BD4690BDA83300201C
:10B58400AC330020961A0500971A0500701A0500BE
:10B59400EC1A050080B596B000AFF860B9607A6027
:10B5A4003B60FB68002B04D17B467B65786DFCF720
:10B5B40067F8BB68002B04D17B463B65386DFCF70C
:10B5C4005FF83B68002B04D17B46FB64F86CFCF706
:10B5D40057F83B685B6A02337B623B6803F10C00FB
:10B5E4003B689B78002B01D0012100E002213B68DD
:10B5F4005B78082B0CBF01230023DBB21A4607F14A
:10B60400140306F067F807F11403BB62FB68FB62DE
:10B614007B689BB23B86BB68FB63FB6B3A8E13442F
:10B624003B643B685B7887F844303B681B7B022BA8
:10B634000ED13B681B69002B04D17B46BB64B86CFC
:10B64400FCF71EF83B681B697B6310233B8701E012
:10B6540000233B8707F12403184606F022F800BFB5
:10B664005837BD4680BD80B483B000AF0346FB713C
:10B67400FB79002B01D1042300E0082318460C3782
:10B68400BD465DF8047B704780B584B000AF786038
:10B6940039603B68DB695A787B68DA703B68DB6940
:10B6A4001B78002B14BF01230023DBB283F00103BA
:10B6B400DBB203F00103DAB27B689A703B68DA69A3
:10B6C4007B685A623B681B7B022B07D13A4B9B7DFC
:10B6D4001846FFF7C8FF03461A4606E03B681B7B83
:10B6E4001846FFF7C0FF03461A467B685A703B684A
:10B6F400DB7A83F00103DBB2002B0ED03B689B8A1C
:10B704001A467B685B78C3F10F039A4205DC7B68B9
:10B714005B78082B01D107234AE03B689B8A1A46D1
:10B724007B685B78C3F10F039A4203DC3B68DB7AE6
:10B73400002B01D0012300E0002303F00103DAB25F
:10B744007B681A707B681B78002B16D03B689B8A39
:10B754001A467B685B7813440B33184A82FB031246
:10B764005210DB17D31AFB60FB68DBB2013BDAB281
:10B774007B68DA717B6800229A717B680022DA7533
:10B784007B683A680C3392E8030083E803003B6863
:10B794009A697B681A623B681A897B689A823B685B
:10B7A4009A7A7B689A753B681A6A7B689A62002366
:10B7B40018461037BD4680BD583B0020ABAAAA2AC4
:10B7C40080B487B000AFF860B9607A60BB681A785B
:10B7D400FB689A70FB6800225A62BB689B680B2B5B
:10B7E40003D8BB681B7B002B01D0012300E000239E
:10B7F40003F00103DAB2FB681A70FB6800225A7086
:10B80400FB681B78002B0DD0BB689B680733DB08F3
:10B814007B617B69DBB2013BDAB2FB68DA71FB68FE
:10B8240000229A71FB680122DA75FB68BA680C334E
:10B83400103292E8030083E80300BB68DA89FB68EE
:10B844009A82BB689A69FB681A62BB681A7FFB68B4
:10B854009A75FB687A689A6200BF1C37BD465DF82A
:10B86400047B704780B58CB000AFF860B9607A6033
:10B87400FB685B781A467B681A44FB68DB7D002B07
:10B8840001D00B2300E00F239A4201D909232BE0B6
:10B89400FB685B781A467B681A4407F1140307F1C6
:10B8A4001801F868FFF7B7FBF862FB6A002B1AD19E
:10B8B400BB6A1946F868FFF767FBFB68DB7D002B62
:10B8C40006D07B697A68B968184625F0D7FC05E08C
:10B8D4007969FB687A68B868FFF75CFE07F11803BA
:10B8E4001846FEF747FCFB6A18463037BD4680BD54
:10B8F40080B58CB000AF786039607B68DB7D002B4D
:10B9040001D0082300E00C23FB62FB6A3A6802FBC7
:10B9140003F3BB627B68DB791A463B689A4206D123
:10B924007B68B3F846301A46BB6AD31AFB623B689D
:10B93400DAB27B689A71786807F1080307F10C01A1
:10B94400FA6AFFF768FB78627B6A002B54D13B6884
:10B95400002B13D17B6893F84F3083F00103DBB2E3
:10B96400002B0BD07B689B699BB2C3F30C039AB288
:10B974007B689A807B68012283F84F207B68DB7D9B
:10B9840083F00103DBB2002B22D07B6893F84E30A6
:10B9940083F00103DBB2002B1AD03B68002B04D0E8
:10B9A4007B463B62386AFBF76BFE7B68986E7B686C
:10B9B400996E7B68B3F846301A467B685B78D31A75
:10B9C4001A467B68FFF7E6FD7B68012283F84E2068
:10B9D4007B68FA6911461846FFF7D6FAB8687B689F
:10B9E4009A6EBB6A1344FA6A194625F047FC07F1BC
:10B9F4000C031846FEF7BEFB7B6A002B0CBF012329
:10BA04000023DBB218463037BD4680BD80B584B014
:10BA140000AF78600023FB607B6893F84C30FB72C6
:10BA24001CE07B689A6CFB7A012101FA03F3134052
:10BA3400002B10D1FB7A19467868FFF759FF0346AB
:10BA4400002B11D0FB680133FB60FB7A0133DAB2BF
:10BA54007B6883F84C20FB7A0133FB727B68DB79CB
:10BA6400FA7A9A42DDD900E000BFFB681846103725
:10BA7400BD4680BD2DE9F04393B004AFF860B960D2
:10BA84007A60FB685B781A467B681344BB62FB6888
:10BA9400DB7D002B02D04FF4807201E04FF4C072C2
:10BAA400BB6A9A4201D20923B6E000237B63EFF319
:10BAB40010837B6272B600233B6314E0594A3B6BEC
:10BAC4006C2101FB03F3134444331B78002B07D18F
